:020000040800F2
:100000000050002025080008D9070008DF07000875
:10001000E5070008EB070008F107000800000000F2
:100020000000000000000000000000003142000855
:10003000F7070008000000001144000859440008B8
:100040006D0800086D0800086D0800086D080008BC
:100050006D0800086D0800086D0800086D080008AC
:100060006D0800086D0800086D0800086D0800089C
:100070006D0800086D0800086D0800086D0800088C
:100080006D0800086D0800086D0800086D0800087C
:100090006D0800086D0800086D0800086D0800086C
:1000A0006D0800086D0800086D0800086D0800085C
:1000B0006D0800086D080008050800086D080008B4
:1000C0006D0800086D0800086D0800086D0800083C
:1000D0006D0800086D0800086D0800086D0800082C
:1000E0006D0800086D0800086D0800080000000099
:1000F0000000000000000000000000000000000000
:0C01000000000000000000005FF808F1A3
:1001100010B5054C237833B9044B13B10448AFF341
:1001200000800123237010BD740000200000000037
:10013000204B000808B5034B1BB103490348AFF33C
:10014000008008BD0000000078000020204B00085F
:10015000034613F8012B002AFBD1181A0138704707
:1001600080B485B000AFF860B9607A60FB68064A79
:100170001A60BB68054A1A607B6880221A6000BF5B
:100180001437BD4680BC7047900000204401002019
:10019000B0B598B000AF00F06BFB00F05BF800F07A
:1001A00019F900F09DF800F0EBF80023BB6500237F
:1001B000FB6507F158030121184602F0ECF80346ED
:1001C0001D4A13601D4B07F13C041D460FCD0FC4A3
:1001D00095E8070084E8070007F13C030021184672
:1001E00002F079F80346164A1360164B07F1200413
:1001F0001D460FCD0FC495E8070084E8070007F1FE
:1002000020030021184602F066F803460E4A1360E8
:100210000E4B3C1D1D460FCD0FC495E8070084E82A
:1002200007003B1D0021184602F055F80346084A16
:10023000136002F049F8FEE7E0030020584B000885
:10024000D4030020744B0008D8030020904B000812
:10025000DC03002080B590B000AF07F1180328221E
:100260000021184604F096FB3B1D00221A605A60DC
:100270009A60DA601A610123BB614FF48033FB613D
:1002800000233B620123BB6202237B634FF4803374
:10029000BB634FF4C013FB6307F11803184600F06B
:1002A00095FD0346002B01D000F096F90F237B60EB
:1002B0000223BB600023FB604FF480633B6100239B
:1002C0007B613B1D0221184601F002F80346002B1A
:1002D00001D000F081F900BF4037BD4680BD00006D
:1002E00080B586B000AF07F1080300221A605A609B
:1002F0009A60DA603B4600221A605A601E4B1F4A21
:100300001A601D4B3F225A601B4B00229A601A4B09
:100310004FF6FF72DA60184B00221A61164B00226A
:100320005A61154B00229A61134801F08FF9034678
:10033000002B01D000F050F94FF48053BB6007F15F
:10034000080319460C4801F013FB0346002B01D0AB
:1003500000F042F900233B6000237B603B461946D6
:10036000054801F0F5FC0346002B01D000F034F9FC
:1003700000BF1837BD4680BD44030020002C01405B
:1003800080B500AF114B124A1A60104B4FF4E132A6
:100390005A600E4B00229A600C4B0022DA600B4B25
:1003A00000221A61094B0C225A61084B00229A6103
:1003B000064B0022DA61054801F03AFD0346002BA6
:1003C00001D000F009F900BF80BD00BF8C03002000
:1003D0000038014080B586B000AF07F10803002265
:1003E0001A605A609A60DA60134B9B69124A43F0B4
:1003F00020039361104B9B6903F020037B607B68B3
:100400000D4B9B690C4A43F0040393610A4B9B69B3
:1004100003F004033B603B680423BB600023FB60E4
:1004200000233B6107F108031946044800F032FB42
:1004300000BF1837BD4680BD0010024000080140D3
:1004400080B584B000AF78600E4BFB60F868FFF7B2
:100450007FFE03469AB26423F9680B4801F038FD29
:100460000A4BBB60B868FFF773FE03469AB2642379
:10047000B968054801F02CFD4FF4FA7001F077FFE0
:10048000E2E700BFAC4B00088C030020C44B00081F
:1004900080B586B000AF78601A4B7B617869FFF752
:1004A00057FE03469AB264237969174801F010FD9C
:1004B000164B1B684FF0FF31184601F09FFF144B9D
:1004C0003B613869FFF744FE03469AB264233969F9
:1004D0000D4801F0FDFC0F4BFB60F868FFF738FE9C
:1004E00003469AB26423F968074801F0F1FC074B10
:1004F0001B68184601F0D0FF4FF4FA7001F037FF87
:10050000CAE700BFDC4B00088C030020E00300209A
:10051000084C00082C4C000880B586B000AF78600D
:100520001E4B7B617869FFF713FE03469AB2642382
:1005300079691B4801F0CCFC1A4B1B684FF0FF3166
:10054000184601F05BFF184B3B613869FFF700FE6E
:1005500003469AB264233969114801F0B9FC00BF1F
:100560000421124800F01AFC0346002BF8D1104B6E
:10057000FB60F868FFF7ECFD03469AB26423F96864
:10058000074801F0A5FC074B1B68184601F084FFE3
:100590004FF4FA7001F0EBFEC2E700BF584C0008C0
:1005A0008C030020E0030020844C00080008014078
:1005B000A44C000880B582B000AF78607B681B68EF
:1005C000044A934201D100F069F900BF0837BD46E3
:1005D00080BD00BF0008004080B400AF72B600BF0D
:1005E000FEE7000080B584B000AF184B9B69174A46
:1005F00043F001039361154B9B6903F00103BB605A
:10060000BB68124BDB69114A43F08053D3610F4B37
:10061000DB6903F080537B607B6800220F216FF061
:10062000010000F00CFA0A4B5B68FB60FB6823F0EA
:10063000E063FB60FB6843F00073FB60044AFB6807
:10064000536000BF1037BD4680BD00BF00100240A0
:100650000000014080B485B000AF78607B681B6803
:10066000094A93420BD1094B9B69084A43F4006342
:100670009361064B9B6903F40063FB60FB6800BF5A
:100680001437BD4680BC7047002C0140001002406A
:1006900080B588B000AF786007F1100300221A60BF
:1006A0005A609A60DA607B681B681C4A934231D1B9
:1006B0001B4B9B691A4A43F480439361184B9B6917
:1006C00003F48043FB60FB68154B9B69144A43F0BD
:1006D00004039361124B9B6903F00403BB60BB6886
:1006E0004FF400733B6102237B610323FB6107F13D
:1006F000100319460B4800F0CDF94FF480633B61BD
:1007000000237B610023BB6107F1100319460548F4
:1007100000F0C0F900BF2037BD4680BD0038014061
:10072000001002400008014080B58CB000AF786036
:100730000023FB620023BB62002279681E2000F0C8
:100740007EF91E2000F097F91F4BDB691E4A43F02B
:100750000403D3611C4BDB6903F00403FB60FB68FB
:1007600007F1100207F114031146184600F020FFAC
:1007700000F0F6FE03465B00FB62FB6A134AA2FB35
:1007800003239B0C013BBB62114B124A1A60104BB6
:1007900040F2E732DA600E4ABB6A53600C4B00222B
:1007A0001A610B4B00229A60094800F04FFF034684
:1007B000002B04D1064800F099FF034600E0012316
:1007C00018463037BD4680BD0010024083DE1B4313
:1007D000E40300200008004080B400AFFEE780B4CE
:1007E00000AFFEE780B400AFFEE780B400AFFEE7E5
:1007F00080B400AFFEE780B400AF00BFBD4680BC50
:100800007047000080B500AF024800F0C1FF00BF94
:1008100080BD00BFE403002080B400AF00BFBD4630
:1008200080BC7047FFF7F8FF0B480C490C4A0023C7
:1008300002E0D458C4500433C4188C42F9D3094A96
:10084000094C002301E013600432A242FBD304F000
:100850006DF8FFF79DFC7047000000207400002039
:100860006C4D0008740000208C110020FEE7000091
:1008700080B500AF084B1B68074A43F010031360B4
:10088000032000F0D1F80F20FFF74EFFFFF7AAFE7C
:100890000023184680BD00BF0020024080B400AF96
:1008A000054B1B781A46054B1B681344034A13601B
:1008B00000BFBD4680BC7047080000202C0400200B
:1008C00080B400AF024B1B681846BD4680BC704721
:1008D0002C04002080B485B000AF78607B6803F002
:1008E0000703FB600C4BDB68BB60BA684FF6FF0385
:1008F0001340BB60FB681A02BB68134343F0BF633D
:1009000043F40033BB60044ABB68D36000BF1437B4
:10091000BD4680BC704700BF00ED00E080B400AF72
:10092000044BDB681B0A03F007031846BD4680BC76
:10093000704700BF00ED00E080B483B000AF034615
:10094000FB7197F90730002B0BDBFB7903F01F02DB
:10095000064997F907305B09012000FA02F241F8D5
:10096000232000BF0C37BD4680BC704700E100E08B
:1009700080B483B000AF03463960FB7197F907304C
:10098000002B0ADB3B68DAB20C4997F907301201F9
:10099000D2B20B4483F800230AE03B68DAB208497C
:1009A000FB7903F00F03043B1201D2B20B441A7619
:1009B00000BF0C37BD4680BC704700BF00E100E0BF
:1009C00000ED00E080B489B000AFF860B9607A60F3
:1009D000FB6803F00703FB61FB69C3F10703042B0A
:1009E00028BF0423BB61FB690433062B02D9FB69D2
:1009F000033B00E000237B614FF0FF32BB6902FA4A
:100A000003F3DA43BB681A407B699A404FF0FF3129
:100A10007B6901FA03F3D9437B680B401343184603
:100A20002437BD4680BC704780B582B000AF786087
:100A30007868FFF74FFF00BF0837BD4680BD80B51F
:100A400086B000AF0346B9607A60FB7300237B6118
:100A5000FFF764FF78617A68B9687869FFF7B2FFD9
:100A6000024697F90F3011461846FFF781FF00BF85
:100A70001837BD4680BD80B582B000AF0346FB711C
:100A800097F907301846FFF757FF00BF0837BD46F4
:100A900080BD000080B48BB000AF78603960002367
:100AA0007B6200233B6269E101227B6A02FA03F365
:100AB000FB613B681B68FA691340BB61BA69FB695B
:100AC0009A4240F058813B685B689A4A93425ED0F4
:100AD000984A934275D8984A934258D0964A93427E
:100AE0006FD8964A934252D0944A934269D8944A16
:100AF00093424CD0924A934263D8924A934246D052
:100B0000904A93425DD8122B2AD8122B59D801A2B1
:100B100052F823F08F0B0008690B00087B0B0008CC
:100B2000BD0B0008C30B0008C30B0008C30B000873
:100B3000C30B0008C30B0008C30B0008C30B00085D
:100B4000C30B0008C30B0008C30B0008C30B00084D
:100B5000C30B0008C30B0008710B0008850B0008CD
:100B6000794A934213D02CE03B68DB683B6229E072
:100B70003B68DB6804333B6224E03B68DB68083396
:100B80003B621FE03B68DB680C333B621AE03B686A
:100B90009B68002B02D104233B6213E03B689B68F7
:100BA000012B05D108233B627B68FA691A6109E0D1
:100BB00008233B627B68FA695A6103E000233B62C9
:100BC00000E000BFBB69FF2B01D87B6801E07B68B8
:100BD00004337B61BB69FF2B02D87B6A9B0002E078
:100BE0007B6A083B9B003B617B691A680F213B696C
:100BF00001FA03F3DB431A40396A3B6901FA03F354
:100C00001A437B691A603B685B6803F08053002BD2
:100C100000F0B1804D4B9B694C4A43F00103936156
:100C20004A4B9B6903F00103BB60BB68484A7B6A7F
:100C30009B08023352F82330FB607B6A03F0030306
:100C40009B000F2202FA03F3DB43FA681340FB60B8
:100C50007B68404A934213D07B683F4A93420DD051
:100C60007B683E4A934207D07B683D4A934201D15C
:100C7000032306E0042304E0022302E0012300E052
:100C800000237A6A02F0030292009340FA68134349
:100C9000FB602F497B6A9B080233FA6841F82320E6
:100CA0003B685B6803F48013002B06D02D4B9A68D9
:100CB0002C49BB6913438B6006E02A4B9A68BB69D9
:100CC000DB43284913408B603B685B6803F40013E7
:100CD000002B06D0234BDA682249BB691343CB6053
:100CE00006E0204BDA68BB69DB431E491340CB604A
:100CF0003B685B6803F40033002B06D0194B5A683D
:100D00001849BB6913434B6006E0164B5A68BB6930
:100D1000DB43144913404B603B685B6803F480334A
:100D2000002B21D00F4B1A680E49BB6913430B608F
:100D300021E000BF0000321000003110000022103E
:100D400000002110000012100000111000100240DD
:100D50000000014000080140000C0140001001406B
:100D600000140140000401400B4B1A68BB69DB43CF
:100D7000094913400B607B6A01337B623B681A6848
:100D80007B6A22FA03F3002B7FF48EAE00BF00BF14
:100D90002C37BD4680BC70470004014080B485B04C
:100DA00000AF78600B467B807B689A687B88134035
:100DB000002B02D00123FB7301E00023FB73FB7BBC
:100DC00018461437BD4680BC7047000080B586B019
:100DD00000AF78607B68002B01D1012372E27B6851
:100DE0001B6803F00103002B00F08780924B5B68C7
:100DF00003F00C03042B0CD08F4B5B6803F00C0347
:100E0000082B12D18C4B5B6803F48033B3F5803F21
:100E10000BD1894B1B6803F40033002B6CD07B682B
:100E20005B68002B68D101234CE27B685B68B3F5FB
:100E3000803F06D1804B1B687F4A43F480331360A8
:100E40002EE07B685B68002B0CD17B4B1B687A4AD9
:100E500023F480331360784B1B68774A23F4802394
:100E600013601DE07B685B68B3F5A02F0CD1724B5B
:100E70001B68714A43F4802313606F4B1B686E4AF2
:100E800043F4803313600BE06B4B1B686A4A23F416
:100E900080331360684B1B68674A23F48023136018
:100EA0007B685B68002B13D0FFF70AFD386108E010
:100EB000FFF706FD02463B69D31A642B01D90323D1
:100EC00000E25D4B1B6803F40033002BF0D014E00C
:100ED000FFF7F6FC386108E0FFF7F2FC02463B69D9
:100EE000D31A642B01D90323ECE1534B1B6803F4A1
:100EF0000033002BF0D100E000BF7B681B6803F0DB
:100F00000203002B63D04C4B5B6803F00C03002BF7
:100F10000BD0494B5B6803F00C03082B1CD1464BEC
:100F20005B6803F48033002B16D1434B1B6803F03E
:100F30000203002B05D07B681B69012B01D0012324
:100F4000C0E13D4B1B6823F0F8027B685B69DB0066
:100F5000394913430B603AE07B681B69002B20D0B2
:100F6000364B01221A60FFF7ABFC386108E0FFF74F
:100F7000A7FC02463B69D31A022B01D90323A1E146
:100F80002D4B1B6803F00203002BF0D02A4B1B688B
:100F900023F0F8027B685B69DB00274913430B6091
:100FA00015E0264B00221A60FFF78AFC386108E042
:100FB000FFF786FC02463B69D31A022B01D90323B3
:100FC00080E11D4B1B6803F00203002BF0D17B680E
:100FD0001B6803F00803002B3AD07B689B69002B49
:100FE00019D0174B01221A60FFF76AFC386108E03C
:100FF000FFF766FC02463B69D31A022B01D9032393
:1010000060E10D4B5B6A03F00203002BF0D001207E
:1010100000F0FEFA1CE00A4B00221A60FFF750FCB9
:1010200038610FE0FFF74CFC02463B69D31A022BF4
:1010300008D9032346E100BF0010024000004242ED
:1010400080044242924B5B6A03F00203002BE9D119
:101050007B681B6803F00403002B00F0A6800023CC
:10106000FB758B4BDB6903F08053002B0DD1884B54
:10107000DB69874A43F08053D361854BDB6903F01A
:101080008053BB60BB680123FB75824B1B6803F474
:101090008073002B18D17F4B1B687E4A43F480730A
:1010A0001360FFF70DFC386108E0FFF709FC02460A
:1010B0003B69D31A642B01D9032303E1754B1B68E9
:1010C00003F48073002BF0D07B68DB68012B06D122
:1010D0006F4B1B6A6E4A43F0010313622DE07B687D
:1010E000DB68002B0CD16A4B1B6A694A23F00103B1
:1010F0001362674B1B6A664A23F0040313621CE009
:101100007B68DB68052B0CD1614B1B6A604A43F09E
:10111000040313625E4B1B6A5D4A43F001031362D2
:101120000BE05B4B1B6A5A4A23F001031362584BD6
:101130001B6A574A23F0040313627B68DB68002BA9
:1011400015D0FFF7BDFB38610AE0FFF7B9FB024697
:101150003B69D31A41F28832934201D90323B1E0AB
:101160004B4B1B6A03F00203002BEED014E0FFF799
:10117000A7FB38610AE0FFF7A3FB02463B69D31ADD
:1011800041F28832934201D903239BE0404B1B6A12
:1011900003F00203002BEED1FB7D012B05D13C4B6C
:1011A000DB693B4A23F08053D3617B68DB69002B0A
:1011B00000F08780364B5B6803F00C03082B61D08E
:1011C0007B68DB69022B46D1334B00221A60FFF7A4
:1011D00077FB386108E0FFF773FB02463B69D31ADF
:1011E000022B01D903236DE0294B1B6803F0007328
:1011F000002BF0D17B681B6AB3F5803F08D1244BEC
:101200005B6823F400327B689B68214913434B6081
:101210001F4B5B6823F474127B68196A7B685B6AF6
:101220000B431B4913434B601B4B01221A60FFF712
:1012300047FB386108E0FFF743FB02463B69D31ADE
:10124000022B01D903233DE0114B1B6803F000730F
:10125000002BF0D035E0104B00221A60FFF730FB76
:10126000386108E0FFF72CFB02463B69D31A022BDA
:1012700001D9032326E0064B1B6803F00073002B03
:10128000F0D11EE07B68DB69012B07D1012319E057
:101290000010024000700040600042420B4B5B684F
:1012A000FB60FB6803F480327B681B6A9A4206D1BC
:1012B000FB6803F470127B685B6A9A4201D00123D9
:1012C00000E0002318461837BD4680BD00100240DC
:1012D00080B584B000AF786039607B68002B01D1A5
:1012E0000123D0E06A4B1B6803F007033A689A4277
:1012F00010D9674B1B6823F0070265493B6813430D
:101300000B60634B1B6803F007033A689A4201D0F5
:101310000123B8E07B681B6803F00203002B20D098
:101320007B681B6803F00403002B05D0594B5B68F6
:10133000584A43F4E06353607B681B6803F008037A
:10134000002B05D0534B5B68524A43F46053536003
:10135000504B5B6823F0F0027B689B684D49134358
:101360004B607B681B6803F00103002B40D07B6857
:101370005B68012B07D1474B1B6803F40033002B3C
:1013800015D101237FE07B685B68022B07D1414BBD
:101390001B6803F00073002B09D1012373E03D4B60
:1013A0001B6803F00203002B01D101236BE0394BD2
:1013B0005B6823F003027B685B68364913434B602C
:1013C000FFF77EFAF8600AE0FFF77AFA0246FB6858
:1013D000D31A41F28832934201D9032353E02D4BB3
:1013E0005B6803F00C027B685B689B009A42EBD160
:1013F000274B1B6803F007033A689A4210D2244B2C
:101400001B6823F0070222493B6813430B60204B03
:101410001B6803F007033A689A4201D0012332E0C7
:101420007B681B6803F00403002B08D0194B5B6832
:1014300023F4E0627B68DB68164913434B607B68EA
:101440001B6803F00803002B09D0124B5B6823F4E0
:1014500060527B681B69DB000E4913434B6000F050
:1014600021F802460B4B5B681B0903F00F030A4986
:10147000CB5C22FA03F3094A1360094B1B68184638
:10148000FFF752F9002318461037BD4680BD00BF54
:101490000020024000100240D84C0008000000204C
:1014A0000400002080B487B000AF0023FB6000235D
:1014B000BB6000237B6100237B6000233B611E4BEC
:1014C0005B68FB60FB6803F00C03042B02D0082B65
:1014D00003D027E0194B3B6127E0FB689B0C03F02E
:1014E0000F03174AD35C7B60FB6803F48033002B47
:1014F00010D0114B5B685B0C03F00103114AD35C05
:10150000BB607B680D4A03FB02F2BB68B2FBF3F3DE
:101510007B6104E07B680C4A02FB03F37B617B691F
:101520003B6102E0054B3B6100BF3B6918461C373D
:10153000BD4680BC704700BF0010024000127A0018
:10154000F04C0008004D000800093D0080B400AFD9
:10155000024B1B681846BD4680BC70470000002047
:1015600080B500AFFFF7F2FF0246054B5B681B0A30
:1015700003F007030349CB5C22FA03F3184680BD4E
:1015800000100240E84C000880B500AFFFF7DEFF16
:101590000246054B5B68DB0A03F007030349CB5C9B
:1015A00022FA03F3184680BD00100240E84C000800
:1015B00080B483B000AF786039607B680F221A6016
:1015C000114B5B6803F003027B685A600E4B5B684B
:1015D00003F0F0027B689A600B4B5B6803F4E062F7
:1015E0007B68DA60084B5B68DB0803F4E0627B68C9
:1015F0001A61064B1B6803F007023B681A6000BFC4
:101600000C37BD4680BC70470010024000200240ED
:1016100080B485B000AF78600A4B1B680A4AA2FB11
:1016200003235B0A7A6802FB03F3FB6000BFFB68DD
:101630005A1EFA60002BF9D100BF00BF1437BD4617
:1016400080BC704700000020D34D621080B582B08E
:1016500000AF78607B68002B01D1012341E07B68FB
:1016600093F83D30DBB2002B06D17B68002283F873
:101670003C207868FEF7EEFF7B68022283F83D206D
:101680007B681A687B6804331946104600F05CFAE0
:101690007B68012283F846207B68012283F83E2084
:1016A0007B68012283F83F207B68012283F8402079
:1016B0007B68012283F841207B68012283F8422065
:1016C0007B68012283F843207B68012283F8442051
:1016D0007B68012283F845207B68012283F83D2046
:1016E000002318460837BD4680BD000080B485B091
:1016F00000AF78607B6893F83D30DBB2012B01D0FE
:1017000001233AE07B68022283F83D207B681B6856
:10171000DA687B681B6842F00102DA607B681B684C
:10172000184A93420ED07B681B68B3F1804F09D0F2
:101730007B681B68144A934204D07B681B68134A79
:10174000934211D17B681B689B6803F00703FB6021
:10175000FB68062B10D07B681B681A687B681B68C7
:1017600042F001021A6007E07B681B681A687B6818
:101770001B6842F001021A60002318461437BD4668
:1017800080BC7047002C014000040040000800406D
:1017900080B584B000AF78607B681B68DB68FB6055
:1017A0007B681B681B69BB60BB6803F00203002BEE
:1017B00020D0FB6803F00203002B1BD07B681B6862
:1017C0006FF002021A617B6801221A777B681B683E
:1017D0009B6903F00303002B03D0786800F098F9AD
:1017E00005E0786800F08BF9786800F09AF97B687A
:1017F00000221A77BB6803F00403002B20D0FB689B
:1018000003F00403002B1BD07B681B686FF00402FD
:101810001A617B6802221A777B681B689B6903F454
:101820004073002B03D0786800F072F905E0786807
:1018300000F065F9786800F074F97B6800221A7787
:10184000BB6803F00803002B20D0FB6803F00803FB
:10185000002B1BD07B681B686FF008021A617B6845
:1018600004221A777B681B68DB6903F00303002BF3
:1018700003D0786800F04CF905E0786800F03FF993
:10188000786800F04EF97B6800221A77BB6803F095
:101890001003002B20D0FB6803F01003002B1BD09B
:1018A0007B681B686FF010021A617B6808221A7748
:1018B0007B681B68DB6903F44073002B03D07868F6
:1018C00000F026F905E0786800F019F9786800F072
:1018D00028F97B6800221A77BB6803F00103002B0C
:1018E0000CD0FB6803F00103002B07D07B681B685A
:1018F0006FF001021A617868FEF75CFEBB6803F0C6
:101900008003002B0CD0FB6803F08003002B07D072
:101910007B681B686FF080021A61786800F07FFABC
:10192000BB6803F04003002B0CD0FB6803F04003BE
:10193000002B07D07B681B686FF040021A61786843
:1019400000F0F8F8BB6803F02003002B0CD0FB6814
:1019500003F02003002B07D07B681B686FF0200288
:101960001A61786800F052FA00BF1037BD4680BD9A
:1019700080B584B000AF786039600023FB737B686A
:1019800093F83C30012B01D10223B4E07B680122A3
:1019900083F83C207B68022283F83D207B681B682B
:1019A0009B68BB60BB6823F07703BB60BB6823F414
:1019B0007F43BB607B681B68BA689A603B681B68A2
:1019C000B3F5005F3ED0B3F5005F00F28780B3F55A
:1019D000805F00F08680B3F5805F7FD8702B1AD0CF
:1019E000702B7BD8602B50D0602B77D8502B3CD0FD
:1019F000502B73D8402B58D0402B6FD8302B64D04D
:101A0000302B6BD8202B60D0202B67D8002B5CD0DC
:101A1000102B5AD062E07B6818683B6899683B6875
:101A20005A683B68DB6800F074F97B681B689B6848
:101A3000BB60BB6843F07703BB607B681B68BA6818
:101A40009A604FE07B6818683B6899683B685A6801
:101A50003B68DB6800F05DF97B681B689A687B680F
:101A60001B6842F480429A603CE07B6818683B68DF
:101A700059683B68DB681A4600F0D4F87B681B683D
:101A80005021184600F02BF92CE07B6818683B6861
:101A900059683B68DB681A4600F0F2F87B681B68FF
:101AA0006021184600F01BF91CE07B6818683B6851
:101AB00059683B68DB681A4600F0B4F87B681B681D
:101AC0004021184600F00BF90CE07B681A683B686F
:101AD0001B681946104600F002F903E00123FB736E
:101AE00000E000BF7B68012283F83D207B68002274
:101AF00083F83C20FB7B18461037BD4680BD80B480
:101B000083B000AF786000BF0C37BD4680BC704723
:101B100080B483B000AF786000BF0C37BD4680BC96
:101B2000704780B483B000AF786000BF0C37BD460B
:101B300080BC704780B483B000AF786000BF0C37C2
:101B4000BD4680BC7047000080B485B000AF7860AF
:101B500039607B681B68FB607B682F4A93420BD01F
:101B60007B68B3F1804F07D07B682C4A934203D047
:101B70007B682B4A934208D1FB6823F07003FB601B
:101B80003B685B68FA681343FB607B68224A9342B8
:101B90000BD07B68B3F1804F07D07B681F4A93421C
:101BA00003D07B681E4A934208D1FB6823F440733C
:101BB000FB603B68DB68FA681343FB60FB6823F05B
:101BC00080023B685B691343FB607B68FA681A60BC
:101BD0003B689A687B68DA623B681A687B689A623D
:101BE0007B680D4A934203D13B681A697B681A638C
:101BF0007B6801225A617B681B6903F00103002B9B
:101C000005D07B681B6923F001027B681A6100BF65
:101C10001437BD4680BC7047002C014000040040D2
:101C20000008004080B487B000AFF860B9607A6007
:101C3000FB681B6A7B61FB681B6A23F00102FB687F
:101C40001A62FB689B693B613B6923F0F0033B61CF
:101C50007B681B013A6913433B617B6923F00A03EC
:101C60007B617A69BB6813437B61FB683A699A615F
:101C7000FB687A691A6200BF1C37BD4680BC70479A
:101C800080B487B000AFF860B9607A60FB681B6A07
:101C90007B61FB681B6A23F01002FB681A62FB6819
:101CA0009B693B613B6923F470433B617B681B0389
:101CB0003A6913433B617B6923F0A0037B61BB68F6
:101CC0001B017A6913437B61FB683A699A61FB687F
:101CD0007A691A6200BF1C37BD4680BC704780B469
:101CE00085B000AF786039607B689B68FB60FB68FB
:101CF00023F07003FB603A68FB68134343F007036B
:101D0000FB607B68FA689A6000BF1437BD4680BCF0
:101D1000704780B487B000AFF860B9607A603B600C
:101D2000FB689B687B617B6923F47F437B613B6835
:101D30001A027B681A43BB6813437A6913437B61B9
:101D4000FB687A699A6000BF1C37BD4680BC70474B
:101D500080B485B000AF786039607B6893F83C3020
:101D6000012B01D1022346E07B68012283F83C204D
:101D70007B68022283F83D207B681B685B68FB6000
:101D80007B681B689B68BB60FB6823F07003FB608B
:101D90003B681B68FA681343FB607B681B68FA6842
:101DA0005A607B681B68164A93420ED07B681B689A
:101DB000B3F1804F09D07B681B68124A934204D06C
:101DC0007B681B68104A93420CD1BB6823F08003E8
:101DD000BB603B685B68BA681343BB607B681B6889
:101DE000BA689A607B68012283F83D207B680022F4
:101DF00083F83C20002318461437BD4680BC70474A
:101E0000002C0140000400400008004080B483B072
:101E100000AF786000BF0C37BD4680BC704780B40F
:101E200083B000AF786000BF0C37BD4680BC704700
:101E300080B582B000AF78607B68002B01D10123B0
:101E400042E07B6893F84130DBB2002B06D17B681F
:101E5000002283F840207868FEF71AFC7B68242271
:101E600083F841207B681B68DA687B681B6822F472
:101E70000052DA60786800F071F97B681B681A69B3
:101E80007B681B6822F490421A617B681B685A6960
:101E90007B681B6822F02A025A617B681B68DA683B
:101EA0007B681B6842F40052DA607B6800225A6447
:101EB0007B68202283F841207B68202283F842201F
:101EC0007B6800225A63002318460837BD4680BD50
:101ED00080B58AB002AFF860B9603B601346FB8002
:101EE00000237B61FB6893F84130DBB2202B75D176
:101EF000BB68002B02D0FB88002B01D101236EE0D0
:101F0000FB6800225A64FB68212283F84120FEF717
:101F1000D7FC7861FB68FA889A84FB68FA88DA84CF
:101F2000FB689B68B3F5805F08D1FB681B69002BD9
:101F300004D10023FB61BB68BB6103E0BB68FB61AC
:101F40000023BB612EE03B6800937B690022802167
:101F5000F86800F048F80346002B05D0FB68202203
:101F600083F8412003233AE0FB69002B0BD1BB69C6
:101F70001B881A46FB681B68C2F308025A60BB69DB
:101F80000233BB6107E0FB691A78FB681B685A6083
:101F9000FB690133FB61FB68DB8C9BB2013B9AB2AE
:101FA000FB68DA84FB68DB8C9BB2002BCBD13B68EF
:101FB00000937B6900224021F86800F014F8034682
:101FC000002B05D0FB68202283F84120032306E084
:101FD000FB68202283F84120002300E002231846FA
:101FE0002037BD4680BD80B586B000AFF860B960CF
:101FF0003B601346FB713BE03B6AB3F1FF3F37D0D8
:10200000FEF75EFC02463B68D31A3A6A9A4202D354
:102010003B6A002B01D103233AE0FB681B68DB68B5
:1020200003F00403002B23D0BB68802B20D0BB68B7
:10203000402B1DD0FB681B681B6803F00803082BAE
:1020400016D100237B61FB681B681B687B61FB6802
:102050001B685B687B617B69F86800F01DF8FB68B2
:1020600008225A64FB68002283F8402001230FE015
:10207000FB681B681A68BB681340BA689A420CBFB9
:1020800001230023DBB21A46FB799A42B4D0002325
:1020900018461837BD4680BD80B495B000AF786053
:1020A0007B681B680C337B637B6B53E8003F3B63AF
:1020B0003B6B23F49073FB647B681B680C33FA6CF6
:1020C0003A64FB63F96B3A6C41E80023BB63BB6B7A
:1020D000002BE5D17B681B6814333B623B6A53E8F5
:1020E000003FFB61FB6923F00103BB647B681B6855
:1020F0001433BA6CFA62BB62B96AFA6A41E8002327
:102100007B627B6A002BE5D17B681B6B012B19D1AD
:102110007B681B680C33FB60FB6853E8003FBB60C7
:10212000BB6823F010037B647B681B680C337A6CFC
:10213000BA617B617969BA6941E800233B613B6917
:10214000002BE5D17B68202283F842207B680022A7
:102150001A6300BF5437BD4680BC704780B584B059
:1021600000AF78607B681B681B6923F440517B6873
:10217000DA687B681B680A431A617B689A687B6827
:102180001B691A437B685B691343BB607B681B68F0
:10219000DB6823F4B05323F00C037A681268B96843
:1021A0000B43D3607B681B685B6923F440717B68D9
:1021B0009A697B681B680A435A617B681B682C4AD2
:1021C000934203D1FFF7E0F9F86002E0FFF7C8F9A6
:1021D000F860FA6813469B0013449A001A447B681F
:1021E0005B689B00B2FBF3F3224AA2FB03235B096B
:1021F0001901FA6813469B0013449A001A447B683D
:102200005B689B00B2FBF3F21A4BA3FB02035B0972
:10221000642000FB03F3D31A1B013233154AA2FBDF
:1022200003235B0903F0F0031944FA6813469B008B
:1022300013449A001A447B685B689B00B2FBF3F27C
:102240000C4BA3FB02035B09642000FB03F3D31ACE
:102250001B013233074AA2FB03235B0903F00F0281
:102260007B681B680A449A6000BF1037BD4680BD7A
:10227000003801401F85EB5180B485B000AF0346A4
:10228000FB800023FB60B7F90630842B05D0B7F93B
:102290000620FB6813440333FB60FB6818461437C1
:1022A000BD4680BC704780B483B000AFEFF30583B8
:1022B0007B607B68002B14BF01230023DBB2184630
:1022C0000C37BD4680BC704780B500AF01F022F9E5
:1022D0000023184680BDF0B589B004AF786039603E
:1022E0007B685B69002B20D07B689B69002B1CD02E
:1022F0007B685C687B681D687B681E697B68B3F9D6
:1023000008301846FFF7B8FF01467B685B697A68BA
:1023100092690292019300913B6832462946204619
:1023200000F019FF0346FB601CE07B685C687B687B
:102330001D687B681B699EB27B68B3F9083018463C
:10234000FFF79AFF024607F10C03019300923B68E6
:1023500032462946204600F05BFF0346012B01D0A0
:10236000002300E0FB6818461437BD46F0BD80B579
:1023700084B000AF78607B68FB60FB68002B01D005
:10238000FB6800E00123184601F090F8002318468E
:102390001037BD4680BD80B586B002AF7860396029
:1023A0007B685B68002B0FD03B68012B0AD17B68F0
:1023B0005B680322009200220021012000F0BAF99C
:1023C000034616E0002314E03B68012B10D10322E2
:1023D0000021012000F026FAF860FB68002B05D0F0
:1023E000002300220021F86800F076FAFB6800E084
:1023F000002318461037BD4680BD000080B584B06C
:1024000000AF786039600023BB607B68002B01D18E
:1024100080233AE00023FB603B68B3F1FF3F03D128
:102420004FF0FF33FB6009E03B68002B06D03B68B0
:10243000FB60FB68002B01D10123FB60FFF733FF3A
:102440000346002B17D007F108031A4600217868CD
:1024500000F0DAFC0346012B01D0FF2315E0BB6836
:10246000002B11D00B4B4FF080521A60BFF34F8FEF
:10247000BFF36F8F08E0F968786800F0B9FB034696
:10248000012B01D0FF2300E0002318461037BD4682
:1024900080BD00BF04ED00E080B584B000AF78607F
:1024A0000023FB600023BB60FFF7FDFE0346002B0B
:1024B00016D007F108031946786800F00BFB0346B5
:1024C000012B01D0FF2317E0BB68002B13D00C4B6E
:1024D0004FF080521A60BFF34F8FBFF36F8F0AE047
:1024E000002300220021786800F0F6F90346012B52
:1024F00001D0FF23FB60FB6818461037BD4680BD46
:1025000004ED00E080B483B000AF78607B6803F135
:1025100008027B685A607B684FF0FF329A607B68E4
:1025200003F108027B68DA607B6803F108027B68CC
:102530001A617B6800221A6000BF0C37BD4680BC60
:10254000704780B483B000AF78607B6800221A6166
:1025500000BF0C37BD4680BC704780B485B000AF6B
:10256000786039607B685B68FB603B68FA685A603A
:10257000FB689A683B689A60FB689B683A685A6097
:10258000FB683A689A603B687A681A617B681B68E6
:102590005A1C7B681A6000BF1437BD4680BC704768
:1025A00080B485B000AF786039603B681B68BB6061
:1025B000BB68B3F1FF3F03D17B681B69FB600CE094
:1025C0007B680833FB6002E0FB685B68FB60FB68CC
:1025D0005B681B68BA689A42F6D2FB685A683B6827
:1025E0005A603B685B683A689A603B68FA689A6030
:1025F000FB683A685A603B687A681A617B681B68B6
:102600005A1C7B681A6000BF1437BD4680BC7047F7
:1026100080B485B000AF78607B681B69FB607B6825
:102620005B687A6892689A607B689B687A6852688F
:102630005A60FB685B687A689A4203D17B689A6843
:10264000FB685A607B6800221A61FB681B685A1E8F
:10265000FB681A60FB681B6818461437BD4680BCCF
:102660007047000080B584B000AF786039607B6847
:10267000FB60FB68002B0AD14FF0500383F31188F5
:10268000BFF36F8FBFF34F8FBB6000BFFEE701F05A
:1026900065FEFB681A68FB68DB6BF968096C01FB77
:1026A00003F31A44FB689A60FB6800229A63FB6894
:1026B0001A68FB685A60FB681A68FB68DB6B013BB1
:1026C000F968096C01FB03F31A44FB68DA60FB68E4
:1026D000FF2283F84420FB68FF2283F845203B68F3
:1026E000002B14D1FB681B69002B1AD0FB68103338
:1026F000184601F061F90346002B12D00C4B4FF045
:1027000080521A60BFF34F8FBFF36F8F09E0FB68F1
:1027100010331846FFF7F6FEFB6824331846FFF720
:10272000F1FE01F04BFE012318461037BD4680BD77
:1027300004ED00E080B58EB002AFF860B9607A6059
:102740003B60FB68002B0AD14FF0500383F31188E4
:10275000BFF36F8FBFF34F8FBB6200BFFEE73B68D5
:10276000002B0AD14FF0500383F31188BFF36F8F12
:10277000BFF34F8F7B6200BFFEE77B68002B02D068
:10278000BB68002B01D0012300E00023002B0AD1FD
:102790004FF0500383F31188BFF36F8FBFF34F8F58
:1027A0003B6200BFFEE77B68002B02D1BB68002BB9
:1027B00001D1012300E00023002B0AD14FF0500388
:1027C00083F31188BFF36F8FBFF34F8FFB6100BF9F
:1027D000FEE748237B617B69482B0AD04FF050030A
:1027E00083F31188BFF36F8FBFF34F8FBB6100BFBF
:1027F000FEE77B693B68FB62FB6A002B0DD0FB6A3E
:10280000012283F8462097F83820FB6A009313468C
:102810007A68B968F86800F03FF8FB6A1846303704
:10282000BD4680BD80B58AB002AFF860B96013467E
:10283000FB71FB68002B0AD14FF0500383F3118822
:10284000BFF36F8FBFF34F8F3B6100BFFEE7FB68A5
:10285000BA6802FB03F3FB61FB694833184601F0D9
:102860007DFEB861BB69002B11D0BB697B617B69C0
:1028700048337B61BB69002283F84620FA79BB6943
:10288000009313467A69B968F86800F005F8BB69E7
:1028900018462037BD4680BD80B584B000AFF860D3
:1028A000B9607A60FB70BB68002B03D1BB69BA6961
:1028B0001A6002E0BB697A681A60BB69FA68DA6379
:1028C000BB69BA681A640121B869FFF7CBFE00BF83
:1028D0001037BD4680BD000080B58EB000AFF860F7
:1028E000B9607A603B6000237B63FB683B633B6BB2
:1028F000002B0AD14FF0500383F31188BFF36F8F81
:10290000BFF34F8FBB6200BFFEE7BB68002B03D154
:102910003B6B1B6C002B01D1012300E00023002B3B
:102920000AD14FF0500383F31188BFF36F8FBFF3C9
:102930004F8F7B6200BFFEE73B68022B03D13B6BEE
:10294000DB6B012B01D1012300E00023002B0AD116
:102950004FF0500383F31188BFF36F8FBFF34F8F96
:102960003B6200BFFEE701F0E7F90346002B02D10E
:102970007B68002B01D1012300E00023002B0AD14A
:102980004FF0500383F31188BFF36F8FBFF34F8F66
:10299000FB6100BFFEE701F0E1FC3B6B9A6B3B6B18
:1029A000DB6B9A4202D33B68022B29D13A68B968A3
:1029B000386B00F0C0FAF8623B6B5B6A002B10D0FA
:1029C0003B6B2433184600F0F7FF0346002B13D06F
:1029D0003F4B4FF080521A60BFF34F8FBFF36F8FA2
:1029E0000AE0FB6A002B07D0394B4FF080521A6087
:1029F000BFF34F8FBFF36F8F01F0E0FC012363E063
:102A00007B68002B03D101F0D9FC00235CE07B6BD9
:102A1000002B06D107F11403184601F02FF801230B
:102A20007B6301F0CBFC00F0DFFD01F097FC3B6B1A
:102A300093F844305BB2B3F1FF3F03D13B6B00220C
:102A400083F844203B6B93F845305BB2B3F1FF3F12
:102A500003D13B6B002283F8452001F0AFFC3A1D07
:102A600007F114031146184601F01EF80346002B27
:102A700024D1386B00F057FB0346002B18D03B6B7A
:102A800010337A681146184600F072FF386B00F078
:102A9000E2FA00F0B7FD0346002B7FF47CAF0C4B4D
:102AA0004FF080521A60BFF34F8FBFF36F8F72E702
:102AB000386B00F0D0FA00F0A5FD6CE7386B00F041
:102AC000CAFA00F09FFD002318463837BD4680BD86
:102AD00004ED00E080B58EB000AF786039607B68AF
:102AE0003B633B6B002B0AD14FF0500383F31188FB
:102AF000BFF36F8FBFF34F8F3B6200BFFEE73B6BAF
:102B00001B6C002B0AD04FF0500383F31188BFF3E6
:102B10006F8FBFF34F8FFB6100BFFEE73B6B1B68FE
:102B2000002B03D13B6B9B68002B01D1012300E0FC
:102B30000023002B0AD14FF0500383F31188BFF319
:102B40006F8FBFF34F8FBB6100BFFEE701F0C8FC82
:102B5000EFF311824FF0500383F31188BFF36F8FAF
:102B6000BFF34F8F7A613B617B69FB623B6B9B6B71
:102B7000BB623B6BDB6BBA6A9A422BD23B6B93F81E
:102B8000453087F82730BB6A5A1C3B6B9A6397F92C
:102B90002730B3F1FF3F12D13B6B5B6A002B16D09D
:102BA0003B6B2433184600F007FF0346002B0ED082
:102BB0003B68002B0BD03B6801221A6007E097F8B6
:102BC00027300133DBB25AB23B6B83F84520012337
:102BD0007B6301E000237B63FB6AFB60FB6883F39C
:102BE000118800BF7B6B18463837BD4680BD00009A
:102BF00080B58EB000AF7860396000237B637B685E
:102C0000FB6200233B63FB6A002B0AD14FF05003A9
:102C100083F31188BFF36F8FBFF34F8F3B6200BF09
:102C2000FEE7FB6A1B6C002B0AD04FF0500383F3C6
:102C30001188BFF36F8FBFF34F8FFB6100BFFEE7BB
:102C400001F07AF80346002B02D13B68002B01D13A
:102C5000012300E00023002B0AD14FF0500383F33F
:102C60001188BFF36F8FBFF34F8FBB6100BFFEE7CB
:102C700001F074FBFB6A9B6BBB62BB6A002B24D028
:102C8000BB6A5A1EFB6A9A63FB6A1B68002B04D15D
:102C900001F0FAF90246FB6A9A60FB6A1B69002B95
:102CA0000FD0FB6A1033184600F086FE0346002B57
:102CB00007D0544B4FF080521A60BFF34F8FBFF3D1
:102CC0006F8F01F07BFB012397E03B68002B11D154
:102CD0003B6B002B0AD04FF0500383F31188BFF3F6
:102CE0006F8FBFF34F8F7B6100BFFEE701F066FB84
:102CF000002382E07B6B002B06D107F10C03184602
:102D000000F0BCFE01237B6301F058FB00F06CFC7B
:102D100001F024FBFB6A93F844305BB2B3F1FF3F50
:102D200003D1FB6A002283F84420FB6A93F8453004
:102D30005BB2B3F1FF3F03D1FB6A002283F8452069
:102D400001F03CFB3A4607F10C031146184600F02F
:102D5000ABFE0346002B32D1F86A00F0CEF90346F1
:102D6000002B26D0FB6A1B68002B09D101F0F6FA74
:102D7000FB6A9B68184600F0FDFF386301F01EFBFC
:102D8000FB6A24333A681146184600F0F1FDF86AF0
:102D900000F061F900F036FC0346002B7FF468AFC9
:102DA000184B4FF080521A60BFF34F8FBFF36F8FF5
:102DB0005EE7F86A00F04FF900F024FC58E7F86A83
:102DC00000F049F900F01EFCF86A00F096F903469D
:102DD000002B3FF44DAF3B6B002B0DD001F0BEFA42
:102DE000F86A00F091F87862FB6A9B68796A184685
:102DF00001F0BCF801F0E2FA002318463837BD466E
:102E000080BD00BF04ED00E080B58EB000AFF8607B
:102E1000B9607A60FB683B633B6B002B0AD14FF0D3
:102E2000500383F31188BFF36F8FBFF34F8F3B6263
:102E300000BFFEE7BB68002B03D13B6B1B6C002B74
:102E400001D1012300E00023002B0AD14FF05003F1
:102E500083F31188BFF36F8FBFF34F8FFB6100BF08
:102E6000FEE701F03DFBEFF311824FF0500383F3D7
:102E70001188BFF36F8FBFF34F8FBA617B61BB695E
:102E8000FB623B6B9B6BBB62BB6A002B2FD03B6B27
:102E900093F8443087F82730B968386B00F0B5F8FC
:102EA000BB6A5A1E3B6B9A6397F92730B3F1FF3F19
:102EB00012D13B6B1B69002B16D03B6B10331846AD
:102EC00000F07AFD0346002B0ED07B68002B0BD060
:102ED0007B6801221A6007E097F827300133DBB2E4
:102EE0005AB23B6B83F8442001237B6301E000234B
:102EF0007B63FB6A3B613B6983F3118800BF7B6B9B
:102F000018463837BD4680BD80B485B000AF7860C4
:102F10007B685B6A002B06D07B681B6B1B68C3F168
:102F20000703FB6001E00023FB60FB6818461437D1
:102F3000BD4680BC704780B586B000AFF860B96010
:102F40007A6000237B61FB689B6B3B61FB681B6CB9
:102F5000002B0DD1FB681B68002B4DD1FB689B68D3
:102F6000184600F07DFF7861FB6800229A6043E01C
:102F70007B68002B19D1FB685868FB681B6C1A46EC
:102F8000B96801F0F9FCFB685A68FB681B6C1A44CD
:102F9000FB685A60FB685A68FB689B689A422BD3AF
:102FA000FB681A68FB685A6026E0FB68D868FB6813
:102FB0001B6C1A46B96801F0DFFCFB68DA68FB6835
:102FC0001B6C5B421A44FB68DA60FB68DA68FB68DA
:102FD0001B689A4207D2FB689A68FB681B6C5B42CD
:102FE0001A44FB68DA607B68022B05D13B69002B31
:102FF00002D03B69013B3B613B695A1CFB689A6309
:103000007B6918461837BD4680BD80B582B000AFD9
:10301000786039607B681B6C002B18D07B68DA689D
:103020007B681B6C1A447B68DA607B68DA687B68B3
:103030009B689A4203D37B681A687B68DA607B6876
:10304000D9687B681B6C1A46386801F095FC00BF94
:103050000837BD4680BD80B584B000AF786001F010
:103060007DF97B6893F84530FB7311E07B685B6A00
:10307000002B12D07B682433184600F09DFC0346D9
:10308000002B01D000F072FDFB7B013BDBB2FB7338
:1030900097F90F30002BE9DC00E000BF7B68FF22CE
:1030A00083F8452001F08AF901F058F97B6893F81C
:1030B0004430BB7311E07B681B69002B12D07B6826
:1030C0001033184600F078FC0346002B01D000F0C6
:1030D0004DFDBB7B013BDBB2BB7397F90E30002B80
:1030E000E9DC00E000BF7B68FF2283F8442001F0A8
:1030F00065F900BF1037BD4680BD80B584B000AF14
:10310000786001F02BF97B689B6B002B02D10123C7
:10311000FB6001E00023FB6001F050F9FB681846FA
:103120001037BD4680BD80B584B000AF786001F037
:1031300015F97B689A6B7B68DB6B9A4202D101239D
:10314000FB6001E00023FB6001F038F9FB681846E2
:103150001037BD4680BD80B58EB004AFF860B96051
:103160007A603B607B6B002B0AD14FF0500383F3F6
:103170001188BFF36F8FBFF34F8F3B6200BFFEE735
:10318000BB6B002B0AD14FF0500383F31188BFF3C0
:103190006F8FBFF34F8FFB6100BFFEE7B4233B612E
:1031A0003B69B42B0AD04FF0500383F31188BFF36F
:1031B0006F8FBFF34F8FBB6100BFFEE73B69BB6BF7
:1031C000002B1ED07B6B002B1BD0BB6B7B627B6A02
:1031D0007A6B1A637B6A022283F8B120002303937F
:1031E0007B6A029307F1140301933B6B00933B68E6
:1031F0007A68B968F86800F051F8786A00F0ECF87D
:1032000001E000237B617B6918462837BD4680BDFD
:1032100080B58CB004AFF860B9603B601346FB80AA
:10322000FB889B00184601F099F978617B69002BB7
:103230000ED0B42001F092F9F861FB69002B03D0A5
:10324000FB697A691A6305E0786901F053FA01E0D5
:103250000023FB61FB69002B17D0FB69002283F878
:10326000B120FA8800230393FB690293FB6A019360
:10327000BB6A00933B68B968F86800F00FF8F8691A
:1032800000F0AAF80123BB6102E04FF0FF33BB61FD
:10329000BB6918462037BD4680BD000080B588B0A8
:1032A00000AFF860B9607A603B603B6B1A6B7B687B
:1032B00003F18043013B9B001344BB61BB6923F0D6
:1032C0000703BB61BB6903F00703002B0AD04FF073
:1032D000500383F31188BFF36F8FBFF34F8F7B6170
:1032E00000BFFEE7BB68002B1FD00023FB6112E08C
:1032F000BA68FB69134419783A6BFB691344343399
:103300000A461A70BA68FB6913441B78002B06D072
:10331000FB690133FB61FB690F2BE9D900E000BFBA
:103320003B6B002283F8432003E03B6B002283F8D1
:103330003420BB6A062B01D90623BB623B6BBA6AF9
:10334000DA623B6BBA6A5A643B6B00229A643B6B4D
:1033500004331846FFF7F5F83B6B18331846FFF7B0
:10336000F0F83B6B3A6B1A61BB6AC3F107023B6B27
:103370009A613B6B3A6B5A623B6B0022C3F8AC20FC
:103380003B6B002283F8B0203B6B4C336022002162
:10339000184601F0FFFA3B6B0C4A1A653B6B0C4A6E
:1033A0005A653B6B0B4A9A653A68F968B86900F050
:1033B000E5FE02463B6B1A60FB6A002B02D0FB6AFB
:1033C0003A6B1A6000BF2037BD4680BD244D00080F
:1033D000444D0008044D000880B582B000AF78600D
:1033E00000F0BCFF2A4B1B680133294A1360294BAC
:1033F0001B68002B09D1274A7B681360244B1B688C
:10340000012B10D100F0D6FB0DE0234B1B68002BE5
:1034100009D1204B1B68DA6A7B68DB6A9A4202D8C2
:103420001C4A7B6813601D4B1B6801331B4A1360E9
:103430007B68DB6A01229A40194B1B681343184AC8
:1034400013607B68DA6A13469B0013449B00154A9D
:103450001A447B68043319461046FFF77EF800F0E3
:10346000ADFF0D4B1B68002B0ED00A4B1B68DA6AB0
:103470007B68DB6A9A4207D20B4B4FF080521A608E
:10348000BFF34F8FBFF36F8F00BF0837BD4680BDBE
:1034900030050020300400203C0500204C050020B1
:1034A000380500203404002004ED00E080B584B02D
:1034B00000AF78600023FB607B68002B17D0134BB4
:1034C0001B68002B0AD04FF0500383F31188BFF321
:1034D0006F8FBFF34F8FBB6000BFFEE700F084F833
:1034E0000021786800F0E4FD00F08CF8F860FB68DB
:1034F000002B07D1064B4FF080521A60BFF34F8F5D
:10350000BFF36F8F00BF1037BD4680BD5805002048
:1035100004ED00E080B58AB004AF0023BB60002357
:103520007B603A46391D07F108031846FCF718FE80
:1035300039687B68BA6802920193002300930023E4
:103540000A4621492148FFF706FE0346204A136038
:103550001F4B1B68002B02D001237B6101E000237D
:103560007B617B69012B1BD14FF0500383F31188E2
:10357000BFF36F8FBFF34F8F3B6100BF154B1B68CD
:103580004C33154A1360154B4FF0FF321A60144B41
:1035900001221A60134B00221A6000F06DFE0EE04B
:1035A0007B69B3F1FF3F0AD14FF0500383F31188D9
:1035B000BFF36F8FBFF34F8FFB6000BFFEE700BF0D
:1035C0001837BD4680BD00BFD04C0008853B0008C1
:1035D0005405002030040020100000205005002079
:1035E0003C0500203405002080B400AF044B1B686C
:1035F0000133034A136000BFBD4680BC704700BF63
:103600005805002080B584B000AF0023FB60002384
:10361000BB60414B1B68002B0AD14FF0500383F372
:103620001188BFF36F8FBFF34F8F3B6000BFFEE782
:1036300000F094FE384B1B68013B374A1360364B51
:103640001B68002B61D1354B1B68002B5DD02EE031
:10365000334BDB68DB68FB60FB6818331846FEF70A
:10366000D7FFFB6804331846FEF7D2FFFB68DB6A1E
:1036700001229A402B4B1B6813432A4A1360FB68B4
:10368000DA6A13469B0013449B00274A1A44FB68DE
:10369000043319461046FEF760FFFB68DA6A234BD5
:1036A0001B68DB6A9A4202D3214B01221A601C4B31
:1036B0001B68002BCCD1FB68002B01D000F01CFB59
:1036C0001C4B1B687B607B68002B10D000F036F829
:1036D0000346002B02D0164B01221A607B68013B87
:1036E0007B607B68002BF1D1124B00221A60104BDB
:1036F0001B68002B09D00123BB600F4B4FF0805299
:103700001A60BFF34F8FBFF36F8F00F057FEBB6897
:1037100018461037BD4680BD5805002030050020F2
:10372000F00400203805002034040020300400207C
:10373000440500204005002004ED00E080B586B07F
:1037400000AF00237B614E4B1B68002B40F08E8046
:103750004C4B1B6801333B614A4A3B6913603B6930
:10376000002B20D1484B1B681B68002B0AD04FF060
:10377000500383F31188BFF36F8FBFF34F8F3B600C
:1037800000BFFEE7404B1B68FB60404B1B683E4A96
:1037900013603E4AFB6813603D4B1B6801333C4A93
:1037A000136000F0A9FA3B4B1B683A699A4248D370
:1037B000354B1B681B68002B04D1364B4FF0FF3292
:1037C0001A603EE0304B1B68DB68DB68BB60BB689F
:1037D0005B687B603A697B689A4203D22D4A7B68BA
:1037E00013602EE0BB6804331846FEF711FFBB6878
:1037F0009B6A002B04D0BB6818331846FEF708FFFD
:10380000BB68DB6A01229A40234B1B681343224AA0
:103810001360BB68DA6A13469B0013449B001F4A7F
:103820001A44BB68043319461046FEF796FEBB687F
:10383000DA6A1B4B1B68DB6A9A42B9D301237B61AE
:10384000B6E7174B1B68DA6A144913469B0013440A
:103850009B000B441B68012B01D901237B61114B99
:103860001B68002B07D001237B6104E00E4B1B6813
:1038700001330D4A13607B6918461837BD4680BD79
:103880005805002034050020E8040020EC04002046
:103890004805002050050020380500203404002091
:1038A00030040020440500204005002080B487B08B
:1038B00000AF294B1B68002B03D0284B01221A6054
:1038C00044E0264B00221A60254B1B68FB60FB6816
:1038D000B3FA83F3FB72FB7AC3F11F037B612149C7
:1038E0007A6913469B0013449B000B441B68002B12
:1038F0000AD14FF0500383F31188BFF36F8FBFF3EA
:103900004F8F7B6000BFFEE77A6913469B0013442C
:103910009B00144A13443B613B695B685A683B69EE
:103920005A603B695A683B6908339A4204D13B6943
:103930005B685A683B695A603B695B68DB680A4AA6
:103940001360094B1B684C33084A136000BF1C37D7
:10395000BD4680BC704700BF5805002044050020CC
:10396000380500203404002030040020100000201E
:1039700080B584B000AF786039607B68002B0AD1D5
:103980004FF0500383F31188BFF36F8FBFF34F8F56
:10399000FB6000BFFEE7074B1B68183319467868C9
:1039A000FEF7FEFD0121386800F082FB00BF1037F2
:1039B000BD4680BD3004002080B586B000AF786081
:1039C0007B68DB68DB683B613B69002B0AD14FF009
:1039D000500383F31188BFF36F8FBFF34F8FFB60EA
:1039E00000BFFEE73B6918331846FEF711FE1D4B7A
:1039F0001B68002B1CD13B6904331846FEF708FEF8
:103A00003B69DB6A01229A40174B1B681343164A35
:103A100013603B69DA6A13469B0013449B00134A08
:103A20001A443B69043319461046FEF796FD05E03B
:103A30003B69183319460E48FEF78FFD3B69DA6A79
:103A40000C4B1B68DB6A9A4205D901237B610A4B48
:103A500001221A6001E000237B617B691846183758
:103A6000BD4680BD580500203805002034040020E4
:103A7000F0040020300400204405002080B483B00E
:103A800000AF7860064B1A687B681A60054B1A68AD
:103A90007B685A6000BF0C37BD4680BC704700BFD2
:103AA000480500203405002080B588B000AF78605C
:103AB00039607B68002B0AD14FF0500383F31188E3
:103AC000BFF36F8FBFF34F8F3B6100BFFEE73B68D3
:103AD000002B0AD14FF0500383F31188BFF36F8F8F
:103AE000BFF34F8FFB6000BFFEE700F037FC1D4BBC
:103AF0001B68BB617B685B68BA69D31A7B613B68F2
:103B00001B68B3F1FF3F02D10023FB6123E07B6818
:103B10001A68154B1B689A4207D07B685B68BA69C4
:103B20009A4202D30123FB6115E03B681B687A6966
:103B30009A420BD23B681A687B69D21A3B681A60BA
:103B40007868FFF79BFF0023FB6104E03B680022DD
:103B50001A600123FB6100F031FCFB691846203735
:103B6000BD4680BD340500204805002080B400AF6C
:103B7000034B01221A6000BFBD4680BC704700BFE6
:103B80004405002080B582B000AF786000F052F8A4
:103B9000064B1B68012BF9D9054B4FF080521A6078
:103BA000BFF34F8FBFF36F8FF0E700BF34040020E7
:103BB00004ED00E080B582B000AF00237B600CE034
:103BC0007A6813469B0013449B00124A134418461C
:103BD000FEF798FC7B6801337B607B68062BEFD98E
:103BE0000D48FEF78FFC0D48FEF78CFC0C48FEF7E5
:103BF00089FC0C48FEF786FC0B48FEF783FC0B4B58
:103C0000054A1A600A4B054A1A6000BF0837BD46CC
:103C100080BD00BF34040020C0040020D404002074
:103C2000F0040020040500201C050020E80400200A
:103C3000EC04002080B582B000AF19E000F08EFBEC
:103C4000104BDB68DB687B607B6804331846FEF74B
:103C5000DFFC0D4B1B68013B0B4A13600B4B1B68D1
:103C6000013B0A4A136000F0A9FB786800F010F8E5
:103C7000064B1B68002BE1D100BF00BF0837BD46D3
:103C800080BD00BF0405002030050020180500207D
:103C900080B584B000AF78607B684C33184600F084
:103CA0008FFE7B6893F8B130002B08D17B681B6BCB
:103CB000184600F01FFD786800F01CFD18E07B68D6
:103CC00093F8B130012B03D1786800F013FD0FE0B9
:103CD0007B6893F8B130022B0AD04FF0500383F386
:103CE0001188BFF36F8FBFF34F8FFB6000BFFEE7FC
:103CF00000BF1037BD4680BD80B483B000AF0C4B11
:103D00001B681B68002B04D10A4B4FF0FF321A606E
:103D100008E0074B1B68DB68DB687B607B685B68DF
:103D2000044A136000BF0C37BD4680BC704700BF1B
:103D3000E80400205005002080B483B000AF0B4B96
:103D40001B68002B02D101237B6008E0084B1B6835
:103D5000002B02D102237B6001E000237B607B68A3
:103D600018460C37BD4680BC704700BF3C0500209C
:103D70005805002080B584B000AF78607B68BB60D8
:103D80000023FB607B68002B5ED0BB68DA6A314B96
:103D90001B68DB6A9A424ED2BB689B69002B06DB2C
:103DA0002C4B1B68DB6AC3F10702BB689A61BB68D6
:103DB0005969BB68DA6A13469B0013449B00264A84
:103DC000134499422FD1BB6804331846FEF720FCF8
:103DD0000346002B0AD1BB68DB6A012202FA03F317
:103DE000DA431E4B1B6813401C4A1360194B1B68B7
:103DF000DA6ABB68DA62BB68DB6A01229A40174B59
:103E00001B681343154A1360BB68DA6A13469B00AC
:103E100013449B00104A1A44BB68043319461046E9
:103E2000FEF79BFB04E00B4B1B68DA6ABB68DA62A7
:103E30000123FB6008E0BB685A6C064B1B68DB6A19
:103E40009A4201D20123FB60FB6818461037BD4639
:103E500080BD00BF3004002034040020380500205D
:103E600080B586B000AF78607B683B6100237B61E2
:103E70007B68002B6ED03A4B1B683A699A420AD095
:103E80004FF0500383F31188BFF36F8FBFF34F8F51
:103E9000FB6000BFFEE73B699B6C002B0AD14FF033
:103EA000500383F31188BFF36F8FBFF34F8FBB6055
:103EB00000BFFEE73B699B6C5A1E3B699A643B69F5
:103EC000DA6A3B695B6C9A4244D03B699B6C002B7D
:103ED00040D13B6904331846FEF79AFB0346002B9A
:103EE00015D13B69DA6A1F4913469B0013449B00B6
:103EF0000B441B68002B0AD13B69DB6A012202FAE2
:103F000003F3DA43184B1B681340174A13603B69ED
:103F10005A6C3B69DA623B69DB6AC3F107023B69B1
:103F20009A613B69DB6A01229A400F4B1B6813437D
:103F30000D4A13603B69DA6A13469B0013449B00E9
:103F4000084A1A443B69043319461046FEF705FB3C
:103F500001237B617B6918461837BD4680BD00BFD1
:103F600030040020340400203805002080B588B0DB
:103F700000AF786039607B68BB6101237B617B683F
:103F8000002B77D0BB699B6C002B0AD14FF05003FC
:103F900083F31188BFF36F8FBFF34F8FFB6000BFB8
:103FA000FEE7BB695B6C3A689A4202D93B68FB61E9
:103FB00002E0BB695B6CFB61BB69DB6AFA699A4230
:103FC00058D0BB699B6C7A699A4253D12B4B1B68C2
:103FD000BA699A420AD14FF0500383F31188BFF3B4
:103FE0006F8FBFF34F8FBB6000BFFEE7BB69DB6A1B
:103FF0003B61BB69FA69DA62BB699B69002B04DB30
:10400000FB69C3F10702BB699A61BB6959693A69E7
:1040100013469B0013449B00194A1344994229D12B
:10402000BB6904331846FEF7F3FA0346002B0AD1A6
:10403000BB69DB6A012202FA03F3DA43114B1B6806
:104040001340104A1360BB69DB6A01229A400D4B92
:104050001B6813430B4A1360BB69DA6A13469B0063
:1040600013449B00064A1A44BB69043319461046A0
:10407000FEF773FA00BF2037BD4680BD3004002034
:10408000340400203805002080B400AF074B1B68C3
:10409000002B04D0054B1B689A6C01329A64034BC9
:1040A0001B681846BD4680BC704700BF3004002026
:1040B00080B584B000AF78603960294B1B68FB6025
:1040C000284B1B6804331846FEF7A2FA0346002B60
:1040D0000BD1244B1B68DB6A012202FA03F3DA439B
:1040E000214B1B681340204A13607B68B3F1FF3FEC
:1040F0000AD13B68002B07D01A4B1B6804331946C2
:104100001A48FEF72AFA26E0FA687B681344BB6077
:10411000144B1B68BA685A60BA68FB689A4209D2A5
:10412000134B1A680F4B1B68043319461046FEF7F1
:1041300037FA10E00F4B1A680A4B1B680433194614
:104140001046FEF72DFA0C4B1B68BA689A4202D251
:10415000094ABB68136000BF1037BD4680BD00BF71
:104160003405002030040020380500201C05002004
:10417000EC040020E80400205005002080B485B045
:1041800000AFF860B9607A60FB68043BFB60FB68D5
:104190004FF080721A60FB68043BFB60BB6823F041
:1041A0000102FB681A60FB68043BFB60084AFB687D
:1041B0001A60FB68143BFB607A68FB681A60FB6856
:1041C000203BFB60FB6818461437BD4680BC704737
:1041D000D541000880B485B000AF00237B60124B4E
:1041E0001B68B3F1FF3F0AD04FF0500383F31188EF
:1041F000BFF36F8FBFF34F8FFB6000BFFEE74FF041
:10420000500383F31188BFF36F8FBFF34F8FBB60F1
:1042100000BF00BF7B68002BFCD000BF00BF14377D
:10422000BD4680BC704700BF0C00002000000000AD
:10423000074B19680868B0E8F00F80F30988BFF3EE
:104240006F8F4FF0000080F311884EF00D0E704715
:104250003004002000BF00BF06480068006880F3FB
:10426000088862B661B6BFF34F8FBFF36F8F00DF70
:1042700000BF00BF08ED00E080B584B000AF324B56
:10428000FB60FB681B78DBB27B60FB68FF221A7067
:10429000FB681B78DBB2FB70FB78DBB203F05003EA
:1042A000DAB22A4B1A702A4B07221A6009E0284B0F
:1042B0001B68013B264A1360FB78DBB25B00DBB274
:1042C000FB70FB78DBB203F08003802BEFD0204B38
:1042D0001B68C3F10703042B0AD04FF0500383F38C
:1042E0001188BFF36F8FBFF34F8FBB6000BFFEE736
:1042F000174B1B681B02164A1360154B1B6803F40F
:10430000E063134A13607B68DAB2FB681A70114BE2
:104310001B68104A43F4700313600E4B1B680D4A70
:1043200043F07043136000F0B9F80B4B00221A60A1
:10433000FFF792FFFFF7BAFAFFF74CFF002318468A
:104340001037BD4680BD00BF00E400E05C050020E2
:104350006005002020ED00E00C00002080B483B058
:1043600000AF4FF0500383F31188BFF36F8FBFF39B
:104370004F8F7B6000BF0F4B1B6801330D4A1360EA
:104380000C4B1B68012B0FD10B4B1B68DBB2002BB6
:104390000AD04FF0500383F31188BFF36F8FBFF340
:1043A0004F8F3B6000BFFEE700BF0C37BD4680BCAF
:1043B000704700BF0C00002004ED00E080B483B023
:1043C00000AF114B1B68002B0AD14FF0500383F351
:1043D0001188BFF36F8FBFF34F8F7B6000BFFEE785
:1043E000094B1B68013B084A1360074B1B68002BF5
:1043F00005D100233B603B6883F3118800BF00BFF9
:104400000C37BD4680BC70470C0000200000000047
:10441000EFF30980BFF36F8F0D4B1A6820E9F00F9F
:1044200010602DE908404FF0500080F31188FFF72D
:104430003DFA4FF0000080F31188BDE8084019688C
:104440000868B0E8F00F80F30988BFF36F8F7047FA
:104450003004002000BF00BF80B582B000AF4FF035
:10446000500383F31188BFF36F8FBFF34F8F7B60CF
:1044700000BFFFF763F90346002B03D0064B4FF054
:1044800080521A6000233B603B6883F3118800BFB1
:1044900000BF0837BD4680BD04ED00E080B400AF2A
:1044A0000A4B00221A600A4B00221A60094B1B6853
:1044B000094AA2FB03239B09084A013B1360034BF3
:1044C00007221A6000BFBD4680BC704710E000E0C4
:1044D00018E000E000000020D34D621014E000E07E
:1044E00080B485B000AFEFF30583FB60FB680F2B52
:1044F00014D9164AFB6813441B78FB72144B1B78C3
:10450000FA7A9A420AD24FF0500383F31188BFF32C
:104510006F8FBFF34F8F7B6000BFFEE70D4B1B68B3
:1045200003F4E0620C4B1B689A420AD94FF0500327
:1045300083F31188BFF36F8FBFF34F8F3B6000BFD2
:10454000FEE700BF1437BD4680BC7047F0E300E0D3
:104550005C0500200CED00E06005002080B58AB00D
:1045600000AF78600023FB61FFF73EF85B4B1B68F0
:10457000002B01D100F020F9594B1A687B681340D9
:10458000002B40F093807B68002B1DD008227B68B5
:1045900013447B607B6803F00703002B14D07B6817
:1045A00023F0070308337B607B6803F00703002BCD
:1045B0000AD04FF0500383F31188BFF36F8FBFF31E
:1045C0004F8F7B6100BFFEE77B68002B6ED0454BB1
:1045D0001B687A689A4269D8434B3B62424B1B681E
:1045E0007B6204E07B6A3B627B6A1B687B627B6A5E
:1045F0005B687A689A4203D97B6A1B68002BF1D109
:10460000364B1B687A6A9A4250D03B6A1B68082274
:104610001344FB617B6A1A683B6A1A607B6A5A68BA
:104620007B68D21A08235B009A421FD97A6A7B689A
:104630001344BB61BB6903F00703002B0AD04FF0A2
:10464000500383F31188BFF36F8FBFF34F8F3B612C
:1046500000BFFEE77B6A5A687B68D21ABB695A6062
:104660007B6A7A685A60B86900F008F91D4B1A68CD
:104670007B6A5B68D31A1B4A13601A4B1A681B4B80
:104680001B689A4203D2174B1B68184A13607B6A57
:104690005A68134B1B681A437B6A5A607B6A002274
:1046A0001A60134B1B680133114A1360FEF7AAFF0F
:1046B000FB6903F00703002B0AD04FF0500383F38C
:1046C0001188BFF36F8FBFF34F8FFB6000BFFEE712
:1046D000FB6918462837BD4680BD00BF6C1100201D
:1046E000801100207011002064110020741100203E
:1046F0007811002080B586B000AF78607B687B6160
:104700007B68002B4DD008235B427A6913447B61A0
:104710007B693B613B695A68244B1B681340002B43
:104720000AD14FF0500383F31188BFF36F8FBFF3AB
:104730004F8FFB6000BFFEE73B691B68002B0AD070
:104740004FF0500383F31188BFF36F8FBFF34F8F88
:10475000BB6000BFFEE73B695A68144B1B681340FF
:10476000002B1ED03B691B68002B1AD13B695A688D
:104770000E4B1B68DB431A403B695A60FEF734FF5F
:104780003B695A680A4B1B681344094A136038692D
:1047900000F074F8074B1B680133064A1360FEF7FC
:1047A00031FF00BF1837BD4680BD00BF801100201B
:1047B000701100207C11002080B485B000AF4FF450
:1047C0004063BB60274BFB60FB6803F00703002BD3
:1047D0000CD0FB680733FB60FB6823F00703FB602A
:1047E000BA68FB68D31A1F4A1344BB60FB687B603E
:1047F0001D4A7B6813601C4B00225A607B68BA68B4
:104800001344FB600822FB689B1AFB60FB6823F0E3
:104810000703FB60FB68154A1360144B1B680022FA
:104820005A60124B1B6800221A607B683B603B6831
:10483000FA68D21A3B685A600C4B1A683B681A60D7
:104840003B685B680A4A13603B685B68094A13600F
:10485000094B4FF000421A6000BF1437BD4680BCC0
:10486000704700BF64050020641100206C11002017
:1048700074110020701100208011002080B485B0D8
:1048800000AF7860274BFB6002E0FB681B68FB60B1
:10489000FB681B687A689A42F7D8FB68BB60FB68C4
:1048A0005B68BA6813447A689A4208D1FB685A6810
:1048B0007B685B681A44FB685A60FB687B607B68B6
:1048C000BB607B685B68BA681A44FB681B689A42E5
:1048D00018D1FB681A68144B1B689A420DD07B688C
:1048E0005A68FB681B685B681A447B685A60FB68FF
:1048F0001B681A687B681A6008E00B4B1A687B68B3
:104900001A6003E0FB681A687B681A60FA687B68C3
:104910009A4202D0FB687A681A6000BF1437BD461D
:1049200080BC7047641100206C11002070B5002617
:104930000C4D0D4C641BA410A64209D100F0F0F8F8
:1049400000260A4D0A4C641BA410A64205D170BD76
:1049500055F8043B98470136EEE755F8043B984775
:104960000136F2E7644D0008644D0008644D00080C
:10497000684D0008704770470A44914200F1FF33C8
:1049800000D1704710B511F8014B914203F8014F67
:10499000F9D110BD03460244934200D1704703F899
:1049A000011BF9E738B50C460968054609B1FFF760
:1049B000F9FF21462846BDE8384000F069B80000FC
:1049C0002C4B70B51B680446834251D0436A43B1F7
:1049D000DB68002B4AD1636A196811B1204600F0E8
:1049E00057F8616911B1204600F052F8616A11B1BF
:1049F000204600F04DF8A16B11B1204600F048F8B8
:104A0000E16B11B1204600F043F8216C11B1204652
:104A100000F03EF8E16D11B1204600F039F8A16DCB
:104A200011B1204600F034F8616B11B1204600F05E
:104A30002FF8A369E3B12046A36A9847A16CB9B1E6
:104A40002046BDE87040FFF7ADBF495941B9043574
:104A5000636A802DD968F8D1204600F019F8BAE7CA
:104A60000E68204600F014F83146EFE70025EFE726
:104A700070BD00BF100000200148FFF77BBF00BFE2
:104A8000841100200148FFF776BF00BF8411002089
:104A900038B50546002940D051F8043C0C1F002BC6
:104AA000B8BFE418FFF7E8FF1C4A136833B9636026
:104AB00014602846BDE83840FFF7E4BFA34208D998
:104AC000206821188B4201BF19685B6809182160B2
:104AD000EDE71A465B680BB1A342FAD9116850188A
:104AE000A0420BD120680144501883421160E0D1EC
:104AF00018685B68014411605360DAE702D90C233F
:104B00002B60D6E7206821188B4201BF19685B68CB
:104B10000918216063605460CBE738BD881100201C
:104B2000F8B500BFF8BC08BC9E467047F8B500BF9A
:084B3000F8BC08BC9E4670476A
:104B38004E6F726D616C5461736B000048696768F1
:104B48005461736B000000004C6F775461736B0005
:104B5800384B000841040008000000000000000075
:104B6800800000000000000000000000444B000826
:104B7800910400080100000000000000800000000F
:104B88000000000000000000504B00081905000854
:104B9800FFFF00000000000080000000000000008F
:104BA80000000000456E7465726564204D65646997
:104BB800756D205461736B0A000000004C656176C6
:104BC800696E67204D656469756D205461736B0A61
:104BD8000A000000456E746572656420486967685C
:104BE8005461736B20616E642077616974696E67C4
:104BF80020666F722053656D6170686F72650A0078
:104C080053656D6170686F72652061637175697253
:104C180065642062792048494748205461736B0ACB
:104C2800000000004C656176696E67204869676816
:104C38005461736B20616E642072656C6561736981
:104C48006E672053656D6170686F72650A0A0000AF
:104C5800456E7465726564204C4F575461736B20C0
:104C6800616E642077616974696E6720666F72206F
:104C780073656D6170686F72650A000053656D61D8
:104C880070686F726520616371756972656420620E
:104C980079204C4F57205461736B0A004C6561763C
:104CA800696E67204C4F575461736B20616E6420A6
:104CB80072656C656173696E672053656D617068B4
:104CC8006F72650A0A00000049444C450000000064
:104CD80000000000000000000102030406070809A4
:104CE8000000000001020304020304050607080986
:104CF8000A0B0C0D0E0F101001020000000000003E
:104D0800000000000000000000000000000000009B
:104D1800000000000000000000000000000000008B
:104D2800000000000000000000000000000000007B
:104D3800000000000000000000000000000000006B
:104D4800000000000000000000000000000000005B
:0C4D58000000000000000000000000004F
:044D6400350100080D
:044D6800110100082D
:104D6C0000127A001000000001000000AAAAAAAAF2
:104D7C001400002000000000244D0008444D0008E1
:104D8C00044D0008000000000000000000000000BE
:104D9C000000000000000000000000000000000007
:104DAC0000000000000000000000000000000000F7
:104DBC0000000000000000000000000000000000E7
:104DCC0000000000000000000000000000000000D7
:044DDC0000000000D3
:0400000508000825C2
:00000001FF
