:020000040800F2
:1000000000500020F51B00081D1A0008251A0008E2
:100010002D1A0008351A00083D1A000800000000DB
:1000200000000000000000000000000091530008E4
:10003000451A00080000000071550008B955000875
:100040003D1C00083D1C00083D1C00083D1C00082C
:100050003D1C00083D1C00083D1C00083D1C00081C
:100060003D1C00083D1C00083D1C00083D1C00080C
:100070003D1C00083D1C00083D1C00083D1C0008FC
:100080003D1C00083D1C00083D1C00083D1C0008EC
:100090003D1C00083D1C00083D1C00083D1C0008DC
:1000A0003D1C00083D1C00083D1C00083D1C0008CC
:1000B0003D1C00083D1C0008511A00083D1C0008AA
:1000C0003D1C00083D1C00083D1C00083D1C0008AC
:1000D0003D1C00083D1C00083D1C00083D1C00089C
:1000E0003D1C00083D1C00083D1C000800000000ED
:1000F0000000000000000000000000000000000000
:0C01000000000000000000005FF808F1A3
:1001100010B5054C237833B9044B13B10448AFF341
:1001200000800123237010BDF001002000000000BA
:100130009087000808B5034B1BB103490348AFF390
:10014000008008BD00000000F40100209087000836
:10015000034613F8012B002AFBD1181A0138704707
:1001600081F0004102E000BF83F0004330B54FEA68
:1001700041044FEA430594EA050F08BF90EA020FD5
:100180001FBF54EA000C55EA020C7FEA645C7FEA68
:10019000655C00F0E2804FEA5454D4EB5555B8BF8B
:1001A0006D420CDD2C4480EA020281EA030382EAFC
:1001B000000083EA010180EA020281EA0303362D8E
:1001C00088BF30BD11F0004F4FEA01314FF4801C61
:1001D0004CEA113102D0404261EB410113F0004F73
:1001E0004FEA03334CEA133302D0524263EB43032A
:1001F00094EA050F00F0A780A4F10104D5F1200EC8
:100200000DDB02FA0EFC22FA05F2801841F1000122
:1002100003FA0EF2801843FA05F359410EE0A5F1F6
:1002200020050EF1200E012A03FA0EFC28BF4CF027
:10023000020C43FA05F3C01851EBE37101F00045DD
:1002400007D54FF0000EDCF1000C7EEB00006EEBEA
:100250000101B1F5801F1BD3B1F5001F0CD3490874
:100260005FEA30004FEA3C0C04F101044FEA4452CB
:1002700012F5800F80F09A80BCF1004F08BF5FEA52
:10028000500C50F1000041EB045141EA050130BD32
:100290005FEA4C0C404141EB0101013C28BFB1F544
:1002A000801FE9D291F0000F04BF01460020B1FA8F
:1002B00081F308BF2033A3F10B03B3F120020CDA62
:1002C0000C3208DD02F1140CC2F10C0201FA0CF040
:1002D00021FA02F10CE002F11402D8BFC2F1200CA5
:1002E00001FA02F120FA0CFCDCBF41EA0C0190405B
:1002F000E41AA2BF01EB0451294330BD6FEA0404A4
:100300001F3C1CDA0C340EDC04F11404C4F120028E
:1003100020FA04F001FA02F340EA030021FA04F3A0
:1003200045EA030130BDC4F10C04C4F1200220FAF7
:1003300002F001FA04F340EA0300294630BD21FA35
:1003400004F0294630BD94F0000F83F4801306BFFB
:1003500081F480110134013D4EE77FEA645C18BFEF
:100360007FEA655C29D094EA050F08BF90EA020F86
:1003700005D054EA000C04BF1946104630BD91EA7E
:10038000030F1EBF0021002030BD5FEA545C05D181
:100390004000494128BF41F0004130BD14F58004C0
:1003A0003CBF01F5801130BD01F0004545F0FE4134
:1003B00041F470014FF0000030BD7FEA645C1ABF69
:1003C000194610467FEA655C1CBF0B46024650EAA0
:1003D000013406BF52EA033591EA030F41F40021CC
:1003E00030BD00BF90F0000F04BF0021704730B552
:1003F0004FF4806404F132044FF000054FF0000127
:1004000050E700BF90F0000F04BF0021704730B5E7
:100410004FF4806404F1320410F0004548BF4042BC
:100420004FF000013EE700BF42004FEAE2014FEA11
:1004300031014FEA02701FBF12F07F4393F07F4FEC
:1004400081F06051704732F07F4208BF704793F0EF
:100450007F4F04BF41F40021704730B54FF4607402
:1004600001F0004521F000411CE700BF50EA010205
:1004700008BF704730B54FF000050AE050EA0102AE
:1004800008BF704730B511F0004502D5404261EB1E
:1004900041014FF4806404F132045FEA915C3FF45F
:1004A000D8AE4FF003025FEADC0C18BF03325FEAFC
:1004B000DC0C18BF033202EBDC02C2F1200300FAAD
:1004C00003FC20FA02F001FA03FE40EA0E0021FAD2
:1004D00002F11444BDE600BF70B54FF0FF0C4CF4C0
:1004E000E06C1CEA11541DBF1CEA135594EA0C0F72
:1004F00095EA0C0F00F0DEF82C4481EA030621EAAD
:100500004C5123EA4C5350EA013518BF52EA0335E7
:1005100041F4801143F4801338D0A0FB02CE4FF099
:100520000005E1FB02E506F00042E0FB03E54FF0C9
:100530000006E1FB03569CF0000F18BF4EF0010EC1
:10054000A4F1FF04B6F5007F64F5407404D25FEABD
:100550004E0E6D4146EB060642EAC62141EA555170
:100560004FEAC52040EA5E504FEACE2EB4F1FD0CB2
:1005700088BFBCF5E06F1ED8BEF1004F08BF5FEA30
:10058000500E50F1000041EB045170BD06F00046E2
:1005900046EA010140EA020081EA0301B4EB5C048F
:1005A000C2BFD4EB0C0541EA045170BD41F4801187
:1005B0004FF0000E013C00F3AB8014F1360FDEBFAC
:1005C000002001F0004170BDC4F10004203C35DA88
:1005D0000C341BDC04F11404C4F1200500FA05F30B
:1005E00020FA04F001FA05F240EA020001F00042AC
:1005F00021F0004110EBD37021FA04F642EB060122
:100600005EEA430E08BF20EAD37070BDC4F10C044B
:10061000C4F1200500FA04F320FA05F001FA04F20F
:1006200040EA020001F0004110EBD37041F10001FB
:100630005EEA430E08BF20EAD37070BDC4F1200506
:1006400000FA05F24EEA020E20FA04F301FA05F26E
:1006500043EA020321FA04F001F0004121FA04F216
:1006600020EA020000EBD3705EEA430E08BF20EAE6
:10067000D37070BD94F0000F0FD101F00046400020
:1006800041EB010111F4801F08BF013CF7D041EAA2
:10069000060195F0000F18BF704703F000465200A6
:1006A00043EB030313F4801F08BF013DF7D043EA77
:1006B0000603704794EA0C0F0CEA135518BF95EA2D
:1006C0000C0F0CD050EA410618BF52EA4306D1D1B4
:1006D00081EA030101F000414FF0000070BD50EAD3
:1006E000410606BF1046194652EA430619D094EA5D
:1006F0000C0F02D150EA013613D195EA0C0F05D147
:1007000052EA03361CBF104619460AD181EA03019A
:1007100001F0004141F0FE4141F470014FF0000052
:1007200070BD41F0FE4141F4780170BD70B54FF0ED
:10073000FF0C4CF4E06C1CEA11541DBF1CEA13556D
:1007400094EA0C0F95EA0C0F00F0A7F8A4EB05044F
:1007500081EA030E52EA03354FEA013100F0888046
:100760004FEA03334FF0805545EA131343EA12630F
:100770004FEA022245EA111545EA10654FEA0026C4
:100780000EF000419D4208BF964244F1FD0404F57D
:10079000407402D25B084FEA3202B61A65EB0305D9
:1007A0005B084FEA32024FF480104FF4002CB6EB96
:1007B000020E75EB030E22BFB61A754640EA0C0016
:1007C0005B084FEA3202B6EB020E75EB030E22BF56
:1007D000B61A754640EA5C005B084FEA3202B6EB97
:1007E000020E75EB030E22BFB61A754640EA9C0056
:1007F0005B084FEA3202B6EB020E75EB030E22BF26
:10080000B61A754640EADC0055EA060E18D04FEAE3
:10081000051545EA16754FEA06164FEAC30343EA83
:1008200052734FEAC2025FEA1C1CC0D111F4801F50
:100830000BD141EA00014FF000004FF0004CB6E749
:1008400011F4801F04BF01430020B4F1FD0C88BFE8
:10085000BCF5E06F3FF6AFAEB5EB030C04BFB6EBF3
:10086000020C5FEA500C50F1000041EB045170BDE6
:100870000EF0004E4EEA113114EB5C04C2BFD4EB13
:100880000C0541EA045170BD41F480114FF0000E97
:10089000013C90E645EA060E8DE60CEA135594EA13
:1008A0000C0F08BF95EA0C0F3FF43BAF94EA0C0F16
:1008B0000AD150EA01347FF434AF95EA0C0F7FF48B
:1008C00025AF104619462CE795EA0C0F06D152EADF
:1008D00003353FF4FDAE1046194622E750EA4106C3
:1008E00018BF52EA43067FF4C5AE50EA41047FF4D4
:1008F0000DAF52EA43057FF4EBAE12E74FF0FF3C39
:1009000006E000BF4FF0010C02E000BF4FF0010C09
:100910004DF804CD4FEA410C7FEA6C5C4FEA430C82
:1009200018BF7FEA6C5C1BD001B050EA410C0CBFD1
:1009300052EA430C91EA030F02BF90EA020F002033
:10094000704710F1000F91EA030F58BF994208BF9A
:1009500090422CBFD8176FEAE37040F00100704757
:100960004FEA410C7FEA6C5C02D150EA013C07D1AE
:100970004FEA430C7FEA6C5CD6D152EA033CD3D0F9
:100980005DF8040B704700BF8446104662468C46F3
:100990001946634600E000BF01B5FFF7B7FF002826
:1009A00048BF10F1000F01BD4DF808EDFFF7F4FF4F
:1009B0000CBF012000205DF808FB00BF4DF808EDDA
:1009C000FFF7EAFF34BF012000205DF808FB00BFFD
:1009D0004DF808EDFFF7E0FF94BF012000205DF81F
:1009E00008FB00BF4DF808EDFFF7CEFF94BF0120D4
:1009F00000205DF808FB00BF4DF808EDFFF7C4FFCD
:100A000034BF012000205DF808FB00BF4FEA410C15
:100A10007FEA6C5C02D150EA013C0AD14FEA430CF8
:100A20007FEA6C5C02D152EA033C02D14FF0000035
:100A300070474FF0010070474FEA410212F5001273
:100A400015D211D56FF47873B3EB625212D94FEA15
:100A5000C12343F0004343EA505311F0004F23FAFF
:100A600002F018BF404270474FF00000704750EA54
:100A7000013005D111F0004008BF6FF00040704711
:100A80004FF00000704700BF4FEA4102B2F1E0436F
:100A900024BFB3F5001CDCF1FE5C0DD901F0004C65
:100AA0004FEAC0024CEA5070B2F1004F40EB8300B5
:100AB00008BF20F00100704711F0804F21D113F1E1
:100AC0003872BCBF01F00040704741F480114FEA1A
:100AD0005252C2F11802C2F1200C10FA0CF320FAA3
:100AE00002F018BF40F001004FEAC1234FEAD323C0
:100AF00003FA0CFC40EA0C0023FA02F34FEA43032A
:100B0000CCE77FEA625307D150EA01331EBF4FF0B2
:100B1000FE4040F44000704701F0004040F0FE40CD
:100B200040F40000704700BF80F0004002E000BFCA
:100B300081F0004142001FBF5FEA410392EA030FC8
:100B40007FEA226C7FEA236C6AD04FEA1262D2EB12
:100B50001363C1BFD218414048404140B8BF5B4217
:100B6000192B88BF704710F0004F40F4000020F0B0
:100B70007F4018BF404211F0004F41F4000121F0C6
:100B80007F4118BF494292EA030F3FD0A2F1010210
:100B900041FA03FC10EB0C00C3F1200301FA03F14E
:100BA00000F0004302D5494260EB4000B0F5000F71
:100BB00013D3B0F1807F06D340084FEA310102F130
:100BC0000102FE2A51D2B1F1004F40EBC25008BFE2
:100BD00020F0010040EA03007047490040EB0000AC
:100BE000013A28BFB0F5000FEDD2B0FA80FCACF1AD
:100BF000080CB2EB0C0200FA0CF0AABF00EBC250DA
:100C000052421843BCBFD0401843704792F0000FC7
:100C100081F4000106BF80F400000132013BB5E71A
:100C20004FEA41037FEA226C18BF7FEA236C21D090
:100C300092EA030F04D092F0000F08BF08467047F5
:100C400090EA010F1CBF0020704712F07F4F04D1C3
:100C5000400028BF40F00040704712F100723CBFD6
:100C600000F50000704700F0004343F0FE4040F400
:100C7000000070477FEA226216BF08467FEA2363BE
:100C80000146420206BF5FEA412390EA010F40F4A9
:100C9000800070474FF0000304E000BF10F00043F5
:100CA00048BF40425FEA000C08BF704743F09643DC
:100CB00001464FF000001CE050EA010208BF7047F7
:100CC0004FF000030AE000BF50EA010208BF70477E
:100CD00011F0004302D5404261EB41015FEA010C93
:100CE00002BF84460146002043F0B64308BFA3F18B
:100CF0008053A3F50003BCFA8CF2083AA3EBC2536D
:100D000010DB01FA02FC634400FA02FCC2F120028B
:100D1000BCF1004F20FA02F243EB020008BF20F0C2
:100D20000100704702F1200201FA02FCC2F1200228
:100D300050EA4C0021FA02F243EB020008BF20EA1D
:100D4000DC70704742000ED2B2F1FE4F0BD34FF071
:100D50009E03B3EB126209D44FEA002343F0004331
:100D600023FA02F070474FF00000704712F1610F54
:100D700001D1420202D14FF0FF3070474FF0000026
:100D8000704700BF80B485B000AFF860B9607A608A
:100D9000FB68064A1A60BB68054A1A607B688022B5
:100DA0001A6000BF1437BD4680BC70470C0200209B
:100DB000AC02002080B483B000AF03463960FB80F2
:100DC000FA882B4BA3FB0213D9080B469B000B445C
:100DD0005B00D31A9BB219463B680333254A525C29
:100DE0001A70FB88224AA2FB0323DB089AB2204B2D
:100DF000A3FB0213D9080B469B000B445B00D31ADC
:100E00009BB219463B6802331A4A525C1A70FB883F
:100E1000194AA2FB03235B099AB2154BA3FB0213E9
:100E2000D9080B469B000B445B00D31A9BB21946B2
:100E30003B680133114A525C1A70FB88104AA2FBCE
:100E400003239B099AB20A4BA3FB0213D9080B4652
:100E50009B000B445B00D31A9BB21A46054B9A5C6D
:100E60003B681A7000BF0C37BD4680BC704700BF9E
:100E7000CDCCCCCC000000201F85EB510C00002015
:100E8000D34D621080B584B000AF7860002210218D
:100E9000104801F082F90023FB600EE0FB68C3F10B
:100EA00003031A467B6899184FF0FF3301220A4862
:100EB00001F068FEFB680133FB60FB68032BEDDD8E
:100EC00001221021034801F068F900BF1037BD4628
:100ED00080BD00BF00080140AC04002080B483B096
:100EE00000AF0346FB80084B1B6800225A6200BF1C
:100EF000054B1B685A6AFB889A42F9D300BF00BFB2
:100F00000C37BD4680BC70470405002080B586B014
:100F100000AF78600B467B8007F1080300221A605F
:100F20005A609A60DA607B88BB600123FB60002313
:100F30003B6102237B6107F108031946034800F077
:100F400091FF00BF1837BD4680BD00BF00080140BB
:100F500080B586B000AF78600B467B8007F1080350
:100F600000221A605A609A60DA607B88BB600023B6
:100F7000FB6000233B6107F108031946034800F0BA
:100F800071FF00BF1837BD4680BD00BF000801409B
:100F900080B500AF02210D48FFF7B8FF0022022103
:100FA0000A4801F0FAF844F25060FFF797FF012277
:100FB0000221064801F0F1F81420FFF78FFF02210B
:100FC0000248FFF7C5FF00BF80BD00BF0008014019
:100FD00080B582B000AF0023FB712820FFF77EFFB1
:100FE0000221114801F0C2F80346002B0ED1502017
:100FF000FFF774FF02210C4801F0B8F80346002BFC
:1010000002D00123FB7101E0FF23FB7100BF02212D
:10101000054801F0ABF80346002BF8D1FB791846E0
:101020000837BD4680BD00BF0008014080B582B0D2
:1010300000AF0023BB7137E000BF02211E4801F062
:1010400095F80346002BF8D02820FFF747FF022130
:10105000194801F08BF80346002B0ED1BB79C3F180
:101060000703012202FA03F35BB2DB435AB297F99A
:10107000073013405BB2FB710BE0BB79C3F1070390
:10108000012202FA03F35AB297F9073013435BB215
:10109000FB7100BF0221084801F068F80346002BED
:1010A000F8D1BB790133BB71BB79072BC4D9FB796C
:1010B00018460837BD4680BD00080140B0B59EB057
:1010C00000AF00F0BDFD00F079F800F06DF900F020
:1010D00041F900F0B9F800F0EDF82E4801F09EFF5C
:1010E00000233B6700237B6707F17003184602F07B
:1010F00023FE0346284A1360284B07F154041D467B
:101100000FCD0FC495E8070084E8070007F15403EA
:101110000021184602F0B0FD0346214A1360214B1E
:1011200007F138041D460FCD0FC495E8070084E889
:10113000070007F138030021184602F09DFD034621
:10114000194A1360194B07F11C041D460FCD0FC43B
:1011500095E8070084E8070007F11C030021184602
:1011600002F08AFD0346124A1360124B3C461D46AC
:101170000FCD0FC495E8070084E807003B46002127
:10118000184602F079FD03460B4A136002F06DFD2C
:1011900000BFFDE704050020A4050020B887000873
:1011A00094050020E48700089805002010880008B6
:1011B0009C0500203C880008A005002080B590B068
:1011C00000AF07F1180328220021184605F0B9F9ED
:1011D0003B1D00221A605A609A60DA601A6101238E
:1011E000BB614FF48033FB614FF400333B6201235A
:1011F000BB6202237B634FF48033BB634FF4002355
:10120000FB6307F11803184600F0F8FF0346002BB4
:1012100001D000F09FFA0F237B600223BB60002304
:10122000FB6000233B6100237B613B1D00211846CE
:1012300001F066FA0346002B01D000F08BFA00BFE4
:101240004037BD4680BD000080B500AF174B184A3F
:101250001A60164B4FF482725A60144B00229A6047
:10126000124B0022DA60114B00221A610F4B002250
:101270005A610E4B4FF400729A610C4B1822DA61DE
:101280000A4B00221A62094B00225A62074B0022C5
:101290009A62064B0A22DA62044801F0EFFB034629
:1012A000002B01D000F056FA00BF80BDAC04002036
:1012B0000030014080B586B000AF07F1080300227E
:1012C0001A605A609A60DA603B4600221A605A60DF
:1012D0001E4B1F4A1A601D4B0F225A601B4B0022E7
:1012E0009A601A4B4FF6FF72DA60184B00221A61AF
:1012F000164B00225A61154B00229A61134801F0E7
:101300003EFE0346002B01D000F024FA4FF4805338
:10131000BB6007F1080319460C4802F00BF80346BE
:10132000002B01D000F016FA00233B6000237B6005
:101330003B461946054802F0EDF90346002B01D063
:1013400000F008FA00BF1837BD4680BD0405002034
:10135000002C014080B500AF114B124A1A60104BAF
:101360004FF4E1325A600E4B00229A600C4B00227F
:10137000DA600B4B00221A61094B0C225A61084BB0
:1013800000229A61064B0022DA61054802F032FA27
:101390000346002B01D000F0DDF900BF80BD00BF87
:1013A0004C0500200038014080B588B000AF07F13F
:1013B000100300221A605A609A60DA602E4B9B6913
:1013C0002D4A43F0100393612B4B9B6903F01003EC
:1013D000FB60FB68284B9B69274A43F0200393611D
:1013E000254B9B6903F02003BB60BB68224B9B69C4
:1013F000214A43F0040393611F4B9B6903F00403EC
:101400007B607B6800224FF400511C4800F0C5FE51
:10141000002212211A4800F0C0FE4FF400533B6135
:1014200001237B610023BB610223FB6107F11003F1
:101430001946124800F016FD02233B6101237B612F
:101440000023BB610223FB6107F1100319460C481E
:1014500000F008FD10233B6101237B610023BB6189
:101460000323FB6107F110031946054800F0FAFC5D
:1014700000BF2037BD4680BD001002400010014073
:1014800000080140B0B588B000AF7860364B07F176
:101490000C041D460FCD0FC42B68236007F10C030D
:1014A0001846FEF755FE03469AB207F10C014FF0BD
:1014B000FF332E4802F0EEF9FFF76AFDFFF788FDD3
:1014C00003461A462A4B1A70FFF7B0FD03461A4628
:1014D000284B1A70FFF7AAFD03461A46264B1A70CE
:1014E000FFF7A4FD03461A46244B1A70FFF79EFD32
:1014F00003461A46224B1A70FFF798FD03461A4618
:10150000204B1A801D4B1B781846FEF77BFF0446C4
:101510000D461B4B1B781846FEF774FF4FF0000278
:10152000194BFFF703F902460B4620462946FEF702
:101530001DFE02460B4610461946FFF7A5FA034664
:10154000124A1360114B1B68114A1360094B1B7838
:101550001846FFF79FFB03460E4A13604FF4FA60EC
:1015600002F0D6FB00BF91E7588800084C05002028
:10157000BC050020A8050020A9050020AA05002020
:10158000AB050020AC05002000002440B005002081
:10159000B4050020B805002080B582B000AF7860A7
:1015A0004FF40051044800F010FE4FF4FA6002F0CE
:1015B000AFFB00BFF4E700BF00100140B0B596B02C
:1015C00002AF78602A4B07F108041D460FCD0FC407
:1015D0002B68236007F108031846FEF7B9FD0346A0
:1015E0009AB207F108014FF0FF33224802F052F996
:1015F000214B1B681846FEF717FF02460B4607F102
:101600001C00CDE900231D4A322104F023FF07F11D
:101610001C031846FEF79CFD03469AB207F11C0115
:101620004FF0FF33134802F035F9154B1B6818468D
:10163000FEF7FAFE02460B4607F11C00CDE9002337
:10164000104A322104F006FF07F11C031846FEF78A
:101650007FFD03469AB207F11C014FF0FF330548A6
:1016600002F018F94FF4FA6002F052FB00BFA9E74C
:10167000888800084C050020B40500206C8800080C
:10168000B80500207C880008B0B588B000AF78604D
:10169000052002F03DFB204B07F10C041D460FCD49
:1016A0000FC42B68236007F10C031846FEF750FDAA
:1016B00003469AB207F10C014FF0FF33174802F0CE
:1016C000E9F8174B1B681846FFF73CFB0346DBB2F3
:1016D0001A46920013441A4691001A460B461344C8
:1016E0009B009CB20F4B1B681846FFF72BFB034671
:1016F000DBB223449AB20C4B1A800B4B1B880B496C
:101700001846FFF757FB0948FFF7BCFB4FF4FA6098
:1017100002F0FEFA00BFBEE79C8800084C050020DE
:10172000B4050020B8050020BE050020C00500203B
:1017300080B582B000AF78607B681B68044A934232
:1017400001D100F093FA00BF0837BD4680BD00BF4D
:101750000008004080B400AF72B600BF00BFFDE7D4
:1017600080B584B000AF184B9B69174A43F0010362
:101770009361154B9B6903F00103BB60BB68124B7F
:10178000DB69114A43F08053D3610F4BDB6903F0EF
:1017900080537B607B6800220F216FF0010000F016
:1017A00036FB0A4B5B68FB60FB6823F0E063FB6081
:1017B000FB6843F00073FB60044AFB68536000BFA2
:1017C0001037BD4680BD00BF001002400000014040
:1017D00080B588B000AF786007F1100300221A606E
:1017E0005A609A60DA607B681B68154A934223D17D
:1017F000144B9B69134A43F480539361114B9B69CB
:1018000003F48053FB60FB680E4B9B690D4A43F069
:10181000040393610B4B9B6903F00403BB60BB683B
:10182000A0233B6102237B610323FB6107F11003CB
:101830001946054800F016FB00BF2037BD4680BDA5
:1018400000300140001002400008014080B485B023
:1018500000AF78607B681B68094A93420BD1094B43
:101860009B69084A43F400639361064B9B6903F448
:101870000063FB60FB6800BF1437BD4680BC704747
:10188000002C01400010024080B588B000AF7860A5
:1018900007F1100300221A605A609A60DA607B68D0
:1018A0001B681C4A934231D11B4B9B691A4A43F473
:1018B00080439361184B9B6903F48043FB60FB6892
:1018C000154B9B69144A43F004039361124B9B69C7
:1018D00003F00403BB60BB684FF400733B61022359
:1018E0007B610323FB6107F1100319460B4800F0ED
:1018F000B9FA4FF480633B6100237B610023BB6135
:1019000007F110031946054800F0ACFA00BF203774
:10191000BD4680BD00380140001002400008014073
:1019200080B58EB000AF78600023FB620023BB62FD
:10193000002387F83330344BDB69334A43F0040328
:10194000D361314BDB6903F00403FB60FB6807F1F3
:10195000100207F114031146184601F041F83B6AE2
:10196000FB62FB6A002B03D101F012F8786304E0FC
:1019700001F00EF803465B007B637B6B234AA2FBFE
:1019800003239B0C013BBB62214B224A1A60204B74
:1019900040F2E732DA601E4ABB6A53601C4B0022F9
:1019A0001A611B4B00229A60194B00229A61184859
:1019B00001F0E5FA034687F8333097F83330002B0F
:1019C0001BD1134801F074FB034687F8333097F8B6
:1019D0003330002B11D11E2000F035FA7B680F2B1D
:1019E00008D8002279681E2000F011FA0A4A7B68A4
:1019F000136002E0012387F8333097F8333018463C
:101A00003837BD4680BD00BF0010024083DE1B4357
:101A1000C4050020000800401C00002080B400AF76
:101A200000BFFDE780B400AF00BFFDE780B400AFAA
:101A300000BFFDE780B400AF00BFFDE780B400AF9A
:101A400000BFFDE780B400AF00BFBD4680BC70475B
:101A500080B500AF024801F07DFB00BF80BD00BF34
:101A6000C405002080B400AF01231846BD4680BCE9
:101A7000704780B582B000AF7860396004F00AFE2C
:101A8000034616221A604FF0FF3318460837BD464A
:101A900080BD80B582B000AF78604FF0FF317868CC
:101AA000FFF7E7FF00BFFDE780B586B000AFF86045
:101AB000B9607A6000237B610AE0AFF300800146E1
:101AC000BB685A1CBA60CAB21A707B6901337B6169
:101AD0007A697B689A42F0DB7B6818461837BD4606
:101AE00080BD80B586B000AFF860B9607A60002331
:101AF0007B6109E0BB685A1CBA601B781846AFF3DB
:101B000000807B6901337B617A697B689A42F1DBF3
:101B10007B6818461837BD4680BD80B483B000AFDF
:101B200078604FF0FF3318460C37BD4680BC7047D5
:101B300080B483B000AF786039603B684FF40052E6
:101B40005A60002318460C37BD4680BC704780B4ED
:101B500083B000AF7860012318460C37BD4680BCC7
:101B6000704780B485B000AFF860B9607A60002338
:101B700018461437BD4680BC7047000080B586B05B
:101B800000AF7860144A154BD31A7B617B693B61C7
:101B9000134B1B68002B02D1114B124A1A60104BD9
:101BA0001A687B6813443A699A4207D204F072FDBE
:101BB00003460C221A604FF0FF3309E0084B1B6804
:101BC000FB60074B1A687B681344054A1360FB6887
:101BD00018461837BD4680BD0050002000040000A4
:101BE0000C060020B814002080B400AF00BFBD4632
:101BF00080BC7047FFF7F8FF0B480C490C4A0023E4
:101C000002E0D458C4500433C4188C42F9D3094AB2
:101C1000094C002301E013600432A242FBD304F01C
:101C20003FFDFFF74BFA704700000020F001002055
:101C3000608C0008F0010020B4140020FEE70000D2
:101C400080B500AF084B1B68074A43F010031360D0
:101C5000032000F0D1F80F20FFF762FEFFF780FDB0
:101C60000023184680BD00BF0020024080B400AFB2
:101C7000054B1B781A46054B1B681344034A136037
:101C800000BFBD4680BC7047200000201006002029
:101C900080B400AF024B1B681846BD4680BC70473D
:101CA0001006002080B485B000AF78607B6803F038
:101CB0000703FB600C4BDB68BB60BA684FF6FF03A1
:101CC0001340BB60FB681A02BB68134343F0BF6359
:101CD00043F40033BB60044ABB68D36000BF1437D1
:101CE000BD4680BC704700BF00ED00E080B400AF8F
:101CF000044BDB681B0A03F007031846BD4680BC93
:101D0000704700BF00ED00E080B483B000AF034631
:101D1000FB7197F90730002B0BDBFB7903F01F02F7
:101D2000064997F907305B09012000FA02F241F8F1
:101D3000232000BF0C37BD4680BC704700E100E0A7
:101D400080B483B000AF03463960FB7197F9073068
:101D5000002B0ADB3B68DAB20C4997F90730120115
:101D6000D2B20B4483F800230AE03B68DAB2084998
:101D7000FB7903F00F03043B1201D2B20B441A7635
:101D800000BF0C37BD4680BC704700BF00E100E0DB
:101D900000ED00E080B489B000AFF860B9607A600F
:101DA000FB6803F00703FB61FB69C3F10703042B26
:101DB00028BF0423BB61FB690433062B02D9FB69EE
:101DC000033B00E000237B614FF0FF32BB6902FA66
:101DD00003F3DA43BB681A407B699A404FF0FF3146
:101DE0007B6901FA03F3D9437B680B401343184620
:101DF0002437BD4680BC704780B582B000AF7860A4
:101E00007868FFF74FFF00BF0837BD4680BD80B53B
:101E100086B000AF0346B9607A60FB7300237B6134
:101E2000FFF764FF78617A68B9687869FFF7B2FFF5
:101E3000024697F90F3011461846FFF781FF00BFA1
:101E40001837BD4680BD80B582B000AF0346FB7138
:101E500097F907301846FFF757FF00BF0837BD4610
:101E600080BD000080B48BB000AF78603960002383
:101E70007B6200233B6269E101227B6A02FA03F381
:101E8000FB613B681B68FA691340BB61BA69FB6977
:101E90009A4240F058813B685B689A4A93425ED010
:101EA000984A934275D8984A934258D0964A93429A
:101EB0006FD8964A934252D0944A934269D8944A32
:101EC00093424CD0924A934263D8924A934246D06E
:101ED000904A93425DD8122B2AD8122B59D801A2CE
:101EE00052F823F05F1F0008391F00084B1F00083D
:101EF0008D1F0008931F0008931F0008931F000800
:101F0000931F0008931F0008931F0008931F0008E9
:101F1000931F0008931F0008931F0008931F0008D9
:101F2000931F0008931F0008411F0008551F000859
:101F3000794A934213D02CE03B68DB683B6229E08E
:101F40003B68DB6804333B6224E03B68DB680833B2
:101F50003B621FE03B68DB680C333B621AE03B6886
:101F60009B68002B02D104233B6213E03B689B6813
:101F7000012B05D108233B627B68FA691A6109E0ED
:101F800008233B627B68FA695A6103E000233B62E5
:101F900000E000BFBB69FF2B01D87B6801E07B68D4
:101FA00004337B61BB69FF2B02D87B6A9B0002E094
:101FB0007B6A083B9B003B617B691A680F213B6988
:101FC00001FA03F3DB431A40396A3B6901FA03F370
:101FD0001A437B691A603B685B6803F08053002BEF
:101FE00000F0B1804D4B9B694C4A43F00103936173
:101FF0004A4B9B6903F00103BB60BB68484A7B6A9C
:102000009B08023352F82330FB607B6A03F0030322
:102010009B000F2202FA03F3DB43FA681340FB60D4
:102020007B68404A934213D07B683F4A93420DD06D
:102030007B683E4A934207D07B683D4A934201D178
:10204000032306E0042304E0022302E0012300E06E
:1020500000237A6A02F0030292009340FA68134365
:10206000FB602F497B6A9B080233FA6841F8232002
:102070003B685B6803F48013002B06D02D4B9A68F5
:102080002C49BB6913438B6006E02A4B9A68BB69F5
:10209000DB43284913408B603B685B6803F4001303
:1020A000002B06D0234BDA682249BB691343CB606F
:1020B00006E0204BDA68BB69DB431E491340CB6066
:1020C0003B685B6803F40033002B06D0194B5A6859
:1020D0001849BB6913434B6006E0164B5A68BB694D
:1020E000DB43144913404B603B685B6803F4803367
:1020F000002B21D00F4B1A680E49BB6913430B60AC
:1021000021E000BF0000321000003110000022105A
:1021100000002110000012100000111000100240F9
:102120000000014000080140000C01400010014087
:1021300000140140000401400B4B1A68BB69DB43EB
:10214000094913400B607B6A01337B623B681A6864
:102150007B6A22FA03F3002B7FF48EAE00BF00BF30
:102160002C37BD4680BC70470004014080B485B068
:1021700000AF78600B467B807B689A687B88134051
:10218000002B02D00123FB7301E00023FB73FB7BD8
:1021900018461437BD4680BC704780B483B000AF8A
:1021A00078600B467B8013467B707B78002B03D0D6
:1021B0007A887B681A6103E07B881A047B681A615D
:1021C00000BF0C37BD4680BC704780B485B000AFFF
:1021D00078600B467B807B68DB68FB607A88FB68F5
:1021E00013401A04FB68D9437B880B401A437B6871
:1021F0001A6100BF1437BD4680BC704780B586B0F9
:1022000000AF78607B68002B01D1012372E27B680C
:102210001B6803F00103002B00F08780924B5B6882
:1022200003F00C03042B0CD08F4B5B6803F00C0302
:10223000082B12D18C4B5B6803F48033B3F5803FDD
:102240000BD1894B1B6803F40033002B6CD07B68E7
:102250005B68002B68D101234CE27B685B68B3F5B7
:10226000803F06D1804B1B687F4A43F48033136064
:102270002EE07B685B68002B0CD17B4B1B687A4A95
:1022800023F480331360784B1B68774A23F4802350
:1022900013601DE07B685B68B3F5A02F0CD1724B17
:1022A0001B68714A43F4802313606F4B1B686E4AAE
:1022B00043F4803313600BE06B4B1B686A4A23F4D2
:1022C00080331360684B1B68674A23F480231360D4
:1022D0007B685B68002B13D0FFF7DAFC386108E0FD
:1022E000FFF7D6FC02463B69D31A642B01D90323BE
:1022F00000E25D4B1B6803F40033002BF0D014E0C8
:10230000FFF7C6FC386108E0FFF7C2FC02463B69F4
:10231000D31A642B01D90323ECE1534B1B6803F45C
:102320000033002BF0D100E000BF7B681B6803F096
:102330000203002B63D04C4B5B6803F00C03002BB3
:102340000BD0494B5B6803F00C03082B1CD1464BA8
:102350005B6803F48033002B16D1434B1B6803F0FA
:102360000203002B05D07B681B69012B01D00123E0
:10237000C0E13D4B1B6823F0F8027B685B69DB0022
:10238000394913430B603AE07B681B69002B20D06E
:10239000364B01221A60FFF77BFC386108E0FFF73B
:1023A00077FC02463B69D31A022B01D90323A1E132
:1023B0002D4B1B6803F00203002BF0D02A4B1B6847
:1023C00023F0F8027B685B69DB00274913430B604D
:1023D00015E0264B00221A60FFF75AFC386108E02E
:1023E000FFF756FC02463B69D31A022B01D903239F
:1023F00080E11D4B1B6803F00203002BF0D17B68CA
:102400001B6803F00803002B3AD07B689B69002B04
:1024100019D0174B01221A60FFF73AFC386108E027
:10242000FFF736FC02463B69D31A022B01D903237E
:1024300060E10D4B5B6A03F00203002BF0D001203A
:1024400000F0FEFA1CE00A4B00221A60FFF720FCA5
:1024500038610FE0FFF71CFC02463B69D31A022BE0
:1024600008D9032346E100BF0010024000004242A9
:1024700080044242924B5B6A03F00203002BE9D1D5
:102480007B681B6803F00403002B00F0A680002388
:10249000FB758B4BDB6903F08053002B0DD1884B10
:1024A000DB69874A43F08053D361854BDB6903F0D6
:1024B0008053BB60BB680123FB75824B1B6803F430
:1024C0008073002B18D17F4B1B687E4A43F48073C6
:1024D0001360FFF7DDFB386108E0FFF7D9FB024628
:1024E0003B69D31A642B01D9032303E1754B1B68A5
:1024F00003F48073002BF0D07B68DB68012B06D1DE
:102500006F4B1B6A6E4A43F0010313622DE07B6838
:10251000DB68002B0CD16A4B1B6A694A23F001036C
:102520001362674B1B6A664A23F0040313621CE0C4
:102530007B68DB68052B0CD1614B1B6A604A43F05A
:10254000040313625E4B1B6A5D4A43F0010313628E
:102550000BE05B4B1B6A5A4A23F001031362584B92
:102560001B6A574A23F0040313627B68DB68002B65
:1025700015D0FFF78DFB38610AE0FFF789FB0246B3
:102580003B69D31A41F28832934201D90323B1E067
:102590004B4B1B6A03F00203002BEED014E0FFF755
:1025A00077FB38610AE0FFF773FB02463B69D31AF9
:1025B00041F28832934201D903239BE0404B1B6ACE
:1025C00003F00203002BEED1FB7D012B05D13C4B28
:1025D000DB693B4A23F08053D3617B68DB69002BC6
:1025E00000F08780364B5B6803F00C03082B61D04A
:1025F0007B68DB69022B46D1334B00221A60FFF760
:1026000047FB386108E0FFF743FB02463B69D31AFA
:10261000022B01D903236DE0294B1B6803F00073E3
:10262000002BF0D17B681B6AB3F5803F08D1244BA7
:102630005B6823F400327B689B68214913434B603D
:102640001F4B5B6823F474127B68196A7B685B6AB2
:102650000B431B4913434B601B4B01221A60FFF7CE
:1026600017FB386108E0FFF713FB02463B69D31AFA
:10267000022B01D903233DE0114B1B6803F00073CB
:10268000002BF0D035E0104B00221A60FFF700FB62
:10269000386108E0FFF7FCFA02463B69D31A022BC7
:1026A00001D9032326E0064B1B6803F00073002BBF
:1026B000F0D11EE07B68DB69012B07D1012319E013
:1026C0000010024000700040600042420B4B5B680B
:1026D000FB60FB6803F480327B681B6A9A4206D178
:1026E000FB6803F470127B685B6A9A4201D0012395
:1026F00000E0002318461837BD4680BD0010024098
:1027000080B584B000AF786039607B68002B01D160
:102710000123D0E06A4B1B6803F007033A689A4232
:1027200010D9674B1B6823F0070265493B681343C8
:102730000B60634B1B6803F007033A689A4201D0B1
:102740000123B8E07B681B6803F00203002B20D054
:102750007B681B6803F00403002B05D0594B5B68B2
:10276000584A43F4E06353607B681B6803F0080336
:10277000002B05D0534B5B68524A43F460535360BF
:10278000504B5B6823F0F0027B689B684D49134314
:102790004B607B681B6803F00103002B40D07B6813
:1027A0005B68012B07D1474B1B6803F40033002BF8
:1027B00015D101237FE07B685B68022B07D1414B79
:1027C0001B6803F00073002B09D1012373E03D4B1C
:1027D0001B6803F00203002B01D101236BE0394B8E
:1027E0005B6823F003027B685B68364913434B60E8
:1027F000FFF74EFAF8600AE0FFF74AFA0246FB6874
:10280000D31A41F28832934201D9032353E02D4B6E
:102810005B6803F00C027B685B689B009A42EBD11B
:10282000274B1B6803F007033A689A4210D2244BE7
:102830001B6823F0070222493B6813430B60204BBF
:102840001B6803F007033A689A4201D0012332E083
:102850007B681B6803F00403002B08D0194B5B68EE
:1028600023F4E0627B68DB68164913434B607B68A6
:102870001B6803F00803002B09D0124B5B6823F49C
:1028800060527B681B69DB000E4913434B6000F00C
:1028900021F802460B4B5B681B0903F00F030A4942
:1028A000CB5C22FA03F3094A1360094B1B681846F4
:1028B000FFF736F8002318461037BD4680BD00BF2D
:1028C0000020024000100240B888000818000020D4
:1028D0001C00002080B487B000AF0023FB60002301
:1028E000BB6000237B6100237B6000233B611E4BA8
:1028F0005B68FB60FB6803F00C03042B02D0082B21
:1029000003D027E0194B3B6127E0FB689B0C03F0E9
:102910000F03174AD35C7B60FB6803F48033002B02
:1029200010D0114B5B685B0C03F00103114AD35CC0
:10293000BB607B680D4A03FB02F2BB68B2FBF3F39A
:102940007B6104E07B680C4A02FB03F37B617B69DB
:102950003B6102E0054B3B6100BF3B6918461C37F9
:10296000BD4680BC704700BF0010024000127A00D4
:10297000D0880008E088000800093D0080B400AF5E
:10298000024B1B681846BD4680BC704718000020EB
:1029900080B500AFFFF7F2FF0246054B5B681B0AEC
:1029A00003F007030349CB5C22FA03F3184680BD0A
:1029B00000100240C888000880B500AFFFF7DEFFB6
:1029C0000246054B5B68DB0A03F007030349CB5C57
:1029D00022FA03F3184680BD00100240C8880008A0
:1029E00080B483B000AF786039607B680F221A60D2
:1029F000114B5B6803F003027B685A600E4B5B6807
:102A000003F0F0027B689A600B4B5B6803F4E062B2
:102A10007B68DA60084B5B68DB0803F4E0627B6884
:102A20001A61064B1B6803F007023B681A6000BF7F
:102A30000C37BD4680BC70470010024000200240A9
:102A400080B485B000AF78600A4B1B680A4AA2FBCD
:102A500003235B0A7A6802FB03F3FB6000BFFB6899
:102A60005A1EFA60002BF9D100BF00BF1437BD46D3
:102A700080BC704718000020D34D621080B582B032
:102A800000AF78607B68002B01D1012376E07B6882
:102A90005B6A002B08D17B685B68B3F5827F09D045
:102AA0007B680022DA6105E07B6800221A617B689E
:102AB00000225A617B6800229A627B6893F8513049
:102AC000DBB2002B06D17B68002283F850207868A7
:102AD000FEF77EFE7B68022283F851207B681B682C
:102AE0001A687B681B6822F040021A607B685B688A
:102AF00003F482727B689B6803F404431A437B6887
:102B0000DB6803F400631A437B681B6903F002036C
:102B10001A437B685B6903F001031A437B689B6976
:102B200003F400731A437B68DB6903F038031A432C
:102B30007B681B6A03F0800342EA03017B689B6A9F
:102B400003F400527B681B680A431A607B689B6928
:102B50001A0C7B681B6802F004025A607B681B68D1
:102B6000DA697B681B6822F40062DA617B68002204
:102B70005A657B68012283F85120002318460837E4
:102B8000BD4680BD80B588B000AFF860B9603B60DD
:102B90001346FB80FFF77CF8F861FB887B83FB68BA
:102BA00093F85130DBB2012B01D002232AE1BB683C
:102BB000002B02D0FB88002B01D1012322E1FB680E
:102BC00093F85030012B01D102231BE1FB68012255
:102BD00083F85020FB68032283F85120FB68002211
:102BE0005A65FB68BA681A63FB68FA889A86FB68BC
:102BF000FA88DA86FB6800229A63FB6800229A87CB
:102C0000FB680022DA87FB6800225A64FB68002216
:102C10001A64FB689B68B3F5004F0FD1FB681B6813
:102C20001A68FB681B6822F040021A60FB681B6888
:102C30001A68FB681B6842F480421A60FB681B68D4
:102C40001B6803F04003402B07D0FB681B681A6821
:102C5000FB681B6842F040021A60FB68DB68B3F552
:102C6000006F52D1FB685B68002B02D07B8B012B7D
:102C700045D1FB681B6B1A88FB681B68DA60FB6830
:102C80001B6B9A1CFB681A63FB68DB8E9BB2013BD3
:102C90009AB2FB68DA8632E0FB681B689B6803F037
:102CA0000203022B12D1FB681B6B1A88FB681B689E
:102CB000DA60FB681B6B9A1CFB681A63FB68DB8E8F
:102CC0009BB2013B9AB2FB68DA8618E0FEF7E0FFA0
:102CD0000246FB69D31A3A689A4203D83B68B3F1BB
:102CE000FF3F02D13B68002B09D1FB68012283F82A
:102CF0005120FB68002283F85020032382E0FB6808
:102D0000DB8E9BB2002BC7D153E0FB685B68002BC6
:102D100002D07B8B012B47D1FB681A6BFB681B68C9
:102D20000C3312781A70FB681B6B5A1CFB681A6311
:102D3000FB68DB8E9BB2013B9AB2FB68DA8633E01C
:102D4000FB681B689B6803F00203022B13D1FB682E
:102D50001A6BFB681B680C3312781A70FB681B6BCC
:102D60005A1CFB681A63FB68DB8E9BB2013B9AB26C
:102D7000FB68DA8618E0FEF78BFF0246FB69D31A80
:102D80003A689A4203D83B68B3F1FF3F02D13B68EF
:102D9000002B09D1FB68012283F85120FB68002237
:102DA00083F8502003232DE0FB68DB8E9BB2002BC1
:102DB000C6D1FA693968F86800F0B0F80346002B0C
:102DC00002D0FB6820225A65FB689B68002B0AD161
:102DD00000237B61FB681B68DB687B61FB681B6809
:102DE0009B687B617B69FB68012283F85120FB684B
:102DF000002283F85020FB685B6D002B01D001237B
:102E000000E0002318462037BD4680BD80B588B05D
:102E100000AFF860B9603B601346FB71FEF738FF06
:102E20000246BB6A9B1A3A681344FB61FEF730FF07
:102E3000B861394B1B685B011B0DFA6902FB03F398
:102E40007B6154E03B68B3F1FF3F50D0FEF720FFB9
:102E50000246BB69D31AFA699A4202D9FB69002B70
:102E60003DD1FB681B685A68FB681B6822F0E002D2
:102E70005A60FB685B68B3F5827F11D1FB689B6881
:102E8000B3F5004F04D0FB689B68B3F5806F07D1A2
:102E9000FB681B681A68FB681B6822F040021A6016
:102EA000FB689B6AB3F5005F0FD1FB681B681A686B
:102EB000FB681B6822F400521A60FB681B681A68E2
:102EC000FB681B6842F400521A60FB68012283F819
:102ED0005120FB68002283F85020032317E07B6910
:102EE000002B01D10023FB617B69013B7B61FB6807
:102EF0001B689A68BB681340BA689A420CBF0123EA
:102F00000023DBB21A46FB799A429BD10023184674
:102F10002037BD4680BD00BF1800002080B586B0B8
:102F200002AFF860B9607A607B680093BB680122E9
:102F30000221F868FFF76AFF0346002B07D0FB6801
:102F40005B6D43F02002FB685A65032313E07B6846
:102F50000093BB6800228021F868FFF757FF034603
:102F6000002B07D0FB685B6D43F02002FB685A65BD
:102F7000032300E0002318461037BD4680BD80B50E
:102F800082B000AF78607B68002B01D1012341E063
:102F90007B6893F83D30DBB2002B06D17B680022C2
:102FA00083F83C207868FEF751FC7B68022283F8A6
:102FB0003D207B681A687B6804331946104600F090
:102FC000A5FA7B68012283F846207B68012283F8FA
:102FD0003E207B68012283F83F207B68012283F832
:102FE00040207B68012283F841207B68012283F81E
:102FF00042207B68012283F843207B68012283F80A
:1030000044207B68012283F845207B68012283F8F5
:103010003D20002318460837BD4680BD80B485B0EA
:1030200000AF78607B6893F83D30DBB2012B01D0B4
:10303000012332E07B68022283F83D207B681B6815
:10304000184A93420ED07B681B68B3F1804F09D0B9
:103050007B681B68144A934204D07B681B68134A40
:10306000934211D17B681B689B6803F00703FB60E8
:10307000FB68062B10D07B681B681A687B681B688E
:1030800042F001021A6007E07B681B681A687B68DF
:103090001B6842F001021A60002318461437BD462F
:1030A00080BC7047002C0140000400400008004034
:1030B00080B485B000AF78607B6893F83D30DBB2B8
:1030C000012B01D001233AE07B68022283F83D20E6
:1030D0007B681B68DA687B681B6842F00102DA6073
:1030E0007B681B68184A93420ED07B681B68B3F15B
:1030F000804F09D07B681B68144A934204D07B68D8
:103100001B68134A934211D17B681B689B6803F0CC
:103110000703FB60FB68062B10D07B681B681A68EE
:103120007B681B6842F001021A6007E07B681B683D
:103130001A687B681B6842F001021A600023184677
:103140001437BD4680BC7047002C0140000400408D
:103150000008004080B584B000AF78607B681B68D1
:10316000DB68FB607B681B681B69BB60BB6803F0A6
:103170000203002B20D0FB6803F00203002B1BD0BE
:103180007B681B686FF002021A617B6801221A7764
:103190007B681B689B6903F00303002B03D07868EE
:1031A00000F098F905E0786800F08BF9786800F095
:1031B0009AF97B6800221A77BB6803F00403002B9E
:1031C00020D0FB6803F00403002B1BD07B681B6836
:1031D0006FF004021A617B6802221A777B681B6811
:1031E0009B6903F44073002B03D0786800F072F9F8
:1031F00005E0786800F065F9786800F074F97B689C
:1032000000221A77BB6803F00803002B20D0FB686C
:1032100003F00803002B1BD07B681B686FF00802CB
:103220001A617B6804221A777B681B68DB6903F0EC
:103230000303002B03D0786800F04CF905E07868B0
:1032400000F03FF9786800F04EF97B6800221A77A9
:10325000BB6803F01003002B20D0FB6803F01003C1
:10326000002B1BD07B681B686FF010021A617B6813
:1032700008221A777B681B68DB6903F44073002B14
:1032800003D0786800F026F905E0786800F019F9B5
:10329000786800F028F97B6800221A77BB6803F091
:1032A0000103002B0CD0FB6803F00103002B07D0B7
:1032B0007B681B686FF001021A617868FEF738FAC4
:1032C000BB6803F08003002B0CD0FB6803F0800385
:1032D000002B07D07B681B686FF080021A6178684A
:1032E00000F07FFABB6803F04003002B0CD0FB68B2
:1032F00003F04003002B07D07B681B686FF040028F
:103300001A61786800F0F8F8BB6803F02003002B1E
:103310000CD0FB6803F02003002B07D07B681B68F0
:103320006FF020021A61786800F052FA00BF10377F
:10333000BD4680BD80B584B000AF786039600023A1
:10334000FB737B6893F83C30012B01D10223B4E07E
:103350007B68012283F83C207B68022283F83D20B1
:103360007B681B689B68BB60BB6823F07703BB600E
:10337000BB6823F47F43BB607B681B68BA689A60B4
:103380003B681B68B3F5005F3ED0B3F5005F00F209
:103390008780B3F5805F00F08680B3F5805F7FD8CB
:1033A000702B1AD0702B7BD8602B50D0602B77D825
:1033B000502B3CD0502B73D8402B58D0402B6FD87B
:1033C000302B64D0302B6BD8202B60D0202B67D8CB
:1033D000002B5CD0102B5AD062E07B6818683B68E9
:1033E00099683B685A683B68DB6800F074F97B6851
:1033F0001B689B68BB60BB6843F07703BB607B685E
:103400001B68BA689A604FE07B6818683B689968E7
:103410003B685A683B68DB6800F05DF97B681B68B5
:103420009A687B681B6842F480429A603CE07B6843
:1034300018683B6859683B68DB681A4600F0D4F8A6
:103440007B681B685021184600F02BF92CE07B6844
:1034500018683B6859683B68DB681A4600F0F2F868
:103460007B681B686021184600F01BF91CE07B6834
:1034700018683B6859683B68DB681A4600F0B4F886
:103480007B681B684021184600F00BF90CE07B6854
:103490001A683B681B681946104600F002F903E001
:1034A0000123FB7300E000BF7B68012283F83D200D
:1034B0007B68002283F83C20FB7B18461037BD4612
:1034C00080BD80B483B000AF786000BF0C37BD46CC
:1034D00080BC704780B483B000AF786000BF0C3709
:1034E000BD4680BC704780B483B000AF786000BF39
:1034F0000C37BD4680BC704780B483B000AF7860A5
:1035000000BF0C37BD4680BC7047000080B485B05A
:1035100000AF786039607B681B68FB607B682F4A6E
:1035200093420BD07B68B3F1804F07D07B682C4A65
:10353000934203D07B682B4A934208D1FB6823F067
:103540007003FB603B685B68FA681343FB607B6851
:10355000224A93420BD07B68B3F1804F07D07B683F
:103560001F4A934203D07B681E4A934208D1FB68EE
:1035700023F44073FB603B68DB68FA681343FB602D
:10358000FB6823F080023B685B691343FB607B6848
:10359000FA681A603B689A687B68DA623B681A6866
:1035A0007B689A627B680D4A934203D13B681A6933
:1035B0007B681A637B6801225A617B681B6903F090
:1035C0000103002B05D07B681B6923F001027B6897
:1035D0001A6100BF1437BD4680BC7047002C014003
:1035E000000400400008004080B487B000AFF860DD
:1035F000B9607A60FB681B6A7B61FB681B6A23F019
:103600000102FB681A62FB689B693B613B6923F01E
:10361000F0033B617B681B013A6913433B617B69A3
:1036200023F00A037B617A69BB6813437B61FB6803
:103630003A699A61FB687A691A6200BF1C37BD4615
:1036400080BC704780B487B000AFF860B9607A6022
:10365000FB681B6A7B61FB681B6A23F01002FB6836
:103660001A62FB689B693B613B6923F470433B61D1
:103670007B681B033A6913433B617B6923F0A0031A
:103680007B61BB681B017A6913437B61FB683A6904
:103690009A61FB687A691A6200BF1C37BD4680BC1C
:1036A000704780B485B000AF786039607B689B68F4
:1036B000FB60FB6823F07003FB603A68FB68134310
:1036C00043F00703FB607B68FA689A6000BF143719
:1036D000BD4680BC704780B487B000AFF860B96069
:1036E0007A603B60FB689B687B617B6923F47F4366
:1036F0007B613B681A027B681A43BB6813437A6993
:1037000013437B61FB687A699A6000BF1C37BD4632
:1037100080BC704780B485B000AF786039607B684A
:1037200093F83C30012B01D1022346E07B68012253
:1037300083F83C207B68022283F83D207B681B686D
:103740005B68FB607B681B689B68BB60FB6823F061
:103750007003FB603B681B68FA681343FB607B687F
:103760001B68FA685A607B681B68164A93420ED041
:103770007B681B68B3F1804F09D07B681B68124AD5
:10378000934204D07B681B68104A93420CD1BB68FB
:1037900023F08003BB603B685B68BA681343BB607F
:1037A0007B681B68BA689A607B68012283F83D20B9
:1037B0007B68002283F83C20002318461437BD465E
:1037C00080BC7047002C014000040040000800400D
:1037D00080B483B000AF786000BF0C37BD4680BCBA
:1037E000704780B483B000AF786000BF0C37BD462F
:1037F00080BC704780B582B000AF78607B68002BDA
:1038000001D1012342E07B6893F84130DBB2002B09
:1038100006D17B68002283F840207868FEF734F8F0
:103820007B68242283F841207B681B68DA687B6808
:103830001B6822F40052DA60786800F071F97B6846
:103840001B681A697B681B6822F490421A617B68C6
:103850001B685A697B681B6822F02A025A617B68E0
:103860001B68DA687B681B6842F40052DA607B6888
:1038700000225A647B68202283F841207B68202242
:1038800083F842207B6800225A63002318460837D9
:10389000BD4680BD80B58AB002AFF860B9603B60BC
:1038A0001346FB8000237B61FB6893F84130DBB259
:1038B000202B75D1BB68002B02D0FB88002B01D1D7
:1038C00001236EE0FB6800225A64FB68212283F822
:1038D0004120FEF7DDF97861FB68FA889A84FB687D
:1038E000FA88DA84FB689B68B3F5805F08D1FB68CF
:1038F0001B69002B04D10023FB61BB68BB6103E0A3
:10390000BB68FB610023BB612EE03B6800937B69D1
:1039100000228021F86800F048F80346002B05D00B
:10392000FB68202283F8412003233AE0FB69002B47
:103930000BD1BB691B881A46FB681B68C2F30802DF
:103940005A60BB690233BB6107E0FB691A78FB6808
:103950001B685A60FB690133FB61FB68DB8C9BB21F
:10396000013B9AB2FB68DA84FB68DB8C9BB2002BCC
:10397000CBD13B6800937B6900224021F86800F0BE
:1039800014F80346002B05D0FB68202283F8412061
:10399000032306E0FB68202283F84120002300E097
:1039A000022318462037BD4680BD80B586B000AFE3
:1039B000F860B9603B601346FB713BE03B6AB3F1D2
:1039C000FF3F37D0FEF764F902463B68D31A3A6AE4
:1039D0009A4202D33B6A002B01D103233AE0FB68F1
:1039E0001B68DB6803F00403002B23D0BB68802B2B
:1039F00020D0BB68402B1DD0FB681B681B6803F000
:103A00000803082B16D100237B61FB681B681B6829
:103A10007B61FB681B685B687B617B69F86800F011
:103A20001DF8FB6808225A64FB68002283F84020D6
:103A300001230FE0FB681B681A68BB681340BA6873
:103A40009A420CBF01230023DBB21A46FB799A424B
:103A5000B4D0002318461837BD4680BD80B495B059
:103A600000AF78607B681B680C337B637B6B53E82B
:103A7000003F3B633B6B23F49073FB647B681B68E4
:103A80000C33FA6C3A64FB63F96B3A6C41E800233F
:103A9000BB63BB6B002BE5D17B681B6814333B62B7
:103AA0003B6A53E8003FFB61FB6923F00103BB6401
:103AB0007B681B681433BA6CFA62BB62B96AFA6A33
:103AC00041E800237B627B6A002BE5D17B681B6B9E
:103AD000012B19D17B681B680C33FB60FB6853E832
:103AE000003FBB60BB6823F010037B647B681B68EE
:103AF0000C337A6CBA617B617969BA6941E8002359
:103B00003B613B69002BE5D17B68202283F8422092
:103B10007B6800221A6300BF5437BD4680BC7047E3
:103B200080B584B000AF78607B681B681B6923F4A4
:103B300040517B68DA687B681B680A431A617B68BE
:103B40009A687B681B691A437B685B691343BB6097
:103B50007B681B68DB6823F4B05323F00C037A689E
:103B60001268B9680B43D3607B681B685B6923F4F8
:103B700040717B689A697B681B680A435A617B685D
:103B80001B682C4A934203D1FEF716FFF86002E04F
:103B9000FEF7FEFEF860FA6813469B0013449A0095
:103BA0001A447B685B689B00B2FBF3F3224AA2FBDA
:103BB00003235B091901FA6813469B0013449A001A
:103BC0001A447B685B689B00B2FBF3F21A4BA3FBC1
:103BD00002035B09642000FB03F3D31A1B01323399
:103BE000154AA2FB03235B0903F0F0031944FA68AA
:103BF00013469B0013449A001A447B685B689B0041
:103C0000B2FBF3F20C4BA3FB02035B09642000FB45
:103C100003F3D31A1B013233074AA2FB03235B09C8
:103C200003F00F027B681B680A449A6000BF1037DC
:103C3000BD4680BD003801401F85EB5180B485B082
:103C400000AF0346FB800023FB60B7F90630842BEE
:103C500005D0B7F90620FB6813440333FB60FB680B
:103C600018461437BD4680BC704780B500AF00F0E1
:103C700041FE0023184680BDF0B589B004AF7860DE
:103C800039607B685B69002B20D07B689B69002BC7
:103C90001CD07B685C687B681D687B681E697B68DC
:103CA000B3F908301846FFF7C9FF01467B685B6926
:103CB0007A6892690292019300913B6832462946E4
:103CC000204600F03FFC0346FB601CE07B685C681C
:103CD0007B681D687B681B699EB27B68B3F90830FE
:103CE0001846FFF7ABFF024607F10C030193009261
:103CF0003B6832462946204600F084FC0346012BEF
:103D000001D0002300E0FB6818461437BD46F0BD23
:103D100080B584B000AF78607B68FB60FB68002BE7
:103D200001D0FB6800E00123184600F0ADFD002340
:103D300018461037BD4680BD80B582B000AF7860B0
:103D40007B685B68002B07D07B685B6819460120A5
:103D500000F01EFA034603E0012000F001FA0346DA
:103D600018460837BD4680BD80B483B000AF786088
:103D70007B6803F108027B685A607B684FF0FF3272
:103D80009A607B6803F108027B68DA607B6803F164
:103D900008027B681A617B6800221A6000BF0C373A
:103DA000BD4680BC704780B483B000AF78607B684C
:103DB00000221A6100BF0C37BD4680BC704780B43A
:103DC00085B000AF786039607B685B68FB603B68FA
:103DD000FA685A60FB689A683B689A60FB689B685F
:103DE0003A685A60FB683A689A603B687A681A6178
:103DF0007B681B685A1C7B681A6000BF1437BD467D
:103E000080BC704780B485B000AF786039603B6893
:103E10001B68BB60BB68B3F1FF3F03D17B681B69C4
:103E2000FB600CE07B680833FB6002E0FB685B68CA
:103E3000FB60FB685B681B68BA689A42F6D2FB6855
:103E40005A683B685A603B685B683A689A603B68AE
:103E5000FA689A60FB683A685A603B687A681A6147
:103E60007B681B685A1C7B681A6000BF1437BD460C
:103E700080BC704780B485B000AF78607B681B69F8
:103E8000FB607B685B687A6892689A607B689B6875
:103E90007A6852685A60FB685B687A689A4203D114
:103EA0007B689A68FB685A607B6800221A61FB682D
:103EB0001B685A1EFB681A60FB681B68184614379B
:103EC000BD4680BC704780B584B000AF7860396073
:103ED0007B68FB60FB68002B0BD14FF0500383F332
:103EE0001188BFF36F8FBFF34F8FBB6000BF00BF60
:103EF000FDE701F0E3FAFB681A68FB68DB6BF96821
:103F0000096C01FB03F31A44FB689A60FB6800220A
:103F10009A63FB681A68FB685A60FB681A68FB685A
:103F2000DB6B013BF968096C01FB03F31A44FB6886
:103F3000DA60FB68FF2283F84420FB68FF2283F8E5
:103F400045203B68002B09D1FB681B69002B0FD073
:103F5000FB681033184600F0F3FE09E0FB681033ED
:103F60001846FFF701FFFB6824331846FFF7FCFEF5
:103F700001F0D4FA012318461037BD4680BD80B544
:103F80008EB002AFF860B9607A603B60FB68002BCE
:103F90000BD14FF0500383F31188BFF36F8FBFF342
:103FA0004F8FBB6200BF00BFFDE73B68002B0BD10A
:103FB0004FF0500383F31188BFF36F8FBFF34F8F20
:103FC0007B6200BF00BFFDE77B68002B02D0BB68AF
:103FD000002B01D0012300E00023002B0BD14FF078
:103FE000500383F31188BFF36F8FBFF34F8F3B6292
:103FF00000BF00BFFDE77B68002B02D1BB68002B30
:1040000001D1012300E00023002B0BD14FF050031E
:1040100083F31188BFF36F8FBFF34F8FFB6100BF36
:1040200000BFFDE748237B617B69482B0BD04FF035
:10403000500383F31188BFF36F8FBFF34F8FBB61C2
:1040400000BF00BFFDE77B693B68FB62FB6A002B9A
:104050000DD0FB6A012283F8462097F83820FB6ACE
:10406000009313467A68B968F86800F040F8FB6A74
:1040700018463037BD4680BD80B58AB002AFF860C3
:10408000B9601346FB71FB68002B0BD14FF0500356
:1040900083F31188BFF36F8FBFF34F8F3B6100BF76
:1040A00000BFFDE7FB68BA6802FB03F3FB61FB6935
:1040B0004833184601F0C4FAB861BB69002B11D02F
:1040C000BB697B617B6948337B61BB69002283F8F4
:1040D0004620FA79BB69009313467A69B968F86893
:1040E00000F005F8BB6918462037BD4680BD80B595
:1040F00084B000AFF860B9607A60FB70BB68002BD9
:1041000003D1BB69BA691A6002E0BB697A681A60B8
:10411000BB69FA68DA63BB69BA681A640121B869D5
:10412000FFF7D1FE00BF1037BD4680BD80B582B01D
:1041300000AF78607B68002B0ED07B6800229A600D
:104140007B6800221A607B680022DA60002300226C
:104150000021786800F038F800BF0837BD4680BD00
:1041600080B586B000AF0346FB7101237B6100235D
:104170003B61FB791A4639697869FFF77DFFF86082
:10418000F868FFF7D3FFFB6818461837BD4680BDB7
:1041900080B588B002AF03463960FB7101237B61B3
:1041A00000233B61FB7900933B6800223969786901
:1041B000FFF7E5FEF860F868FFF7B8FFFB68184600
:1041C0001837BD4680BD000080B58EB000AFF860E6
:1041D000B9607A603B6000237B63FB683B633B6BA9
:1041E000002B0BD14FF0500383F31188BFF36F8F77
:1041F000BFF34F8FBB6200BF00BFFDE7BB68002B62
:1042000003D13B6B1B6C002B01D1012300E0002389
:10421000002B0BD14FF0500383F31188BFF36F8F46
:10422000BFF34F8F7B6200BF00BFFDE73B68022BEF
:1042300003D13B6BDB6B012B01D1012300E0002399
:10424000002B0BD14FF0500383F31188BFF36F8F16
:10425000BFF34F8F3B6200BF00BFFDE700F030FFB0
:104260000346002B02D17B68002B01D1012300E023
:104270000023002B0BD14FF0500383F31188BFF3C1
:104280006F8FBFF34F8FFB6100BF00BFFDE701F0F1
:1042900015F93B6B9A6B3B6BDB6B9A4202D33B6825
:1042A000022B12D13A68B968386B00F077F8F862DF
:1042B0003B6B5B6A002B04D03B6B2433184600F049
:1042C0003FFD01F02BF9012362E07B68002B03D155
:1042D00001F024F900235BE07B6B002B06D107F192
:1042E0001403184600F090FD01237B6301F016F9DA
:1042F00000F06AFB01F0E2F83B6B93F844305BB2EC
:10430000B3F1FF3F03D13B6B002283F844203B6BAA
:1043100093F845305BB2B3F1FF3F03D13B6B002212
:1043200083F8452001F0FAF83A1D07F1140311460D
:10433000184600F07FFD0346002B23D1386B00F0B8
:10434000E9F80346002B17D03B6B10337A6811460F
:10435000184600F0CFFC386B00F08AF800F042FB02
:104360000346002B93D10C4B4FF080521A60BFF3E1
:104370004F8FBFF36F8F8AE7386B00F079F800F04A
:1043800031FB84E7386B00F073F800F02BFB00235F
:1043900018463837BD4680BD04ED00E080B586B0D4
:1043A00000AFF860B9607A6000237B61FB689B6BAB
:1043B0003B61FB681B6C002B0DD1FB681B68002B5D
:1043C0004DD1FB689B68184600F098FE7861FB6849
:1043D00000229A6043E07B68002B19D1FB68586883
:1043E000FB681B6C1A46B96802F08FF9FB685A68C3
:1043F000FB681B6C1A44FB685A60FB685A68FB68D0
:104400009B689A422BD3FB681A68FB685A6026E0C7
:10441000FB68D868FB681B6C1A46B96802F075F92E
:10442000FB68DA68FB681B6C5B421A44FB68DA6065
:10443000FB68DA68FB681B689A4207D2FB689A68D7
:10444000FB681B6C5B421A44FB68DA607B68022BDA
:1044500005D13B69002B02D03B69013B3B613B69C5
:104460005A1CFB689A637B6918461837BD4680BDA5
:1044700080B584B000AF786001F020F87B6893F8D5
:104480004530FB7311E07B685B6A002B12D07B68C0
:104490002433184600F054FC0346002B01D000F0F2
:1044A0002DFDFB7B013BDBB2FB7397F90F30002B3B
:1044B000E9DC00E000BF7B68FF2283F8452001F0C3
:1044C0002DF800F0FBFF7B6893F84430BB7311E0DC
:1044D0007B681B69002B12D07B681033184600F0F4
:1044E0002FFC0346002B01D000F008FDBB7B013BF5
:1044F000DBB2BB7397F90E30002BE9DC00E000BFA4
:104500007B68FF2283F8442001F008F800BF1037D1
:10451000BD4680BD80B584B000AF786000F0CEFFAE
:104520007B689A6B7B68DB6B9A4202D10123FB604C
:1045300001E00023FB6000F0F1FFFB681846103734
:10454000BD4680BD80B58EB004AFF860B9607A60BA
:104550003B607B6B002B0BD14FF0500383F3118832
:10456000BFF36F8FBFF34F8F3B6200BF00BFFDE70C
:10457000BB6B002B0BD14FF0500383F31188BFF3BB
:104580006F8FBFF34F8FFB6100BF00BFFDE7A0231C
:104590003B613B69A02B0BD04FF0500383F3118894
:1045A000BFF36F8FBFF34F8FBB6100BF00BFFDE74D
:1045B0003B69BB6B002B1ED07B6B002B1BD0BB6BF6
:1045C0007B627B6A7A6B1A637B6A022283F89D2086
:1045D000002303937B6A029307F1140301933B6B5F
:1045E00000933B687A68B968F86800F051F8786A17
:1045F00000F0EEF801E000237B617B691846283764
:10460000BD4680BD80B58CB004AFF860B9603B603A
:104610001346FB80FB889B00184601F011F8786177
:104620007B69002B0ED0A02001F00AF8F861FB692D
:10463000002B03D0FB697A691A6305E0786901F001
:10464000CDF801E00023FB61FB69002B17D0FB696B
:10465000002283F89D20FA8800230393FB690293CC
:10466000FB6A0193BB6A00933B68B968F86800F085
:104670000FF8F86900F0ACF80123BB6102E04FF0DD
:10468000FF33BB61BB6918462037BD4680BD0000C3
:1046900080B588B000AFF860B9607A603B603B6B72
:1046A0001A6B7B6803F18043013B9B001344BB61A1
:1046B000BB6923F00703BB61BB6903F00703002B51
:1046C0000BD04FF0500383F31188BFF36F8FBFF30C
:1046D0004F8F7B6100BF00BFFDE7BB68002B1FD081
:1046E0000023FB6112E0BA68FB69134419783A6B46
:1046F000FB69134434330A461A70BA68FB691344E1
:104700001B78002B06D0FB690133FB61FB690F2B83
:10471000E9D900E000BF3B6B002283F8432003E0AF
:104720003B6B002283F83420BB6A062B01D9062399
:10473000BB623B6BBA6ADA623B6BBA6A5A643B6B28
:1047400000229A643B6B04331846FFF72CFB3B6B4B
:1047500018331846FFF727FB3B6B3A6B1A61BB6AAD
:10476000C3F107023B6B9A613B6B3A6B5A623B6B3E
:104770000022C3F898203B6B002283F89C203B6BFF
:104780004C334C220021184601F0DBFE3B6B0D4AF6
:104790001A653B6B0C4A5A653B6B0C4A9A653A6842
:1047A000F968B86900F098FD02463B6B1A60FB6A35
:1047B000002B02D0FB6A3A6B1A6000BF2037BD465F
:1047C00080BD00BF68130020D013002038140020E3
:1047D00080B582B000AF786000F070FE244B1B689B
:1047E0000133234A1360234B1B68002B09D1214A54
:1047F0007B6813601E4B1B68012B10D100F09CFBE3
:104800000DE01D4B1B68002B09D11A4B1B68DA6A9F
:104810007B68DB6A9A4202D8164A7B681360174BA2
:104820001B680133154A13607B68DB6A01229A40DA
:10483000134B1B681343124A13607B68DA6A1346F2
:104840009B0013449B000F4A1A447B6804331946AB
:104850001046FFF7B4FA00F061FE074B1B68002B0F
:1048600001D0044B1B6800BF0837BD4680BD00BFA8
:104870001407002014060020200700203007002025
:104880001C0700201806002080B584B000AF7860B7
:104890000023FB607B68002B18D0144B1B68002B97
:1048A0000BD04FF0500383F31188BFF36F8FBFF32A
:1048B0004F8FBB6000BF00BFFDE700F085F800210F
:1048C000786800F0A3FC00F08DF8F860FB68002B1E
:1048D00007D1074B4FF080521A60BFF34F8FBFF3E1
:1048E0006F8F00BF1037BD4680BD00BF3C07002062
:1048F00004ED00E080B58AB004AF0023BB60002364
:104900007B603A46391D07F108031846FCF73AFA6E
:1049100039687B68BA6802920193002300930023F0
:104920000A4621492148FFF70DFE0346204A13603D
:104930001F4B1B68002B02D001237B6101E0002389
:104940007B617B69012B1BD14FF0500383F31188EE
:10495000BFF36F8FBFF34F8F3B6100BF154B1B68D9
:104960004C33154A1360154B4FF0FF321A60144B4D
:1049700001221A60134B00221A6000F02DFD0FE097
:104980007B69B3F1FF3F0BD14FF0500383F31188E4
:10499000BFF36F8FBFF34F8FFB6000BF00BFFDE71A
:1049A00000BF1837BD4680BDB0880008154F00080D
:1049B00038070020140600203400002034070020AF
:1049C000200700201807002080B400AF044B1B68AC
:1049D0000133034A136000BFBD4680BC704700BF6F
:1049E0003C07002080B584B000AF0023FB600023AB
:1049F0007B603C4B1B68002B0BD14FF0500383F3C3
:104A00001188BFF36F8FBFF34F8F3B6000BF00BFB4
:104A1000FDE700F053FD334B1B68013B314A136047
:104A2000304B1B68002B55D12F4B1B68002B51D0EE
:104A30002EE02E4BDB68DB68FB60FB681833184602
:104A4000FFF718FAFB6804331846FFF713FAFB6800
:104A5000DB6A01229A40264B1B681343244A1360E9
:104A6000FB68DA6A13469B0013449B00214A1A44F0
:104A7000FB68043319461046FFF7A1F9FB68DA6AB0
:104A80001D4B1B68DB6A9A4202D31C4B01221A6041
:104A9000164B1B68002BCCD1FB68002B01D000F01B
:104AA000EFFA174B1B68BB60BB68002B10D000F0FF
:104AB00029F80346002B02D0104B01221A60BB6874
:104AC000013BBB60BB68002BF1D10D4B00221A608B
:104AD0000A4B1B6800F022FD7B6818461037BD4664
:104AE00080BD00BF3C07002014070020D406002032
:104AF0001C070020180600201406002028070020AC
:104B00002407002080B586B000AF00237B613F4BB7
:104B10001B68002B70D13E4B1B6801333B613C4A44
:104B20003B6913603B69002B21D13A4B1B681B6822
:104B3000002B0BD04FF0500383F31188BFF36F8F1E
:104B4000BFF34F8F3B6000BF00BFFDE7314B1B68D9
:104B5000FB60314B1B682F4A13602F4AFB681360C0
:104B60002E4B1B6801332D4A136000F089FA2C4B41
:104B70001B683A699A4244D3264B1B681B68002B7A
:104B800004D1274B4FF0FF321A603AE0214B1B68EB
:104B9000DB68DB68BB60BB685B687B603A697B682D
:104BA0009A4203D21E4A7B6813602AE0BB68043332
:104BB0001846FFF75FF9BB689B6A002B04D0BB68FF
:104BC00018331846FFF756F9BB68DB6A01229A4092
:104BD000144B1B681343134A1360BB68DA6A13460D
:104BE0009B0013449B00104A1A44BB6804331946C7
:104BF0001046FFF7E4F8BFE70C4B1B6801330B4A84
:104C000013607B6918461837BD4680BD3C070020FD
:104C100018070020CC060020D00600202C0700201A
:104C2000340700201C07002018060020240700205D
:104C300080B487B000AF294B1B68002B03D0284BF2
:104C400001221A6045E0264B00221A60254B1B68A2
:104C5000FB60FB68B3FA83F3FB72FB7AC3F11F03BB
:104C60007B6121497A6913469B0013449B000B44E6
:104C70001B68002B0BD14FF0500383F31188BFF357
:104C80006F8FBFF34F8F7B6000BF00BFFDE77A6976
:104C900013469B0013449B00134A13443B613B693A
:104CA0005B685A683B695A603B695A683B690833DC
:104CB0009A4204D13B695B685A683B695A603B6918
:104CC0005B68DB68094A1360084B1B684C33084A71
:104CD000136000BF1C37BD4680BC70473C070020F6
:104CE000280700201C0700201806002014060020BA
:104CF0003400002080B584B000AF786039607B68F4
:104D0000002B0BD14FF0500383F31188BFF36F8F4B
:104D1000BFF34F8FFB6000BF00BFFDE7074B1B6871
:104D2000183319467868FFF76DF80121386800F0EC
:104D30006DFA00BF1037BD4680BD00BF14060020CD
:104D400080B586B000AF78607B68DB68DB683B616C
:104D50003B69002B0BD14FF0500383F31188BFF355
:104D60006F8FBFF34F8FFB6000BF00BFFDE73B6954
:104D700018331846FFF77EF81D4B1B68002B1CD11B
:104D80003B6904331846FFF775F83B69DB6A01227B
:104D90009A40184B1B681343164A13603B69DA6A42
:104DA00013469B0013449B00134A1A443B69043387
:104DB00019461046FFF703F805E03B69183319461A
:104DC0000E48FEF7FCFF3B69DA6A0D4B1B68DB6A95
:104DD0009A4205D901237B610A4B01221A6001E046
:104DE00000237B617B6918461837BD4680BD00BF34
:104DF0003C0700201C07002018060020D4060020D5
:104E0000140600202807002080B483B000AF78602B
:104E1000064B1A687B681A60054B1A687B685A60F3
:104E200000BF0C37BD4680BC704700BF2C07002078
:104E30001807002080B588B000AF786039607B68C3
:104E4000002B0BD14FF0500383F31188BFF36F8F0A
:104E5000BFF34F8F3B6100BF00BFFDE73B68002BF6
:104E60000BD14FF0500383F31188BFF36F8FBFF363
:104E70004F8FFB6000BF00BFFDE700F01FFB1D4B25
:104E80001B68BB617B685B68BA69D31A7B613B684E
:104E90001B68B3F1FF3F02D10023FB6123E07B6875
:104EA0001A68154B1B689A4207D07B685B68BA6921
:104EB0009A4202D30123FB6115E03B681B687A69C3
:104EC0009A420BD23B681A687B69D21A3B681A6017
:104ED0007868FFF799FF0023FB6104E03B6800223C
:104EE0001A600123FB6100F019FBFB6918462037AB
:104EF000BD4680BD180700202C07002080B400AFFD
:104F0000034B01221A6000BFBD4680BC704700BF42
:104F10002807002080B582B000AF786000F04CF820
:104F2000044B4FF080521A60BFF34F8FBFF36F8F67
:104F300000BFF3E704ED00E080B582B000AF0023CE
:104F40007B600CE07A6813469B0013449B00124A76
:104F500013441846FEF708FF7B6801337B607B68CB
:104F6000062BEFD90D48FEF7FFFE0D48FEF7FCFEBD
:104F70000C48FEF7F9FE0C48FEF7F6FE0B48FEF76C
:104F8000F3FE0B4B054A1A600A4B054A1A6000BF34
:104F90000837BD4680BD00BF18060020A4060020CB
:104FA000B8060020D4060020E806002000070020F4
:104FB000CC060020D006002080B582B000AF19E0FA
:104FC00000F07CFA104BDB68DB687B607B680433A5
:104FD0001846FEF74FFF0D4B1B68013B0B4A136051
:104FE0000B4B1B68013B0A4A136000F097FA786884
:104FF00000F010F8064B1B68002BE1D100BF00BF8A
:105000000837BD4680BD00BFE80600201407002019
:10501000FC06002080B584B000AF78607B684C331C
:10502000184601F0ABFA7B6893F89D30002B08D14D
:105030007B681B6B184600F0D1FB786800F0CEFB54
:1050400019E07B6893F89D30012B03D1786800F05C
:10505000C5FB10E07B6893F89D30022B0BD04FF01E
:10506000500383F31188BFF36F8FBFF34F8FFB6043
:1050700000BF00BFFDE700BF1037BD4680BD000088
:1050800080B483B000AF0C4B1B681B68002B04D1AD
:105090000A4B4FF0FF321A6008E0074B1B68DB68D1
:1050A000DB687B607B685B68044A136000BF0C3779
:1050B000BD4680BC704700BFCC06002034070020EE
:1050C00080B483B000AF0B4B1B68002B02D10123CF
:1050D0007B6008E0084B1B68002B02D102237B6039
:1050E00001E000237B607B6818460C37BD4680BC1E
:1050F000704700BF200700203C07002080B586B025
:1051000000AF78607B683B6100237B617B68002B8C
:1051100070D03B4B1B683A699A420BD04FF050035A
:1051200083F31188BFF36F8FBFF34F8FFB6000BF16
:1051300000BFFDE73B699B6C002B0BD14FF0500388
:1051400083F31188BFF36F8FBFF34F8FBB6000BF36
:1051500000BFFDE73B699B6C5A1E3B699A643B6943
:10516000DA6A3B695B6C9A4244D03B699B6C002BCA
:1051700040D13B6904331846FEF77CFE0346002B02
:1051800015D13B69DA6A1F4913469B0013449B0003
:105190000B441B68002B0AD13B69DB6A012202FA2F
:1051A00003F3DA43184B1B681340174A13603B693B
:1051B0005A6C3B69DA623B69DB6AC3F107023B69FF
:1051C0009A613B69DB6A01229A400F4B1B681343CB
:1051D0000D4A13603B69DA6A13469B0013449B0037
:1051E000084A1A443B69043319461046FEF7E7FDA6
:1051F00001237B617B6918461837BD4680BD00BF1F
:1052000014060020180600201C07002080B584B07A
:1052100000AF78603960294B1B68FB60284B1B6826
:1052200004331846FEF726FE0346002B0BD1244B11
:105230001B68DB6A012202FA03F3DA43214B1B6885
:105240001340204A13607B68B3F1FF3F0AD13B68EB
:10525000002B07D01A4B1B68043319461A48FEF777
:10526000AEFD26E0FA687B681344BB60144B1B68F4
:10527000BA685A60BA68FB689A4209D2134B1A6836
:105280000F4B1B68043319461046FEF7BBFD10E0B8
:105290000F4B1A680A4B1B68043319461046FEF779
:1052A000B1FD0C4B1B68BA689A4202D2094ABB682E
:1052B000136000BF1037BD4680BD00BF1807002037
:1052C000140600201C07002000070020D006002044
:1052D000CC0600203407002080B485B000AFF86011
:1052E000B9607A60FB68043BFB60FB684FF080723A
:1052F0001A60FB68043BFB60BB6823F00102FB689B
:105300001A60FB68043BFB60084AFB681A60FB6894
:10531000143BFB607A68FB681A60FB68203BFB600B
:10532000FB6818461437BD4680BC704731530008EF
:1053300080B485B000AF00237B60124B1B68B3F1D3
:10534000FF3F0BD04FF0500383F31188BFF36F8FF3
:10535000BFF34F8FFB6000BF00BFFDE74FF050036E
:1053600083F31188BFF36F8FBFF34F8FBB6000BF14
:1053700000BF7B68002BFCD000BF00BF1437BD46C8
:1053800080BC7047240000200000000000000000E6
:10539000074B19680868B0E8F00F80F30988BFF37D
:1053A0006F8F4FF0000080F311884EF00D0E7047A4
:1053B0001406002000BF00BF06480068006880F3A4
:1053C000088862B661B6BFF34F8FBFF36F8F00DFFF
:1053D00000BF00BF08ED00E080B584B000AF324BE5
:1053E000FB60FB681B78DBB27B60FB68FF221A70F6
:1053F000FB681B78DBB2FB70FB78DBB203F0500379
:10540000DAB22A4B1A702A4B07221A6009E0284B9D
:105410001B68013B264A1360FB78DBB25B00DBB202
:10542000FB70FB78DBB203F08003802BEFD0204BC6
:105430001B68C3F10703042B0BD04FF0500383F319
:105440001188BFF36F8FBFF34F8FBB6000BF00BFEA
:10545000FDE7174B1B681B02154A1360144B1B68B2
:1054600003F4E063124A13607B68DAB2FB681A70D7
:10547000104B1B680F4A43F4700313600D4B1B68FD
:105480000C4A43F07043136000F0B8F80A4B002256
:105490001A60FFF791FFFFF7CBFBFFF749FF0023EF
:1054A00018461037BD4680BD00E400E040070020EC
:1054B0004407002020ED00E02400002080B483B0E9
:1054C00000AF4FF0500383F31188BFF36F8FBFF32A
:1054D0004F8F7B6000BF0F4B1B6801330D4A136079
:1054E0000C4B1B68012B10D10B4B1B68DBB2002B44
:1054F0000BD04FF0500383F31188BFF36F8FBFF3CE
:105500004F8F3B6000BF00BFFDE700BF0C37BD46BB
:1055100080BC70472400002004ED00E080B483B01C
:1055200000AF124B1B68002B0BD14FF0500383F3DD
:105530001188BFF36F8FBFF34F8F7B6000BF00BF39
:10554000FDE70A4B1B68013B084A1360074B1B68C9
:10555000002B05D100233B603B6883F3118800BF1B
:1055600000BF0C37BD4680BC704700BF2400002040
:10557000EFF30980BFF36F8F0D4B1A6820E9F00F2E
:1055800010602DE908404FF0500080F31188FFF7BC
:105590004FFB4FF0000080F31188BDE80840196808
:1055A0000868B0E8F00F80F30988BFF36F8F704789
:1055B0001406002000BF00BF80B582B000AF4FF0DE
:1055C000500383F31188BFF36F8FBFF34F8F7B605E
:1055D00000BFFFF797FA0346002B03D0064B4FF0AE
:1055E00080521A6000233B603B6883F3118800BF40
:1055F00000BF0837BD4680BD04ED00E080B400AFB9
:105600000A4B00221A600A4B00221A60094B1B68E1
:10561000094AA2FB03239B09084A013B1360034B81
:1056200007221A6000BFBD4680BC704710E000E052
:1056300018E000E018000020D34D621014E000E0F4
:1056400080B58AB000AF78600023FB61FFF7BCF93A
:105650005C4B1B68002B01D100F024F95A4B1A68EF
:105660007B681340002B40F095807B68002B1ED098
:1056700008227B6813447B607B6803F00703002BE0
:1056800015D07B6823F0070308337B607B6803F049
:105690000703002B0BD04FF0500383F31188BFF3A7
:1056A0006F8FBFF34F8F7B6100BF00BFFDE77B684B
:1056B000002B6FD0454B1B687A689A426AD8444BDE
:1056C0003B62434B1B687B6204E07B6A3B627B6A04
:1056D0001B687B627B6A5B687A689A4203D97B6A43
:1056E0001B68002BF1D1374B1B687A6A9A4251D064
:1056F0003B6A1B6808221344FB617B6A1A683B6A99
:105700001A607B6A5A687B68D21A08235B009A4247
:1057100020D97A6A7B681344BB61BB6903F0070335
:10572000002B0BD04FF0500383F31188BFF36F8F22
:10573000BFF34F8F3B6100BF00BFFDE77B6A5A6834
:105740007B68D21ABB695A607B6A7A685A60B8690A
:1057500000F00AF91D4B1A687B6A5B68D31A1B4A72
:1057600013601A4B1A681B4B1B689A4203D2174BE3
:105770001B68184A13607B6A5A68134B1B681A43EC
:105780007B6A5A607B6A00221A60134B1B680133E4
:10579000114A1360FFF726F9FB6903F00703002B9A
:1057A0000BD04FF0500383F31188BFF36F8FBFF31B
:1057B0004F8FFB6000BF00BFFDE7FB69184628372D
:1057C000BD4680BD501300206413002054130020F8
:1057D00048130020581300205C13002080B586B0C9
:1057E00000AF78607B687B617B68002B4FD008231B
:1057F0005B427A6913447B617B693B613B695A6810
:10580000254B1B681340002B0BD14FF0500383F343
:105810001188BFF36F8FBFF34F8FFB6000BF00BFD6
:10582000FDE73B691B68002B0BD04FF0500383F35F
:105830001188BFF36F8FBFF34F8FBB6000BF00BFF6
:10584000FDE73B695A68144B1B681340002B1ED0C0
:105850003B691B68002B1AD13B695A680E4B1B68C9
:10586000DB431A403B695A60FFF7AEF83B695A6860
:105870000A4B1B681344094A1360386900F074F836
:10588000074B1B680133064A1360FFF7ABF800BFF4
:105890001837BD4680BD00BF64130020541300209C
:1058A0006013002080B485B000AF4FF44063BB604C
:1058B000274BFB60FB6803F00703002B0CD0FB6851
:1058C0000733FB60FB6823F00703FB60BA68FB68E3
:1058D000D31A1F4A1344BB60FB687B601D4A7B6878
:1058E00013601C4B00225A607B68BA681344FB604B
:1058F0000822FB689B1AFB60FB6823F00703FB6030
:10590000FB68154A1360144B1B6800225A60124B47
:105910001B6800221A607B683B603B68FA68D21AF9
:105920003B685A600C4B1A683B681A603B685B68BE
:105930000A4A13603B685B68094A1360094B4FF0E1
:1059400000421A6000BF1437BD4680BC704700BFDC
:10595000480700204813002050130020581300204F
:10596000541300206413002080B485B000AF786029
:10597000274BFB6002E0FB681B68FB60FB681B6851
:105980007A689A42F7D8FB68BB60FB685B68BA68C4
:1059900013447A689A4208D1FB685A687B685B684E
:1059A0001A44FB685A60FB687B607B68BB607B685D
:1059B0005B68BA681A44FB681B689A4218D1FB6896
:1059C0001A68144B1B689A420DD07B685A68FB68B2
:1059D0001B685B681A447B685A60FB681B681A681E
:1059E0007B681A6008E00B4B1A687B681A6003E05A
:1059F000FB681A687B681A60FA687B689A4202D072
:105A0000FB687A681A6000BF1437BD4680BC7047D7
:105A10004813002050130020002B2DE9F0471D46AD
:105A2000BBBF03F100431D4600232D2388B014465D
:105A3000B8BF1446129A109E1370149BDDF84CA048
:105A400023F02008B8F1460F05D0B8F1450F00D17A
:105A50000136022300E0032307AA049206AACDE937
:105A600002A2CDE9003622462B4600F0E5FEB8F151
:105A7000470F074619D1119BDB070ED500EB06092E
:105A80000022002320462946FAF78EFF08B1CDF800
:105A90001C903022079B4B451ED33846079B159A16
:105AA000DB1B136008B0BDE8F087B8F1460F00EBD0
:105AB0000609E5D10378302B0AD1002200232046C5
:105AC0002946FAF771FF18B9C6F10106CAF8006055
:105AD000DAF800309944D3E7591C07911A70D9E7D6
