:020000040800F2
:1000000000500020D11C0008E51A0008ED1A000875
:10001000F51A0008FD1A0008051B00080000000082
:10002000000000000000000000000000615E000809
:100030000D1B0008000000004160000889600008F6
:10004000191D0008191D0008191D0008191D0008B8
:10005000191D0008191D0008191D0008191D0008A8
:10006000191D0008191D0008191D0008191D000898
:10007000191D0008191D0008191D0008191D000888
:10008000191D0008191D0008191D0008191D000878
:10009000191D0008191D0008191D0008191D000868
:1000A000191D0008191D0008191D0008191D000858
:1000B000191D0008191D0008191B0008191D00084A
:1000C000191D0008191D0008191D0008191D000838
:1000D000191D00082D1B0008191D0008191D000816
:1000E000191D0008191D0008191D00080000000056
:1000F0000000000000000000000000000000000000
:0C01000000000000000000005FF808F1A3
:1001100010B5054C237833B9044B13B10448AFF341
:1001200000800123237010BDF401002000000000B6
:100130006092000808B5034B1BB103490348AFF3B5
:10014000008008BD00000000F80100206092000857
:10015000034613F8012B002AFBD1181A0138704707
:1001600081F0004102E000BF83F0004330B54FEA68
:1001700041044FEA430594EA050F08BF90EA020FD5
:100180001FBF54EA000C55EA020C7FEA645C7FEA68
:10019000655C00F0E2804FEA5454D4EB5555B8BF8B
:1001A0006D420CDD2C4480EA020281EA030382EAFC
:1001B000000083EA010180EA020281EA0303362D8E
:1001C00088BF30BD11F0004F4FEA01314FF4801C61
:1001D0004CEA113102D0404261EB410113F0004F73
:1001E0004FEA03334CEA133302D0524263EB43032A
:1001F00094EA050F00F0A780A4F10104D5F1200EC8
:100200000DDB02FA0EFC22FA05F2801841F1000122
:1002100003FA0EF2801843FA05F359410EE0A5F1F6
:1002200020050EF1200E012A03FA0EFC28BF4CF027
:10023000020C43FA05F3C01851EBE37101F00045DD
:1002400007D54FF0000EDCF1000C7EEB00006EEBEA
:100250000101B1F5801F1BD3B1F5001F0CD3490874
:100260005FEA30004FEA3C0C04F101044FEA4452CB
:1002700012F5800F80F09A80BCF1004F08BF5FEA52
:10028000500C50F1000041EB045141EA050130BD32
:100290005FEA4C0C404141EB0101013C28BFB1F544
:1002A000801FE9D291F0000F04BF01460020B1FA8F
:1002B00081F308BF2033A3F10B03B3F120020CDA62
:1002C0000C3208DD02F1140CC2F10C0201FA0CF040
:1002D00021FA02F10CE002F11402D8BFC2F1200CA5
:1002E00001FA02F120FA0CFCDCBF41EA0C0190405B
:1002F000E41AA2BF01EB0451294330BD6FEA0404A4
:100300001F3C1CDA0C340EDC04F11404C4F120028E
:1003100020FA04F001FA02F340EA030021FA04F3A0
:1003200045EA030130BDC4F10C04C4F1200220FAF7
:1003300002F001FA04F340EA0300294630BD21FA35
:1003400004F0294630BD94F0000F83F4801306BFFB
:1003500081F480110134013D4EE77FEA645C18BFEF
:100360007FEA655C29D094EA050F08BF90EA020F86
:1003700005D054EA000C04BF1946104630BD91EA7E
:10038000030F1EBF0021002030BD5FEA545C05D181
:100390004000494128BF41F0004130BD14F58004C0
:1003A0003CBF01F5801130BD01F0004545F0FE4134
:1003B00041F470014FF0000030BD7FEA645C1ABF69
:1003C000194610467FEA655C1CBF0B46024650EAA0
:1003D000013406BF52EA033591EA030F41F40021CC
:1003E00030BD00BF90F0000F04BF0021704730B552
:1003F0004FF4806404F132044FF000054FF0000127
:1004000050E700BF90F0000F04BF0021704730B5E7
:100410004FF4806404F1320410F0004548BF4042BC
:100420004FF000013EE700BF42004FEAE2014FEA11
:1004300031014FEA02701FBF12F07F4393F07F4FEC
:1004400081F06051704732F07F4208BF704793F0EF
:100450007F4F04BF41F40021704730B54FF4607402
:1004600001F0004521F000411CE700BF50EA010205
:1004700008BF704730B54FF000050AE050EA0102AE
:1004800008BF704730B511F0004502D5404261EB1E
:1004900041014FF4806404F132045FEA915C3FF45F
:1004A000D8AE4FF003025FEADC0C18BF03325FEAFC
:1004B000DC0C18BF033202EBDC02C2F1200300FAAD
:1004C00003FC20FA02F001FA03FE40EA0E0021FAD2
:1004D00002F11444BDE600BF70B54FF0FF0C4CF4C0
:1004E000E06C1CEA11541DBF1CEA135594EA0C0F72
:1004F00095EA0C0F00F0DEF82C4481EA030621EAAD
:100500004C5123EA4C5350EA013518BF52EA0335E7
:1005100041F4801143F4801338D0A0FB02CE4FF099
:100520000005E1FB02E506F00042E0FB03E54FF0C9
:100530000006E1FB03569CF0000F18BF4EF0010EC1
:10054000A4F1FF04B6F5007F64F5407404D25FEABD
:100550004E0E6D4146EB060642EAC62141EA555170
:100560004FEAC52040EA5E504FEACE2EB4F1FD0CB2
:1005700088BFBCF5E06F1ED8BEF1004F08BF5FEA30
:10058000500E50F1000041EB045170BD06F00046E2
:1005900046EA010140EA020081EA0301B4EB5C048F
:1005A000C2BFD4EB0C0541EA045170BD41F4801187
:1005B0004FF0000E013C00F3AB8014F1360FDEBFAC
:1005C000002001F0004170BDC4F10004203C35DA88
:1005D0000C341BDC04F11404C4F1200500FA05F30B
:1005E00020FA04F001FA05F240EA020001F00042AC
:1005F00021F0004110EBD37021FA04F642EB060122
:100600005EEA430E08BF20EAD37070BDC4F10C044B
:10061000C4F1200500FA04F320FA05F001FA04F20F
:1006200040EA020001F0004110EBD37041F10001FB
:100630005EEA430E08BF20EAD37070BDC4F1200506
:1006400000FA05F24EEA020E20FA04F301FA05F26E
:1006500043EA020321FA04F001F0004121FA04F216
:1006600020EA020000EBD3705EEA430E08BF20EAE6
:10067000D37070BD94F0000F0FD101F00046400020
:1006800041EB010111F4801F08BF013CF7D041EAA2
:10069000060195F0000F18BF704703F000465200A6
:1006A00043EB030313F4801F08BF013DF7D043EA77
:1006B0000603704794EA0C0F0CEA135518BF95EA2D
:1006C0000C0F0CD050EA410618BF52EA4306D1D1B4
:1006D00081EA030101F000414FF0000070BD50EAD3
:1006E000410606BF1046194652EA430619D094EA5D
:1006F0000C0F02D150EA013613D195EA0C0F05D147
:1007000052EA03361CBF104619460AD181EA03019A
:1007100001F0004141F0FE4141F470014FF0000052
:1007200070BD41F0FE4141F4780170BD70B54FF0ED
:10073000FF0C4CF4E06C1CEA11541DBF1CEA13556D
:1007400094EA0C0F95EA0C0F00F0A7F8A4EB05044F
:1007500081EA030E52EA03354FEA013100F0888046
:100760004FEA03334FF0805545EA131343EA12630F
:100770004FEA022245EA111545EA10654FEA0026C4
:100780000EF000419D4208BF964244F1FD0404F57D
:10079000407402D25B084FEA3202B61A65EB0305D9
:1007A0005B084FEA32024FF480104FF4002CB6EB96
:1007B000020E75EB030E22BFB61A754640EA0C0016
:1007C0005B084FEA3202B6EB020E75EB030E22BF56
:1007D000B61A754640EA5C005B084FEA3202B6EB97
:1007E000020E75EB030E22BFB61A754640EA9C0056
:1007F0005B084FEA3202B6EB020E75EB030E22BF26
:10080000B61A754640EADC0055EA060E18D04FEAE3
:10081000051545EA16754FEA06164FEAC30343EA83
:1008200052734FEAC2025FEA1C1CC0D111F4801F50
:100830000BD141EA00014FF000004FF0004CB6E749
:1008400011F4801F04BF01430020B4F1FD0C88BFE8
:10085000BCF5E06F3FF6AFAEB5EB030C04BFB6EBF3
:10086000020C5FEA500C50F1000041EB045170BDE6
:100870000EF0004E4EEA113114EB5C04C2BFD4EB13
:100880000C0541EA045170BD41F480114FF0000E97
:10089000013C90E645EA060E8DE60CEA135594EA13
:1008A0000C0F08BF95EA0C0F3FF43BAF94EA0C0F16
:1008B0000AD150EA01347FF434AF95EA0C0F7FF48B
:1008C00025AF104619462CE795EA0C0F06D152EADF
:1008D00003353FF4FDAE1046194622E750EA4106C3
:1008E00018BF52EA43067FF4C5AE50EA41047FF4D4
:1008F0000DAF52EA43057FF4EBAE12E74FF0FF3C39
:1009000006E000BF4FF0010C02E000BF4FF0010C09
:100910004DF804CD4FEA410C7FEA6C5C4FEA430C82
:1009200018BF7FEA6C5C1BD001B050EA410C0CBFD1
:1009300052EA430C91EA030F02BF90EA020F002033
:10094000704710F1000F91EA030F58BF994208BF9A
:1009500090422CBFD8176FEAE37040F00100704757
:100960004FEA410C7FEA6C5C02D150EA013C07D1AE
:100970004FEA430C7FEA6C5CD6D152EA033CD3D0F9
:100980005DF8040B704700BF8446104662468C46F3
:100990001946634600E000BF01B5FFF7B7FF002826
:1009A00048BF10F1000F01BD4DF808EDFFF7F4FF4F
:1009B0000CBF012000205DF808FB00BF4DF808EDDA
:1009C000FFF7EAFF34BF012000205DF808FB00BFFD
:1009D0004DF808EDFFF7E0FF94BF012000205DF81F
:1009E00008FB00BF4DF808EDFFF7CEFF94BF0120D4
:1009F00000205DF808FB00BF4DF808EDFFF7C4FFCD
:100A000034BF012000205DF808FB00BF4FEA410C15
:100A10007FEA6C5C02D150EA013C0AD14FEA430CF8
:100A20007FEA6C5C02D152EA033C02D14FF0000035
:100A300070474FF0010070474FEA410212F5001273
:100A400015D211D56FF47873B3EB625212D94FEA15
:100A5000C12343F0004343EA505311F0004F23FAFF
:100A600002F018BF404270474FF00000704750EA54
:100A7000013005D111F0004008BF6FF00040704711
:100A80004FF00000704700BF4FEA4102B2F1E0436F
:100A900024BFB3F5001CDCF1FE5C0DD901F0004C65
:100AA0004FEAC0024CEA5070B2F1004F40EB8300B5
:100AB00008BF20F00100704711F0804F21D113F1E1
:100AC0003872BCBF01F00040704741F480114FEA1A
:100AD0005252C2F11802C2F1200C10FA0CF320FAA3
:100AE00002F018BF40F001004FEAC1234FEAD323C0
:100AF00003FA0CFC40EA0C0023FA02F34FEA43032A
:100B0000CCE77FEA625307D150EA01331EBF4FF0B2
:100B1000FE4040F44000704701F0004040F0FE40CD
:100B200040F40000704700BF80F0004002E000BFCA
:100B300081F0004142001FBF5FEA410392EA030FC8
:100B40007FEA226C7FEA236C6AD04FEA1262D2EB12
:100B50001363C1BFD218414048404140B8BF5B4217
:100B6000192B88BF704710F0004F40F4000020F0B0
:100B70007F4018BF404211F0004F41F4000121F0C6
:100B80007F4118BF494292EA030F3FD0A2F1010210
:100B900041FA03FC10EB0C00C3F1200301FA03F14E
:100BA00000F0004302D5494260EB4000B0F5000F71
:100BB00013D3B0F1807F06D340084FEA310102F130
:100BC0000102FE2A51D2B1F1004F40EBC25008BFE2
:100BD00020F0010040EA03007047490040EB0000AC
:100BE000013A28BFB0F5000FEDD2B0FA80FCACF1AD
:100BF000080CB2EB0C0200FA0CF0AABF00EBC250DA
:100C000052421843BCBFD0401843704792F0000FC7
:100C100081F4000106BF80F400000132013BB5E71A
:100C20004FEA41037FEA226C18BF7FEA236C21D090
:100C300092EA030F04D092F0000F08BF08467047F5
:100C400090EA010F1CBF0020704712F07F4F04D1C3
:100C5000400028BF40F00040704712F100723CBFD6
:100C600000F50000704700F0004343F0FE4040F400
:100C7000000070477FEA226216BF08467FEA2363BE
:100C80000146420206BF5FEA412390EA010F40F4A9
:100C9000800070474FF0000304E000BF10F00043F5
:100CA00048BF40425FEA000C08BF704743F09643DC
:100CB00001464FF000001CE050EA010208BF7047F7
:100CC0004FF000030AE000BF50EA010208BF70477E
:100CD00011F0004302D5404261EB41015FEA010C93
:100CE00002BF84460146002043F0B64308BFA3F18B
:100CF0008053A3F50003BCFA8CF2083AA3EBC2536D
:100D000010DB01FA02FC634400FA02FCC2F120028B
:100D1000BCF1004F20FA02F243EB020008BF20F0C2
:100D20000100704702F1200201FA02FCC2F1200228
:100D300050EA4C0021FA02F243EB020008BF20EA1D
:100D4000DC70704742000ED2B2F1FE4F0BD34FF071
:100D50009E03B3EB126209D44FEA002343F0004331
:100D600023FA02F070474FF00000704712F1610F54
:100D700001D1420202D14FF0FF3070474FF0000026
:100D8000704700BF80B485B000AFF860B9607A608A
:100D9000FB68064A1A60BB68054A1A607B688022B5
:100DA0001A6000BF1437BD4680BC70471002002097
:100DB000B002002080B582B000AF78607B681B680D
:100DC000144A934221D1144B1B78312B0AD1134B77
:100DD00001221A704FF0FF3310221149114802F01E
:100DE00079FE0DE00C4B1B78302B09D10B4B002208
:100DF0001A704FF0FF3310220B490A4802F06AFEC6
:100E000001220549074802F0F0FE00BF0837BD4641
:100E100080BD00BF00380140AC050020000000206C
:100E200078920008500500208C92000880B483B0AE
:100E300000AF03463960FB80FA882B4BA3FB0213FB
:100E4000D9080B469B000B445B00D31A9BB2194692
:100E50003B680333254A525C1A70FB88224AA2FB86
:100E60000323DB089AB2204BA3FB0213D9080B46DD
:100E70009B000B445B00D31A9BB219463B680233BC
:100E80001A4A525C1A70FB88194AA2FB03235B09B9
:100E90009AB2154BA3FB0213D9080B469B000B44D7
:100EA0005B00D31A9BB219463B680133114A525C6E
:100EB0001A70FB88104AA2FB03239B099AB20A4BC3
:100EC000A3FB0213D9080B469B000B445B00D31A0B
:100ED0009BB21A46054B9A5C3B681A7000BF0C37F0
:100EE000BD4680BC704700BFCDCCCCCC04000020F8
:100EF0001F85EB5110000020D34D621080B584B0E7
:100F000000AF786000221021104801F066FA00233B
:100F1000FB600EE0FB68C3F103031A467B68991877
:100F20004FF0FF3301220A4801F04CFFFB68013308
:100F3000FB60FB68032BEDDD01221021034801F06B
:100F40004CFA00BF1037BD4680BD00BF000801400D
:100F5000B004002080B483B000AF0346FB80084B90
:100F60001B6800225A6200BF054B1B685A6AFB8847
:100F70009A42F9D300BF00BF0C37BD4680BC704712
:100F80000805002080B586B000AF78600B467B80F6
:100F900007F1080300221A605A609A60DA607B88C1
:100FA000BB600123FB6000233B6102237B6107F1EF
:100FB00008031946034801F075F800BF1837BD460D
:100FC00080BD00BF0008014080B586B000AF7860EA
:100FD0000B467B8007F1080300221A605A609A6072
:100FE000DA607B88BB600023FB6000233B6107F174
:100FF00008031946034801F055F800BF1837BD46ED
:1010000080BD00BF0008014080B500AF02210D483F
:10101000FFF7B8FF002202210A4801F0DEF944F28E
:101020005060FFF797FF01220221064801F0D5F931
:101030001420FFF78FFF02210248FFF7C5FF00BF12
:1010400080BD00BF0008014080B582B000AF002322
:10105000FB712820FFF77EFF0221114801F0A6F95D
:101060000346002B0ED15020FFF774FF02210C48DD
:1010700001F09CF90346002B02D00123FB7101E033
:10108000FF23FB7100BF0221054801F08FF90346E1
:10109000002BF8D1FB7918460837BD4680BD00BF4C
:1010A0000008014080B582B000AF0023BB7137E07B
:1010B00000BF02211E4801F079F90346002BF8D049
:1010C0002820FFF747FF0221194801F06FF9034676
:1010D000002B0ED1BB79C3F10703012202FA03F3FF
:1010E0005BB2DB435AB297F9073013405BB2FB7136
:1010F0000BE0BB79C3F10703012202FA03F35AB2F2
:1011000097F9073013435BB2FB7100BF0221084817
:1011100001F04CF90346002BF8D1BB790133BB71C8
:10112000BB79072BC4D9FB7918460837BD4680BD6B
:1011300000080140B0B59EB000AF00F0EFFD00F038
:1011400083F800F077F900F04BF900F0C3F800F0F5
:10115000F7F8314802F082F801223049304802F0B5
:1011600044FD00233B6700237B6707F170031846AB
:1011700003F048FB03462B4A13602B4B07F1540442
:101180001D460FCD0FC495E8070084E8070007F15E
:1011900054030021184603F0D5FA0346234A13608E
:1011A000234B07F138041D460FCD0FC495E8070007
:1011B00084E8070007F138030021184603F0C2FA5B
:1011C00003461C4A13601C4B07F11C041D460FCD3F
:1011D0000FC495E8070084E8070007F11C0300210D
:1011E000184603F0AFFA0346144A1360144B3C460A
:1011F0001D460FCD0FC495E8070084E807003B4665
:101200000021184603F09EFA03460E4A136003F0CD
:1012100092FA00BFFDE700BF08050020AC050020E2
:1012200050050020A8050020B09200089805002075
:10123000DC9200089C05002008930008A00500200F
:1012400034930008A405002080B590B000AF07F1EA
:10125000180328220021184605F0DBFE3B1D002262
:101260001A605A609A60DA601A610123BB614FF418
:101270008033FB614FF400333B620123BB620223E6
:101280007B634FF48033BB634FF40023FB6307F1B0
:101290001803184601F0D2F80346002B01D000F0E5
:1012A000B5FA0F237B600223BB600023FB600023A1
:1012B0003B6100237B613B1D0021184601F040FB90
:1012C0000346002B01D000F0A1FA00BF4037BD4615
:1012D00080BD000080B500AF174B184A1A60164B4E
:1012E0004FF482725A60144B00229A60124B002213
:1012F000DA60114B00221A610F4B00225A610E4B2B
:101300004FF400729A610C4B1822DA610A4B0022EA
:101310001A62094B00225A62074B00229A62064B5E
:101320000A22DA62044801F0C9FC0346002B01D00E
:1013300000F06CFA00BF80BDB00400200030014016
:1013400080B586B000AF07F1080300221A605A602A
:101350009A60DA603B4600221A605A601E4B1F4AB0
:101360001A601D4B0F225A601B4B00229A601A4BC9
:101370004FF6FF72DA60184B00221A61164B0022FA
:101380005A61154B00229A61134801F018FF034679
:10139000002B01D000F03AFA4FF48053BB6007F104
:1013A000080319460C4802F0E5F80346002B01D06B
:1013B00000F02CFA00233B6000237B603B4619467B
:1013C000054802F0C7FA0346002B01D000F01EFAD0
:1013D00000BF1837BD4680BD08050020002C014025
:1013E00080B500AF114B124A1A60104B4FF4E13236
:1013F0005A600E4B00229A600C4B0022DA600B4BB5
:1014000000221A61094B0C225A61084B00229A6192
:10141000064B0022DA61054802F00CFB0346002B64
:1014200001D000F0F3F900BF80BD00BF50050020DF
:101430000038014080B588B000AF07F110030022EA
:101440001A605A609A60DA602E4B9B692D4A43F00D
:10145000100393612B4B9B6903F01003FB60FB6847
:10146000284B9B69274A43F020039361254B9B69D6
:1014700003F02003BB60BB68224B9B69214A43F009
:10148000040393611F4B9B6903F004037B607B683B
:1014900000224FF400511C4800F09FFF002212214F
:1014A0001A4800F09AFF4FF400533B6101237B611F
:1014B0000023BB610223FB6107F1100319461248A8
:1014C00000F0F0FD02233B6101237B610023BB613F
:1014D0000223FB6107F1100319460C4800F0E2FDFE
:1014E00010233B6101237B610023BB610323FB616C
:1014F00007F110031946054800F0D4FD00BF20375E
:10150000BD4680BD001002400010014000080140AF
:10151000B0B588B000AF7860384B1B78012B67D12D
:10152000374B07F10C041D460FCD0FC42B68236009
:1015300007F10C031846FEF70BFE03469AB207F1BB
:101540000C014FF0FF332F4802F0C4FAFFF75CFDA7
:10155000FFF77AFD03461A462B4B1A70FFF7A2FDE0
:1015600003461A46294B1A70FFF79CFD03461A469C
:10157000274B1A70FFF796FD03461A46254B1A7043
:10158000FFF790FD03461A46234B1A70FFF78AFDBA
:1015900003461A46214B1A801E4B1B781846FEF74D
:1015A00031FF04460D461C4B1B781846FEF72AFFF8
:1015B0004FF000021A4BFFF7B9F802460B462046DF
:1015C0002946FEF7D3FD02460B4610461946FFF7A3
:1015D0005BFA0346134A1360124B1B68124A1360EE
:1015E0000A4B1B781846FFF755FB03460F4A13605A
:1015F0004FF4FA6003F0F2F88EE700BF000000201D
:101600005093000850050020C0050020AD050020C3
:10161000AE050020AF050020B0050020B205002077
:1016200000002440B4050020B8050020BC050020BF
:1016300080B582B000AF7860064B1B78012B04D1D7
:101640004FF40051044800F0E0FE4FF4FA6003F05C
:10165000C5F8F1E70000002000100140B0B596B0D9
:1016600002AF78602C4B1B78012B4FD12B4B07F12D
:1016700008041D460FCD0FC42B68236007F1080333
:101680001846FEF765FD03469AB207F108014FF0D0
:10169000FF33234802F01EFA224B1B681846FEF760
:1016A000C3FE02460B4607F11C00CDE900231E4A8B
:1016B000322105F037FC07F11C031846FEF748FD00
:1016C00003469AB207F11C014FF0FF33144802F0B1
:1016D00001FA164B1B681846FEF7A6FE02460B469B
:1016E00007F11C00CDE90023114A322105F01AFC54
:1016F00007F11C031846FEF72BFD03469AB207F1CB
:101700001C014FF0FF33064802F0E4F94FF4FA6091
:1017100003F064F8A6E700BF0000002080930008F3
:1017200050050020B805002064930008BC05002087
:1017300074930008B0B588B000AF7860052003F05E
:101740004DF8224B1B78012B3AD1214B07F10C04A9
:101750001D460FCD0FC42B68236007F10C031846FC
:10176000FEF7F6FC03469AB207F10C014FF0FF3387
:10177000184802F0AFF9184B1B681846FFF7E2FA59
:101780000346DBB21A46920013441A4691001A46E9
:101790000B4613449B009CB2104B1B681846FFF786
:1017A000D1FA0346DBB223449AB20D4B1A800C4B9C
:1017B0001B880C491846FFF739FB0A48FFF79EFBC8
:1017C0004FF4FA6003F00AF8BBE700BF0000002006
:1017D0009493000850050020B8050020BC050020A7
:1017E000C2050020C405002080B582B000AF78603B
:1017F0007B681B68044A934201D100F0A5FA00BF40
:101800000837BD4680BD00BF0008004080B400AF6F
:1018100072B600BF00BFFDE780B584B000AF184BC3
:101820009B69174A43F001039361154B9B6903F0D1
:101830000103BB60BB68124BDB69114A43F0805364
:10184000D3610F4BDB6903F080537B607B68002220
:101850000F216FF0010000F048FB0A4B5B68FB6052
:10186000FB6823F0E063FB60FB6843F00073FB6000
:10187000044AFB68536000BF1037BD4680BD00BFFF
:10188000001002400000014080B588B000AF7860D1
:1018900007F1100300221A605A609A60DA607B68D0
:1018A0001B68154A934223D1144B9B69134A43F496
:1018B00080539361114B9B6903F48053FB60FB6879
:1018C0000E4B9B690D4A43F0040393610B4B9B69DC
:1018D00003F00403BB60BB68A0233B6102237B6170
:1018E0000323FB6107F110031946054800F0DAFBFA
:1018F00000BF2037BD4680BD0030014000100240CF
:101900000008014080B485B000AF78607B681B6838
:10191000094A93420BD1094B9B69084A43F400637F
:101920009361064B9B6903F40063FB60FB6800BF97
:101930001437BD4680BC7047002C014000100240A7
:1019400080B588B000AF786007F1100300221A60FC
:101950005A609A60DA607B681B68204A934239D1EA
:101960001F4B9B691E4A43F4804393611C4B9B6948
:1019700003F48043FB60FB68194B9B69184A43F0F2
:1019800004039361164B9B6903F00403BB60BB68BF
:101990004FF400733B6102237B610323FB6107F17A
:1019A000100319460F4800F07DFB4FF480633B6144
:1019B00000237B610023BB6107F11003194609482E
:1019C00000F070FB00220521252000F08EFA252072
:1019D00000F0A7FA00BF2037BD4680BD00380140A7
:1019E000001002400008014080B58EB000AF786062
:1019F0000023FB620023BB62002387F83330344BA3
:101A0000DB69334A43F00403D361314BDB6903F0F4
:101A10000403FB60FB6807F1100207F11403114691
:101A2000184601F0FDF83B6AFB62FB6A002B03D10C
:101A300001F0CEF8786304E001F0CAF803465B00D9
:101A40007B637B6B234AA2FB03239B0C013BBB62A2
:101A5000214B224A1A60204B40F2E732DA601E4ADC
:101A6000BB6A53601C4B00221A611B4B00229A6018
:101A7000194B00229A61184801F0A1FB034687F830
:101A8000333097F83330002B1BD1134801F030FC72
:101A9000034687F8333097F83330002B11D11E20DE
:101AA00000F03FFA7B680F2B08D8002279681E20CF
:101AB00000F01BFA0A4A7B68136002E0012387F8F2
:101AC000333097F8333018463837BD4680BD00BFF5
:101AD0000010024083DE1B43C805002000080040C0
:101AE0002000002080B400AF00BFFDE780B400AF4D
:101AF00000BFFDE780B400AF00BFFDE780B400AFDA
:101B000000BFFDE780B400AF00BFFDE780B400AFC9
:101B100000BFBD4680BC704780B500AF024801F0F1
:101B200039FC00BF80BD00BFC805002080B500AFF4
:101B3000024802F07FF800BF80BD00BF50050020C2
:101B400080B400AF01231846BD4680BC704780B505
:101B500082B000AF7860396005F004FB03461622BE
:101B60001A604FF0FF3318460837BD4680BD80B578
:101B700082B000AF78604FF0FF317868FFF7E7FF81
:101B800000BFFDE780B586B000AFF860B9607A604D
:101B900000237B610AE0AFF300800146BB685A1C5A
:101BA000BA60CAB21A707B6901337B617A697B685B
:101BB0009A42F0DB7B6818461837BD4680BD80B579
:101BC00086B000AFF860B9607A6000237B6109E0FD
:101BD000BB685A1CBA601B781846AFF300807B695B
:101BE00001337B617A697B689A42F1DB7B68184636
:101BF0001837BD4680BD80B483B000AF78604FF029
:101C0000FF3318460C37BD4680BC704780B483B0A4
:101C100000AF786039603B684FF400525A6000238F
:101C200018460C37BD4680BC704780B483B000AF07
:101C30007860012318460C37BD4680BC704780B4DD
:101C400085B000AFF860B9607A6000231846143799
:101C5000BD4680BC7047000080B586B000AF78609C
:101C6000144A154BD31A7B617B693B61134B1B688C
:101C7000002B02D1114B124A1A60104B1A687B6874
:101C800013443A699A4207D205F06CFA03460C22D3
:101C90001A604FF0FF3309E0084B1B68FB60074BED
:101CA0001A687B681344054A1360FB6818461837A6
:101CB000BD4680BD0050002000040000100600203A
:101CC000B814002080B400AF00BFBD4680BC704790
:101CD000FFF7F8FF0B480C490C4A002302E0D458E8
:101CE000C4500433C4188C42F9D3094A094C002368
:101CF00001E013600432A242FBD305F039FAFFF78A
:101D000019FA704700000020F401002058970008DD
:101D1000F4010020B8140020FEE7000080B500AFF9
:101D2000084B1B68074A43F010031360032000F0C0
:101D3000D1F80F20FFF758FEFFF76EFD002318467D
:101D400080BD00BF0020024080B400AF054B1B786F
:101D50001A46054B1B681344034A136000BFBD4677
:101D600080BC7047240000201406002080B400AF1F
:101D7000024B1B681846BD4680BC70471406002005
:101D800080B485B000AF78607B6803F00703FB6028
:101D90000C4BDB68BB60BA684FF6FF031340BB60B7
:101DA000FB681A02BB68134343F0BF6343F400337C
:101DB000BB60044ABB68D36000BF1437BD4680BC1B
:101DC000704700BF00ED00E080B400AF044BDB685B
:101DD0001B0A03F007031846BD4680BC704700BFCE
:101DE00000ED00E080B483B000AF0346FB7197F9CB
:101DF0000730002B0BDBFB7903F01F02064997F934
:101E000007305B09012000FA02F241F8232000BFED
:101E10000C37BD4680BC704700E100E080B483B061
:101E200000AF03463960FB7197F90730002B0ADBDE
:101E30003B68DAB20C4997F907301201D2B20B4471
:101E400083F800230AE03B68DAB20849FB7903F023
:101E50000F03043B1201D2B20B441A7600BF0C37B9
:101E6000BD4680BC704700BF00E100E000ED00E02F
:101E700080B489B000AFF860B9607A60FB6803F0A5
:101E80000703FB61FB69C3F10703042B28BF04238D
:101E9000BB61FB690433062B02D9FB69033B00E0FD
:101EA00000237B614FF0FF32BB6902FA03F3DA4390
:101EB000BB681A407B699A404FF0FF317B6901FA99
:101EC00003F3D9437B680B40134318462437BD46C0
:101ED00080BC704780B582B000AF78607868FFF74B
:101EE0004FFF00BF0837BD4680BD80B586B000AF4C
:101EF0000346B9607A60FB7300237B61FFF764FFE0
:101F000078617A68B9687869FFF7B2FF024697F995
:101F10000F3011461846FFF781FF00BF1837BD4646
:101F200080BD80B582B000AF0346FB7197F90730E2
:101F30001846FFF757FF00BF0837BD4680BD80B485
:101F400085B000AF78600023FB737B6893F8213085
:101F5000DBB2022B08D07B6804229A637B680022E4
:101F600083F82020012320E07B681B681A687B68C7
:101F70001B6822F00E021A607B681B681A687B6877
:101F80001B6822F001021A607B681A6C7B68DB6BAD
:101F9000012101FA02F25A607B68012283F82120B4
:101FA0007B68002283F82020FB7B18461437BD464F
:101FB00080BC704780B584B000AF78600023FB73AD
:101FC0007B6893F82130DBB2022B05D07B680422BA
:101FD0009A630123FB7351E07B681B681A687B6876
:101FE0001B6822F00E021A607B681B681A687B6807
:101FF0001B6822F001021A607B681B68224A934228
:1020000029D07B681B68214A934222D07B681B68D9
:102010001F4A93421AD07B681B681E4A934212D013
:102020007B681B681C4A93420AD07B681B681B4A6A
:10203000934202D14FF480130EE04FF080730BE017
:102040004FF4803308E04FF4805305E04FF4807381
:1020500002E0102300E00123114A53607B68012253
:1020600083F821207B68002283F820207B685B6B4B
:10207000002B03D07B685B6B78689847FB7B184626
:102080001037BD4680BD00BF080002401C00024062
:102090003000024044000240580002406C00024000
:1020A0000000024080B48BB000AF7860396000233C
:1020B0007B6200233B6269E101227B6A02FA03F33F
:1020C000FB613B681B68FA691340BB61BA69FB6935
:1020D0009A4240F058813B685B689A4A93425ED0CE
:1020E000984A934275D8984A934258D0964A934258
:1020F0006FD8964A934252D0944A934269D8944AF0
:1021000093424CD0924A934263D8924A934246D02B
:10211000904A93425DD8122B2AD8122B59D801A28B
:1021200052F823F09F210008792100088B21000834
:10213000CD210008D3210008D3210008D3210008B5
:10214000D3210008D3210008D3210008D32100089F
:10215000D3210008D3210008D3210008D32100088F
:10216000D3210008D321000881210008952100080F
:10217000794A934213D02CE03B68DB683B6229E04C
:102180003B68DB6804333B6224E03B68DB68083370
:102190003B621FE03B68DB680C333B621AE03B6844
:1021A0009B68002B02D104233B6213E03B689B68D1
:1021B000012B05D108233B627B68FA691A6109E0AB
:1021C00008233B627B68FA695A6103E000233B62A3
:1021D00000E000BFBB69FF2B01D87B6801E07B6892
:1021E00004337B61BB69FF2B02D87B6A9B0002E052
:1021F0007B6A083B9B003B617B691A680F213B6946
:1022000001FA03F3DB431A40396A3B6901FA03F32D
:102210001A437B691A603B685B6803F08053002BAC
:1022200000F0B1804D4B9B694C4A43F00103936130
:102230004A4B9B6903F00103BB60BB68484A7B6A59
:102240009B08023352F82330FB607B6A03F00303E0
:102250009B000F2202FA03F3DB43FA681340FB6092
:102260007B68404A934213D07B683F4A93420DD02B
:102270007B683E4A934207D07B683D4A934201D136
:10228000032306E0042304E0022302E0012300E02C
:1022900000237A6A02F0030292009340FA68134323
:1022A000FB602F497B6A9B080233FA6841F82320C0
:1022B0003B685B6803F48013002B06D02D4B9A68B3
:1022C0002C49BB6913438B6006E02A4B9A68BB69B3
:1022D000DB43284913408B603B685B6803F40013C1
:1022E000002B06D0234BDA682249BB691343CB602D
:1022F00006E0204BDA68BB69DB431E491340CB6024
:102300003B685B6803F40033002B06D0194B5A6816
:102310001849BB6913434B6006E0164B5A68BB690A
:10232000DB43144913404B603B685B6803F4803324
:10233000002B21D00F4B1A680E49BB6913430B6069
:1023400021E000BF00003210000031100000221018
:1023500000002110000012100000111000100240B7
:102360000000014000080140000C01400010014045
:1023700000140140000401400B4B1A68BB69DB43A9
:10238000094913400B607B6A01337B623B681A6822
:102390007B6A22FA03F3002B7FF48EAE00BF00BFEE
:1023A0002C37BD4680BC70470004014080B485B026
:1023B00000AF78600B467B807B689A687B8813400F
:1023C000002B02D00123FB7301E00023FB73FB7B96
:1023D00018461437BD4680BC704780B483B000AF48
:1023E00078600B467B8013467B707B78002B03D094
:1023F0007A887B681A6103E07B881A047B681A611B
:1024000000BF0C37BD4680BC704780B485B000AFBC
:1024100078600B467B807B68DB68FB607A88FB68B2
:1024200013401A04FB68D9437B880B401A437B682E
:102430001A6100BF1437BD4680BC704780B586B0B6
:1024400000AF78607B68002B01D1012372E27B68CA
:102450001B6803F00103002B00F08780924B5B6840
:1024600003F00C03042B0CD08F4B5B6803F00C03C0
:10247000082B12D18C4B5B6803F48033B3F5803F9B
:102480000BD1894B1B6803F40033002B6CD07B68A5
:102490005B68002B68D101234CE27B685B68B3F575
:1024A000803F06D1804B1B687F4A43F48033136022
:1024B0002EE07B685B68002B0CD17B4B1B687A4A53
:1024C00023F480331360784B1B68774A23F480230E
:1024D00013601DE07B685B68B3F5A02F0CD1724BD5
:1024E0001B68714A43F4802313606F4B1B686E4A6C
:1024F00043F4803313600BE06B4B1B686A4A23F490
:1025000080331360684B1B68674A23F48023136091
:102510007B685B68002B13D0FFF728FC386108E06C
:10252000FFF724FC02463B69D31A642B01D903232D
:1025300000E25D4B1B6803F40033002BF0D014E085
:10254000FFF714FC386108E0FFF710FC02463B6916
:10255000D31A642B01D90323ECE1534B1B6803F41A
:102560000033002BF0D100E000BF7B681B6803F054
:102570000203002B63D04C4B5B6803F00C03002B71
:102580000BD0494B5B6803F00C03082B1CD1464B66
:102590005B6803F48033002B16D1434B1B6803F0B8
:1025A0000203002B05D07B681B69012B01D001239E
:1025B000C0E13D4B1B6823F0F8027B685B69DB00E0
:1025C000394913430B603AE07B681B69002B20D02C
:1025D000364B01221A60FFF7C9FB386108E0FFF7AC
:1025E000C5FB02463B69D31A022B01D90323A1E1A3
:1025F0002D4B1B6803F00203002BF0D02A4B1B6805
:1026000023F0F8027B685B69DB00274913430B600A
:1026100015E0264B00221A60FFF7A8FB386108E09E
:10262000FFF7A4FB02463B69D31A022B01D903230F
:1026300080E11D4B1B6803F00203002BF0D17B6887
:102640001B6803F00803002B3AD07B689B69002BC2
:1026500019D0174B01221A60FFF788FB386108E098
:10266000FFF784FB02463B69D31A022B01D90323EF
:1026700060E10D4B5B6A03F00203002BF0D00120F8
:1026800000F0FEFA1CE00A4B00221A60FFF76EFB16
:1026900038610FE0FFF76AFB02463B69D31A022B51
:1026A00008D9032346E100BF001002400000424267
:1026B00080044242924B5B6A03F00203002BE9D193
:1026C0007B681B6803F00403002B00F0A680002346
:1026D000FB758B4BDB6903F08053002B0DD1884BCE
:1026E000DB69874A43F08053D361854BDB6903F094
:1026F0008053BB60BB680123FB75824B1B6803F4EE
:102700008073002B18D17F4B1B687E4A43F4807383
:102710001360FFF72BFB386108E0FFF727FB024649
:102720003B69D31A642B01D9032303E1754B1B6862
:1027300003F48073002BF0D07B68DB68012B06D19B
:102740006F4B1B6A6E4A43F0010313622DE07B68F6
:10275000DB68002B0CD16A4B1B6A694A23F001032A
:102760001362674B1B6A664A23F0040313621CE082
:102770007B68DB68052B0CD1614B1B6A604A43F018
:10278000040313625E4B1B6A5D4A43F0010313624C
:102790000BE05B4B1B6A5A4A23F001031362584B50
:1027A0001B6A574A23F0040313627B68DB68002B23
:1027B00015D0FFF7DBFA38610AE0FFF7D7FA0246D7
:1027C0003B69D31A41F28832934201D90323B1E025
:1027D0004B4B1B6A03F00203002BEED014E0FFF713
:1027E000C5FA38610AE0FFF7C1FA02463B69D31A1D
:1027F00041F28832934201D903239BE0404B1B6A8C
:1028000003F00203002BEED1FB7D012B05D13C4BE5
:10281000DB693B4A23F08053D3617B68DB69002B83
:1028200000F08780364B5B6803F00C03082B61D007
:102830007B68DB69022B46D1334B00221A60FFF71D
:1028400095FA386108E0FFF791FA02463B69D31A1E
:10285000022B01D903236DE0294B1B6803F00073A1
:10286000002BF0D17B681B6AB3F5803F08D1244B65
:102870005B6823F400327B689B68214913434B60FB
:102880001F4B5B6823F474127B68196A7B685B6A70
:102890000B431B4913434B601B4B01221A60FFF78C
:1028A00065FA386108E0FFF761FA02463B69D31A1E
:1028B000022B01D903233DE0114B1B6803F0007389
:1028C000002BF0D035E0104B00221A60FFF74EFAD3
:1028D000386108E0FFF74AFA02463B69D31A022B37
:1028E00001D9032326E0064B1B6803F00073002B7D
:1028F000F0D11EE07B68DB69012B07D1012319E0D1
:102900000010024000700040600042420B4B5B68C8
:10291000FB60FB6803F480327B681B6A9A4206D135
:10292000FB6803F470127B685B6A9A4201D0012352
:1029300000E0002318461837BD4680BD0010024055
:1029400080B584B000AF786039607B68002B01D11E
:102950000123D0E06A4B1B6803F007033A689A42F0
:1029600010D9674B1B6823F0070265493B68134386
:102970000B60634B1B6803F007033A689A4201D06F
:102980000123B8E07B681B6803F00203002B20D012
:102990007B681B6803F00403002B05D0594B5B6870
:1029A000584A43F4E06353607B681B6803F00803F4
:1029B000002B05D0534B5B68524A43F4605353607D
:1029C000504B5B6823F0F0027B689B684D491343D2
:1029D0004B607B681B6803F00103002B40D07B68D1
:1029E0005B68012B07D1474B1B6803F40033002BB6
:1029F00015D101237FE07B685B68022B07D1414B37
:102A00001B6803F00073002B09D1012373E03D4BD9
:102A10001B6803F00203002B01D101236BE0394B4B
:102A20005B6823F003027B685B68364913434B60A5
:102A3000FFF79CF9F8600AE0FFF798F90246FB6897
:102A4000D31A41F28832934201D9032353E02D4B2C
:102A50005B6803F00C027B685B689B009A42EBD1D9
:102A6000274B1B6803F007033A689A4210D2244BA5
:102A70001B6823F0070222493B6813430B60204B7D
:102A80001B6803F007033A689A4201D0012332E041
:102A90007B681B6803F00403002B08D0194B5B68AC
:102AA00023F4E0627B68DB68164913434B607B6864
:102AB0001B6803F00803002B09D0124B5B6823F45A
:102AC00060527B681B69DB000E4913434B6000F0CA
:102AD00021F802460B4B5B681B0903F00F030A4900
:102AE000CB5C22FA03F3094A1360094B1B681846B2
:102AF000FEF77AFF002318461037BD4680BD00BFA1
:102B00000020024000100240B09300081C0000208A
:102B10002000002080B487B000AF0023FB600023BA
:102B2000BB6000237B6100237B6000233B611E4B65
:102B30005B68FB60FB6803F00C03042B02D0082BDE
:102B400003D027E0194B3B6127E0FB689B0C03F0A7
:102B50000F03174AD35C7B60FB6803F48033002BC0
:102B600010D0114B5B685B0C03F00103114AD35C7E
:102B7000BB607B680D4A03FB02F2BB68B2FBF3F358
:102B80007B6104E07B680C4A02FB03F37B617B6999
:102B90003B6102E0054B3B6100BF3B6918461C37B7
:102BA000BD4680BC704700BF0010024000127A0092
:102BB000C8930008D893000800093D0080B400AF16
:102BC000024B1B681846BD4680BC70471C000020A5
:102BD00080B500AFFFF7F2FF0246054B5B681B0AAA
:102BE00003F007030349CB5C22FA03F3184680BDC8
:102BF00000100240C093000880B500AFFFF7DEFF71
:102C00000246054B5B68DB0A03F007030349CB5C14
:102C100022FA03F3184680BD00100240C09300085A
:102C200080B483B000AF786039607B680F221A608F
:102C3000114B5B6803F003027B685A600E4B5B68C4
:102C400003F0F0027B689A600B4B5B6803F4E06270
:102C50007B68DA60084B5B68DB0803F4E0627B6842
:102C60001A61064B1B6803F007023B681A6000BF3D
:102C70000C37BD4680BC7047001002400020024067
:102C800080B485B000AF78600A4B1B680A4AA2FB8B
:102C900003235B0A7A6802FB03F3FB6000BFFB6857
:102CA0005A1EFA60002BF9D100BF00BF1437BD4691
:102CB00080BC70471C000020D34D621080B582B0EC
:102CC00000AF78607B68002B01D1012376E07B6840
:102CD0005B6A002B08D17B685B68B3F5827F09D003
:102CE0007B680022DA6105E07B6800221A617B685C
:102CF00000225A617B6800229A627B6893F8513007
:102D0000DBB2002B06D17B68002283F85020786864
:102D1000FEF7BAFD7B68022283F851207B681B68AE
:102D20001A687B681B6822F040021A607B685B6847
:102D300003F482727B689B6803F404431A437B6844
:102D4000DB6803F400631A437B681B6903F002032A
:102D50001A437B685B6903F001031A437B689B6934
:102D600003F400731A437B68DB6903F038031A43EA
:102D70007B681B6A03F0800342EA03017B689B6A5D
:102D800003F400527B681B680A431A607B689B69E6
:102D90001A0C7B681B6802F004025A607B681B688F
:102DA000DA697B681B6822F40062DA617B680022C2
:102DB0005A657B68012283F85120002318460837A2
:102DC000BD4680BD80B588B000AFF860B9603B609B
:102DD0001346FB80FEF7CAFFF861FB887B83FB6824
:102DE00093F85130DBB2012B01D002232AE1BB68FA
:102DF000002B02D0FB88002B01D1012322E1FB68CC
:102E000093F85030012B01D102231BE1FB68012212
:102E100083F85020FB68032283F85120FB680022CE
:102E20005A65FB68BA681A63FB68FA889A86FB6879
:102E3000FA88DA86FB6800229A63FB6800229A8788
:102E4000FB680022DA87FB6800225A64FB680022D4
:102E50001A64FB689B68B3F5004F0FD1FB681B68D1
:102E60001A68FB681B6822F040021A60FB681B6846
:102E70001A68FB681B6842F480421A60FB681B6892
:102E80001B6803F04003402B07D0FB681B681A68DF
:102E9000FB681B6842F040021A60FB68DB68B3F510
:102EA000006F52D1FB685B68002B02D07B8B012B3B
:102EB00045D1FB681B6B1A88FB681B68DA60FB68EE
:102EC0001B6B9A1CFB681A63FB68DB8E9BB2013B91
:102ED0009AB2FB68DA8632E0FB681B689B6803F0F5
:102EE0000203022B12D1FB681B6B1A88FB681B685C
:102EF000DA60FB681B6B9A1CFB681A63FB68DB8E4D
:102F00009BB2013B9AB2FB68DA8618E0FEF72EFF0F
:102F10000246FB69D31A3A689A4203D83B68B3F178
:102F2000FF3F02D13B68002B09D1FB68012283F8E7
:102F30005120FB68002283F85020032382E0FB68C5
:102F4000DB8E9BB2002BC7D153E0FB685B68002B84
:102F500002D07B8B012B47D1FB681A6BFB681B6887
:102F60000C3312781A70FB681B6B5A1CFB681A63CF
:102F7000FB68DB8E9BB2013B9AB2FB68DA8633E0DA
:102F8000FB681B689B6803F00203022B13D1FB68EC
:102F90001A6BFB681B680C3312781A70FB681B6B8A
:102FA0005A1CFB681A63FB68DB8E9BB2013B9AB22A
:102FB000FB68DA8618E0FEF7D9FE0246FB69D31AF1
:102FC0003A689A4203D83B68B3F1FF3F02D13B68AD
:102FD000002B09D1FB68012283F85120FB680022F5
:102FE00083F8502003232DE0FB68DB8E9BB2002B7F
:102FF000C6D1FA693968F86800F0B0F80346002BCA
:1030000002D0FB6820225A65FB689B68002B0AD11E
:1030100000237B61FB681B68DB687B61FB681B68C6
:103020009B687B617B69FB68012283F85120FB6808
:10303000002283F85020FB685B6D002B01D0012338
:1030400000E0002318462037BD4680BD80B588B01B
:1030500000AFF860B9603B601346FB71FEF786FE77
:103060000246BB6A9B1A3A681344FB61FEF77EFE78
:10307000B861394B1B685B011B0DFA6902FB03F356
:103080007B6154E03B68B3F1FF3F50D0FEF76EFE2A
:103090000246BB69D31AFA699A4202D9FB69002B2E
:1030A0003DD1FB681B685A68FB681B6822F0E00290
:1030B0005A60FB685B68B3F5827F11D1FB689B683F
:1030C000B3F5004F04D0FB689B68B3F5806F07D160
:1030D000FB681B681A68FB681B6822F040021A60D4
:1030E000FB689B6AB3F5005F0FD1FB681B681A6829
:1030F000FB681B6822F400521A60FB681B681A68A0
:10310000FB681B6842F400521A60FB68012283F8D6
:103110005120FB68002283F85020032317E07B69CD
:10312000002B01D10023FB617B69013B7B61FB68C4
:103130001B689A68BB681340BA689A420CBF0123A7
:103140000023DBB21A46FB799A429BD10023184632
:103150002037BD4680BD00BF1C00002080B586B072
:1031600002AFF860B9607A607B680093BB680122A7
:103170000221F868FFF76AFF0346002B07D0FB68BF
:103180005B6D43F02002FB685A65032313E07B6804
:103190000093BB6800228021F868FFF757FF0346C1
:1031A000002B07D0FB685B6D43F02002FB685A657B
:1031B000032300E0002318461037BD4680BD80B5CC
:1031C00082B000AF78607B68002B01D1012341E021
:1031D0007B6893F83D30DBB2002B06D17B68002280
:1031E00083F83C207868FEF78DFB7B68022283F829
:1031F0003D207B681A687B6804331946104600F04E
:10320000A5FA7B68012283F846207B68012283F8B7
:103210003E207B68012283F83F207B68012283F8EF
:1032200040207B68012283F841207B68012283F8DB
:1032300042207B68012283F843207B68012283F8C7
:1032400044207B68012283F845207B68012283F8B3
:103250003D20002318460837BD4680BD80B485B0A8
:1032600000AF78607B6893F83D30DBB2012B01D072
:10327000012332E07B68022283F83D207B681B68D3
:10328000184A93420ED07B681B68B3F1804F09D077
:103290007B681B68144A934204D07B681B68134AFE
:1032A000934211D17B681B689B6803F00703FB60A6
:1032B000FB68062B10D07B681B681A687B681B684C
:1032C00042F001021A6007E07B681B681A687B689D
:1032D0001B6842F001021A60002318461437BD46ED
:1032E00080BC7047002C01400004004000080040F2
:1032F00080B485B000AF78607B6893F83D30DBB276
:10330000012B01D001233AE07B68022283F83D20A3
:103310007B681B68DA687B681B6842F00102DA6030
:103320007B681B68184A93420ED07B681B68B3F118
:10333000804F09D07B681B68144A934204D07B6895
:103340001B68134A934211D17B681B689B6803F08A
:103350000703FB60FB68062B10D07B681B681A68AC
:103360007B681B6842F001021A6007E07B681B68FB
:103370001A687B681B6842F001021A600023184635
:103380001437BD4680BC7047002C0140000400404B
:103390000008004080B584B000AF78607B681B688F
:1033A000DB68FB607B681B681B69BB60BB6803F064
:1033B0000203002B20D0FB6803F00203002B1BD07C
:1033C0007B681B686FF002021A617B6801221A7722
:1033D0007B681B689B6903F00303002B03D07868AC
:1033E00000F098F905E0786800F08BF9786800F053
:1033F0009AF97B6800221A77BB6803F00403002B5C
:1034000020D0FB6803F00403002B1BD07B681B68F3
:103410006FF004021A617B6802221A777B681B68CE
:103420009B6903F44073002B03D0786800F072F9B5
:1034300005E0786800F065F9786800F074F97B6859
:1034400000221A77BB6803F00803002B20D0FB682A
:1034500003F00803002B1BD07B681B686FF0080289
:103460001A617B6804221A777B681B68DB6903F0AA
:103470000303002B03D0786800F04CF905E078686E
:1034800000F03FF9786800F04EF97B6800221A7767
:10349000BB6803F01003002B20D0FB6803F010037F
:1034A000002B1BD07B681B686FF010021A617B68D1
:1034B00008221A777B681B68DB6903F44073002BD2
:1034C00003D0786800F026F905E0786800F019F973
:1034D000786800F028F97B6800221A77BB6803F04F
:1034E0000103002B0CD0FB6803F00103002B07D075
:1034F0007B681B686FF001021A617868FEF774F947
:10350000BB6803F08003002B0CD0FB6803F0800342
:10351000002B07D07B681B686FF080021A61786807
:1035200000F07FFABB6803F04003002B0CD0FB686F
:1035300003F04003002B07D07B681B686FF040024C
:103540001A61786800F0F8F8BB6803F02003002BDC
:103550000CD0FB6803F02003002B07D07B681B68AE
:103560006FF020021A61786800F052FA00BF10373D
:10357000BD4680BD80B584B000AF7860396000235F
:10358000FB737B6893F83C30012B01D10223B4E03C
:103590007B68012283F83C207B68022283F83D206F
:1035A0007B681B689B68BB60BB6823F07703BB60CC
:1035B000BB6823F47F43BB607B681B68BA689A6072
:1035C0003B681B68B3F5005F3ED0B3F5005F00F2C7
:1035D0008780B3F5805F00F08680B3F5805F7FD889
:1035E000702B1AD0702B7BD8602B50D0602B77D8E3
:1035F000502B3CD0502B73D8402B58D0402B6FD839
:10360000302B64D0302B6BD8202B60D0202B67D888
:10361000002B5CD0102B5AD062E07B6818683B68A6
:1036200099683B685A683B68DB6800F074F97B680E
:103630001B689B68BB60BB6843F07703BB607B681B
:103640001B68BA689A604FE07B6818683B689968A5
:103650003B685A683B68DB6800F05DF97B681B6873
:103660009A687B681B6842F480429A603CE07B6801
:1036700018683B6859683B68DB681A4600F0D4F864
:103680007B681B685021184600F02BF92CE07B6802
:1036900018683B6859683B68DB681A4600F0F2F826
:1036A0007B681B686021184600F01BF91CE07B68F2
:1036B00018683B6859683B68DB681A4600F0B4F844
:1036C0007B681B684021184600F00BF90CE07B6812
:1036D0001A683B681B681946104600F002F903E0BF
:1036E0000123FB7300E000BF7B68012283F83D20CB
:1036F0007B68002283F83C20FB7B18461037BD46D0
:1037000080BD80B483B000AF786000BF0C37BD4689
:1037100080BC704780B483B000AF786000BF0C37C6
:10372000BD4680BC704780B483B000AF786000BFF6
:103730000C37BD4680BC704780B483B000AF786062
:1037400000BF0C37BD4680BC7047000080B485B018
:1037500000AF786039607B681B68FB607B682F4A2C
:1037600093420BD07B68B3F1804F07D07B682C4A23
:10377000934203D07B682B4A934208D1FB6823F025
:103780007003FB603B685B68FA681343FB607B680F
:10379000224A93420BD07B68B3F1804F07D07B68FD
:1037A0001F4A934203D07B681E4A934208D1FB68AC
:1037B00023F44073FB603B68DB68FA681343FB60EB
:1037C000FB6823F080023B685B691343FB607B6806
:1037D000FA681A603B689A687B68DA623B681A6824
:1037E0007B689A627B680D4A934203D13B681A69F1
:1037F0007B681A637B6801225A617B681B6903F04E
:103800000103002B05D07B681B6923F001027B6854
:103810001A6100BF1437BD4680BC7047002C0140C0
:10382000000400400008004080B487B000AFF8609A
:10383000B9607A60FB681B6A7B61FB681B6A23F0D6
:103840000102FB681A62FB689B693B613B6923F0DC
:10385000F0033B617B681B013A6913433B617B6961
:1038600023F00A037B617A69BB6813437B61FB68C1
:103870003A699A61FB687A691A6200BF1C37BD46D3
:1038800080BC704780B487B000AFF860B9607A60E0
:10389000FB681B6A7B61FB681B6A23F01002FB68F4
:1038A0001A62FB689B693B613B6923F470433B618F
:1038B0007B681B033A6913433B617B6923F0A003D8
:1038C0007B61BB681B017A6913437B61FB683A69C2
:1038D0009A61FB687A691A6200BF1C37BD4680BCDA
:1038E000704780B485B000AF786039607B689B68B2
:1038F000FB60FB6823F07003FB603A68FB681343CE
:1039000043F00703FB607B68FA689A6000BF1437D6
:10391000BD4680BC704780B487B000AFF860B96026
:103920007A603B60FB689B687B617B6923F47F4323
:103930007B613B681A027B681A43BB6813437A6950
:1039400013437B61FB687A699A6000BF1C37BD46F0
:1039500080BC704780B485B000AF786039607B6808
:1039600093F83C30012B01D1022346E07B68012211
:1039700083F83C207B68022283F83D207B681B682B
:103980005B68FB607B681B689B68BB60FB6823F01F
:103990007003FB603B681B68FA681343FB607B683D
:1039A0001B68FA685A607B681B68164A93420ED0FF
:1039B0007B681B68B3F1804F09D07B681B68124A93
:1039C000934204D07B681B68104A93420CD1BB68B9
:1039D00023F08003BB603B685B68BA681343BB603D
:1039E0007B681B68BA689A607B68012283F83D2077
:1039F0007B68002283F83C20002318461437BD461C
:103A000080BC7047002C01400004004000080040CA
:103A100080B483B000AF786000BF0C37BD4680BC77
:103A2000704780B483B000AF786000BF0C37BD46EC
:103A300080BC704780B582B000AF78607B68002B97
:103A400001D1012342E07B6893F84130DBB2002BC7
:103A500006D17B68002283F840207868FDF770FF6C
:103A60007B68242283F841207B681B68DA687B68C6
:103A70001B6822F40052DA60786800F0B7FD7B68BA
:103A80001B681A697B681B6822F490421A617B6884
:103A90001B685A697B681B6822F02A025A617B689E
:103AA0001B68DA687B681B6842F40052DA607B6846
:103AB00000225A647B68202283F841207B68202200
:103AC00083F842207B6800225A6300231846083797
:103AD000BD4680BD80B58AB002AFF860B9603B607A
:103AE0001346FB8000237B61FB6893F84130DBB217
:103AF000202B75D1BB68002B02D0FB88002B01D195
:103B000001236EE0FB6800225A64FB68212283F8DF
:103B10004120FEF72BF97861FB68FA889A84FB68EC
:103B2000FA88DA84FB689B68B3F5805F08D1FB688C
:103B30001B69002B04D10023FB61BB68BB6103E060
:103B4000BB68FB610023BB612EE03B6800937B698F
:103B500000228021F86800F01CFB0346002B05D0F2
:103B6000FB68202283F8412003233AE0FB69002B05
:103B70000BD1BB691B881A46FB681B68C2F308029D
:103B80005A60BB690233BB6107E0FB691A78FB68C6
:103B90001B685A60FB690133FB61FB68DB8C9BB2DD
:103BA000013B9AB2FB68DA84FB68DB8C9BB2002B8A
:103BB000CBD13B6800937B6900224021F86800F07C
:103BC000E8FA0346002B05D0FB68202283F8412049
:103BD000032306E0FB68202283F84120002300E055
:103BE000022318462037BD4680BD80B584B000AFA3
:103BF000F860B9601346FB80FB6893F84230DBB293
:103C0000202B12D1BB68002B02D0FB88002B01D1E6
:103C100001230BE0FB6800221A63FB881A46B9688F
:103C2000F86800F00FFB034600E002231846103747
:103C3000BD4680BD80B5BAB000AF78607B681B68B8
:103C40001B68C7F8E4307B681B68DB68C7F8E030A6
:103C50007B681B685B69C7F8DC300023C7F8D83085
:103C60000023C7F8D430D7F8E43003F00F03C7F8C7
:103C7000D830D7F8D830002B0FD1D7F8E43003F084
:103C80002003002B09D0D7F8E03003F02003002BED
:103C900003D0786800F0ECFB5BE2D7F8D830002B5B
:103CA00000F0DE80D7F8DC3003F00103002B06D1F2
:103CB000D7F8E03003F49073002B00F0D180D7F8F0
:103CC000E43003F00103002B0BD0D7F8E03003F40D
:103CD0008073002B05D07B685B6C43F001027B682E
:103CE0005A64D7F8E43003F00403002B0BD0D7F864
:103CF000DC3003F00103002B05D07B685B6C43F0E4
:103D000002027B685A64D7F8E43003F00203002B08
:103D10000BD0D7F8DC3003F00103002B05D07B6813
:103D20005B6C43F004027B685A64D7F8E43003F01C
:103D30000803002B11D0D7F8E03003F02003002B4C
:103D400005D1D7F8DC3003F00103002B05D07B68E8
:103D50005B6C43F008027B685A647B685B6C002BE9
:103D600000F0F281D7F8E43003F02003002B08D0F4
:103D7000D7F8E03003F02003002B02D0786800F081
:103D800077FB7B681B685B6903F04003002B14BF63
:103D900001230023DBB2C7F8D4307B685B6C03F0EF
:103DA0000803002B03D1D7F8D430002B4FD078680C
:103DB00000F081FA7B681B685B6903F04003002B0D
:103DC00041D07B681B681433C7F89C30D7F89C300F
:103DD00053E8003FC7F89830D7F8983023F04003F5
:103DE000C7F8D0307B681B681433D7F8D020C7F8E9
:103DF000A820C7F8A430D7F8A410D7F8A82041E825
:103E00000023C7F8A030D7F8A030002BD9D17B68A9
:103E1000DB6B002B13D07B68DB6B7E4A5A637B68BD
:103E2000DB6B1846FEF7C6F80346002B16D07B68FE
:103E3000DB6B5B6B7A68D26B104698470EE0786854
:103E400000F093F90AE0786800F08FF906E07868EE
:103E500000F08BF97B6800225A6475E100BF73E1C2
:103E60007B681B6B012B40F04F81D7F8E43003F0E7
:103E70001003002B00F04881D7F8E03003F0100366
:103E8000002B00F041810023BB607B681B681B682E
:103E9000BB607B681B685B68BB60BB687B681B683A
:103EA0005B6903F04003002B00F0B6807B68DB6B9E
:103EB0001B685B68A7F8BE30B7F8BE30002B00F077
:103EC00045817B689B8DB7F8BE209A4280F03E8189
:103ED0007B68B7F8BE20DA857B68DB6B9B69202B9B
:103EE00000F088807B681B680C33C7F88830D7F8EF
:103EF000883053E8003FC7F88430D7F8843023F483
:103F00008073C7F8B8307B681B680C33D7F8B820CB
:103F1000C7F89420C7F89030D7F89010D7F89420BD
:103F200041E80023C7F88C30D7F88C30002BD9D16A
:103F30007B681B6814337B677B6F53E8003F3B67EC
:103F40003B6F23F00103C7F8B4307B681B68143360
:103F5000D7F8B420C7F88020FB67F96FD7F8802026
:103F600041E80023BB67BB6F002BE1D17B681B6876
:103F700014333B663B6E53E8003FFB65FB6D23F05B
:103F80004003C7F8B0307B681B681433D7F8B02003
:103F9000FA66BB66B96EFA6E41E800237B667B6EFB
:103FA000002BE3D17B68202283F842207B6800222B
:103FB0001A637B681B680C33FB64FB6C53E8003F9F
:103FC000BB64BB6C23F01003C7F8AC307B681B6884
:103FD0000C33D7F8AC20BA657B65796DBA6D41E8D2
:103FE00000233B653B6D002BE3D17B68DB6B184600
:103FF000FDF7A5FF7B6802225A637B689A8D7B6878
:10400000DB8D9BB2D31A9BB21946786800F0B6F8E4
:104010009CE000BF7B4300087B689A8D7B68DB8D4A
:104020009BB2D31AA7F8CE307B68DB8D9BB2002BF6
:1040300000F08E80B7F8CE30002B00F089807B68CE
:104040001B680C33BB63BB6B53E8003F7B637B6B2C
:1040500023F49073C7F8C8307B681B680C33D7F81B
:10406000C8207A643B64396C7A6C41E80023FB63B6
:10407000FB6B002BE3D17B681B6814337B627B6A8C
:1040800053E8003F3B623B6A23F00103C7F8C430AA
:104090007B681B681433D7F8C4203A63FB62F96A63
:1040A0003A6B41E80023BB62BB6A002BE3D17B681B
:1040B000202283F842207B6800221A637B681B68F9
:1040C0000C333B613B6953E8003FFB60FB6823F026
:1040D0001003C7F8C0307B681B680C33D7F8C020CA
:1040E000FA61BB61B969FA6941E800237B617B69C8
:1040F000002BE3D17B6802225A63B7F8CE30194611
:10410000786800F03BF823E0D7F8E43003F0800350
:10411000002B09D0D7F8E03003F08003002B03D048
:10412000786800F03EF914E0D7F8E43003F040037B
:10413000002B0ED0D7F8E03003F04003002B08D05E
:10414000786800F07DF904E000BF02E000BF00E005
:1041500000BFE837BD4680BD80B483B000AF786053
:1041600000BF0C37BD4680BC704780B483B000AF41
:10417000786000BF0C37BD4680BC704780B483B008
:1041800000AF78600B467B8000BF0C37BD4680BC1B
:10419000704780B586B000AFF860B9603B601346E9
:1041A000FB713BE03B6AB3F1FF3F37D0FDF7DEFD2B
:1041B00002463B68D31A3A6A9A4202D33B6A002B02
:1041C00001D103233AE0FB681B68DB6803F00403BA
:1041D000002B23D0BB68802B20D0BB68402B1DD088
:1041E000FB681B681B6803F00803082B16D100232B
:1041F0007B61FB681B681B687B61FB681B685B68F5
:104200007B617B69F86800F056F8FB6808225A6405
:10421000FB68002283F8402001230FE0FB681B6845
:104220001A68BB681340BA689A420CBF0123002386
:10423000DBB21A46FB799A42B4D0002318461837ED
:10424000BD4680BD80B485B000AFF860B96013464C
:10425000FB80FB68BA689A62FB68FA889A85FB68FB
:10426000FA88DA85FB6800225A64FB68222283F808
:104270004220FB681B69002B07D0FB681B68DA68CB
:10428000FB681B6842F48072DA60FB681B685A693D
:10429000FB681B6842F001025A61FB681B68DA6820
:1042A000FB681B6842F02002DA60002318461437CE
:1042B000BD4680BC704780B495B000AF78607B6825
:1042C0001B680C337B637B6B53E8003F3B633B6BAA
:1042D00023F49073FB647B681B680C33FA6C3A64BC
:1042E000FB63F96B3A6C41E80023BB63BB6B002BAB
:1042F000E5D17B681B6814333B623B6A53E8003F9F
:10430000FB61FB6923F00103BB647B681B6814330A
:10431000BA6CFA62BB62B96AFA6A41E800237B624E
:104320007B6A002BE5D17B681B6B012B19D17B6865
:104330001B680C33FB60FB6853E8003FBB60BB6845
:1043400023F010037B647B681B680C337A6CBA61C2
:104350007B617969BA6941E800233B613B69002BC5
:10436000E5D17B68202283F842207B6800221A6313
:1043700000BF5437BD4680BC704780B584B000AFE5
:1043800078607B685B6AFB60FB680022DA85FB680B
:104390000022DA84F868FFF7E8FE00BF1037BD4658
:1043A00080BD80B485B000AF78607B6893F8413001
:1043B000DBB2212B3ED17B689B68B3F5805F14D1C3
:1043C0007B681B69002B10D17B681B6AFB60FB6854
:1043D0001B881A467B681B68C2F308025A607B6818
:1043E0001B6A9A1C7B681A6208E07B681B6A591C6E
:1043F0007A6811621A787B681B685A607B68DB8C6C
:104400009BB2013B9BB27A681946D184002B0FD135
:104410007B681B68DA687B681B6822F08002DA60C0
:104420007B681B68DA687B681B6842F04002DA60D0
:10443000002300E0022318461437BD4680BC7047B5
:1044400080B582B000AF78607B681B68DA687B68F3
:104450001B6822F04002DA607B68202283F841204A
:104460007868FFF779FE002318460837BD4680BDFF
:1044700080B58CB000AF78607B6893F84230DBB2D7
:10448000222B40F0AE807B689B68B3F5805F17D12C
:104490007B681B69002B13D10023FB627B689B6A3E
:1044A000BB627B681B685B689BB2C3F308039AB26C
:1044B000BB6A1A807B689B6A9A1C7B689A6226E0BA
:1044C0007B689B6AFB620023BB627B689B68B3F5D9
:1044D000805F07D07B689B68002B0AD17B681B69D3
:1044E000002B06D17B681B685B68DAB2FB6A1A7026
:1044F00008E07B681B685B68DBB203F07F03DAB21D
:10450000FB6A1A707B689B6A5A1C7B689A627B689C
:10451000DB8D9BB2013B9BB27A681946D185002B9B
:104520005DD17B681B68DA687B681B6822F020021B
:10453000DA607B681B68DA687B681B6822F480722B
:10454000DA607B681B685A697B681B6822F001028D
:104550005A617B68202283F842207B6800225A63DC
:104560007B681B6B012B35D17B6800221A637B684B
:104570001B680C337B617B6953E8003F3B613B69FF
:1045800023F010037B627B681B680C337A6A3A6203
:10459000FB61F9693A6A41E80023BB61BB69002B02
:1045A000E5D17B681B681B6803F01003102B0AD150
:1045B0000023FB607B681B681B68FB607B681B68D3
:1045C0005B68FB60FB687B689B8D19467868FFF72A
:1045D000D5FD02E07868FCF7EDFB002302E0002344
:1045E00000E0022318463037BD4680BD80B584B058
:1045F00000AF78607B681B681B6923F440517B68BF
:10460000DA687B681B680A431A617B689A687B6872
:104610001B691A437B685B691343BB607B681B683B
:10462000DB6823F4B05323F00C037A681268B9688E
:104630000B43D3607B681B685B6923F440717B6824
:104640009A697B681B680A435A617B681B682C4A1D
:10465000934203D1FEF7D0FAF86002E0FEF7B8FA11
:10466000F860FA6813469B0013449A001A447B686A
:104670005B689B00B2FBF3F3224AA2FB03235B09B6
:104680001901FA6813469B0013449A001A447B6888
:104690005B689B00B2FBF3F21A4BA3FB02035B09BE
:1046A000642000FB03F3D31A1B013233154AA2FB2B
:1046B00003235B0903F0F0031944FA6813469B00D7
:1046C00013449A001A447B685B689B00B2FBF3F2C8
:1046D0000C4BA3FB02035B09642000FB03F3D31A1A
:1046E0001B013233074AA2FB03235B0903F00F02CD
:1046F0007B681B680A449A6000BF1037BD4680BDC6
:10470000003801401F85EB5180B485B000AF0346EF
:10471000FB800023FB60B7F90630842B05D0B7F986
:104720000620FB6813440333FB60FB68184614370C
:10473000BD4680BC704780B500AF00F041FE00234D
:10474000184680BDF0B589B004AF786039607B68E9
:104750005B69002B20D07B689B69002B1CD07B6899
:104760005C687B681D687B681E697B68B3F90830EC
:104770001846FFF7C9FF01467B685B697A68926952
:104780000292019300913B6832462946204600F090
:104790003FFC0346FB601CE07B685C687B681D682F
:1047A0007B681B699EB27B68B3F908301846FFF737
:1047B000ABFF024607F10C03019300923B683246BF
:1047C0002946204600F084FC0346012B01D000233B
:1047D00000E0FB6818461437BD46F0BD80B584B0D4
:1047E00000AF78607B68FB60FB68002B01D0FB6842
:1047F00000E00123184600F0ADFD002318461037F5
:10480000BD4680BD80B582B000AF78607B685B68D4
:10481000002B07D07B685B681946012000F01EFA68
:10482000034603E0012000F001FA0346184608376A
:10483000BD4680BD80B483B000AF78607B6803F173
:1048400008027B685A607B684FF0FF329A607B6891
:1048500003F108027B68DA607B6803F108027B6879
:104860001A617B6800221A6000BF0C37BD4680BC0D
:10487000704780B483B000AF78607B6800221A6113
:1048800000BF0C37BD4680BC704780B485B000AF18
:10489000786039607B685B68FB603B68FA685A60E7
:1048A000FB689A683B689A60FB689B683A685A6044
:1048B000FB683A689A603B687A681A617B681B6893
:1048C0005A1C7B681A6000BF1437BD4680BC704715
:1048D00080B485B000AF786039603B681B68BB600E
:1048E000BB68B3F1FF3F03D17B681B69FB600CE041
:1048F0007B680833FB6002E0FB685B68FB60FB6879
:104900005B681B68BA689A42F6D2FB685A683B68D3
:104910005A603B685B683A689A603B68FA689A60DC
:10492000FB683A685A603B687A681A617B681B6862
:104930005A1C7B681A6000BF1437BD4680BC7047A4
:1049400080B485B000AF78607B681B69FB607B68D2
:104950005B687A6892689A607B689B687A6852683C
:104960005A60FB685B687A689A4203D17B689A68F0
:10497000FB685A607B6800221A61FB681B685A1E3C
:10498000FB681A60FB681B6818461437BD4680BC7C
:10499000704780B584B000AF786039607B68FB6099
:1049A000FB68002B0BD14FF0500383F31188BFF34A
:1049B0006F8FBFF34F8FBB6000BF00BFFDE701F0FB
:1049C000E5FAFB681A68FB68DB6BF968096C01FBA8
:1049D00003F31A44FB689A60FB6800229A63FB6841
:1049E0001A68FB685A60FB681A68FB68DB6B013B5E
:1049F000F968096C01FB03F31A44FB68DA60FB6891
:104A0000FF2283F84420FB68FF2283F845203B689F
:104A1000002B09D1FB681B69002B0FD0FB681033FA
:104A2000184600F0F3FE09E0FB6810331846FFF764
:104A300001FFFB6824331846FFF7FCFE01F0D6FAAD
:104A4000012318461037BD4680BD80B58EB002AF39
:104A5000F860B9607A603B60FB68002B0BD14FF0C7
:104A6000500383F31188BFF36F8FBFF34F8FBB6287
:104A700000BF00BFFDE73B68002B0BD14FF0500398
:104A800083F31188BFF36F8FBFF34F8F7B6200BF3B
:104A900000BFFDE77B68002B02D0BB68002B01D074
:104AA000012300E00023002B0BD14FF0500383F3D0
:104AB0001188BFF36F8FBFF34F8F3B6200BF00BF02
:104AC000FDE77B68002B02D1BB68002B01D10123DD
:104AD00000E00023002B0BD14FF0500383F311882B
:104AE000BFF36F8FBFF34F8FFB6100BF00BFFDE7C8
:104AF00048237B617B69482B0BD04FF0500383F335
:104B00001188BFF36F8FBFF34F8FBB6100BF00BF32
:104B1000FDE77B693B68FB62FB6A002B0DD0FB6AFB
:104B2000012283F8462097F83820FB6A0093134649
:104B30007A68B968F86800F040F8FB6A18463037C0
:104B4000BD4680BD80B58AB002AFF860B96013463B
:104B5000FB71FB68002B0BD14FF0500383F31188DE
:104B6000BFF36F8FBFF34F8F3B6100BF00BFFDE707
:104B7000FB68BA6802FB03F3FB61FB694833184624
:104B800001F0C6FAB861BB69002B11D0BB697B612B
:104B90007B6948337B61BB69002283F84620FA7940
:104BA000BB69009313467A69B968F86800F005F8A4
:104BB000BB6918462037BD4680BD80B584B000AFC4
:104BC000F860B9607A60FB70BB68002B03D1BB69E9
:104BD000BA691A6002E0BB697A681A60BB69FA6850
:104BE000DA63BB69BA681A640121B869FFF7D1FEBC
:104BF00000BF1037BD4680BD80B582B000AF786081
:104C00007B68002B0ED07B6800229A607B680022B4
:104C10001A607B680022DA60002300220021786895
:104C200000F038F800BF0837BD4680BD80B586B0BB
:104C300000AF0346FB7101237B6100233B61FB79DD
:104C40001A4639697869FFF77DFFF860F868FFF761
:104C5000D3FFFB6818461837BD4680BD80B588B0C5
:104C600002AF03463960FB7101237B6100233B6186
:104C7000FB7900933B68002239697869FFF7E5FE0C
:104C8000F860F868FFF7B8FFFB6818461837BD46AC
:104C900080BD000080B58EB000AFF860B9607A606A
:104CA0003B6000237B63FB683B633B6B002B0BD1BA
:104CB0004FF0500383F31188BFF36F8FBFF34F8F13
:104CC000BB6200BF00BFFDE7BB68002B03D13B6B9D
:104CD0001B6C002B01D1012300E00023002B0BD122
:104CE0004FF0500383F31188BFF36F8FBFF34F8FE3
:104CF0007B6200BF00BFFDE73B68022B03D13B6B2B
:104D0000DB6B012B01D1012300E00023002B0BD131
:104D10004FF0500383F31188BFF36F8FBFF34F8FB2
:104D20003B6200BF00BFFDE700F030FF0346002BF1
:104D300002D17B68002B01D1012300E00023002B6E
:104D40000BD14FF0500383F31188BFF36F8FBFF384
:104D50004F8FFB6100BF00BFFDE701F017F93B6B10
:104D60009A6B3B6BDB6B9A4202D33B68022B12D1EE
:104D70003A68B968386B00F077F8F8623B6B5B6AA9
:104D8000002B04D03B6B2433184600F03FFD01F0AC
:104D90002DF9012362E07B68002B03D101F026F995
:104DA00000235BE07B6B002B06D107F11403184650
:104DB00000F090FD01237B6301F018F900F06AFB1D
:104DC00001F0E4F83B6B93F844305BB2B3F1FF3F82
:104DD00003D13B6B002283F844203B6B93F84530B2
:104DE0005BB2B3F1FF3F03D13B6B002283F8452058
:104DF00001F0FCF83A1D07F114031146184600F0C3
:104E00007FFD0346002B23D1386B00F0E9F8034601
:104E1000002B17D03B6B10337A681146184600F010
:104E2000CFFC386B00F08AF800F042FB0346002B01
:104E300093D10C4B4FF080521A60BFF34F8FBFF3EA
:104E40006F8F8AE7386B00F079F800F031FB84E768
:104E5000386B00F073F800F02BFB0023184638374E
:104E6000BD4680BD04ED00E080B586B000AFF860BF
:104E7000B9607A6000237B61FB689B6B3B61FB68D8
:104E80001B6C002B0DD1FB681B68002B4DD1FB6800
:104E90009B68184600F098FE7861FB6800229A60D3
:104EA00043E07B68002B19D1FB685868FB681B6CDA
:104EB0001A46B96802F091F9FB685A68FB681B6CE6
:104EC0001A44FB685A60FB685A68FB689B689A4200
:104ED0002BD3FB681A68FB685A6026E0FB68D86829
:104EE000FB681B6C1A46B96802F077F9FB68DA6850
:104EF000FB681B6C5B421A44FB68DA60FB68DA688B
:104F0000FB681B689A4207D2FB689A68FB681B6CB7
:104F10005B421A44FB68DA607B68022B05D13B696F
:104F2000002B02D03B69013B3B613B695A1CFB688B
:104F30009A637B6918461837BD4680BD80B584B03A
:104F400000AF786001F022F87B6893F84530FB737E
:104F500011E07B685B6A002B12D07B682433184613
:104F600000F054FC0346002B01D000F02DFDFB7B2C
:104F7000013BDBB2FB7397F90F30002BE9DC00E05B
:104F800000BF7B68FF2283F8452001F02FF800F076
:104F9000FDFF7B6893F84430BB7311E07B681B69AD
:104FA000002B12D07B681033184600F02FFC03460C
:104FB000002B01D000F008FDBB7B013BDBB2BB73D3
:104FC00097F90E30002BE9DC00E000BF7B68FF2280
:104FD00083F8442001F00AF800BF1037BD4680BDB9
:104FE00080B584B000AF786000F0D0FF7B689A6B2A
:104FF0007B68DB6B9A4202D10123FB6001E0002356
:10500000FB6000F0F3FFFB6818461037BD4680BD1B
:1050100080B58EB004AFF860B9607A603B607B6B9E
:10502000002B0BD14FF0500383F31188BFF36F8F28
:10503000BFF34F8F3B6200BF00BFFDE7BB6B002B90
:105040000BD14FF0500383F31188BFF36F8FBFF381
:105050004F8FFB6100BF00BFFDE7A0233B613B69B1
:10506000A02B0BD04FF0500383F31188BFF36F8F49
:10507000BFF34F8FBB6100BF00BFFDE73B69BB6B58
:10508000002B1ED07B6B002B1BD0BB6B7B627B6A23
:105090007A6B1A637B6A022283F89D2000230393B4
:1050A0007B6A029307F1140301933B6B00933B6807
:1050B0007A68B968F86800F051F8786A00F0EEF89C
:1050C00001E000237B617B6918462837BD4680BD1F
:1050D00080B58CB004AFF860B9603B601346FB80CC
:1050E000FB889B00184601F013F878617B69002B60
:1050F0000ED0A02001F00CF8F861FB69002B03D062
:10510000FB697A691A6305E0786901F0CFF801E07C
:105110000023FB61FB69002B17D0FB69002283F899
:105120009D20FA8800230393FB690293FB6A019395
:10513000BB6A00933B68B968F86800F00FF8F8693B
:1051400000F0ACF80123BB6102E04FF0FF33BB611C
:10515000BB6918462037BD4680BD000080B588B0C9
:1051600000AFF860B9607A603B603B6B1A6B7B689C
:1051700003F18043013B9B001344BB61BB6923F0F7
:105180000703BB61BB6903F00703002B0BD04FF093
:10519000500383F31188BFF36F8FBFF34F8F7B6191
:1051A00000BF00BFFDE7BB68002B1FD00023FB61E1
:1051B00012E0BA68FB69134419783A6BFB6913442F
:1051C00034330A461A70BA68FB6913441B78002B03
:1051D00006D0FB690133FB61FB690F2BE9D900E0C5
:1051E00000BF3B6B002283F8432003E03B6B0022AF
:1051F00083F83420BB6A062B01D90623BB623B6BC4
:10520000BA6ADA623B6BBA6A5A643B6B00229A64F0
:105210003B6B04331846FFF72CFB3B6B18331846E7
:10522000FFF727FB3B6B3A6B1A61BB6AC3F10702BE
:105230003B6B9A613B6B3A6B5A623B6B0022C3F843
:1052400098203B6B002283F89C203B6B4C334C2214
:105250000021184601F0DDFE3B6B0D4A1A653B6BE1
:105260000C4A5A653B6B0C4A9A653A68F968B8690A
:1052700000F098FD02463B6B1A60FB6A002B02D0DF
:10528000FB6A3A6B1A6000BF2037BD4680BD00BF85
:105290006C130020D41300203C14002080B582B091
:1052A00000AF786000F072FE244B1B680133234A84
:1052B0001360234B1B68002B09D1214A7B681360C4
:1052C0001E4B1B68012B10D100F09CFB0DE01D4B09
:1052D0001B68002B09D11A4B1B68DA6A7B68DB6AF2
:1052E0009A4202D8164A7B681360174B1B68013339
:1052F000154A13607B68DB6A01229A40134B1B68D6
:105300001343124A13607B68DA6A13469B00134406
:105310009B000F4A1A447B68043319461046FFF776
:10532000B4FA00F063FE074B1B68002B01D0044B5E
:105330001B6800BF0837BD4680BD00BF18070020AE
:105340001806002024070020340700202007002032
:105350001C06002080B584B000AF78600023FB609D
:105360007B68002B18D0144B1B68002B0BD04FF020
:10537000500383F31188BFF36F8FBFF34F8FBB6070
:1053800000BF00BFFDE700F085F80021786800F05D
:10539000A3FC00F08DF8F860FB68002B07D1074BE9
:1053A0004FF080521A60BFF34F8FBFF36F8F00BF73
:1053B0001037BD4680BD00BF4007002004ED00E06F
:1053C00080B58AB004AF0023BB6000237B603A46FF
:1053D000391D07F108031846FBF7D4FC39687B68D0
:1053E000BA68029201930023009300230A462149E0
:1053F0002148FFF70DFE0346204A13601F4B1B6830
:10540000002B02D001237B6101E000237B617B69DB
:10541000012B1BD14FF0500383F31188BFF36F8F23
:10542000BFF34F8F3B6100BF154B1B684C33154AD0
:105430001360154B4FF0FF321A60144B01221A60B3
:10544000134B00221A6000F02FFD0FE07B69B3F1CF
:10545000FF3F0BD14FF0500383F31188BFF36F8FE1
:10546000BFF34F8FFB6000BF00BFFDE700BF1837E1
:10547000BD4680BDA8930008E15900083C07002004
:1054800018060020380000203807002024070020DC
:105490001C07002080B400AF044B1B680133034A93
:1054A000136000BFBD4680BC704700BF40070020AE
:1054B00080B584B000AF0023FB6000237B603C4BD1
:1054C0001B68002B0BD14FF0500383F31188BFF3FF
:1054D0006F8FBFF34F8F3B6000BF00BFFDE700F051
:1054E00055FD334B1B68013B314A1360304B1B6841
:1054F000002B55D12F4B1B68002B51D02EE02E4B8B
:10550000DB68DB68FB60FB6818331846FFF718FAA6
:10551000FB6804331846FFF713FAFB68DB6A0122C5
:105520009A40264B1B681343244A1360FB68DA6ACF
:1055300013469B0013449B00214A1A44FB68043322
:1055400019461046FFF7A1F9FB68DA6A1D4B1B6884
:10555000DB6A9A4202D31C4B01221A60164B1B686D
:10556000002BCCD1FB68002B01D000F0EFFA174BD9
:105570001B68BB60BB68002B10D000F029F8034605
:10558000002B02D0104B01221A60BB68013BBB60AC
:10559000BB68002BF1D10D4B00221A600A4B1B682F
:1055A00000F024FD7B6818461037BD4680BD00BF63
:1055B0004007002018070020D80600202007002000
:1055C0001C060020180600202C07002028070020B9
:1055D00080B586B000AF00237B613F4B1B68002B7A
:1055E00070D13E4B1B6801333B613C4A3B69136001
:1055F0003B69002B21D13A4B1B681B68002B0BD059
:105600004FF0500383F31188BFF36F8FBFF34F8FB9
:105610003B6000BF00BFFDE7314B1B68FB60314BB7
:105620001B682F4A13602F4AFB6813602E4B1B68C0
:1056300001332D4A136000F089FA2C4B1B683A693C
:105640009A4244D3264B1B681B68002B04D1274B7E
:105650004FF0FF321A603AE0214B1B68DB68DB68D1
:10566000BB60BB685B687B603A697B689A4203D227
:105670001E4A7B6813602AE0BB6804331846FFF7B4
:105680005FF9BB689B6A002B04D0BB6818331846CF
:10569000FFF756F9BB68DB6A01229A40144B1B687E
:1056A0001343134A1360BB68DA6A13469B00134422
:1056B0009B00104A1A44BB68043319461046FFF792
:1056C000E4F8BFE70C4B1B6801330B4A13607B699E
:1056D00018461837BD4680BD400700201C07002033
:1056E000D0060020D4060020300700203807002014
:1056F000200700201C0600202807002080B487B067
:1057000000AF294B1B68002B03D0284B01221A60E5
:1057100045E0264B00221A60254B1B68FB60FB68A6
:10572000B3FA83F3FB72FB7AC3F11F037B61214958
:105730007A6913469B0013449B000B441B68002BA3
:105740000BD14FF0500383F31188BFF36F8FBFF37A
:105750004F8F7B6000BF00BFFDE77A6913469B0057
:1057600013449B00134A13443B613B695B685A68CE
:105770003B695A603B695A683B6908339A4204D1D5
:105780003B695B685A683B695A603B695B68DB68E8
:10579000094A1360084B1B684C33084A136000BF6A
:1057A0001C37BD4680BC7047400700202C070020F6
:1057B000200700201C0600201806002038000020CA
:1057C00080B584B000AF786039607B68002B0BD166
:1057D0004FF0500383F31188BFF36F8FBFF34F8FE8
:1057E000FB6000BF00BFFDE7074B1B68183319467D
:1057F0007868FFF76DF80121386800F06DFA00BF96
:105800001037BD4680BD00BF1806002080B586B0A9
:1058100000AF78607B68DB68DB683B613B69002B2D
:105820000BD14FF0500383F31188BFF36F8FBFF399
:105830004F8FFB6000BF00BFFDE73B691833184680
:10584000FFF77EF81D4B1B68002B1CD13B6904330E
:105850001846FFF775F83B69DB6A01229A40184B3E
:105860001B681343164A13603B69DA6A13469B00B0
:1058700013449B00134A1A443B69043319461046EB
:10588000FFF703F805E03B69183319460E48FEF7A9
:10589000FCFF3B69DA6A0D4B1B68DB6A9A4205D94B
:1058A00001237B610A4B01221A6001E000237B6126
:1058B0007B6918461837BD4680BD00BF40070020F1
:1058C000200700201C060020D80600201806002013
:1058D0002C07002080B483B000AF7860064B1A68B4
:1058E0007B681A60054B1A687B685A6000BF0C37EA
:1058F000BD4680BC704700BF300700201C07002059
:1059000080B588B000AF786039607B68002B0BD120
:105910004FF0500383F31188BFF36F8FBFF34F8FA6
:105920003B6100BF00BFFDE73B68002B0BD14FF090
:10593000500383F31188BFF36F8FBFF34F8FFB606A
:1059400000BF00BFFDE700F021FB1D4B1B68BB61E2
:105950007B685B68BA69D31A7B613B681B68B3F1EB
:10596000FF3F02D10023FB6123E07B681A68154BDF
:105970001B689A4207D07B685B68BA699A4202D377
:105980000123FB6115E03B681B687A699A420BD2E0
:105990003B681A687B69D21A3B681A607868FFF71F
:1059A00099FF0023FB6104E03B6800221A60012399
:1059B000FB6100F01BFBFB6918462037BD4680BD2C
:1059C0001C0700203007002080B400AF034B0122E9
:1059D0001A6000BFBD4680BC704700BF2C07002086
:1059E00080B582B000AF786000F04CF8044B4FF007
:1059F00080521A60BFF34F8FBFF36F8F00BFF3E782
:105A000004ED00E080B582B000AF00237B600CE0C5
:105A10007A6813469B0013449B00124A13441846AD
:105A2000FEF708FF7B6801337B607B68062BEFD9AC
:105A30000D48FEF7FFFE0D48FEF7FCFE0C48FEF792
:105A4000F9FE0C48FEF7F6FE0B48FEF7F3FE0B4B93
:105A5000054A1A600A4B054A1A6000BF0837BD465E
:105A600080BD00BF1C060020A8060020BC06002048
:105A7000D8060020EC06002004070020D0060020F5
:105A8000D406002080B582B000AF19E000F07EFAA5
:105A9000104BDB68DB687B607B6804331846FEF7DD
:105AA0004FFF0D4B1B68013B0B4A13600B4B1B68F0
:105AB000013B0A4A136000F099FA786800F010F888
:105AC000064B1B68002BE1D100BF00BF0837BD4665
:105AD00080BD00BFEC060020180700200007002052
