:020000040800F2
:1000000000500020A9190008C1170008C9170008EE
:10001000D1170008D9170008E117000800000000F8
:10002000000000000000000000000000E9170008C8
:10003000F517000800000000011800080D1800085E
:10004000F1190008F1190008F1190008F119000868
:10005000F1190008F1190008F1190008F119000858
:10006000F1190008F1190008F1190008F119000848
:10007000F1190008F1190008F1190008F119000838
:10008000F1190008F1190008F1190008F119000828
:10009000F1190008F1190008F1190008F119000818
:1000A000F1190008F1190008F1190008F119000808
:1000B000F1190008F1190008F1190008F1190008F8
:1000C000F1190008F1190008F1190008F1190008E8
:1000D000F1190008F1190008F1190008F1190008D8
:1000E000F1190008F1190008F119000800000000DA
:1000F0000000000000000000000000000000000000
:0C01000000000000000000005FF808F1A3
:1001100010B5054C237833B9044B13B10448AFF341
:1001200000800123237010BDEC01002000000000BE
:10013000EC63000808B5034B1BB103490348AFF358
:10014000008008BD00000000F0010020EC63000802
:10015000034613F8012B002AFBD1181A0138704707
:1001600081F0004102E000BF83F0004330B54FEA68
:1001700041044FEA430594EA050F08BF90EA020FD5
:100180001FBF54EA000C55EA020C7FEA645C7FEA68
:10019000655C00F0E2804FEA5454D4EB5555B8BF8B
:1001A0006D420CDD2C4480EA020281EA030382EAFC
:1001B000000083EA010180EA020281EA0303362D8E
:1001C00088BF30BD11F0004F4FEA01314FF4801C61
:1001D0004CEA113102D0404261EB410113F0004F73
:1001E0004FEA03334CEA133302D0524263EB43032A
:1001F00094EA050F00F0A780A4F10104D5F1200EC8
:100200000DDB02FA0EFC22FA05F2801841F1000122
:1002100003FA0EF2801843FA05F359410EE0A5F1F6
:1002200020050EF1200E012A03FA0EFC28BF4CF027
:10023000020C43FA05F3C01851EBE37101F00045DD
:1002400007D54FF0000EDCF1000C7EEB00006EEBEA
:100250000101B1F5801F1BD3B1F5001F0CD3490874
:100260005FEA30004FEA3C0C04F101044FEA4452CB
:1002700012F5800F80F09A80BCF1004F08BF5FEA52
:10028000500C50F1000041EB045141EA050130BD32
:100290005FEA4C0C404141EB0101013C28BFB1F544
:1002A000801FE9D291F0000F04BF01460020B1FA8F
:1002B00081F308BF2033A3F10B03B3F120020CDA62
:1002C0000C3208DD02F1140CC2F10C0201FA0CF040
:1002D00021FA02F10CE002F11402D8BFC2F1200CA5
:1002E00001FA02F120FA0CFCDCBF41EA0C0190405B
:1002F000E41AA2BF01EB0451294330BD6FEA0404A4
:100300001F3C1CDA0C340EDC04F11404C4F120028E
:1003100020FA04F001FA02F340EA030021FA04F3A0
:1003200045EA030130BDC4F10C04C4F1200220FAF7
:1003300002F001FA04F340EA0300294630BD21FA35
:1003400004F0294630BD94F0000F83F4801306BFFB
:1003500081F480110134013D4EE77FEA645C18BFEF
:100360007FEA655C29D094EA050F08BF90EA020F86
:1003700005D054EA000C04BF1946104630BD91EA7E
:10038000030F1EBF0021002030BD5FEA545C05D181
:100390004000494128BF41F0004130BD14F58004C0
:1003A0003CBF01F5801130BD01F0004545F0FE4134
:1003B00041F470014FF0000030BD7FEA645C1ABF69
:1003C000194610467FEA655C1CBF0B46024650EAA0
:1003D000013406BF52EA033591EA030F41F40021CC
:1003E00030BD00BF90F0000F04BF0021704730B552
:1003F0004FF4806404F132044FF000054FF0000127
:1004000050E700BF90F0000F04BF0021704730B5E7
:100410004FF4806404F1320410F0004548BF4042BC
:100420004FF000013EE700BF42004FEAE2014FEA11
:1004300031014FEA02701FBF12F07F4393F07F4FEC
:1004400081F06051704732F07F4208BF704793F0EF
:100450007F4F04BF41F40021704730B54FF4607402
:1004600001F0004521F000411CE700BF50EA010205
:1004700008BF704730B54FF000050AE050EA0102AE
:1004800008BF704730B511F0004502D5404261EB1E
:1004900041014FF4806404F132045FEA915C3FF45F
:1004A000D8AE4FF003025FEADC0C18BF03325FEAFC
:1004B000DC0C18BF033202EBDC02C2F1200300FAAD
:1004C00003FC20FA02F001FA03FE40EA0E0021FAD2
:1004D00002F11444BDE600BF70B54FF0FF0C4CF4C0
:1004E000E06C1CEA11541DBF1CEA135594EA0C0F72
:1004F00095EA0C0F00F0DEF82C4481EA030621EAAD
:100500004C5123EA4C5350EA013518BF52EA0335E7
:1005100041F4801143F4801338D0A0FB02CE4FF099
:100520000005E1FB02E506F00042E0FB03E54FF0C9
:100530000006E1FB03569CF0000F18BF4EF0010EC1
:10054000A4F1FF04B6F5007F64F5407404D25FEABD
:100550004E0E6D4146EB060642EAC62141EA555170
:100560004FEAC52040EA5E504FEACE2EB4F1FD0CB2
:1005700088BFBCF5E06F1ED8BEF1004F08BF5FEA30
:10058000500E50F1000041EB045170BD06F00046E2
:1005900046EA010140EA020081EA0301B4EB5C048F
:1005A000C2BFD4EB0C0541EA045170BD41F4801187
:1005B0004FF0000E013C00F3AB8014F1360FDEBFAC
:1005C000002001F0004170BDC4F10004203C35DA88
:1005D0000C341BDC04F11404C4F1200500FA05F30B
:1005E00020FA04F001FA05F240EA020001F00042AC
:1005F00021F0004110EBD37021FA04F642EB060122
:100600005EEA430E08BF20EAD37070BDC4F10C044B
:10061000C4F1200500FA04F320FA05F001FA04F20F
:1006200040EA020001F0004110EBD37041F10001FB
:100630005EEA430E08BF20EAD37070BDC4F1200506
:1006400000FA05F24EEA020E20FA04F301FA05F26E
:1006500043EA020321FA04F001F0004121FA04F216
:1006600020EA020000EBD3705EEA430E08BF20EAE6
:10067000D37070BD94F0000F0FD101F00046400020
:1006800041EB010111F4801F08BF013CF7D041EAA2
:10069000060195F0000F18BF704703F000465200A6
:1006A00043EB030313F4801F08BF013DF7D043EA77
:1006B0000603704794EA0C0F0CEA135518BF95EA2D
:1006C0000C0F0CD050EA410618BF52EA4306D1D1B4
:1006D00081EA030101F000414FF0000070BD50EAD3
:1006E000410606BF1046194652EA430619D094EA5D
:1006F0000C0F02D150EA013613D195EA0C0F05D147
:1007000052EA03361CBF104619460AD181EA03019A
:1007100001F0004141F0FE4141F470014FF0000052
:1007200070BD41F0FE4141F4780170BD70B54FF0ED
:10073000FF0C4CF4E06C1CEA11541DBF1CEA13556D
:1007400094EA0C0F95EA0C0F00F0A7F8A4EB05044F
:1007500081EA030E52EA03354FEA013100F0888046
:100760004FEA03334FF0805545EA131343EA12630F
:100770004FEA022245EA111545EA10654FEA0026C4
:100780000EF000419D4208BF964244F1FD0404F57D
:10079000407402D25B084FEA3202B61A65EB0305D9
:1007A0005B084FEA32024FF480104FF4002CB6EB96
:1007B000020E75EB030E22BFB61A754640EA0C0016
:1007C0005B084FEA3202B6EB020E75EB030E22BF56
:1007D000B61A754640EA5C005B084FEA3202B6EB97
:1007E000020E75EB030E22BFB61A754640EA9C0056
:1007F0005B084FEA3202B6EB020E75EB030E22BF26
:10080000B61A754640EADC0055EA060E18D04FEAE3
:10081000051545EA16754FEA06164FEAC30343EA83
:1008200052734FEAC2025FEA1C1CC0D111F4801F50
:100830000BD141EA00014FF000004FF0004CB6E749
:1008400011F4801F04BF01430020B4F1FD0C88BFE8
:10085000BCF5E06F3FF6AFAEB5EB030C04BFB6EBF3
:10086000020C5FEA500C50F1000041EB045170BDE6
:100870000EF0004E4EEA113114EB5C04C2BFD4EB13
:100880000C0541EA045170BD41F480114FF0000E97
:10089000013C90E645EA060E8DE60CEA135594EA13
:1008A0000C0F08BF95EA0C0F3FF43BAF94EA0C0F16
:1008B0000AD150EA01347FF434AF95EA0C0F7FF48B
:1008C00025AF104619462CE795EA0C0F06D152EADF
:1008D00003353FF4FDAE1046194622E750EA4106C3
:1008E00018BF52EA43067FF4C5AE50EA41047FF4D4
:1008F0000DAF52EA43057FF4EBAE12E74FF0FF3C39
:1009000006E000BF4FF0010C02E000BF4FF0010C09
:100910004DF804CD4FEA410C7FEA6C5C4FEA430C82
:1009200018BF7FEA6C5C1BD001B050EA410C0CBFD1
:1009300052EA430C91EA030F02BF90EA020F002033
:10094000704710F1000F91EA030F58BF994208BF9A
:1009500090422CBFD8176FEAE37040F00100704757
:100960004FEA410C7FEA6C5C02D150EA013C07D1AE
:100970004FEA430C7FEA6C5CD6D152EA033CD3D0F9
:100980005DF8040B704700BF8446104662468C46F3
:100990001946634600E000BF01B5FFF7B7FF002826
:1009A00048BF10F1000F01BD4DF808EDFFF7F4FF4F
:1009B0000CBF012000205DF808FB00BF4DF808EDDA
:1009C000FFF7EAFF34BF012000205DF808FB00BFFD
:1009D0004DF808EDFFF7E0FF94BF012000205DF81F
:1009E00008FB00BF4DF808EDFFF7CEFF94BF0120D4
:1009F00000205DF808FB00BF4DF808EDFFF7C4FFCD
:100A000034BF012000205DF808FB00BF4FEA410C15
:100A10007FEA6C5C02D150EA013C0AD14FEA430CF8
:100A20007FEA6C5C02D152EA033C02D14FF0000035
:100A300070474FF0010070474FEA410212F5001273
:100A400015D211D56FF47873B3EB625212D94FEA15
:100A5000C12343F0004343EA505311F0004F23FAFF
:100A600002F018BF404270474FF00000704750EA54
:100A7000013005D111F0004008BF6FF00040704711
:100A80004FF00000704700BF4FEA4102B2F1E0436F
:100A900024BFB3F5001CDCF1FE5C0DD901F0004C65
:100AA0004FEAC0024CEA5070B2F1004F40EB8300B5
:100AB00008BF20F00100704711F0804F21D113F1E1
:100AC0003872BCBF01F00040704741F480114FEA1A
:100AD0005252C2F11802C2F1200C10FA0CF320FAA3
:100AE00002F018BF40F001004FEAC1234FEAD323C0
:100AF00003FA0CFC40EA0C0023FA02F34FEA43032A
:100B0000CCE77FEA625307D150EA01331EBF4FF0B2
:100B1000FE4040F44000704701F0004040F0FE40CD
:100B200040F40000704700BF80F0004002E000BFCA
:100B300081F0004142001FBF5FEA410392EA030FC8
:100B40007FEA226C7FEA236C6AD04FEA1262D2EB12
:100B50001363C1BFD218414048404140B8BF5B4217
:100B6000192B88BF704710F0004F40F4000020F0B0
:100B70007F4018BF404211F0004F41F4000121F0C6
:100B80007F4118BF494292EA030F3FD0A2F1010210
:100B900041FA03FC10EB0C00C3F1200301FA03F14E
:100BA00000F0004302D5494260EB4000B0F5000F71
:100BB00013D3B0F1807F06D340084FEA310102F130
:100BC0000102FE2A51D2B1F1004F40EBC25008BFE2
:100BD00020F0010040EA03007047490040EB0000AC
:100BE000013A28BFB0F5000FEDD2B0FA80FCACF1AD
:100BF000080CB2EB0C0200FA0CF0AABF00EBC250DA
:100C000052421843BCBFD0401843704792F0000FC7
:100C100081F4000106BF80F400000132013BB5E71A
:100C20004FEA41037FEA226C18BF7FEA236C21D090
:100C300092EA030F04D092F0000F08BF08467047F5
:100C400090EA010F1CBF0020704712F07F4F04D1C3
:100C5000400028BF40F00040704712F100723CBFD6
:100C600000F50000704700F0004343F0FE4040F400
:100C7000000070477FEA226216BF08467FEA2363BE
:100C80000146420206BF5FEA412390EA010F40F4A9
:100C9000800070474FF0000304E000BF10F00043F5
:100CA00048BF40425FEA000C08BF704743F09643DC
:100CB00001464FF000001CE050EA010208BF7047F7
:100CC0004FF000030AE000BF50EA010208BF70477E
:100CD00011F0004302D5404261EB41015FEA010C93
:100CE00002BF84460146002043F0B64308BFA3F18B
:100CF0008053A3F50003BCFA8CF2083AA3EBC2536D
:100D000010DB01FA02FC634400FA02FCC2F120028B
:100D1000BCF1004F20FA02F243EB020008BF20F0C2
:100D20000100704702F1200201FA02FCC2F1200228
:100D300050EA4C0021FA02F243EB020008BF20EA1D
:100D4000DC70704742000ED2B2F1FE4F0BD34FF071
:100D50009E03B3EB126209D44FEA002343F0004331
:100D600023FA02F070474FF00000704712F1610F54
:100D700001D1420202D14FF0FF3070474FF0000026
:100D8000704700BF80B483B000AF03463960FB807A
:100D9000FA882B4BA3FB0213D9080B469B000B448C
:100DA0005B00D31A9BB219463B680333254A525C59
:100DB0001A70FB88224AA2FB0323DB089AB2204B5D
:100DC000A3FB0213D9080B469B000B445B00D31A0C
:100DD0009BB219463B6802331A4A525C1A70FB8870
:100DE000194AA2FB03235B099AB2154BA3FB02131A
:100DF000D9080B469B000B445B00D31A9BB21946E3
:100E00003B680133114A525C1A70FB88104AA2FBFE
:100E100003239B099AB20A4BA3FB0213D9080B4682
:100E20009B000B445B00D31A9BB21A46054B9A5C9D
:100E30003B681A7000BF0C37BD4680BC704700BFCE
:100E4000CDCCCCCC000000201F85EB510C00002045
:100E5000D34D621080B584B000AF786000221021BD
:100E6000104801F0CCF80023FB600EE0FB68C3F1F2
:100E700003031A467B6899184FF0FF3301220A4892
:100E800001F06AFDFB680133FB60FB68032BEDDDBD
:100E900001221021034801F0B2F800BF1037BD460F
:100EA00080BD00BF000801400802002080B483B06C
:100EB00000AF0346FB80084B1B6800225A6200BF4C
:100EC000054B1B685A6AFB889A42F9D300BF00BFE2
:100ED0000C37BD4680BC70476002002080B586B0EC
:100EE00000AF78600B467B8007F1080300221A6090
:100EF0005A609A60DA607B88BB600123FB60002344
:100F00003B6102237B6107F108031946034800F0A7
:100F1000DBFE00BF1837BD4680BD00BF00080140A2
:100F200080B586B000AF78600B467B8007F1080380
:100F300000221A605A609A60DA607B88BB600023E6
:100F4000FB6000233B6107F108031946034800F0EA
:100F5000BBFE00BF1837BD4680BD00BF0008014082
:100F600080B500AF02210D48FFF7B8FF0022022133
:100F70000A4801F044F844F25060FFF797FF01225D
:100F80000221064801F03BF81420FFF78FFF0221F1
:100F90000248FFF7C5FF00BF80BD00BF0008014049
:100FA00080B582B000AF0023FB712820FFF77EFFE1
:100FB0000221114801F00CF80346002B0ED15020FD
:100FC000FFF774FF02210C4801F002F80346002BE2
:100FD00002D00123FB7101E0FF23FB7100BF02215E
:100FE000054800F0F5FF0346002BF8D1FB791846C1
:100FF0000837BD4680BD00BF0008014080B582B003
:1010000000AF0023BB7137E000BF02211E4800F093
:10101000DFFF0346002BF8D02820FFF747FF02210F
:10102000194800F0D5FF0346002B0ED1BB79C3F160
:101030000703012202FA03F35BB2DB435AB297F9CA
:10104000073013405BB2FB710BE0BB79C3F10703C0
:10105000012202FA03F35AB297F9073013435BB245
:10106000FB7100BF0221084800F0B2FF0346002BCD
:10107000F8D1BB790133BB71BB79072BC4D9FB799C
:1010800018460837BD4680BD00080140B0B5A6B07F
:1010900002AF994B1B78032B00F2268101A252F874
:1010A00023F000BFB51000087D110008C911000829
:1010B00065120008914B07F178041D460FCD0FC44F
:1010C0002B68236007F178031846FFF741F80346C1
:1010D0009AB207F178014FF0FF33894802F04CF9DA
:1010E000FFF73EFFFFF75CFF03461A46854B1A7079
:1010F000FFF784FF03461A46834B1A70FFF77EFF03
:1011000003461A46814B1A70FFF778FF03461A46CA
:101110007F4B1A70FFF772FF03461A467D4B1A7019
:10112000FFF76CFF03461A467B4B1A80784B1B78FF
:101130001846FFF767F904460D46764B1B781846AC
:10114000FFF760F94FF00002744BFFF7EFFA024629
:101150000B4620462946FFF709F802460B46104683
:101160001946FFF791FC03466D4A13606C4B1B68F0
:101170006C4A1360604B01221A70B9E06A4B07F1A8
:1011800064041D460FCD0FC42B68236007F1640370
:101190001846FEF7DDFF03469AB207F164014FF0EF
:1011A000FF33574802F0E8F8574B1B781846FFF713
:1011B00071FD03465D4A13605C4B1B685C4A13601B
:1011C0004D4B02221A7093E05A4B07F150041D4612
:1011D0000FCD0FC42B68236007F150031846FEF7AC
:1011E000B7FF03469AB207F150014FF0FF3344486E
:1011F00002F0C2F84B4B1B681846FFF715F9024680
:101200000B46381DCDE900234B4A322102F0A6FFE0
:101210003B1D1846FEF79CFF03469AB2391D4FF05E
:10122000FF33374802F0A8F8414B1B681846FFF718
:10123000FBF802460B46381DCDE900233F4A322118
:1012400002F08CFF3B1D1846FEF782FF03469AB260
:10125000391D4FF0FF332A4802F08EF8264B032247
:101260001A7045E0364B07F13C041D460FCD0FC404
:101270002B68236007F13C031846FEF769FF03461D
:101280009AB207F13C014FF0FF331D4802F074F8A9
:10129000244B1B681846FFF755FD0346DBB21A4680
:1012A000920013441A4691001A460B4613449B00C1
:1012B0009CB21F4B1B681846FFF744FD0346DBB288
:1012C0002344A7F88E3007F13802B7F88E30114664
:1012D0001846FFF757FD07F138031846FFF7BAFD28
:1012E000054B00221A7003E0034B00221A7000BF66
:1012F00000BF9037BD46B0BDF00200202464000856
:10130000A802002008030020F1020020F2020020C1
:10131000F3020020F4020020F60200200000244026
:10132000FC0200200003002038640008F8020020BE
:10133000040300204C6400080864000818640008D6
:101340006064000880B500AF00F054FB00F016F8B0
:1013500000F00AF900F058F800F08CF800F0DAF824
:10136000054801F045FDFFF791FE4FF47A7000F05B
:10137000A3FB00BFF7E700BF6002002080B590B07C
:1013800000AF07F1180328220021184602F05DFF84
:101390003B1D00221A605A609A60DA601A610123CC
:1013A000BB614FF48033FB614FF400333B62012398
:1013B000BB6202237B634FF48033BB634FF4002393
:1013C000FB6307F11803184600F032FE0346002BBA
:1013D00001D000F015F90F237B600223BB600023CE
:1013E000FB6000233B6100237B613B1D002118460D
:1013F00001F0A0F80346002B01D000F001F900BF76
:101400004037BD4680BD000080B500AF174B184A7D
:101410001A60164B4FF482725A60144B00229A6085
:10142000124B0022DA60114B00221A610F4B00228E
:101430005A610E4B4FF400729A610C4B1822DA611C
:101440000A4B00221A62094B00225A62074B002203
:101450009A62064B0A22DA62044801F0F9F903465F
:10146000002B01D000F0CCF800BF80BD08020020A6
:101470000030014080B586B000AF07F108030022BC
:101480001A605A609A60DA603B4600221A605A601D
:101490001E4B1F4A1A601D4B0F225A601B4B002225
:1014A0009A601A4B4FF6FF72DA60184B00221A61ED
:1014B000164B00225A61154B00229A61134801F025
:1014C00048FC0346002B01D000F09AF84FF48053FB
:1014D000BB6007F1080319460C4801F0D3FC034632
:1014E000002B01D000F08CF800233B6000237B60D0
:1014F0003B461946054801F091FE0346002B01D0FA
:1015000000F07EF800BF1837BD4680BD60020020A5
:10151000002C014080B500AF114B124A1A60104BED
:101520004FF4E1325A600E4B00229A600C4B0022BD
:10153000DA600B4B00221A61094B0C225A61084BEE
:1015400000229A61064B0022DA61054801F0C4FED0
:101550000346002B01D000F053F800BF80BD00BF50
:10156000A80200200038014080B586B000AF07F126
:10157000080300221A605A609A60DA601E4B9B6969
:101580001D4A43F0200393611B4B9B6903F020032A
:101590007B607B68184B9B69174A43F00403936197
:1015A000154B9B6903F004033B603B68002212214A
:1015B000124800F024FD0223BB600123FB600023DE
:1015C0003B6102237B6107F1080319460B4800F0D9
:1015D0007BFB1023BB600123FB6000233B610323E3
:1015E0007B6107F108031946044800F06DFB00BF5A
:1015F0001837BD4680BD00BF001002400008014002
:1016000080B400AF72B600BF00BFFDE780B485B004
:1016100000AF154B9B69144A43F001039361124BD1
:101620009B6903F00103BB60BB680F4BDB690E4A8B
:1016300043F08053D3610C4BDB6903F080537B6034
:101640007B680A4B5B68FB60FB6823F0E063FB6030
:10165000FB6843F00073FB60044AFB68536000BF03
:101660001437BD4680BC70470010024000000140A6
:1016700080B588B000AF786007F1100300221A60CF
:101680005A609A60DA607B681B68154A934223D1DE
:10169000144B9B69134A43F480539361114B9B692C
:1016A00003F48053FB60FB680E4B9B690D4A43F0CB
:1016B000040393610B4B9B6903F00403BB60BB689D
:1016C000A0233B6102237B610323FB6107F110032D
:1016D0001946054800F0F8FA00BF2037BD4680BD26
:1016E00000300140001002400008014080B485B085
:1016F00000AF78607B681B68094A93420BD1094BA5
:101700009B69084A43F400639361064B9B6903F4A9
:101710000063FB60FB6800BF1437BD4680BC7047A8
:10172000002C01400010024080B588B000AF786006
:1017300007F1100300221A605A609A60DA607B6831
:101740001B681C4A934231D11B4B9B691A4A43F4D4
:1017500080439361184B9B6903F48043FB60FB68F3
:10176000154B9B69144A43F004039361124B9B6928
:1017700003F00403BB60BB684FF400733B610223BA
:101780007B610323FB6107F1100319460B4800F04E
:101790009BFA4FF480633B6100237B610023BB61B4
:1017A00007F110031946054800F08EFA00BF2037F4
:1017B000BD4680BD003801400010024000080140D5
:1017C00080B400AF00BFFDE780B400AF00BFFDE70D
:1017D00080B400AF00BFFDE780B400AF00BFFDE7FD
:1017E00080B400AF00BFFDE780B400AF00BFBD46CE
:1017F00080BC704780B400AF00BFBD4680BC70475E
:1018000080B400AF00BFBD4680BC704780B500AF5C
:1018100000F036F900BF80BD80B400AF0123184648
:10182000BD4680BC704780B582B000AF786039603B
:1018300002F05EFD034616221A604FF0FF33184691
:101840000837BD4680BD80B582B000AF78604FF0EC
:10185000FF317868FFF7E7FF00BFFDE780B586B08E
:1018600000AFF860B9607A6000237B610AE0AFF3F3
:1018700000800146BB685A1CBA60CAB21A707B6904
:1018800001337B617A697B689A42F0DB7B6818469A
:101890001837BD4680BD80B586B000AFF860B9602E
:1018A0007A6000237B6109E0BB685A1CBA601B7830
:1018B0001846AFF300807B6901337B617A697B68EE
:1018C0009A42F1DB7B6818461837BD4680BD80B46C
:1018D00083B000AF78604FF0FF3318460C37BD4639
:1018E00080BC704780B483B000AF786039603B68DB
:1018F0004FF400525A60002318460C37BD4680BC96
:10190000704780B483B000AF7860012318460C376D
:10191000BD4680BC704780B485B000AFF860B96048
:101920007A60002318461437BD4680BC704700001B
:1019300080B586B000AF7860144A154BD31A7B612E
:101940007B693B61134B1B68002B02D1114B124A80
:101950001A60104B1A687B6813443A699A4207D29E
:1019600002F0C6FC03460C221A604FF0FF3309E078
:10197000084B1B68FB60074B1A687B681344054AD9
:101980001360FB6818461837BD4680BD0050002024
:10199000000400000C0300206004002080B400AFAD
:1019A00000BFBD4680BC7047FFF7F8FF0B480C49ED
:1019B0000C4A002302E0D458C4500433C4188C42AB
:1019C000F9D3094A094C002301E013600432A24212
:1019D000FBD302F093FCFFF7B5FC7047000000203A
:1019E000EC01002020680008EC01002060040020C9
:1019F000FEE7000080B500AF084B1B68074A43F0C4
:101A000010031360032000F02BF90F2000F008F8FA
:101A1000FFF7FCFD0023184680BD00BF00200240F8
:101A200080B582B000AF7860124B1A68124B1B78F9
:101A300019464FF47A73B3FBF1F3B2FBF3F3184694
:101A400000F035F90346002B01D001230EE07B683E
:101A50000F2B0AD8002279684FF0FF3000F00BF905
:101A6000064A7B681360002300E00123184608370C
:101A7000BD4680BD18000020200000201C00002072
:101A800080B400AF054B1B781A46054B1B68134406
:101A9000034A136000BFBD4680BC70472000002091
:101AA0001003002080B400AF024B1B681846BD46EF
:101AB00080BC70471003002080B584B000AF786010
:101AC000FFF7F0FFB8607B68FB60FB68B3F1FF3F96
:101AD00005D00A4B1B781A46FB681344FB6000BF15
:101AE000FFF7E0FF0246BB68D31AFA689A42F7D8BC
:101AF00000BF00BF1037BD4680BD00BF20000020E2
:101B000080B485B000AF78607B6803F00703FB60AA
:101B10000C4BDB68BB60BA684FF6FF031340BB6039
:101B2000FB681A02BB68134343F0BF6343F40033FE
:101B3000BB60044ABB68D36000BF1437BD4680BC9D
:101B4000704700BF00ED00E080B400AF044BDB68DD
:101B50001B0A03F007031846BD4680BC704700BF50
:101B600000ED00E080B483B000AF03463960FB7144
:101B700097F90730002B0ADB3B68DAB20C4997F97A
:101B800007301201D2B20B4483F800230AE03B680D
:101B9000DAB20849FB7903F00F03043B1201D2B219
:101BA0000B441A7600BF0C37BD4680BC704700BF9F
:101BB00000E100E000ED00E080B489B000AFF86023
:101BC000B9607A60FB6803F00703FB61FB69C3F14E
:101BD0000703042B28BF0423BB61FB690433062BD6
:101BE00002D9FB69033B00E000237B614FF0FF3229
:101BF000BB6902FA03F3DA43BB681A407B699A4077
:101C00004FF0FF317B6901FA03F3D9437B680B4046
:101C1000134318462437BD4680BC704780B582B058
:101C200000AF78607B68013BB3F1807F01D3012373
:101C30000FE00A4A7B68013B53600F214FF0FF30F1
:101C4000FFF790FF054B00229A60044B07221A60B1
:101C5000002318460837BD4680BD00BF10E000E0F5
:101C600080B582B000AF78607868FFF749FF00BFA9
:101C70000837BD4680BD80B586B000AF0346B96069
:101C80007A60FB7300237B61FFF75EFF78617A68FF
:101C9000B9687869FFF790FF024697F90F3011464F
:101CA0001846FFF75FFF00BF1837BD4680BD80B5FF
:101CB00082B000AF78607868FFF7B0FF034618463F
:101CC0000837BD4680BD000080B48BB000AF78609F
:101CD000396000237B6200233B6269E101227B6A59
:101CE00002FA03F3FB613B681B68FA691340BB61AE
:101CF000BA69FB699A4240F058813B685B689A4A2E
:101D000093425ED0984A934275D8984A934258D0ED
:101D1000964A93426FD8964A934252D0944A93423D
:101D200069D8944A93424CD0924A934263D8924ADB
:101D3000934246D0904A93425DD8122B2AD8122B58
:101D400059D801A252F823F0C31D00089D1D0008B8
:101D5000AF1D0008F11D0008F71D0008F71D000861
:101D6000F71D0008F71D0008F71D0008F71D000803
:101D7000F71D0008F71D0008F71D0008F71D0008F3
:101D8000F71D0008F71D0008F71D0008A51D000835
:101D9000B91D0008794A934213D02CE03B68DB68F8
:101DA0003B6229E03B68DB6804333B6224E03B682C
:101DB000DB6808333B621FE03B68DB680C333B6247
:101DC0001AE03B689B68002B02D104233B6213E0BE
:101DD0003B689B68012B05D108233B627B68FA694D
:101DE0001A6109E008233B627B68FA695A6103E0E3
:101DF00000233B6200E000BFBB69FF2B01D87B687A
:101E000001E07B6804337B61BB69FF2B02D87B6AEE
:101E10009B0002E07B6A083B9B003B617B691A6880
:101E20000F213B6901FA03F3DB431A40396A3B692E
:101E300001FA03F31A437B691A603B685B6803F09D
:101E40008053002B00F0B1804D4B9B694C4A43F00E
:101E5000010393614A4B9B6903F00103BB60BB68BC
:101E6000484A7B6A9B08023352F82330FB607B6A46
:101E700003F003039B000F2202FA03F3DB43FA682B
:101E80001340FB607B68404A934213D07B683F4A13
:101E900093420DD07B683E4A934207D07B683D4A0F
:101EA000934201D1032306E0042304E0022302E06D
:101EB000012300E000237A6A02F0030292009340BB
:101EC000FA681343FB602F497B6A9B080233FA6868
:101ED00041F823203B685B6803F48013002B06D095
:101EE0002D4B9A682C49BB6913438B6006E02A4B43
:101EF0009A68BB69DB43284913408B603B685B6889
:101F000003F40013002B06D0234BDA682249BB6987
:101F10001343CB6006E0204BDA68BB69DB431E4904
:101F20001340CB603B685B6803F40033002B06D0A2
:101F3000194B5A681849BB6913434B6006E0164BAE
:101F40005A68BB69DB43144913404B603B685B68CC
:101F500003F48033002B21D00F4B1A680E49BB6964
:101F600013430B6021E000BF00003210000031106D
:101F700000002210000021100000121000001110BB
:101F8000001002400000014000080140000C014028
:101F90000010014000140140000401400B4B1A687E
:101FA000BB69DB43094913400B607B6A01337B62E9
:101FB0003B681A687B6A22FA03F3002B7FF48EAE2B
:101FC00000BF00BF2C37BD4680BC704700040140F5
:101FD00080B485B000AF78600B467B807B689A68E0
:101FE0007B881340002B02D00123FB7301E0002308
:101FF000FB73FB7B18461437BD4680BC704780B42A
:1020000083B000AF78600B467B8013467B707B7893
:10201000002B03D07A887B681A6103E07B881A045E
:102020007B681A6100BF0C37BD4680BC704700005A
:1020300080B586B000AF78607B68002B01D10123AA
:1020400072E27B681B6803F00103002B00F08780BD
:10205000924B5B6803F00C03042B0CD08F4B5B6836
:1020600003F00C03082B12D18C4B5B6803F4803314
:10207000B3F5803F0BD1894B1B6803F40033002B71
:102080006CD07B685B68002B68D101234CE27B68D5
:102090005B68B3F5803F06D1804B1B687F4A43F4F1
:1020A000803313602EE07B685B68002B0CD17B4B88
:1020B0001B687A4A23F480331360784B1B68774A95
:1020C00023F4802313601DE07B685B68B3F5A02FC9
:1020D0000CD1724B1B68714A43F4802313606F4B21
:1020E0001B686E4A43F4803313600BE06B4B1B6834
:1020F0006A4A23F480331360684B1B68674A23F4F1
:10210000802313607B685B68002B13D0FFF7CAFC49
:10211000386108E0FFF7C6FC02463B69D31A642B1E
:1021200001D9032300E25D4B1B6803F40033002B4D
:10213000F0D014E0FFF7B6FC386108E0FFF7B2FC1E
:1021400002463B69D31A642B01D90323ECE1534BBC
:102150001B6803F40033002BF0D100E000BF7B6864
:102160001B6803F00203002B63D04C4B5B6803F049
:102170000C03002B0BD0494B5B6803F00C03082BBE
:102180001CD1464B5B6803F48033002B16D1434BC4
:102190001B6803F00203002B05D07B681B69012B31
:1021A00001D00123C0E13D4B1B6823F0F8027B689E
:1021B0005B69DB00394913430B603AE07B681B69BC
:1021C000002B20D0364B01221A60FFF76BFC3861E0
:1021D00008E0FFF767FC02463B69D31A022B01D9DE
:1021E0000323A1E12D4B1B6803F00203002BF0D069
:1021F0002A4B1B6823F0F8027B685B69DB002749E8
:1022000013430B6015E0264B00221A60FFF74AFCCF
:10221000386108E0FFF746FC02463B69D31A022BFF
:1022200001D9032380E11D4B1B6803F00203002B3F
:10223000F0D17B681B6803F00803002B3AD07B6861
:102240009B69002B19D0174B01221A60FFF72AFC5B
:10225000386108E0FFF726FC02463B69D31A022BDF
:1022600001D9032360E10D4B5B6A03F00203002BED
:10227000F0D0012000F0CEFA1CE00A4B00221A60D8
:10228000FFF710FC38610FE0FFF70CFC02463B69DA
:10229000D31A022B08D9032346E100BF00100240E5
:1022A0000000424280044242924B5B6A03F0020308
:1022B000002BE9D17B681B6803F00403002B00F0BE
:1022C000A6800023FB758B4BDB6903F08053002B4A
:1022D0000DD1884BDB69874A43F08053D361854B2E
:1022E000DB6903F08053BB60BB680123FB75824B45
:1022F0001B6803F48073002B18D17F4B1B687E4A48
:1023000043F480731360FFF7CDFB386108E0FFF7FB
:10231000C9FB02463B69D31A642B01D9032303E1AD
:10232000754B1B6803F48073002BF0D07B68DB686F
:10233000012B06D16F4B1B6A6E4A43F001031362F7
:102340002DE07B68DB68002B0CD16A4B1B6A694A65
:1023500023F001031362674B1B6A664A23F00403F0
:1023600013621CE07B68DB68052B0CD1614B1B6A98
:10237000604A43F0040313625E4B1B6A5D4A43F0FC
:10238000010313620BE05B4B1B6A5A4A23F0010303
:102390001362584B1B6A574A23F0040313627B688D
:1023A000DB68002B15D0FFF77DFB38610AE0FFF7F3
:1023B00079FB02463B69D31A41F28832934201D934
:1023C0000323B1E04B4B1B6A03F00203002BEED05A
:1023D00014E0FFF767FB38610AE0FFF763FB024692
:1023E0003B69D31A41F28832934201D903239BE01F
:1023F000404B1B6A03F00203002BEED1FB7D012B47
:1024000005D13C4BDB693B4A23F08053D3617B68A9
:10241000DB69002B00F08780364B5B6803F00C0310
:10242000082B61D07B68DB69022B46D1334B00223D
:102430001A60FFF737FB386108E0FFF733FB02460D
:102440003B69D31A022B01D903236DE0294B1B688A
:1024500003F00073002BF0D17B681B6AB3F5803F5B
:1024600008D1244B5B6823F400327B689B682149C8
:1024700013434B601F4B5B6823F474127B68196A2B
:102480007B685B6A0B431B4913434B601B4B012268
:102490001A60FFF707FB386108E0FFF703FB02460D
:1024A0003B69D31A022B01D903233DE0114B1B6872
:1024B00003F00073002BF0D035E0104B00221A60BF
:1024C000FFF7F0FA386108E0FFF7ECFA02463B69E3
:1024D000D31A022B01D9032326E0064B1B6803F015
:1024E0000073002BF0D11EE07B68DB69012B07D164
:1024F000012319E0001002400070004060004242D9
:102500000B4B5B68FB60FB6803F480327B681B6AE3
:102510009A4206D1FB6803F470127B685B6A9A42A8
:1025200001D0012300E0002318461837BD4680BDC6
:102530000010024080B584B000AF786039607B68DD
:10254000002B01D10123D0E06A4B1B6803F0070385
:102550003A689A4210D9674B1B6823F00702654915
:102560003B6813430B60634B1B6803F007033A6837
:102570009A4201D00123B8E07B681B6803F0020394
:10258000002B20D07B681B6803F00403002B05D0D0
:10259000594B5B68584A43F4E06353607B681B689F
:1025A00003F00803002B05D0534B5B68524A43F4F9
:1025B00060535360504B5B6823F0F0027B689B686C
:1025C0004D4913434B607B681B6803F00103002BEC
:1025D00040D07B685B68012B07D1474B1B6803F435
:1025E0000033002B15D101237FE07B685B68022B51
:1025F00007D1414B1B6803F00073002B09D1012365
:1026000073E03D4B1B6803F00203002B01D1012353
:102610006BE0394B5B6823F003027B685B683649EB
:1026200013434B60FFF73EFAF8600AE0FFF73AFA0F
:102630000246FB68D31A41F28832934201D9032340
:1026400053E02D4B5B6803F00C027B685B689B00DA
:102650009A42EBD1274B1B6803F007033A689A4272
:1026600010D2244B1B6823F0070222493B68134316
:102670000B60204B1B6803F007033A689A4201D0B5
:10268000012332E07B681B6803F00403002B08D0B1
:10269000194B5B6823F4E0627B68DB6816491343DF
:1026A0004B607B681B6803F00803002B09D0124BBA
:1026B0005B6823F460527B681B69DB000E4913439F
:1026C0004B6000F021F802460B4B5B681B0903F0DE
:1026D0000F030A49CB5C22FA03F3094A1360094B42
:1026E0001B681846FFF79CF9002318461037BD46B3
:1026F00080BD00BF0020024000100240746400084A
:10270000180000201C00002080B487B000AF002318
:10271000FB600023BB6000237B6100237B60002300
:102720003B611E4B5B68FB60FB6803F00C03042BF2
:1027300002D0082B03D027E0194B3B6127E0FB6850
:102740009B0C03F00F03174AD35C7B60FB6803F418
:102750008033002B10D0114B5B685B0C03F001033E
:10276000114AD35CBB607B680D4A03FB02F2BB6875
:10277000B2FBF3F37B6104E07B680C4A02FB03F3DA
:102780007B617B693B6102E0054B3B6100BF3B69BC
:1027900018461C37BD4680BC704700BF0010024081
:1027A00000127A008C6400089C64000800093D0057
:1027B00080B400AF024B1B681846BD4680BC704712
:1027C0001800002080B500AFFFF7F2FF0246054B6E
:1027D0005B681B0A03F007030349CB5C22FA03F38F
:1027E000184680BD001002408464000880B500AF28
:1027F000FFF7DEFF0246054B5B68DB0A03F00703C9
:102800000349CB5C22FA03F3184680BD0010024056
:102810008464000880B485B000AF78600A4B1B6800
:102820000A4AA2FB03235B0A7A6802FB03F3FB60FC
:1028300000BFFB685A1EFA60002BF9D100BF00BF31
:102840001437BD4680BC704718000020D34D62107D
:1028500080B582B000AF78607B68002B01D1012386
:1028600076E07B685B6A002B08D17B685B68B3F518
:10287000827F09D07B680022DA6105E07B68002254
:102880001A617B6800225A617B6800229A627B6829
:1028900093F85130DBB2002B06D17B68002283F81D
:1028A00050207868FEF7E4FE7B68022283F851200E
:1028B0007B681B681A687B681B6822F040021A60FC
:1028C0007B685B6803F482727B689B6803F4044353
:1028D0001A437B68DB6803F400631A437B681B6957
:1028E00003F002031A437B685B6903F001031A4398
:1028F0007B689B6903F400731A437B68DB6903F010
:1029000038031A437B681B6A03F0800342EA030121
:102910007B689B6A03F400527B681B680A431A6059
:102920007B689B691A0C7B681B6802F004025A6082
:102930007B681B68DA697B681B6822F40062DA61D5
:102940007B6800225A657B68012283F851200023AE
:1029500018460837BD4680BD80B588B000AFF86026
:10296000B9603B601346FB80FFF79CF8F861FB8879
:102970007B83FB6893F85130DBB2012B01D002233B
:102980002AE1BB68002B02D0FB88002B01D1012378
:1029900022E1FB6893F85030012B01D102231BE1A7
:1029A000FB68012283F85020FB68032283F8512042
:1029B000FB6800225A65FB68BA681A63FB68FA88EC
:1029C0009A86FB68FA88DA86FB6800229A63FB68BD
:1029D00000229A87FB680022DA87FB6800225A648B
:1029E000FB6800221A64FB689B68B3F5004F0FD1A7
:1029F000FB681B681A68FB681B6822F040021A60BB
:102A0000FB681B681A68FB681B6842F480421A6006
:102A1000FB681B681B6803F04003402B07D0FB6872
:102A20001B681A68FB681B6842F040021A60FB686A
:102A3000DB68B3F5006F52D1FB685B68002B02D0F6
:102A40007B8B012B45D1FB681B6B1A88FB681B68CD
:102A5000DA60FB681B6B9A1CFB681A63FB68DB8EF1
:102A60009BB2013B9AB2FB68DA8632E0FB681B68D6
:102A70009B6803F00203022B12D1FB681B6B1A88C0
:102A8000FB681B68DA60FB681B6B9A1CFB681A63A7
:102A9000FB68DB8E9BB2013B9AB2FB68DA8618E0DA
:102AA000FFF700F80246FB69D31A3A689A4203D846
:102AB0003B68B3F1FF3F02D13B68002B09D1FB68B3
:102AC000012283F85120FB68002283F85020032361
:102AD00082E0FB68DB8E9BB2002BC7D153E0FB6822
:102AE0005B68002B02D07B8B012B47D1FB681A6BF4
:102AF000FB681B680C3312781A70FB681B6B5A1C3E
:102B0000FB681A63FB68DB8E9BB2013B9AB2FB68E1
:102B1000DA8633E0FB681B689B6803F00203022B34
:102B200013D1FB681A6BFB681B680C3312781A70A0
:102B3000FB681B6B5A1CFB681A63FB68DB8E9BB23D
:102B4000013B9AB2FB68DA8618E0FEF7ABFF02465B
:102B5000FB69D31A3A689A4203D83B68B3F1FF3F46
:102B600002D13B68002B09D1FB68012283F8512078
:102B7000FB68002283F8502003232DE0FB68DB8EE6
:102B80009BB2002BC6D1FA693968F86800F0B0F83A
:102B90000346002B02D0FB6820225A65FB689B6825
:102BA000002B0AD100237B61FB681B68DB687B611B
:102BB000FB681B689B687B617B69FB68012283F86B
:102BC0005120FB68002283F85020FB685B6D002BCE
:102BD00001D0012300E0002318462037BD4680BD08
:102BE00080B588B000AFF860B9603B601346FB71F8
:102BF000FEF758FF0246BB6A9B1A3A681344FB6112
:102C0000FEF750FFB861394B1B685B011B0DFA6979
:102C100002FB03F37B6154E03B68B3F1FF3F50D00C
:102C2000FEF740FF0246BB69D31AFA699A4202D9FD
:102C3000FB69002B3DD1FB681B685A68FB681B6869
:102C400022F0E0025A60FB685B68B3F5827F11D125
:102C5000FB689B68B3F5004F04D0FB689B68B3F535
:102C6000806F07D1FB681B681A68FB681B6822F03D
:102C700040021A60FB689B6AB3F5005F0FD1FB68E6
:102C80001B681A68FB681B6822F400521A60FB6814
:102C90001B681A68FB681B6842F400521A60FB68E4
:102CA000012283F85120FB68002283F8502003237F
:102CB00017E07B69002B01D10023FB617B69013B9D
:102CC0007B61FB681B689A68BB681340BA689A42CC
:102CD0000CBF01230023DBB21A46FB799A429BD139
:102CE000002318462037BD4680BD00BF18000020D5
:102CF00080B586B002AFF860B9607A607B680093F7
:102D0000BB6801220221F868FFF76AFF0346002B27
:102D100007D0FB685B6D43F02002FB685A65032314
:102D200013E07B680093BB6800228021F868FFF7FE
:102D300057FF0346002B07D0FB685B6D43F0200272
:102D4000FB685A65032300E0002318461037BD4690
:102D500080BD80B582B000AF78607B68002B01D168
:102D6000012341E07B6893F83D30DBB2002B06D1B4
:102D70007B68002283F83C207868FEF7B7FC7B680C
:102D8000022283F83D207B681A687B680433194669
:102D9000104600F03FF97B68012283F846207B68EB
:102DA000012283F83E207B68012283F83F207B6864
:102DB000012283F840207B68012283F841207B6850
:102DC000012283F842207B68012283F843207B683C
:102DD000012283F844207B68012283F845207B6828
:102DE000012283F83D20002318460837BD4680BDE8
:102DF00080B485B000AF78607B6893F83D30DBB27B
:102E0000012B01D0012332E07B68022283F83D20B0
:102E10007B681B68184A93420ED07B681B68B3F12D
:102E2000804F09D07B681B68144A934204D07B68AA
:102E30001B68134A934211D17B681B689B6803F09F
:102E40000703FB60FB68062B10D07B681B681A68C1
:102E50007B681B6842F001021A6007E07B681B6810
:102E60001A687B681B6842F001021A60002318464A
:102E70001437BD4680BC7047002C01400004004060
:102E80000008004080B584B000AF7860396000234E
:102E9000FB737B6893F83C30012B01D10223B4E033
:102EA0007B68012283F83C207B68022283F83D2066
:102EB0007B681B689B68BB60BB6823F07703BB60C3
:102EC000BB6823F47F43BB607B681B68BA689A6069
:102ED0003B681B68B3F5005F3ED0B3F5005F00F2BE
:102EE0008780B3F5805F00F08680B3F5805F7FD880
:102EF000702B1AD0702B7BD8602B50D0602B77D8DA
:102F0000502B3CD0502B73D8402B58D0402B6FD82F
:102F1000302B64D0302B6BD8202B60D0202B67D87F
:102F2000002B5CD0102B5AD062E07B6818683B689D
:102F300099683B685A683B68DB6800F050F97B6829
:102F40001B689B68BB60BB6843F07703BB607B6812
:102F50001B68BA689A604FE07B6818683B6899689C
:102F60003B685A683B68DB6800F039F97B681B688E
:102F70009A687B681B6842F480429A603CE07B68F8
:102F800018683B6859683B68DB681A4600F0B0F87F
:102F90007B681B685021184600F007F92CE07B681D
:102FA00018683B6859683B68DB681A4600F0CEF841
:102FB0007B681B686021184600F0F7F81CE07B680E
:102FC00018683B6859683B68DB681A4600F090F85F
:102FD0007B681B684021184600F0E7F80CE07B682E
:102FE0001A683B681B681946104600F0DEF803E0DB
:102FF0000123FB7300E000BF7B68012283F83D20C2
:103000007B68002283F83C20FB7B18461037BD46C6
:1030100080BD000080B485B000AF786039607B6807
:103020001B68FB607B682F4A93420BD07B68B3F12F
:10303000804F07D07B682C4A934203D07B682B4A91
:10304000934208D1FB6823F07003FB603B685B6828
:10305000FA681343FB607B68224A93420BD07B687B
:10306000B3F1804F07D07B681F4A934203D07B683F
:103070001E4A934208D1FB6823F44073FB603B680F
:10308000DB68FA681343FB60FB6823F080023B684F
:103090005B691343FB607B68FA681A603B689A6857
:1030A0007B68DA623B681A687B689A627B680D4AC3
:1030B000934203D13B681A697B681A637B680122DB
:1030C0005A617B681B6903F00103002B05D07B6804
:1030D0001B6923F001027B681A6100BF1437BD46EB
:1030E00080BC7047002C01400004004000080040F4
:1030F00080B487B000AFF860B9607A60FB681B6A83
:103100007B61FB681B6A23F00102FB681A62FB68A3
:103110009B693B613B6923F0F0033B617B681B01CA
:103120003A6913433B617B6923F00A037B617A6947
:10313000BB6813437B61FB683A699A61FB687A69F3
:103140001A6200BF1C37BD4680BC704780B487B090
:1031500000AFF860B9607A60FB681B6A7B61FB684E
:103160001B6A23F01002FB681A62FB689B693B61D3
:103170003B6923F470433B617B681B033A6913434B
:103180003B617B6923F0A0037B61BB681B017A690B
:1031900013437B61FB683A699A61FB687A691A623A
:1031A00000BF1C37BD4680BC704780B485B000AFFF
:1031B000786039607B689B68FB60FB6823F0700374
:1031C000FB603A68FB68134343F00703FB607B68CE
:1031D000FA689A6000BF1437BD4680BC704780B45F
:1031E00087B000AFF860B9607A603B60FB689B68AD
:1031F0007B617B6923F47F437B613B681A027B68B8
:103200001A43BB6813437A6913437B61FB687A698D
:103210009A6000BF1C37BD4680BC704780B485B043
:1032200000AF786039607B6893F83C30012B01D1A6
:10323000022346E07B68012283F83C207B6802225F
:1032400083F83D207B681B685B68FB607B681B68BC
:103250009B68BB60FB6823F07003FB603B681B68E6
:10326000FA681343FB607B681B68FA685A607B68E6
:103270001B68164A93420ED07B681B68B3F1804FDF
:1032800009D07B681B68124A934204D07B681B6894
:10329000104A93420CD1BB6823F08003BB603B68AB
:1032A0005B68BA681343BB607B681B68BA689A6046
:1032B0007B68012283F83D207B68002283F83C2054
:1032C000002318461437BD4680BC7047002C0140CF
:1032D000000400400008004080B582B000AF786074
:1032E0007B68002B01D1012342E07B6893F84130D9
:1032F000DBB2002B06D17B68002283F8402078687F
:10330000FEF712FA7B68242283F841207B681B6851
:10331000DA687B681B6822F40052DA60786800F093
:1033200071F97B681B681A697B681B6822F49042FC
:103330001A617B681B685A697B681B6822F02A0245
:103340005A617B681B68DA687B681B6842F400522C
:10335000DA607B6800225A647B68202283F841206F
:103360007B68202283F842207B6800225A63002376
:1033700018460837BD4680BD80B58AB002AFF860F8
:10338000B9603B601346FB8000237B61FB6893F8C8
:103390004130DBB2202B75D1BB68002B02D0FB88FB
:1033A000002B01D101236EE0FB6800225A64FB6808
:1033B000212283F84120FEF775FB7861FB68FA88CB
:1033C0009A84FB68FA88DA84FB689B68B3F5805FAF
:1033D00008D1FB681B69002B04D10023FB61BB688B
:1033E000BB6103E0BB68FB610023BB612EE03B686F
:1033F00000937B6900228021F86800F048F80346BA
:10340000002B05D0FB68202283F8412003233AE0FB
:10341000FB69002B0BD1BB691B881A46FB681B6834
:10342000C2F308025A60BB690233BB6107E0FB6963
:103430001A78FB681B685A60FB690133FB61FB6803
:10344000DB8C9BB2013B9AB2FB68DA84FB68DB8CB5
:103450009BB2002BCBD13B6800937B6900224021BB
:10346000F86800F014F80346002B05D0FB68202212
:1034700083F84120032306E0FB68202283F84120E3
:10348000002300E0022318462037BD4680BD80B5EA
:1034900086B000AFF860B9603B601346FB713BE05B
:1034A0003B6AB3F1FF3F37D0FEF7FCFA02463B68B8
:1034B000D31A3A6A9A4202D33B6A002B01D1032302
:1034C0003AE0FB681B68DB6803F00403002B23D0A1
:1034D000BB68802B20D0BB68402B1DD0FB681B68CD
:1034E0001B6803F00803082B16D100237B61FB68DF
:1034F0001B681B687B61FB681B685B687B617B6981
:10350000F86800F01DF8FB6808225A64FB68002286
:1035100083F8402001230FE0FB681B681A68BB6832
:103520001340BA689A420CBF01230023DBB21A464B
:10353000FB799A42B4D0002318461837BD4680BDA7
:1035400080B495B000AF78607B681B680C337B63F8
:103550007B6B53E8003F3B633B6B23F49073FB644E
:103560007B681B680C33FA6C3A64FB63F96B3A6C4A
:1035700041E80023BB63BB6B002BE5D17B681B6874
:1035800014333B623B6A53E8003FFB61FB6923F065
:103590000103BB647B681B681433BA6CFA62BB62BC
:1035A000B96AFA6A41E800237B627B6A002BE5D1A5
:1035B0007B681B6B012B19D17B681B680C33FB608C
:1035C000FB6853E8003FBB60BB6823F010037B64DB
:1035D0007B681B680C337A6CBA617B617969BA6964
:1035E00041E800233B613B69002BE5D17B68202249
:1035F00083F842207B6800221A6300BF5437BD461F
:1036000080BC704780B584B000AF78607B681B6871
:103610001B6923F440517B68DA687B681B680A43A6
:103620001A617B689A687B681B691A437B685B69CF
:103630001343BB607B681B68DB6823F4B05323F043
:103640000C037A681268B9680B43D3607B681B6807
:103650005B6923F440717B689A697B681B680A4345
:103660005A617B681B682C4A934203D1FFF7BEF86E
:10367000F86002E0FFF7A6F8F860FA6813469B00CE
:1036800013449A001A447B685B689B00B2FBF3F317
:10369000224AA2FB03235B091901FA6813469B0027
:1036A00013449A001A447B685B689B00B2FBF3F2F8
:1036B0001A4BA3FB02035B09642000FB03F3D31A3C
:1036C0001B013233154AA2FB03235B0903F0F0030D
:1036D0001944FA6813469B0013449A001A447B6805
:1036E0005B689B00B2FBF3F20C4BA3FB02035B098C
:1036F000642000FB03F3D31A1B013233074AA2FBF9
:1037000003235B0903F00F027B681B680A449A607D
:1037100000BF1037BD4680BD003801401F85EB510A
:10372000002B2DE9F0471D46BBBF03F100431D46AA
:1037300000232D2388B01446B8BF1446129A109E59
:103740001370149BDDF84CA023F02008B8F1460F4D
:1037500005D0B8F1450F00D10136022300E0032364
:1037600007AA049206AACDE902A2CDE900362246B4
:103770002B4600F081FEB8F1470F074619D1119B87
:10378000DB070ED500EB0609002200232046294660
:10379000FDF70AF908B1CDF81C903022079B4B4584
:1037A0001ED33846079B159ADB1B136008B0BDE893
:1037B000F087B8F1460F00EB0609E5D10378302B0E
:1037C0000AD10022002320462946FDF7EDF818B95A
:1037D000C6F10106CAF80060DAF800309944D3E770
:1037E000591C07911A70D9E7F7B50029B6BF2D23E8
:1037F0002B23494209290270437029DD0DF107038B
:103800001D460A27B1FBF7F61A4607FB161430349B
:1038100002F8014C0C46632C314603F1FF33F1DC16
:103820003031941E03F8011C2346411CAB420AD3DD
:103830000DF109039B1AAC4288BF002302330344F5
:10384000181A03B0F0BD13F8016B01F8016FEDE732
:10385000302330318370C170031DF1E72DE9F04F43
:1038600091B00C46DDF8688016461F46054600F00C
:10387000F5FC036818460893FCF76AFC00230E93D6
:10388000D8F800300990073323F0070303F108024A
:1038900094F818A0D4F800B0C8F80020D3E9008943
:1038A00029F000430B93CDF828804FF0FF32DDE97B
:1038B0000A01C4E912899C4BFDF7A8F870BBDDE949
:1038C0000A014FF0FF32984BFDF782F830BB00221F
:1038D000002340464946FDF771F810B12D2384F8C6
:1038E0004330924A924BBAF1470F94BF90469846A4
:1038F00003234FF0000923612BF0040323603346B8
:103900002146284600970FAA00F0D4F9013040F074
:1039100090804FF0FF3011B0BDE8F08F42464B462B
:1039200040464946FDF772F848B14B46002BB8BFF8
:103930002D23804AB8BF84F843307F4BD3E76368B8
:103940000AF0DF015A1C3FD10623636000224BF4CA
:103950008063236006920EAACDE904A20DAA039209
:103960000DF13302CDE901326368424600932846E7
:103970004B460A91FFF7D4FE0A99804647290D99D4
:1039800028D1C81C02DB6368994240DDAAF1020A13
:103990005FFA8AFA5246013904F150000D91FFF79F
:1039A00023FF0E9A81461318012A236102DC226844
:1039B000D20701D5013323619DF83330002B9ED00F
:1039C0002D2384F843309AE74729BFD1002BBDD17E
:1039D0000123BAE7BAF1650FDCD9BAF1660F18D145
:1039E000002963680BDD216113B92268D00702D575
:1039F00001330B4423614FF00009A165DCE713B9E3
:103A00002268D20701D50233F4E70123F2E74FF031
:103A1000670A0E9B994205DB23682161D807EAD526
:103A20004B1CE7E70029CCBF0122C1F1020213447D
:103A3000E0E723685A0507D4236942463146284601
:103A4000B84701302BD164E7BAF1650F40F2DC8052
:103A5000D4E9120100220023FCF7A6FF002833D08E
:103A6000012331462846354AB84701303FF451AF6B
:103A7000DDE90D38434502DB2368D8070FD5DDE9C2
:103A8000082331462846B84701303FF442AF4FF093
:103A9000000908F1FF3804F11A0AC84509DC236857
:103AA0009B0700F10281E0680F9B9842B8BF18465F
:103AB00031E70123524631462846B84701303FF4EA
:103AC00028AF09F10109E8E70D9B002B38DC012341
:103AD00031462846194AB84701303FF41AAFDDE9AC
:103AE0000D3959EA030302D12368D907D7D5DDE997
:103AF000082331462846B84701303FF40AAF4FF05B
:103B0000000A04F11A0B0D9B5B42534501DC4B4646
:103B100093E701235A4631462846B84701303FF41F
:103B2000F8AE0AF1010AEEE7FFFFEF7F9E6400089E
:103B3000A2640008A6640008AA640008AE64000835
:103B4000A36DDDF838A05345A8BF5346002B994616
:103B500036DC4FF0000B29EAE97904F11A02A36D73
:103B60000A93A3EB09035B4531DC0D9B9A453ADCD4
:103B70002368DA0737D40D9BAAEB03090A9BAAEB4B
:103B800003039945A8BF9946B9F1000F33DC4FF004
:103B9000000829EAE97904F11A0B0D9BAAEB03034B
:103BA000A3EB090343457FF77AAF01235A46314619
:103BB0002846B84701303FF4ACAE08F10108ECE705
:103BC000424631462846B8470130C2D1A1E601231A
:103BD000314628460A92B84701303FF49AAE0A9A15
:103BE0000BF1010BBBE73146DDE908232846B84756
:103BF0000130C0D18DE60A9A4B46314628464244F0
:103C0000B8470130C3D184E6DDF838A0BAF1010F1E
:103C100001DCDB0736D50123424631462846B8474A
:103C200001303FF476AEDDE9082331462846B84737
:103C300001303FF46EAED4E91201002200230AF1F4
:103C4000FF3AFCF7B1FEC0B9534608F10102314614
:103C50002846B84701300CD15BE601235A4631466D
:103C60002846B84701303FF454AE08F10108D0456A
:103C7000F3DB4B4604F15002E0E64FF0000804F19C
:103C80001A0BF4E701234246E1E701234A46314695
:103C90002846B84701303FF43CAE08F10108E3681C
:103CA0000F995B1A4345F0DCFDE64FF0000804F184
:103CB0001909F4E72DE9F047164698468A680B691A
:103CC00007469342B8BF1346336091F843200C4631
:103CD000DDF820900AB1013333602368990642BFB2
:103CE000336802333360256815F0060506D104F108
:103CF000190AE36832689B1AAB422BDC94F8433014
:103D00002268003B18BF0123920630D44146384652
:103D100004F14302C847013023D02368226903F02D
:103D20000603042B14BF002533684FF0000608BFBC
:103D3000E56804F11A0408BFED1A54F8123C08BFF4
:103D400025EAE5759342C4BF9B1AED18B5421AD116
:103D5000002008E00123524641463846C84701305A
:103D600003D14FF0FF30BDE8F0870135C1E73020C7
:103D7000E11881F843005A1C94F84510224402339C
:103D800082F84310C2E70123224641463846C8471D
:103D90000130E6D00136D9E72DE9FF470F7E914685
:103DA000782F80460C469A460C9E01F1430207D8B4
:103DB000622F0AD8002F00F0D380582F00F0BA806D
:103DC00004F1420684F842703AE0A7F16303152B30
:103DD000F6D801A151F823F0313E0008453E000815
:103DE000C13D0008C13D0008C13D0008C13D0008BB
:103DF000453E0008C13D0008C13D0008C13D000826
:103E0000C13D0008473F00086F3E0008013F000821
:103E1000C13D0008C13D0008693F0008C13D0008E0
:103E20006F3E0008C13D0008C13D0008093F000881
:103E300033681A1D1B68326004F1420684F8423070
:103E400001239EE033682068191D3160060601D504
:103E50001D6803E04506FBD5B3F90050002D03DAD9
:103E60002D236D4284F843300A23594811E021681C
:103E70003368080653F8045B02D4490648BFADB264
:103E80006F2F336014BF0A2308235148002184F8A0
:103E900043106668002EA8BF2168A660A4BF21F069
:103EA000040121600DB9002E4BD01646B5FBF3F18D
:103EB00003FB1157C75D06F8017D2F46BB420D4637
:103EC000F4D9082B0BD12368DF0708D52369616873
:103ED0009942DEBF302306F8013C06F1FF36921B03
:103EE00022614B4621464046CDF800A003AAFFF7C9
:103EF000E1FE01304AD14FF0FF3004B0BDE8F08759
:103F0000236843F0200323607827324884F8457003
:103F1000236831681F0651F8045B02D45F0648BF6E
:103F2000ADB23160D90744BF43F0200323601DB117
:103F30001023ABE72648E9E7236823F0200323603A
:103F4000F6E71646BDE733682568181D61693060DD
:103F50002E061B6801D5196002E06806FBD51980A2
:103F6000002316462361BCE7336800211A1D326026
:103F70001E686268304600F0E8F908B1801B606096
:103F800063682361002384F84330AAE73246494638
:103F900040462369D0470130ADD023689B0713D436
:103FA000E068039B9842B8BF1846A6E70123324653
:103FB00049464046D04701309DD00135E36803991A
:103FC0005B1AAB42F2DCEBE7002504F11906F5E7DA
:103FD000B0640008C1640008002310B50446C0E9BD
:103FE0000033C0E90433836081814366C281836109
:103FF000194608225C3000F028F90D4B24626362F8
:104000000C4BA3620C4BE3620C4B23630C4B9C42A6
:1040100006D003F16802944202D0D0339C4205D10D
:1040200004F15800BDE8104000F08CB910BD00BF8D
:10403000C5410008E74100081F420008434200084C
:1040400014030020024A0349034800F069B800BF86
:1040500024000020B55C00083400002041680C4BAF
:1040600010B59942044601D001F024FEA168094B25
:10407000994202D0204601F01DFEE168064B9942AC
:1040800004D02046BDE8104001F014BE10BD00BFB2
:10409000140300207C030020E403002010B50B4B28
:1040A0000B4C0C4A20461A6004210022FFF794FFB3
:1040B00004F1680001220921FFF78EFF04F1D0000E
:1040C0000222BDE810401221FFF786BF4C040020F9
:1040D0001403002045400008014800F034B900BF37
:1040E00055040020014800F02FB900BF55040020FE
:1040F00010B50446FFF7F0FF236A1BB1BDE810407E
:10410000FFF7F0BF044B2362044B1B68002BF5D173
:10411000FFF7C4FFF2E700BF5D4000084C04002039
:104120002DE9F8430746884614460026D4E9019550
:10413000B9F1010905D52468002CF7D13046BDE856
:10414000F883AB89012B07D9B5F90E30013303D0C1
:1041500029463846C04706436835E9E70CB430B510
:10416000174B0C1E1D689DB008DA8B234FF0FF30F3
:104170002B601DB0BDE8304002B070474FF40273B1
:10418000ADF814300CBF234604F1FF3304930793BA
:104190004FF6FF7302900690ADF81630284621AB1B
:1041A000209A02A9019301F009FC431CBCBF8B2398
:1041B0002B60002CDDD00022029B1A70D9E700BFD3
:1041C0003000002010B50C46B1F90E1000F06CF86C
:1041D0000028ABBF636DA3891B1823F48053ACBFC9
:1041E0006365A38110BD2DE9F0411F468B8905460B
:1041F000DB050C46164605D502230022B1F90E1048
:1042000000F040F8A389324623F48053A381284666
:104210003B46B4F90E10BDE8F04100F057B810B5B8
:104220000C46B1F90E1000F02DF8431CA38915BF00
:10423000606523F4805343F48053A38118BFA381A6
:1042400010BDB1F90E1000F00DB8034602449342C0
:1042500000D1704703F8011BF9E7000000487047E0
:104260007001002038B50023054D044608462B6038
:10427000FDF72DFB431C02D12B6803B1236038BD31
:104280005004002038B50446084611460022054D6A
:104290002A601A46FDF73FFB431C02D12B6803B18D
:1042A000236038BD5004002038B504460846114646
:1042B0000022054D2A601A46FDF7D0FA431C02D1B0
:1042C0002B6803B1236038BD5004002038B5044684
:1042D000084611460022054D2A601A46FDF7DBFA12
:1042E000431C02D12B6803B1236038BD5004002069
:1042F000014B1868704700BF3000002070B50026E1
:104300000C4D0D4C641BA410A64209D102F06EF8AE
:1043100000260A4D0A4C641BA410A64205D170BDAC
:1043200055F8043B98470136EEE755F8043B9847AB
:104330000136F2E7186800081868000818680008D5
:104340001C680008704770477047034610B5C9B233
:1043500002449342184601D1002003E0047801335F
:104360008C42F6D110BD2DE9F74F03690C69074661
:10437000A3427EDB013CA30000F1140501F1140807
:10438000009305EB8403019358F8243055F824205A
:1043900001339A42B2FBF3F608EB84092ED34FF0B7
:1043A000000AC446AE46D3465CF8043B98B206FB0E
:1043B00000A01B0C020C06FB0323DEF8002080B2D9
:1043C00092B2121A5A44DEF800004FEA134A9BB226
:1043D000C3EB224303EB104392B242EA0342E145AE
:1043E0004FEA234B4EF8042BDED2009BEB582BB93F
:1043F000019B043B9D421A462FD33C61384601F095
:1044000079F9002825DB2946002058F8042BD1F83B
:1044100000C01FFA82FE1FFA8CF3A3EB0E030344C5
:10442000120CC2EB234202EB1C429BB243EA024352
:10443000C1454FEA224041F8043BE6D255F824201A
:1044400005EB840322B9043B9D421A460BD33C6121
:104450000136304603B0BDE8F08F1268043B002AF5
:10446000CBD1013CC6E71268043B002AEFD1013CE6
:10447000EAE70020EEE700002DE9F04F14461D4664
:10448000C76997B08346CDE90245239E7FB91020C6
:1044900000F002FE0246CBF81C0020B9EF21A84B29
:1044A000A84801F067FCC0E901770760C760DBF846
:1044B0001C30196859B15A68012393404A608B60D7
:1044C000584600F0DFFE0022DBF81C301A602B1E7D
:1044D000AFBF0023012223F000430393A8BF336042
:1044E000DDF80C80984BB8BF326033EA080312D174
:1044F00042F20F73229A1360C8F31303234300F0B0
:104500005085249BDFF844A2002B00F052850AF16D
:10451000030300F04CBDDDE90223CDE90C23DDE906
:104520000C0100220023FCF73FFA074658B1012393
:10453000229A1360249B13B1854B249A1360DFF8F1
:1045400014A200F036BD14AB019315AB009358468E
:10455000DDE90C2301F07EF9C8F30A568146002EEE
:1045600077D0DDE90C010D9BA6F2FF36C3F31303F0
:1045700043F07F5343F44013129719460022764BC1
:10458000FBF7F2FD68A3D3E90023FBF7A5FF68A3BF
:10459000D3E90023FBF7EAFD044630460D46FBF75E
:1045A00031FF65A3D3E90023FBF796FF02460B46D4
:1045B00020462946FBF7DAFD04460D46FCF73CFA97
:1045C00000220746002320462946FCF7F7F940B1B0
:1045D0003846FBF717FF22462B46FCF7E5F900B9F2
:1045E000013F162F53D8DDE90C015C4B03EBC703E9
:1045F000D3E90023FCF7E2F900284AD00023013F69
:104600000F93149B9B1B5A1E46BFC3F10108002346
:104610004FF00008099248BF0993002F3BDB099B2C
:104620000E973B44099300230A93209B092B66D8DD
:10463000052BC4BF043B2093209BC8BF0024A3F1DB
:104640000203D8BF0124032B64D8DFE803F02B3822
:104650003656DDE914631E4406F23243202BC1BFF7
:10466000C3F1400308FA03F806F2124324FA03F3F5
:10467000D6BFC3F1200348EA030004FA03F0FBF7B6
:10468000B1FE0122A1F1F873013E129275E70123F8
:10469000B6E70F90B5E77B420A930023A8EB070823
:1046A0000E93C2E700230B93219B002B35DC0123E3
:1046B0001A46CDE9073321920BE00123F3E70023EB
:1046C0000B93219BFB1808930133012B0793B8BF71
:1046D000012300210422DBF81C0002F114059D4295
:1046E0001FD94160584600F08DFD8246002839D11F
:1046F000024640F2AF111A4BD2E60123E0E7012453
:1047000000230B9420934FF0FF330022CDE90733B1
:104710001223D0E701230B93F5E7219BCDE9073363
:10472000D7E701315200D8E761436F63A787D23FD3
:10473000B3C8608B288AC63FFB799F501344D33F90
:10474000DF640008F66400080000F07FDB64000806
:10475000AF640008AE6400080000F83FF065000890
:104760004E650008DBF81C301860079B0E2B00F22A
:10477000A480002C00F0A180002F33DD864B07F0D1
:104780000F0203EBC203F805D3E90034CDE904348A
:104790004FEA271416D5DDE90C01804B0326D3E937
:1047A0000823FBF7C3FFCDE9020104F00F047B4DA2
:1047B00054B9DDE90423DDE90201FBF7B7FFCDE9D8
:1047C000020128E00226F2E7E10708D5DDE904014D
:1047D000D5E90023FBF780FECDE904010136641022
:1047E0000835E5E700F0D280DDE90C017C426A4B38
:1047F00004F00F0203EBC203D3E90023FBF76CFEC6
:1048000002260023CDE90201644D2411002C40F062
:10481000B280002BD3D1DDE902450F9B002B00F0C5
:10482000B7800022204629465D4BFCF7C7F80028D8
:1048300000F0AE80079B002B00F0AA80089B002BA5
:1048400037DD7B1E2046049300222946554BFBF79B
:1048500043FECDE90201089C01363046FBF7D2FD4C
:10486000DDE90223FBF738FE00224F4BFBF77EFC0D
:104870000546A1F15076002C40F09A80DDE9020156
:1048800000224A4BFBF770FC02460B46CDE902239F
:104890002A463346FCF7B0F8002840F08E82DDE966
:1048A00002012A4606F10043FCF788F8002840F090
:1048B0002781DDE90C34CDE90234159B002BC0F2D1
:1048C00063810E2F00F36081334B03EBC703D3E901
:1048D0000034CDE90434219B002B03DA079B002B25
:1048E00040F30081DDE902455646DDE90423204618
:1048F0002946FBF71BFFFCF79FF88046FBF782FD7C
:10490000DDE90423FBF7E8FD02460B462046294675
:10491000FBF72AFC08F13004079D06F8014BA6EBD3
:104920000A04A54202460B4640F01681FBF71EFC26
:10493000DDE9042304460D46FCF75EF8002840F04C
:10494000F880DDE9042320462946FCF72DF818B14C
:1049500018F0010F40F0ED804946584600F092FCF7
:1049600000233370229B01371F60249B002B00F033
:1049700020831E601DE3E20705D5D5E90023FBF780
:10498000ABFD01230136641008353FE7022642E7FC
:10499000079C049761E700BFF0650008C865000840
:1049A0000000F03F0000244000001C4000001440C4
:1049B000704B0B9903EBC40353E9022354440029C1
:1049C00045D000206C49FBF7B1FE33462A46FBF781
:1049D000CBFB5646CDE91001DDE90201FCF72CF8CE
:1049E0000546FBF70FFD02460B46DDE90201FBF72A
:1049F000BBFB02460B463035CDE90223DDE910232F
:104A000006F8015BFBF7DAFF002863D1DDE902233A
:104A100000205A49FBF7A8FBDDE91023FBF7CEFF86
:104A2000002840F08780A6423FF443AFDDE9100143
:104A30000022534BFBF750FD0022CDE91001DDE9C8
:104A400002014F4BFBF748FDCDE90201C4E73146B7
:104A50002846FBF741FD5646CDE910011394DDE9E8
:104A60000201FBF7E9FF0546FBF7CCFC02460B46CB
:104A7000DDE90201FBF778FB02460B46303506F80C
:104A8000015BA642CDE902234FF0000224D1DDE90B
:104A90001001394BFBF76AFB02460B46DDE90201C8
:104AA000FBF7AAFF002845D1DDE910230020324999
:104AB000FBF75AFB02460B46DDE90201FBF77EFFDE
:104AC00000283FF4F6AE139E731E139316F8013CB4
:104AD000302BF8D0049F3FE7294BFBF7FDFCCDE9D5
:104AE0000201BCE70CD1DDE904010022254BFBF7F4
:104AF000F3FCDDE90223FBF775FF002800F05B8182
:104B000000242546219B5646DB430493002721467B
:104B1000584600F0B7FB002DDCD02FB1AF4203D0D8
:104B20003946584600F0AEFB2946584600F0AAFB2D
:104B3000D0E7049733461E4613F8012D392A07D1D2
:104B40009A45F8D1049A0132049230228AF8002062
:104B50001A7801321A70BDE70022094BFBF7BCFC42
:104B60000022002304460D46FBF71EFF00283FF4F9
:104B7000BCAEF1E6F06500080000E03F0000F03F49
:104B800000002440000014400B9A002A00F0DB8053
:104B9000209A012A00F3BF80129A002A00F0B78001
:104BA00003F2334346460A9C099A01211A445846A7
:104BB0009844099200F01AFC05465EB1099B002B4F
:104BC00008DDB342A8BF3346099AA8EB0308F61ADA
:104BD000D31A09930A9BF3B10B9B002B00F0B7800B
:104BE0008CB129462246584600F0BEFC4A46014692
:104BF0000546584600F010FC49460490584600F01F
:104C000041FB049B99460A9B1A1B04D0494658460F
:104C100000F0AAFC81460121584600F0E7FB0E9BFC
:104C20000446002B00F0C9811A460146584600F0A0
:104C30009BFC209B0446012B00F38F80029B002BE2
:104C400040F08780039BC3F31303002B40F0838065
:104C5000039B23F000431B0D1B052BB1099B08F19F
:104C600001080133099301230A930E9B002B00F0E6
:104C7000AA81236904EB8303186900F06BFBC0F180
:104C80002000099B184410F01F0071D0C0F12003D0
:104C9000042B65DD099BC0F11C00034480440644DD
:104CA0000993B8F1000F05DD49464246584600F029
:104CB000B5FC8146099B002B05DD21461A46584666
:104CC00000F0ACFC04460F9B002B53D02146484615
:104CD00000F010FD00284DDA7B1E494604930A229D
:104CE0000023584600F0F0FA0B9B8146002B00F0A1
:104CF0006C81002329460A22584600F0E5FA089BF9
:104D00000546002B61DC209B022B3BDC5DE0149B05
:104D1000C3F1360346E7079B5C1E0A9BA342BFBF55
:104D20000A9B0E9AE31AD218A8BF1C1B079BBEBF92
:104D30000A940E920024002BB5BFA8EB030646464A
:104D40000023079B30E746460A9C0B9D35E70A9AED
:104D50005CE7002388E7029B86E700230A9388E745
:104D60009FD0099A1C331A4498441E44099298E72C
:104D70000346F6E7079B0497002B20DC0893209B53
:104D8000022B1EDD089B002B7FF4BCAE21460522C2
:104D9000584600F099FA01460446484600F0AAFC3D
:104DA00000287FF7AFAE3123564606F8013B049B3F
:104DB00001330493AAE6079C04972546F3E7079B73
:104DC00008930B9B002B00F00481002E05DD294683
:104DD0003246584600F022FC05460A9B002B5AD06A
:104DE0005846696800F00EFA064628B9024640F2B5
:104DF000EF21834BFFF754BB2A6905F10C01023206
:104E000092000C3000F0A8FF01223146584600F015
:104E100005FC2F4605460AF101030793089B5344FE
:104E20000B93029B03F001030A93079B2146013B6E
:104E300048460293FFF797FA3946089000F1300888
:104E4000484600F057FC2A4609902146584600F093
:104E50006DFCC268064602BB0146484600F04AFCAB
:104E60000246314658460C9200F00CFA209B0C9AF0
:104E7000079E43EA02010A9B194310D1B8F1390F8A
:104E800029D0099B002B02DD089B03F13108029B0E
:104E900083F800803BE62846BBE70122E1E7099B57
:104EA000002B04DB20990B430A990B4320D1002AE5
:104EB000EDDD49460122584600F0B0FB214681460F
:104EC00000F018FC002803DCE1D118F0010FDED05F
:104ED000B8F1390FD8D13923029A137033461E46E0
:104EE00016F8012C013B392A52D001321A700EE615
:104EF000002A07DDB8F1390FEDD0029A08F101035D
:104F0000137004E6079B079A03F8018C0B9B9342EE
:104F100028D0494600230A22584600F0D5F9AF426E
:104F200081464FF000034FF00A023946584607D138
:104F300000F0CAF907460546079B0133079374E75B
:104F400000F0C2F92946074600230A22584600F01D
:104F5000BBF90546F0E7089B0027002BCCBF1E4697
:104F60000126564449460122584600F057FB214687
:104F7000814600F0BFFB0028B0DC02D118F0010F21
:104F8000ACD133461E4613F8012D302AFAD0BEE5C7
:104F90009A45A4D1049B0133049331238AF800304D
:104FA000B5E5249BDFF85CA01BB10AF10803249A45
:104FB0001360504617B0BDE8F08F209B012B7FF7A0
:104FC0003DAE0E9B0A9301205BE6089B002B7FF70A
:104FD000D6AE564621464846FFF7C5F900F13008DF
:104FE000089B06F8018BA6EB0A029342B3DD494603
:104FF00000230A22584600F067F98146EAE700BF1D
:105000004E650008D264000838B50546002940D036
:1050100051F8043C0C1F002BB8BFE41800F0E6F870
:105020001C4A136833B9636014602846BDE83840F1
:1050300000F0E2B8A34208D9206821188B4201BFD2
:1050400019685B6809182160EDE71A465B680BB1C7
:10505000A342FAD911685018A0420BD1206801442C
:10506000501883421160E0D118685B6808441060F2
:105070005360DAE702D90C232B60D6E720682118A9
:105080008B4201BF19685B68091821606360546036
:10509000CBE738BD5C040020024B0146186800F0E5
:1050A00025B800BF3000002070B50F4E0C463168A7
:1050B000054611B900F040FE30602146284600F058
:1050C0003BFE431C03D14FF0FF34204670BDC41C8F
:1050D00024F00304A042F8D0211A284600F02CFE48
:1050E0000130F2D1EFE700BF580400202DE9F8436A
:1050F000CD1C25F0030508350C2D38BF0C25002DDF
:10510000064601DBA94204D90C2333600020BDE828
:10511000F883DFF8D48000F069F8D8F800301C4636
:1051200044BB29463046FFF7BFFF431C044658D115
:10513000D8F800402746002F43D1002C4BD02368DD
:105140003946304604EB030900F0F6FD814542D1B3
:10515000216830466D1A2946FFF7A6FF01303AD084
:1051600023682B442360D8F800305A6862BBC8F823
:1051700000700FE02268521B20D40B2A17D9611946
:10518000A342256018BF5960636808BFC8F80010C3
:1051900062514B60304600F02FF804F10B00231DE4
:1051A00020F00700C21A1CBF1B1AA350AFE76268A9
:1051B000A3420CBFC8F800205A60EBE7234664689E
:1051C000AEE73C467F68B6E71A465B68A342FBD170
:1051D00000235360DEE70C233046336000F00CF808
:1051E00094E70560D6E700BF5C0400200148FFF7A4
:1051F000AAB800BF540400200148FFF7A5B800BFBB
:105200005404002070B5C66904460D4676B91020D6
:10521000FFF742FF0246E06120B96B21174B1848A7
:1052200000F0A8FDC0E901660660C660E669F368A3
:1052300083B1E369DB6853F82500B8B9012101FAAD
:1052400005F6721D2046920000F0B2FD60B1C0E983
:1052500001560EE021220421204600F0A9FDE36959
:10526000F060DB68002BE4D1002070BD026843F8D9
:1052700025200023C0E90333F7E700BFDF640008FF
:105280005F65000870B5C66905460C4676B9102002
:10529000FFF702FF0246E86120B98F21084B094859
:1052A00000F068FDC0E901660660C6603CB1EB69CC
:1052B0006268DB6853F82210216043F8224070BD19
:1052C000DF6400085F6500082DE9F04107460C46E1
:1052D0001E4600200D6901F1140CDCF8003001308D
:1052E00099B202FB01611E0C0B0C02FB063389B262
:1052F00001EB034185424FEA13464CF8041BECDCFA
:105300000EB3A368AB4219DC616838460131FFF780
:1053100079FF804628B90246BA210C4B0C4800F0B0
:1053200029FD226904F10C01023292000C3000F0D8
:1053300013FD21463846FFF7A5FF444604EB8503DD
:1053400001355E6125612046BDE8F0814E650008AB
:105350005F6500080346B0F5803F3ABF03041020A4
:105360000020B3F1807F3CBF1B020830B3F1805FA7
:105370003CBF1B010430B3F1804F3CBF9B000230A7
:10538000002B05DB13F0804F00F1010008BF202047
:1053900070470368024613F007000BD0D90721D4E9
:1053A000980749BF5B089B08012013605CBF02207F
:1053B0001360704799B209B910201B0CD9B209B912
:1053C00008301B0A190704BF1B090430990704BFE2
:1053D0009B080230D90703D45B0800F1010003D019
:1053E00013607047002070472020704710B50C46AE
:1053F0000121FFF707FF024628B940F24511044B8F
:10540000044800F0B7FC01234461036110BD00BFF4
:105410004E6500085F6500082DE9F04F14460A69E3
:1054200023690F469A42A2BF23460C461F46D4F872
:1054300010A0D7F81090A36861680AEB0906B34280
:1054400085B0B8BF0131FFF7DDFE30B902464FF439
:10545000B171434B434800F08DFC00F114052B461D
:10546000002205EB8608434521D307F1140104F11E
:10547000140202EB8A0201EB89030293131B153B12
:1054800023F00303043304F11507BA4238BF0423A1
:105490000193029B03918B420CD8002E03DD58F838
:1054A000043D002B5AD0066105B0BDE8F08F43F8EB
:1054B000042BD8E7B1F800A0BAF1000F23D0A94619
:1054C0004FF0000C04F1140E5EF8047BD9F80030A4
:1054D0001FFA87FB9BB20AFB0B336344D9F800C069
:1054E0003F0C4FEA1C4C0AFB07C707EB13479BB264
:1054F00043EA074372454FEA174C49F8043BE3D8A7
:10550000019B45F803C0039B0431B3F80290B9F145
:10551000000F21D0AE464FF0000A2B6804F1140CA6
:10552000BCF800B0BEF802709BB209FB0B77574481
:1055300043EA07434EF8043B5CF8043B4FEA134A46
:10554000BEF80030624509FB0A3303EB17434FEA0C
:10555000134AE5D8019FEB5104359AE7013E9CE7D9
:105560004E6500085F6500082DE9F843154612F006
:10557000030207460E4607D0254C013A002354F893
:105580002220FFF7A1FE0646AD103DD0FC697CB994
:105590001020FFF781FD0246F86128B940F2B311EF
:1055A0001C4B1D4800F0E6FBC0E901440460C460E8
:1055B000D7F81C80D8F808404CB940F27121384621
:1055C000FFF714FF00230446C8F8080003604FF0FB
:1055D0000009EB070AD5314622463846FFF71CFF83
:1055E000804631463846FFF74DFE46466D100BD0DB
:1055F000206838B9224621463846FFF70DFF206063
:10560000C0F800900446E4E73046BDE8F88300BFE8
:10561000B8650008DF6400085F6500082DE9F04701
:105620000C46074691462369496803EB6218A36854
:105630004FEA621A08F10106B3420BDB3846FFF766
:10564000E1FD054648B902464FF4EF71274B284863
:1056500000F090FB01315B00EEE7002300F1140144
:1056600000F110021846534533DB20692AEAEA7A32
:1056700004F1140319F01F0901EB8A0103EB800CFC
:105680002BD08A460022C9F1200E186800FA09F0D2
:1056900010434AF8040B53F8042B9C4522FA0EF2EF
:1056A000F3D8ACEB0403153B23F00303043304F1FC
:1056B0001500844538BF0423CA500AB108F1020618
:1056C000013E384621462E61FFF7DCFD2846BDE845
:1056D000F08742F8040F0133C5E7043953F8042B6F
:1056E0009C4541F8042FF9D8EAE700BF4E65000851
:1056F0005F65000803460A69006930B5801A0ED15B
:105700001433143103EB820401EB820154F8045D7D
:1057100051F8042D954203D005D24FF0FF3030BD33
:10572000A342F3D3FBE70120F9E700002DE9F74F8F
:1057300089460646114648461446FFF7DBFF051E1C
:1057400012D129463046FFF75DFD024628B940F2E6
:1057500037213E4B3E4800F00DFB0123C0E90435E4
:10576000104603B0BDE8F08FBCBF4B46A1463046A3
:10577000D9F80410BABF1C4601250025FFF742FDE9
:10578000024618B940F24521304BE3E700F1140B13
:10579000D9F8107009F11003C5604FF0000C09F141
:1057A0001405D946266904F1140E05EB87080EEBA3
:1057B00086060193019B5EF8040B53F804AF81B297
:1057C00001931FFA8AF35B1A000C6344C0EB1A4082
:1057D00000EB23409BB243EA004376454FEA204C5E
:1057E00049F8043BE6D8331B153B23F0030315347B
:1057F0000433A64238BF04231D445B441E462C4696
:1058000044450ED308F10301491B21F00301033D78
:10581000A84538BF00210B4453F8041D99B1176106
:105820009EE7E64654F8041B1FFA81FCF444080C7A
:10583000714400EB2C4089B241EA00414FEA204C10
:1058400046F8041BDCE7013FE6E700BF4E650008B1
:105850005F6500082DE97343012190469946089E33
:10586000FFF7D0FC044630B9024640F20F31234B1B
:10587000234800F07FFAC9F30A55C9F313030DB1A9
:1058800043F480130193B8F1000324D068460093D9
:10589000FFF77FFDDDE90012D8B1C0F1200302FA65
:1058A00003F30B43C24063610192019B002B0CBFC9
:1058B00001220222A3612261ADB1A5F23345054464
:1058C0003560C0F13500099B1860204602B0BDE884
:1058D00070836161E9E701A8FFF75BFD019B01228D
:1058E00063612030E7E7A0F2324004EB82033060CE
:1058F0001869FFF72FFDC0EB4210E4E74E65000882
:105900005F6500082DE9F0471F468E688246BE425B
:105910000C4690460B682DD8B1F90C2012F4906F0C
:1059200026D06569096905EB4505A3EB010905EB7F
:10593000D5757B1C4B446D109D4238BF1D465305E9
:1059400027D52946FFF7D2FB064660B34A462169B0
:1059500000F002FAA38923F4906343F08003A3814B
:1059600026614E4426603E466561A5EB0905A560AB
:10597000BE4200D93E4632464146206800F0C2F998
:105980000020A3689B1BA360236833442360BDE809
:10599000F0872A4600F032FA06460028E0D1504649
:1059A0002169FFF731FB0C23CAF80030A3894FF0BF
:1059B000FF3043F04003A381E9E700002DE9F04FF9
:1059C00098468B8907461B060D4614469DB010D598
:1059D0000B6973B94021FFF789FB2860286130B952
:1059E0000C233B604FF0FF301DB0BDE8F08F40232B
:1059F0006B610023099320238DF8293030234FF069
:105A00000109CDF80C80DFF898818DF82A30234603
:105A10009A4613F8012B0AB1252AF9D1BAEB040BE7
:105A20000BD05B46224629463846FFF76BFF013014
:105A300000F0A780099A5A4409929AF80030002B86
:105A400000F09F8000234FF0FF32CDE905230AF1DB
:105A5000010A049307938DF853301A935446052294
:105A600014F8011B4E48FEF770FC049AD8B9D00612
:105A700044BF20238DF85330110744BF2B238DF8EA
:105A800053309AF800302A2B15D0544600204FF09E
:105A90000A0C079A214611F8013B303B092B4BD9E0
:105AA000B0B1079214E0A0EB080309FA03F3134323
:105AB000A2460493D2E7039B191D1B680391002B98
:105AC000BBBF5B4242F0020207930793B8BF049248
:105AD00023782E2B0AD163782A2B32D1039B0234F0
