:020000040800F2
:1000000000500020CD1A0008D1180008D9180008A7
:10001000E1180008E9180008F118000800000000C5
:10002000000000000000000000000000F9180008B7
:100030000519000800000000111900081D1900082A
:10004000151B0008151B0008151B0008151B0008D0
:10005000151B0008151B0008151B0008151B0008C0
:10006000151B0008151B0008151B0008151B0008B0
:10007000151B0008151B0008151B0008151B0008A0
:10008000151B0008151B0008151B0008151B000890
:10009000151B0008151B0008151B0008151B000880
:1000A000151B0008151B0008151B0008151B000870
:1000B000151B0008151B0008151B0008151B000860
:1000C000151B0008151B0008151B0008151B000850
:1000D000151B000829190008151B0008151B00082E
:1000E000151B0008151B0008151B00080000000068
:1000F0000000000000000000000000000000000000
:0C01000000000000000000005FF808F1A3
:1001100010B5054C237833B9044B13B10448AFF341
:1001200000800123237010BDF001002000000000BA
:10013000546F000808B5034B1BB103490348AFF3E4
:10014000008008BD00000000F4010020546F00088A
:10015000034613F8012B002AFBD1181A0138704707
:1001600081F0004102E000BF83F0004330B54FEA68
:1001700041044FEA430594EA050F08BF90EA020FD5
:100180001FBF54EA000C55EA020C7FEA645C7FEA68
:10019000655C00F0E2804FEA5454D4EB5555B8BF8B
:1001A0006D420CDD2C4480EA020281EA030382EAFC
:1001B000000083EA010180EA020281EA0303362D8E
:1001C00088BF30BD11F0004F4FEA01314FF4801C61
:1001D0004CEA113102D0404261EB410113F0004F73
:1001E0004FEA03334CEA133302D0524263EB43032A
:1001F00094EA050F00F0A780A4F10104D5F1200EC8
:100200000DDB02FA0EFC22FA05F2801841F1000122
:1002100003FA0EF2801843FA05F359410EE0A5F1F6
:1002200020050EF1200E012A03FA0EFC28BF4CF027
:10023000020C43FA05F3C01851EBE37101F00045DD
:1002400007D54FF0000EDCF1000C7EEB00006EEBEA
:100250000101B1F5801F1BD3B1F5001F0CD3490874
:100260005FEA30004FEA3C0C04F101044FEA4452CB
:1002700012F5800F80F09A80BCF1004F08BF5FEA52
:10028000500C50F1000041EB045141EA050130BD32
:100290005FEA4C0C404141EB0101013C28BFB1F544
:1002A000801FE9D291F0000F04BF01460020B1FA8F
:1002B00081F308BF2033A3F10B03B3F120020CDA62
:1002C0000C3208DD02F1140CC2F10C0201FA0CF040
:1002D00021FA02F10CE002F11402D8BFC2F1200CA5
:1002E00001FA02F120FA0CFCDCBF41EA0C0190405B
:1002F000E41AA2BF01EB0451294330BD6FEA0404A4
:100300001F3C1CDA0C340EDC04F11404C4F120028E
:1003100020FA04F001FA02F340EA030021FA04F3A0
:1003200045EA030130BDC4F10C04C4F1200220FAF7
:1003300002F001FA04F340EA0300294630BD21FA35
:1003400004F0294630BD94F0000F83F4801306BFFB
:1003500081F480110134013D4EE77FEA645C18BFEF
:100360007FEA655C29D094EA050F08BF90EA020F86
:1003700005D054EA000C04BF1946104630BD91EA7E
:10038000030F1EBF0021002030BD5FEA545C05D181
:100390004000494128BF41F0004130BD14F58004C0
:1003A0003CBF01F5801130BD01F0004545F0FE4134
:1003B00041F470014FF0000030BD7FEA645C1ABF69
:1003C000194610467FEA655C1CBF0B46024650EAA0
:1003D000013406BF52EA033591EA030F41F40021CC
:1003E00030BD00BF90F0000F04BF0021704730B552
:1003F0004FF4806404F132044FF000054FF0000127
:1004000050E700BF90F0000F04BF0021704730B5E7
:100410004FF4806404F1320410F0004548BF4042BC
:100420004FF000013EE700BF42004FEAE2014FEA11
:1004300031014FEA02701FBF12F07F4393F07F4FEC
:1004400081F06051704732F07F4208BF704793F0EF
:100450007F4F04BF41F40021704730B54FF4607402
:1004600001F0004521F000411CE700BF50EA010205
:1004700008BF704730B54FF000050AE050EA0102AE
:1004800008BF704730B511F0004502D5404261EB1E
:1004900041014FF4806404F132045FEA915C3FF45F
:1004A000D8AE4FF003025FEADC0C18BF03325FEAFC
:1004B000DC0C18BF033202EBDC02C2F1200300FAAD
:1004C00003FC20FA02F001FA03FE40EA0E0021FAD2
:1004D00002F11444BDE600BF70B54FF0FF0C4CF4C0
:1004E000E06C1CEA11541DBF1CEA135594EA0C0F72
:1004F00095EA0C0F00F0DEF82C4481EA030621EAAD
:100500004C5123EA4C5350EA013518BF52EA0335E7
:1005100041F4801143F4801338D0A0FB02CE4FF099
:100520000005E1FB02E506F00042E0FB03E54FF0C9
:100530000006E1FB03569CF0000F18BF4EF0010EC1
:10054000A4F1FF04B6F5007F64F5407404D25FEABD
:100550004E0E6D4146EB060642EAC62141EA555170
:100560004FEAC52040EA5E504FEACE2EB4F1FD0CB2
:1005700088BFBCF5E06F1ED8BEF1004F08BF5FEA30
:10058000500E50F1000041EB045170BD06F00046E2
:1005900046EA010140EA020081EA0301B4EB5C048F
:1005A000C2BFD4EB0C0541EA045170BD41F4801187
:1005B0004FF0000E013C00F3AB8014F1360FDEBFAC
:1005C000002001F0004170BDC4F10004203C35DA88
:1005D0000C341BDC04F11404C4F1200500FA05F30B
:1005E00020FA04F001FA05F240EA020001F00042AC
:1005F00021F0004110EBD37021FA04F642EB060122
:100600005EEA430E08BF20EAD37070BDC4F10C044B
:10061000C4F1200500FA04F320FA05F001FA04F20F
:1006200040EA020001F0004110EBD37041F10001FB
:100630005EEA430E08BF20EAD37070BDC4F1200506
:1006400000FA05F24EEA020E20FA04F301FA05F26E
:1006500043EA020321FA04F001F0004121FA04F216
:1006600020EA020000EBD3705EEA430E08BF20EAE6
:10067000D37070BD94F0000F0FD101F00046400020
:1006800041EB010111F4801F08BF013CF7D041EAA2
:10069000060195F0000F18BF704703F000465200A6
:1006A00043EB030313F4801F08BF013DF7D043EA77
:1006B0000603704794EA0C0F0CEA135518BF95EA2D
:1006C0000C0F0CD050EA410618BF52EA4306D1D1B4
:1006D00081EA030101F000414FF0000070BD50EAD3
:1006E000410606BF1046194652EA430619D094EA5D
:1006F0000C0F02D150EA013613D195EA0C0F05D147
:1007000052EA03361CBF104619460AD181EA03019A
:1007100001F0004141F0FE4141F470014FF0000052
:1007200070BD41F0FE4141F4780170BD70B54FF0ED
:10073000FF0C4CF4E06C1CEA11541DBF1CEA13556D
:1007400094EA0C0F95EA0C0F00F0A7F8A4EB05044F
:1007500081EA030E52EA03354FEA013100F0888046
:100760004FEA03334FF0805545EA131343EA12630F
:100770004FEA022245EA111545EA10654FEA0026C4
:100780000EF000419D4208BF964244F1FD0404F57D
:10079000407402D25B084FEA3202B61A65EB0305D9
:1007A0005B084FEA32024FF480104FF4002CB6EB96
:1007B000020E75EB030E22BFB61A754640EA0C0016
:1007C0005B084FEA3202B6EB020E75EB030E22BF56
:1007D000B61A754640EA5C005B084FEA3202B6EB97
:1007E000020E75EB030E22BFB61A754640EA9C0056
:1007F0005B084FEA3202B6EB020E75EB030E22BF26
:10080000B61A754640EADC0055EA060E18D04FEAE3
:10081000051545EA16754FEA06164FEAC30343EA83
:1008200052734FEAC2025FEA1C1CC0D111F4801F50
:100830000BD141EA00014FF000004FF0004CB6E749
:1008400011F4801F04BF01430020B4F1FD0C88BFE8
:10085000BCF5E06F3FF6AFAEB5EB030C04BFB6EBF3
:10086000020C5FEA500C50F1000041EB045170BDE6
:100870000EF0004E4EEA113114EB5C04C2BFD4EB13
:100880000C0541EA045170BD41F480114FF0000E97
:10089000013C90E645EA060E8DE60CEA135594EA13
:1008A0000C0F08BF95EA0C0F3FF43BAF94EA0C0F16
:1008B0000AD150EA01347FF434AF95EA0C0F7FF48B
:1008C00025AF104619462CE795EA0C0F06D152EADF
:1008D00003353FF4FDAE1046194622E750EA4106C3
:1008E00018BF52EA43067FF4C5AE50EA41047FF4D4
:1008F0000DAF52EA43057FF4EBAE12E74FF0FF3C39
:1009000006E000BF4FF0010C02E000BF4FF0010C09
:100910004DF804CD4FEA410C7FEA6C5C4FEA430C82
:1009200018BF7FEA6C5C1BD001B050EA410C0CBFD1
:1009300052EA430C91EA030F02BF90EA020F002033
:10094000704710F1000F91EA030F58BF994208BF9A
:1009500090422CBFD8176FEAE37040F00100704757
:100960004FEA410C7FEA6C5C02D150EA013C07D1AE
:100970004FEA430C7FEA6C5CD6D152EA033CD3D0F9
:100980005DF8040B704700BF8446104662468C46F3
:100990001946634600E000BF01B5FFF7B7FF002826
:1009A00048BF10F1000F01BD4DF808EDFFF7F4FF4F
:1009B0000CBF012000205DF808FB00BF4DF808EDDA
:1009C000FFF7EAFF34BF012000205DF808FB00BFFD
:1009D0004DF808EDFFF7E0FF94BF012000205DF81F
:1009E00008FB00BF4DF808EDFFF7CEFF94BF0120D4
:1009F00000205DF808FB00BF4DF808EDFFF7C4FFCD
:100A000034BF012000205DF808FB00BF4FEA410C15
:100A10007FEA6C5C02D150EA013C0AD14FEA430CF8
:100A20007FEA6C5C02D152EA033C02D14FF0000035
:100A300070474FF0010070474FEA410212F5001273
:100A400015D211D56FF47873B3EB625212D94FEA15
:100A5000C12343F0004343EA505311F0004F23FAFF
:100A600002F018BF404270474FF00000704750EA54
:100A7000013005D111F0004008BF6FF00040704711
:100A80004FF00000704700BF4FEA4102B2F1E0436F
:100A900024BFB3F5001CDCF1FE5C0DD901F0004C65
:100AA0004FEAC0024CEA5070B2F1004F40EB8300B5
:100AB00008BF20F00100704711F0804F21D113F1E1
:100AC0003872BCBF01F00040704741F480114FEA1A
:100AD0005252C2F11802C2F1200C10FA0CF320FAA3
:100AE00002F018BF40F001004FEAC1234FEAD323C0
:100AF00003FA0CFC40EA0C0023FA02F34FEA43032A
:100B0000CCE77FEA625307D150EA01331EBF4FF0B2
:100B1000FE4040F44000704701F0004040F0FE40CD
:100B200040F40000704700BF80F0004002E000BFCA
:100B300081F0004142001FBF5FEA410392EA030FC8
:100B40007FEA226C7FEA236C6AD04FEA1262D2EB12
:100B50001363C1BFD218414048404140B8BF5B4217
:100B6000192B88BF704710F0004F40F4000020F0B0
:100B70007F4018BF404211F0004F41F4000121F0C6
:100B80007F4118BF494292EA030F3FD0A2F1010210
:100B900041FA03FC10EB0C00C3F1200301FA03F14E
:100BA00000F0004302D5494260EB4000B0F5000F71
:100BB00013D3B0F1807F06D340084FEA310102F130
:100BC0000102FE2A51D2B1F1004F40EBC25008BFE2
:100BD00020F0010040EA03007047490040EB0000AC
:100BE000013A28BFB0F5000FEDD2B0FA80FCACF1AD
:100BF000080CB2EB0C0200FA0CF0AABF00EBC250DA
:100C000052421843BCBFD0401843704792F0000FC7
:100C100081F4000106BF80F400000132013BB5E71A
:100C20004FEA41037FEA226C18BF7FEA236C21D090
:100C300092EA030F04D092F0000F08BF08467047F5
:100C400090EA010F1CBF0020704712F07F4F04D1C3
:100C5000400028BF40F00040704712F100723CBFD6
:100C600000F50000704700F0004343F0FE4040F400
:100C7000000070477FEA226216BF08467FEA2363BE
:100C80000146420206BF5FEA412390EA010F40F4A9
:100C9000800070474FF0000304E000BF10F00043F5
:100CA00048BF40425FEA000C08BF704743F09643DC
:100CB00001464FF000001CE050EA010208BF7047F7
:100CC0004FF000030AE000BF50EA010208BF70477E
:100CD00011F0004302D5404261EB41015FEA010C93
:100CE00002BF84460146002043F0B64308BFA3F18B
:100CF0008053A3F50003BCFA8CF2083AA3EBC2536D
:100D000010DB01FA02FC634400FA02FCC2F120028B
:100D1000BCF1004F20FA02F243EB020008BF20F0C2
:100D20000100704702F1200201FA02FCC2F1200228
:100D300050EA4C0021FA02F243EB020008BF20EA1D
:100D4000DC70704742000ED2B2F1FE4F0BD34FF071
:100D50009E03B3EB126209D44FEA002343F0004331
:100D600023FA02F070474FF00000704712F1610F54
:100D700001D1420202D14FF0FF3070474FF0000026
:100D8000704700BF80B582B000AF78607B681B6899
:100D9000144A934221D1144B1B78312B0AD1134BA7
:100DA00001221A704FF0FF3310221149114802F04E
:100DB00051FC0DE00C4B1B78302B09D10B4B002262
:100DC0001A704FF0FF3310220B490A4802F042FC20
:100DD00001220549074802F0C8FC00BF0837BD469C
:100DE00080BD00BF00380140F40200200000002058
:100DF000706F0008AC020020846F000880B483B0DC
:100E000000AF03463960FB80FA882B4BA3FB02132B
:100E1000D9080B469B000B445B00D31A9BB21946C2
:100E20003B680333254A525C1A70FB88224AA2FBB6
:100E30000323DB089AB2204BA3FB0213D9080B460D
:100E40009B000B445B00D31A9BB219463B680233EC
:100E50001A4A525C1A70FB88194AA2FB03235B09E9
:100E60009AB2154BA3FB0213D9080B469B000B4407
:100E70005B00D31A9BB219463B680133114A525C9E
:100E80001A70FB88104AA2FB03239B099AB20A4BF3
:100E9000A3FB0213D9080B469B000B445B00D31A3B
:100EA0009BB21A46054B9A5C3B681A7000BF0C3720
:100EB000BD4680BC704700BFCDCCCCCC0400002028
:100EC0001F85EB5110000020D34D621080B584B017
:100ED00000AF786000221021104801F0FEF90023D5
:100EE000FB600EE0FB68C3F103031A467B689918A8
:100EF0004FF0FF3301220A4801F09CFEFB680133EA
:100F0000FB60FB68032BEDDD01221021034801F09B
:100F1000E4F900BF1037BD4680BD00BF00080140A6
:100F20000C02002080B483B000AF0346FB80084B66
:100F30001B6800225A6200BF054B1B685A6AFB8877
:100F40009A42F9D300BF00BF0C37BD4680BC704742
:100F50006402002080B586B000AF78600B467B80CD
:100F600007F1080300221A605A609A60DA607B88F1
:100F7000BB600123FB6000233B6102237B6107F11F
:100F800008031946034801F00DF800BF1837BD46A5
:100F900080BD00BF0008014080B586B000AF78601A
:100FA0000B467B8007F1080300221A605A609A60A2
:100FB000DA607B88BB600023FB6000233B6107F1A4
:100FC00008031946034800F0EDFF00BF1837BD467F
:100FD00080BD00BF0008014080B500AF02210D4870
:100FE000FFF7B8FF002202210A4801F076F944F227
:100FF0005060FFF797FF01220221064801F06DF9CA
:101000001420FFF78FFF02210248FFF7C5FF00BF42
:1010100080BD00BF0008014080B582B000AF002352
:10102000FB712820FFF77EFF0221114801F03EF9F5
:101030000346002B0ED15020FFF774FF02210C480D
:1010400001F034F90346002B02D00123FB7101E0CB
:10105000FF23FB7100BF0221054801F027F9034679
:10106000002BF8D1FB7918460837BD4680BD00BF7C
:101070000008014080B582B000AF0023BB7137E0AB
:1010800000BF02211E4801F011F90346002BF8D0E1
:101090002820FFF747FF0221194801F007F903460E
:1010A000002B0ED1BB79C3F10703012202FA03F32F
:1010B0005BB2DB435AB297F9073013405BB2FB7166
:1010C0000BE0BB79C3F10703012202FA03F35AB222
:1010D00097F9073013435BB2FB7100BF0221084848
:1010E00001F0E4F80346002BF8D1BB790133BB7162
:1010F000BB79072BC4D9FB7918460837BD4680BD9C
:101100000008014090B585B000AF7860396078681C
:10111000FFF718FE0346DBB21A46920013441A4644
:1011200091001A460B4613449B009CB23868FFF7A7
:1011300009FE0346DBB22344FB8107F10802FB8969
:1011400011461846FFF75AFE07F108031846FFF745
:10115000BDFE00BF1437BD4690BD0000B0B5A6B0BF
:1011600002AF994B1B78032B00F2268101A252F8A3
:1011700023F000BF851100084D12000899120008E5
:1011800035130008914B07F178041D460FCD0FC4AD
:101190002B68236007F178031846FEF7D9FF034652
:1011A0009AB207F178014FF0FF33894802F052FA02
:1011B000FFF712FFFFF730FF03461A46854B1A7000
:1011C000FFF758FF03461A46834B1A70FFF752FF8A
:1011D00003461A46814B1A70FFF74CFF03461A4626
:1011E0007F4B1A70FFF746FF03461A467D4B1A7075
:1011F000FFF740FF03461A467B4B1A80784B1B785B
:101200001846FFF7FFF804460D46764B1B78184644
:10121000FFF7F8F84FF00002744BFFF787FA024629
:101220000B4620462946FEF7A1FF02460B46104614
:101230001946FFF729FC03466D4A13606C4B1B6887
:101240006C4A1360604B01221A70B9E06A4B07F1D7
:1012500064041D460FCD0FC42B68236007F164039F
:101260001846FEF775FF03469AB207F164014FF086
:10127000FF33574802F0EEF9574B1B781846FFF73B
:1012800009FD03465D4A13605C4B1B685C4A1360B2
:101290004D4B02221A7093E05A4B07F150041D4641
:1012A0000FCD0FC42B68236007F150031846FEF7DB
:1012B0004FFF03469AB207F150014FF0FF33444805
:1012C00002F0C8F94B4B1B681846FFF7ADF8024611
:1012D0000B46381DCDE900234B4A322103F0F2FCC6
:1012E0003B1D1846FEF734FF03469AB2391D4FF0F6
:1012F000FF33374802F0AEF9414B1B681846FFF741
:1013000093F802460B46381DCDE900233F4A3221AF
:1013100003F0D8FC3B1D1846FEF71AFF03469AB2AD
:10132000391D4FF0FF332A4802F094F9264B03226F
:101330001A7045E0364B07F13C041D460FCD0FC433
:101340002B68236007F13C031846FEF701FF0346B4
:101350009AB207F13C014FF0FF331D4802F07AF9D1
:10136000244B1B681846FFF7EDFC0346DBB21A4618
:10137000920013441A4691001A460B4613449B00F0
:101380009CB21F4B1B681846FFF7DCFC0346DBB220
:101390002344A7F88E3007F13802B7F88E30114693
:1013A0001846FFF72BFD07F138031846FFF78EFDAF
:1013B000054B00221A7003E0034B00221A7000BF95
:1013C00000BF9037BD46B0BDF5020020B46F0008E5
:1013D000AC0200200C030020F6020020F7020020DF
:1013E000F8020020F9020020FA0200200000244048
:1013F0000003002004030020C86F0008FC02002046
:1014000008030020DC6F0008986F0008A86F000830
:10141000F06F000880B500AF00F07EFB00F02EF802
:1014200000F022F900F070F800F0A4F800F0F2F8F3
:101430000E4801F04BFE01220D490E4802F095F9CD
:101440000D4B1B78002B06D0FFF788FE4FF47A7007
:1014500000F0C4FBF4E74FF000014FF00000FFF78D
:1014600051FE4FF4FA6000F0B9FBE9E76402002096
:10147000F4020020AC0200200000002080B590B0F3
:1014800000AF07F1180328220021184603F091FC51
:101490003B1D00221A605A609A60DA601A610123CB
:1014A000BB614FF48033FB614FF400333B62012397
:1014B000BB6202237B634FF48033BB634FF4002392
:1014C000FB6307F11803184600F020FF0346002BCA
:1014D00001D000F015F90F237B600223BB600023CD
:1014E000FB6000233B6100237B613B1D002118460C
:1014F00001F08EF90346002B01D000F001F900BF86
:101500004037BD4680BD000080B500AF174B184A7C
:101510001A60164B4FF482725A60144B00229A6084
:10152000124B0022DA60114B00221A610F4B00228D
:101530005A610E4B4FF400729A610C4B1822DA611B
:101540000A4B00221A62094B00225A62074B002202
:101550009A62064B0A22DA62044801F0E7FA03466F
:10156000002B01D000F0CCF800BF80BD0C020020A1
:101570000030014080B586B000AF07F108030022BB
:101580001A605A609A60DA603B4600221A605A601C
:101590001E4B1F4A1A601D4B0F225A601B4B002224
:1015A0009A601A4B4FF6FF72DA60184B00221A61EC
:1015B000164B00225A61154B00229A61134801F024
:1015C00036FD0346002B01D000F09AF84FF480530B
:1015D000BB6007F1080319460C4801F0C1FD034642
:1015E000002B01D000F08CF800233B6000237B60CF
:1015F0003B461946054801F07FFF0346002B01D00A
:1016000000F07EF800BF1837BD4680BD64020020A0
:10161000002C014080B500AF114B124A1A60104BEC
:101620004FF4E1325A600E4B00229A600C4B0022BC
:10163000DA600B4B00221A61094B0C225A61084BED
:1016400000229A61064B0022DA61054801F0B2FFE0
:101650000346002B01D000F053F800BF80BD00BF4F
:10166000AC0200200038014080B586B000AF07F121
:10167000080300221A605A609A60DA601E4B9B6968
:101680001D4A43F0200393611B4B9B6903F0200329
:101690007B607B68184B9B69174A43F00403936196
:1016A000154B9B6903F004033B603B680022122149
:1016B000124800F012FE0223BB600123FB600023EE
:1016C0003B6102237B6107F1080319460B4800F0D8
:1016D00069FC1023BB600123FB6000233B610323F3
:1016E0007B6107F108031946044800F05BFC00BF6A
:1016F0001837BD4680BD00BF001002400008014001
:1017000080B400AF72B600BF00BFFDE780B485B003
:1017100000AF154B9B69144A43F001039361124BD0
:101720009B6903F00103BB60BB680F4BDB690E4A8A
:1017300043F08053D3610C4BDB6903F080537B6033
:101740007B680A4B5B68FB60FB6823F0E063FB602F
:10175000FB6843F00073FB60044AFB68536000BF02
:101760001437BD4680BC70470010024000000140A5
:1017700080B588B000AF786007F1100300221A60CE
:101780005A609A60DA607B681B68154A934223D1DD
:10179000144B9B69134A43F480539361114B9B692B
:1017A00003F48053FB60FB680E4B9B690D4A43F0CA
:1017B000040393610B4B9B6903F00403BB60BB689C
:1017C000A0233B6102237B610323FB6107F110032C
:1017D0001946054800F0E6FB00BF2037BD4680BD36
:1017E00000300140001002400008014080B485B084
:1017F00000AF78607B681B68094A93420BD1094BA4
:101800009B69084A43F400639361064B9B6903F4A8
:101810000063FB60FB6800BF1437BD4680BC7047A7
:10182000002C01400010024080B588B000AF786005
:1018300007F1100300221A605A609A60DA607B6830
:101840001B68204A934239D11F4B9B691E4A43F4BF
:10185000804393611C4B9B6903F48043FB60FB68EE
:10186000194B9B69184A43F004039361164B9B691B
:1018700003F00403BB60BB684FF400733B610223B9
:101880007B610323FB6107F1100319460F4800F049
:1018900089FB4FF480633B6100237B610023BB61C4
:1018A00007F110031946094800F07CFB00220021D3
:1018B000252000F08EFA252000F0A7FA00BF20377F
:1018C000BD4680BD003801400010024000080140C4
:1018D00080B400AF00BFFDE780B400AF00BFFDE7FC
:1018E00080B400AF00BFFDE780B400AF00BFFDE7EC
:1018F00080B400AF00BFFDE780B400AF00BFBD46BD
:1019000080BC704780B400AF00BFBD4680BC70474C
:1019100080B400AF00BFBD4680BC704780B500AF4B
:1019200000F040F900BF80BD80B500AF024801F073
:1019300041FF00BF80BD00BFAC02002080B400AFFB
:1019400001231846BD4680BC704780B582B000AF09
:101950007860396003F080FA034616221A604FF06F
:10196000FF3318460837BD4680BD80B582B000AF52
:1019700078604FF0FF317868FFF7E7FF00BFFDE7C1
:1019800080B586B000AFF860B9607A6000237B61F3
:101990000AE0AFF300800146BB685A1CBA60CAB2C5
:1019A0001A707B6901337B617A697B689A42F0DB4C
:1019B0007B6818461837BD4680BD80B586B000AF3D
:1019C000F860B9607A6000237B6109E0BB685A1C4B
:1019D000BA601B781846AFF300807B6901337B61E6
:1019E0007A697B689A42F1DB7B6818461837BD46F6
:1019F00080BD80B483B000AF78604FF0FF331846ED
:101A00000C37BD4680BC704780B483B000AF7860AF
:101A100039603B684FF400525A60002318460C3777
:101A2000BD4680BC704780B483B000AF78600123AE
:101A300018460C37BD4680BC704780B485B000AFF7
:101A4000F860B9607A60002318461437BD4680BC40
:101A50007047000080B586B000AF7860144A154B1F
:101A6000D31A7B617B693B61134B1B68002B02D14E
:101A7000114B124A1A60104B1A687B6813443A697A
:101A80009A4207D203F0E8F903460C221A604FF09D
:101A9000FF3309E0084B1B68FB60074B1A687B6843
:101AA0001344054A1360FB6818461837BD4680BDCD
:101AB00000500020000400001003002068040020F3
:101AC00080B400AF00BFBD4680BC7047FFF7F8FF91
:101AD0000B480C490C4A002302E0D458C45004338C
:101AE000C4188C42F9D3094A094C002301E0136061
:101AF0000432A242FBD303F0B5F9FFF78BFC704729
:101B000000000020F0010020B0730008F001002068
:101B100064040020FEE7000080B500AF084B1B689E
:101B2000074A43F010031360032000F047F90F2029
:101B300000F008F8FFF7EAFD0023184680BD00BF5B
:101B40000020024080B582B000AF7860124B1A6866
:101B5000124B1B7819464FF47A73B3FBF1F3B2FBC7
:101B6000F3F3184600F05FF90346002B01D0012380
:101B70000EE07B680F2B0AD8002279684FF0FF3007
:101B800000F027F9064A7B681360002300E0012378
:101B900018460837BD4680BD1C00002024000020E8
:101BA0002000002080B400AF054B1B781A46054B7F
:101BB0001B681344034A136000BFBD4680BC7047D6
:101BC000240000201403002080B400AF024B1B68E7
:101BD0001846BD4680BC70471403002080B584B011
:101BE00000AF7860FFF7F0FFB8607B68FB60FB68D0
:101BF000B3F1FF3F05D00A4B1B781A46FB6813442C
:101C0000FB6000BFFFF7E0FF0246BB68D31AFA682B
:101C10009A42F7D800BF00BF1037BD4680BD00BF55
:101C20002400002080B485B000AF78607B6803F0AA
:101C30000703FB600C4BDB68BB60BA684FF6FF0321
:101C40001340BB60FB681A02BB68134343F0BF63D9
:101C500043F40033BB60044ABB68D36000BF143751
:101C6000BD4680BC704700BF00ED00E080B400AF0F
:101C7000044BDB681B0A03F007031846BD4680BC13
:101C8000704700BF00ED00E080B483B000AF0346B2
:101C9000FB7197F90730002B0BDBFB7903F01F0278
:101CA000064997F907305B09012000FA02F241F872
:101CB000232000BF0C37BD4680BC704700E100E028
:101CC00080B483B000AF03463960FB7197F90730E9
:101CD000002B0ADB3B68DAB20C4997F90730120196
:101CE000D2B20B4483F800230AE03B68DAB2084919
:101CF000FB7903F00F03043B1201D2B20B441A76B6
:101D000000BF0C37BD4680BC704700BF00E100E05B
:101D100000ED00E080B489B000AFF860B9607A608F
:101D2000FB6803F00703FB61FB69C3F10703042BA6
:101D300028BF0423BB61FB690433062B02D9FB696E
:101D4000033B00E000237B614FF0FF32BB6902FAE6
:101D500003F3DA43BB681A407B699A404FF0FF31C6
:101D60007B6901FA03F3D9437B680B4013431846A0
:101D70002437BD4680BC704780B582B000AF786024
:101D80007B68013BB3F1807F01D301230FE00A4A56
:101D90007B68013B53600F214FF0FF30FFF790FF4E
:101DA000054B00229A60044B07221A600023184654
:101DB0000837BD4680BD00BF10E000E080B582B0AE
:101DC00000AF78607868FFF72DFF00BF0837BD4689
:101DD00080BD80B586B000AF0346B9607A60FB7302
:101DE00000237B61FFF742FF78617A68B968786900
:101DF000FFF790FF024697F90F3011461846FFF79C
:101E00005FFF00BF1837BD4680BD80B582B000AF10
:101E10000346FB7197F907301846FFF735FF00BFFF
:101E20000837BD4680BD80B582B000AF7860786865
:101E3000FFF7A2FF034618460837BD4680BD80B4B1
:101E400085B000AF78600023FB737B6893F8213086
:101E5000DBB2022B08D07B6804229A637B680022E5
:101E600083F82020012320E07B681B681A687B68C8
:101E70001B6822F00E021A607B681B681A687B6878
:101E80001B6822F001021A607B681A6C7B68DB6BAE
:101E9000012101FA02F25A607B68012283F82120B5
:101EA0007B68002283F82020FB7B18461437BD4650
:101EB00080BC704780B584B000AF78600023FB73AE
:101EC0007B6893F82130DBB2022B05D07B680422BB
:101ED0009A630123FB7351E07B681B681A687B6877
:101EE0001B6822F00E021A607B681B681A687B6808
:101EF0001B6822F001021A607B681B68224A934229
:101F000029D07B681B68214A934222D07B681B68DA
:101F10001F4A93421AD07B681B681E4A934212D014
:101F20007B681B681C4A93420AD07B681B681B4A6B
:101F3000934202D14FF480130EE04FF080730BE018
:101F40004FF4803308E04FF4805305E04FF4807382
:101F500002E0102300E00123114A53607B68012254
:101F600083F821207B68002283F820207B685B6B4C
:101F7000002B03D07B685B6B78689847FB7B184627
:101F80001037BD4680BD00BF080002401C00024063
:101F90003000024044000240580002406C00024001
:101FA0000000024080B48BB000AF7860396000233D
:101FB0007B6200233B6269E101227B6A02FA03F340
:101FC000FB613B681B68FA691340BB61BA69FB6936
:101FD0009A4240F058813B685B689A4A93425ED0CF
:101FE000984A934275D8984A934258D0964A934259
:101FF0006FD8964A934252D0944A934269D8944AF1
:1020000093424CD0924A934263D8924A934246D02C
:10201000904A93425DD8122B2AD8122B59D801A28C
:1020200052F823F09F200008792000088B20000838
:10203000CD200008D3200008D3200008D3200008BA
:10204000D3200008D3200008D3200008D3200008A4
:10205000D3200008D3200008D3200008D320000894
:10206000D3200008D3200008812000089520000814
:10207000794A934213D02CE03B68DB683B6229E04D
:102080003B68DB6804333B6224E03B68DB68083371
:102090003B621FE03B68DB680C333B621AE03B6845
:1020A0009B68002B02D104233B6213E03B689B68D2
:1020B000012B05D108233B627B68FA691A6109E0AC
:1020C00008233B627B68FA695A6103E000233B62A4
:1020D00000E000BFBB69FF2B01D87B6801E07B6893
:1020E00004337B61BB69FF2B02D87B6A9B0002E053
:1020F0007B6A083B9B003B617B691A680F213B6947
:1021000001FA03F3DB431A40396A3B6901FA03F32E
:102110001A437B691A603B685B6803F08053002BAD
:1021200000F0B1804D4B9B694C4A43F00103936131
:102130004A4B9B6903F00103BB60BB68484A7B6A5A
:102140009B08023352F82330FB607B6A03F00303E1
:102150009B000F2202FA03F3DB43FA681340FB6093
:102160007B68404A934213D07B683F4A93420DD02C
:102170007B683E4A934207D07B683D4A934201D137
:10218000032306E0042304E0022302E0012300E02D
:1021900000237A6A02F0030292009340FA68134324
:1021A000FB602F497B6A9B080233FA6841F82320C1
:1021B0003B685B6803F48013002B06D02D4B9A68B4
:1021C0002C49BB6913438B6006E02A4B9A68BB69B4
:1021D000DB43284913408B603B685B6803F40013C2
:1021E000002B06D0234BDA682249BB691343CB602E
:1021F00006E0204BDA68BB69DB431E491340CB6025
:102200003B685B6803F40033002B06D0194B5A6817
:102210001849BB6913434B6006E0164B5A68BB690B
:10222000DB43144913404B603B685B6803F4803325
:10223000002B21D00F4B1A680E49BB6913430B606A
:1022400021E000BF00003210000031100000221019
:1022500000002110000012100000111000100240B8
:102260000000014000080140000C01400010014046
:1022700000140140000401400B4B1A68BB69DB43AA
:10228000094913400B607B6A01337B623B681A6823
:102290007B6A22FA03F3002B7FF48EAE00BF00BFEF
:1022A0002C37BD4680BC70470004014080B485B027
:1022B00000AF78600B467B807B689A687B88134010
:1022C000002B02D00123FB7301E00023FB73FB7B97
:1022D00018461437BD4680BC704780B483B000AF49
:1022E00078600B467B8013467B707B78002B03D095
:1022F0007A887B681A6103E07B881A047B681A611C
:1023000000BF0C37BD4680BC7047000080B586B06A
:1023100000AF78607B68002B01D1012372E27B68FB
:102320001B6803F00103002B00F08780924B5B6871
:1023300003F00C03042B0CD08F4B5B6803F00C03F1
:10234000082B12D18C4B5B6803F48033B3F5803FCC
:102350000BD1894B1B6803F40033002B6CD07B68D6
:102360005B68002B68D101234CE27B685B68B3F5A6
:10237000803F06D1804B1B687F4A43F48033136053
:102380002EE07B685B68002B0CD17B4B1B687A4A84
:1023900023F480331360784B1B68774A23F480233F
:1023A00013601DE07B685B68B3F5A02F0CD1724B06
:1023B0001B68714A43F4802313606F4B1B686E4A9D
:1023C00043F4803313600BE06B4B1B686A4A23F4C1
:1023D00080331360684B1B68674A23F480231360C3
:1023E0007B685B68002B13D0FFF7EEFB386108E0D9
:1023F000FFF7EAFB02463B69D31A642B01D903239A
:1024000000E25D4B1B6803F40033002BF0D014E0B6
:10241000FFF7DAFB386108E0FFF7D6FB02463B69BD
:10242000D31A642B01D90323ECE1534B1B6803F44B
:102430000033002BF0D100E000BF7B681B6803F085
:102440000203002B63D04C4B5B6803F00C03002BA2
:102450000BD0494B5B6803F00C03082B1CD1464B97
:102460005B6803F48033002B16D1434B1B6803F0E9
:102470000203002B05D07B681B69012B01D00123CF
:10248000C0E13D4B1B6823F0F8027B685B69DB0011
:10249000394913430B603AE07B681B69002B20D05D
:1024A000364B01221A60FFF78FFB386108E0FFF717
:1024B0008BFB02463B69D31A022B01D90323A1E10E
:1024C0002D4B1B6803F00203002BF0D02A4B1B6836
:1024D00023F0F8027B685B69DB00274913430B603C
:1024E00015E0264B00221A60FFF76EFB386108E00A
:1024F000FFF76AFB02463B69D31A022B01D903237B
:1025000080E11D4B1B6803F00203002BF0D17B68B8
:102510001B6803F00803002B3AD07B689B69002BF3
:1025200019D0174B01221A60FFF74EFB386108E003
:10253000FFF74AFB02463B69D31A022B01D903235A
:1025400060E10D4B5B6A03F00203002BF0D0012029
:1025500000F0CEFA1CE00A4B00221A60FFF734FBB1
:1025600038610FE0FFF730FB02463B69D31A022BBC
:1025700008D9032346E100BF001002400000424298
:1025800080044242924B5B6A03F00203002BE9D1C4
:102590007B681B6803F00403002B00F0A680002377
:1025A000FB758B4BDB6903F08053002B0DD1884BFF
:1025B000DB69874A43F08053D361854BDB6903F0C5
:1025C0008053BB60BB680123FB75824B1B6803F41F
:1025D0008073002B18D17F4B1B687E4A43F48073B5
:1025E0001360FFF7F1FA386108E0FFF7EDFA0246F1
:1025F0003B69D31A642B01D9032303E1754B1B6894
:1026000003F48073002BF0D07B68DB68012B06D1CC
:102610006F4B1B6A6E4A43F0010313622DE07B6827
:10262000DB68002B0CD16A4B1B6A694A23F001035B
:102630001362674B1B6A664A23F0040313621CE0B3
:102640007B68DB68052B0CD1614B1B6A604A43F049
:10265000040313625E4B1B6A5D4A43F0010313627D
:102660000BE05B4B1B6A5A4A23F001031362584B81
:102670001B6A574A23F0040313627B68DB68002B54
:1026800015D0FFF7A1FA38610AE0FFF79DFA02467C
:102690003B69D31A41F28832934201D90323B1E056
:1026A0004B4B1B6A03F00203002BEED014E0FFF744
:1026B0008BFA38610AE0FFF787FA02463B69D31AC2
:1026C00041F28832934201D903239BE0404B1B6ABD
:1026D00003F00203002BEED1FB7D012B05D13C4B17
:1026E000DB693B4A23F08053D3617B68DB69002BB5
:1026F00000F08780364B5B6803F00C03082B61D039
:102700007B68DB69022B46D1334B00221A60FFF74E
:102710005BFA386108E0FFF757FA02463B69D31AC3
:10272000022B01D903236DE0294B1B6803F00073D2
:10273000002BF0D17B681B6AB3F5803F08D1244B96
:102740005B6823F400327B689B68214913434B602C
:102750001F4B5B6823F474127B68196A7B685B6AA1
:102760000B431B4913434B601B4B01221A60FFF7BD
:102770002BFA386108E0FFF727FA02463B69D31AC3
:10278000022B01D903233DE0114B1B6803F00073BA
:10279000002BF0D035E0104B00221A60FFF714FA3E
:1027A000386108E0FFF710FA02463B69D31A022BA2
:1027B00001D9032326E0064B1B6803F00073002BAE
:1027C000F0D11EE07B68DB69012B07D1012319E002
:1027D0000010024000700040600042420B4B5B68FA
:1027E000FB60FB6803F480327B681B6A9A4206D167
:1027F000FB6803F470127B685B6A9A4201D0012384
:1028000000E0002318461837BD4680BD0010024086
:1028100080B584B000AF786039607B68002B01D14F
:102820000123D0E06A4B1B6803F007033A689A4221
:1028300010D9674B1B6823F0070265493B681343B7
:102840000B60634B1B6803F007033A689A4201D0A0
:102850000123B8E07B681B6803F00203002B20D043
:102860007B681B6803F00403002B05D0594B5B68A1
:10287000584A43F4E06353607B681B6803F0080325
:10288000002B05D0534B5B68524A43F460535360AE
:10289000504B5B6823F0F0027B689B684D49134303
:1028A0004B607B681B6803F00103002B40D07B6802
:1028B0005B68012B07D1474B1B6803F40033002BE7
:1028C00015D101237FE07B685B68022B07D1414B68
:1028D0001B6803F00073002B09D1012373E03D4B0B
:1028E0001B6803F00203002B01D101236BE0394B7D
:1028F0005B6823F003027B685B68364913434B60D7
:10290000FFF762F9F8600AE0FFF75EF90246FB683C
:10291000D31A41F28832934201D9032353E02D4B5D
:102920005B6803F00C027B685B689B009A42EBD10A
:10293000274B1B6803F007033A689A4210D2244BD6
:102940001B6823F0070222493B6813430B60204BAE
:102950001B6803F007033A689A4201D0012332E072
:102960007B681B6803F00403002B08D0194B5B68DD
:1029700023F4E0627B68DB68164913434B607B6895
:102980001B6803F00803002B09D0124B5B6823F48B
:1029900060527B681B69DB000E4913434B6000F0FB
:1029A00021F802460B4B5B681B0903F00F030A4931
:1029B000CB5C22FA03F3094A1360094B1B681846E3
:1029C000FFF7C0F8002318461037BD4680BD00BF92
:1029D0000020024000100240047000081C0000208B
:1029E0002000002080B487B000AF0023FB600023EC
:1029F000BB6000237B6100237B6000233B611E4B97
:102A00005B68FB60FB6803F00C03042B02D0082B0F
:102A100003D027E0194B3B6127E0FB689B0C03F0D8
:102A20000F03174AD35C7B60FB6803F48033002BF1
:102A300010D0114B5B685B0C03F00103114AD35CAF
:102A4000BB607B680D4A03FB02F2BB68B2FBF3F389
:102A50007B6104E07B680C4A02FB03F37B617B69CA
:102A60003B6102E0054B3B6100BF3B6918461C37E8
:102A7000BD4680BC704700BF0010024000127A00C3
:102A80001C7000082C70000800093D0080B400AFE5
:102A9000024B1B681846BD4680BC70471C000020D6
:102AA00080B500AFFFF7F2FF0246054B5B681B0ADB
:102AB00003F007030349CB5C22FA03F3184680BDF9
:102AC000001002401470000880B500AFFFF7DEFF71
:102AD0000246054B5B68DB0A03F007030349CB5C46
:102AE00022FA03F3184680BD00100240147000085B
:102AF00080B485B000AF78600A4B1B680A4AA2FB1D
:102B000003235B0A7A6802FB03F3FB6000BFFB68E8
:102B10005A1EFA60002BF9D100BF00BF1437BD4622
:102B200080BC70471C000020D34D621080B582B07D
:102B300000AF78607B68002B01D1012376E07B68D1
:102B40005B6A002B08D17B685B68B3F5827F09D094
:102B50007B680022DA6105E07B6800221A617B68ED
:102B600000225A617B6800229A627B6893F8513098
:102B7000DBB2002B06D17B68002283F850207868F6
:102B8000FEF7F6FD7B68022283F851207B681B6804
:102B90001A687B681B6822F040021A607B685B68D9
:102BA00003F482727B689B6803F404431A437B68D6
:102BB000DB6803F400631A437B681B6903F00203BC
:102BC0001A437B685B6903F001031A437B689B69C6
:102BD00003F400731A437B68DB6903F038031A437C
:102BE0007B681B6A03F0800342EA03017B689B6AEF
:102BF00003F400527B681B680A431A607B689B6978
:102C00001A0C7B681B6802F004025A607B681B6820
:102C1000DA697B681B6822F40062DA617B68002253
:102C20005A657B68012283F8512000231846083733
:102C3000BD4680BD80B588B000AFF860B9603B602C
:102C40001346FB80FEF7C0FFF861FB887B83FB68BF
:102C500093F85130DBB2012B01D002232AE1BB688B
:102C6000002B02D0FB88002B01D1012322E1FB685D
:102C700093F85030012B01D102231BE1FB680122A4
:102C800083F85020FB68032283F85120FB68002260
:102C90005A65FB68BA681A63FB68FA889A86FB680B
:102CA000FA88DA86FB6800229A63FB6800229A871A
:102CB000FB680022DA87FB6800225A64FB68002266
:102CC0001A64FB689B68B3F5004F0FD1FB681B6863
:102CD0001A68FB681B6822F040021A60FB681B68D8
:102CE0001A68FB681B6842F480421A60FB681B6824
:102CF0001B6803F04003402B07D0FB681B681A6871
:102D0000FB681B6842F040021A60FB68DB68B3F5A1
:102D1000006F52D1FB685B68002B02D07B8B012BCC
:102D200045D1FB681B6B1A88FB681B68DA60FB687F
:102D30001B6B9A1CFB681A63FB68DB8E9BB2013B22
:102D40009AB2FB68DA8632E0FB681B689B6803F086
:102D50000203022B12D1FB681B6B1A88FB681B68ED
:102D6000DA60FB681B6B9A1CFB681A63FB68DB8EDE
:102D70009BB2013B9AB2FB68DA8618E0FEF724FFAB
:102D80000246FB69D31A3A689A4203D83B68B3F10A
:102D9000FF3F02D13B68002B09D1FB68012283F879
:102DA0005120FB68002283F85020032382E0FB6857
:102DB000DB8E9BB2002BC7D153E0FB685B68002B16
:102DC00002D07B8B012B47D1FB681A6BFB681B6819
:102DD0000C3312781A70FB681B6B5A1CFB681A6361
:102DE000FB68DB8E9BB2013B9AB2FB68DA8633E06C
:102DF000FB681B689B6803F00203022B13D1FB687E
:102E00001A6BFB681B680C3312781A70FB681B6B1B
:102E10005A1CFB681A63FB68DB8E9BB2013B9AB2BB
:102E2000FB68DA8618E0FEF7CFFE0246FB69D31A8C
:102E30003A689A4203D83B68B3F1FF3F02D13B683E
:102E4000002B09D1FB68012283F85120FB68002286
:102E500083F8502003232DE0FB68DB8E9BB2002B10
:102E6000C6D1FA693968F86800F0B0F80346002B5B
:102E700002D0FB6820225A65FB689B68002B0AD1B0
:102E800000237B61FB681B68DB687B61FB681B6858
:102E90009B687B617B69FB68012283F85120FB689A
:102EA000002283F85020FB685B6D002B01D00123CA
:102EB00000E0002318462037BD4680BD80B588B0AD
:102EC00000AFF860B9603B601346FB71FEF77CFE13
:102ED0000246BB6A9B1A3A681344FB61FEF774FE14
:102EE000B861394B1B685B011B0DFA6902FB03F3E8
:102EF0007B6154E03B68B3F1FF3F50D0FEF764FEC6
:102F00000246BB69D31AFA699A4202D9FB69002BBF
:102F10003DD1FB681B685A68FB681B6822F0E00221
:102F20005A60FB685B68B3F5827F11D1FB689B68D0
:102F3000B3F5004F04D0FB689B68B3F5806F07D1F1
:102F4000FB681B681A68FB681B6822F040021A6065
:102F5000FB689B6AB3F5005F0FD1FB681B681A68BA
:102F6000FB681B6822F400521A60FB681B681A6831
:102F7000FB681B6842F400521A60FB68012283F868
:102F80005120FB68002283F85020032317E07B695F
:102F9000002B01D10023FB617B69013B7B61FB6856
:102FA0001B689A68BB681340BA689A420CBF012339
:102FB0000023DBB21A46FB799A429BD100231846C4
:102FC0002037BD4680BD00BF1C00002080B586B004
:102FD00002AFF860B9607A607B680093BB68012239
:102FE0000221F868FFF76AFF0346002B07D0FB6851
:102FF0005B6D43F02002FB685A65032313E07B6896
:103000000093BB6800228021F868FFF757FF034652
:10301000002B07D0FB685B6D43F02002FB685A650C
:10302000032300E0002318461037BD4680BD80B55D
:1030300082B000AF78607B68002B01D1012341E0B2
:103040007B6893F83D30DBB2002B06D17B68002211
:1030500083F83C207868FEF7C9FB7B68022283F87E
:103060003D207B681A687B6804331946104600F0DF
:103070003FF97B68012283F846207B68012283F8B0
:103080003E207B68012283F83F207B68012283F881
:1030900040207B68012283F841207B68012283F86D
:1030A00042207B68012283F843207B68012283F859
:1030B00044207B68012283F845207B68012283F845
:1030C0003D20002318460837BD4680BD80B485B03A
:1030D00000AF78607B6893F83D30DBB2012B01D004
:1030E000012332E07B68022283F83D207B681B6865
:1030F000184A93420ED07B681B68B3F1804F09D009
:103100007B681B68144A934204D07B681B68134A8F
:10311000934211D17B681B689B6803F00703FB6037
:10312000FB68062B10D07B681B681A687B681B68DD
:1031300042F001021A6007E07B681B681A687B682E
:103140001B6842F001021A60002318461437BD467E
:1031500080BC7047002C0140000400400008004083
:1031600080B584B000AF786039600023FB737B6862
:1031700093F83C30012B01D10223B4E07B6801229B
:1031800083F83C207B68022283F83D207B681B6823
:103190009B68BB60BB6823F07703BB60BB6823F40C
:1031A0007F43BB607B681B68BA689A603B681B689A
:1031B000B3F5005F3ED0B3F5005F00F28780B3F552
:1031C000805F00F08680B3F5805F7FD8702B1AD0C7
:1031D000702B7BD8602B50D0602B77D8502B3CD0F5
:1031E000502B73D8402B58D0402B6FD8302B64D045
:1031F000302B6BD8202B60D0202B67D8002B5CD0D5
:10320000102B5AD062E07B6818683B6899683B686D
:103210005A683B68DB6800F050F97B681B689B6864
:10322000BB60BB6843F07703BB607B681B68BA6810
:103230009A604FE07B6818683B6899683B685A68F9
:103240003B68DB6800F039F97B681B689A687B682B
:103250001B6842F480429A603CE07B6818683B68D7
:1032600059683B68DB681A4600F0B0F87B681B6859
:103270005021184600F007F92CE07B6818683B687D
:1032800059683B68DB681A4600F0CEF87B681B681B
:103290006021184600F0F7F81CE07B6818683B686E
:1032A00059683B68DB681A4600F090F87B681B6839
:1032B0004021184600F0E7F80CE07B681A683B688C
:1032C0001B681946104600F0DEF803E00123FB738B
:1032D00000E000BF7B68012283F83D207B6800226C
:1032E00083F83C20FB7B18461037BD4680BD0000AC
:1032F00080B485B000AF786039607B681B68FB6084
:103300007B682F4A93420BD07B68B3F1804F07D084
:103310007B682C4A934203D07B682B4A934208D1A6
:10332000FB6823F07003FB603B685B68FA6813433B
:10333000FB607B68224A93420BD07B68B3F1804FDD
:1033400007D07B681F4A934203D07B681E4A934292
:1033500008D1FB6823F44073FB603B68DB68FA68C4
:103360001343FB60FB6823F080023B685B691343F7
:10337000FB607B68FA681A603B689A687B68DA626F
:103380003B681A687B689A627B680D4A934203D156
:103390003B681A697B681A637B6801225A617B6803
:1033A0001B6903F00103002B05D07B681B6923F028
:1033B00001027B681A6100BF1437BD4680BC7047AC
:1033C000002C0140000400400008004080B487B099
:1033D00000AFF860B9607A60FB681B6A7B61FB68CC
:1033E0001B6A23F00102FB681A62FB689B693B6160
:1033F0003B6923F0F0033B617B681B013A6913438F
:103400003B617B6923F00A037B617A69BB681343E4
:103410007B61FB683A699A61FB687A691A6200BF4E
:103420001C37BD4680BC704780B487B000AFF860E1
:10343000B9607A60FB681B6A7B61FB681B6A23F0DA
:103440001002FB681A62FB689B693B613B6923F4CD
:1034500070433B617B681B033A6913433B617B69A3
:1034600023F0A0037B61BB681B017A6913437B6176
:10347000FB683A699A61FB687A691A6200BF1C3777
:10348000BD4680BC704780B485B000AF78603960BD
:103490007B689B68FB60FB6823F07003FB603A6805
:1034A000FB68134343F00703FB607B68FA689A608C
:1034B00000BF1437BD4680BC704780B487B000AFF2
:1034C000F860B9607A603B60FB689B687B617B69F0
:1034D00023F47F437B613B681A027B681A43BB6815
:1034E00013437A6913437B61FB687A699A6000BF72
:1034F0001C37BD4680BC704780B485B000AF786093
:1035000039607B6893F83C30012B01D1022346E0FF
:103510007B68012283F83C207B68022283F83D20EF
:103520007B681B685B68FB607B681B689B68BB6093
:10353000FB6823F07003FB603B681B68FA68134369
:10354000FB607B681B68FA685A607B681B68164AD8
:1035500093420ED07B681B68B3F1804F09D07B6823
:103560001B68124A934204D07B681B68104A93423E
:103570000CD1BB6823F08003BB603B685B68BA6812
:103580001343BB607B681B68BA689A607B68012242
:1035900083F83D207B68002283F83C2000231846F6
:1035A0001437BD4680BC7047002C01400004004029
:1035B0000008004080B582B000AF78607B68002BC7
:1035C00001D1012342E07B6893F84130DBB2002B4C
:1035D00006D17B68002283F840207868FEF724F942
:1035E0007B68242283F841207B681B68DA687B684B
:1035F0001B6822F40052DA60786800F0B7FD7B683F
:103600001B681A697B681B6822F490421A617B6808
:103610001B685A697B681B6822F02A025A617B6822
:103620001B68DA687B681B6842F40052DA607B68CA
:1036300000225A647B68202283F841207B68202284
:1036400083F842207B6800225A630023184608371B
:10365000BD4680BD80B58AB002AFF860B9603B60FE
:103660001346FB8000237B61FB6893F84130DBB29B
:10367000202B75D1BB68002B02D0FB88002B01D119
:1036800001236EE0FB6800225A64FB68212283F864
:103690004120FEF799FA7861FB68FA889A84FB6802
:1036A000FA88DA84FB689B68B3F5805F08D1FB6811
:1036B0001B69002B04D10023FB61BB68BB6103E0E5
:1036C000BB68FB610023BB612EE03B6800937B6914
:1036D00000228021F86800F01CFB0346002B05D077
:1036E000FB68202283F8412003233AE0FB69002B8A
:1036F0000BD1BB691B881A46FB681B68C2F3080222
:103700005A60BB690233BB6107E0FB691A78FB684A
:103710001B685A60FB690133FB61FB68DB8C9BB261
:10372000013B9AB2FB68DA84FB68DB8C9BB2002B0E
:10373000CBD13B6800937B6900224021F86800F000
:10374000E8FA0346002B05D0FB68202283F84120CD
:10375000032306E0FB68202283F84120002300E0D9
:10376000022318462037BD4680BD80B584B000AF27
:10377000F860B9601346FB80FB6893F84230DBB217
:10378000202B12D1BB68002B02D0FB88002B01D16B
:1037900001230BE0FB6800221A63FB881A46B96814
:1037A000F86800F00FFB034600E0022318461037CC
:1037B000BD4680BD80B5BAB000AF78607B681B683D
:1037C0001B68C7F8E4307B681B68DB68C7F8E0302B
:1037D0007B681B685B69C7F8DC300023C7F8D8300A
:1037E0000023C7F8D430D7F8E43003F00F03C7F84C
:1037F000D830D7F8D830002B0FD1D7F8E43003F009
:103800002003002B09D0D7F8E03003F02003002B71
:1038100003D0786800F0ECFB5BE2D7F8D830002BDF
:1038200000F0DE80D7F8DC3003F00103002B06D176
:10383000D7F8E03003F49073002B00F0D180D7F874
:10384000E43003F00103002B0BD0D7F8E03003F491
:103850008073002B05D07B685B6C43F001027B68B2
:103860005A64D7F8E43003F00403002B0BD0D7F8E8
:10387000DC3003F00103002B05D07B685B6C43F068
:1038800002027B685A64D7F8E43003F00203002B8D
:103890000BD0D7F8DC3003F00103002B05D07B6898
:1038A0005B6C43F004027B685A64D7F8E43003F0A1
:1038B0000803002B11D0D7F8E03003F02003002BD1
:1038C00005D1D7F8DC3003F00103002B05D07B686D
:1038D0005B6C43F008027B685A647B685B6C002B6E
:1038E00000F0F281D7F8E43003F02003002B08D079
:1038F000D7F8E03003F02003002B02D0786800F006
:1039000077FB7B681B685B6903F04003002B14BFE7
:1039100001230023DBB2C7F8D4307B685B6C03F073
:103920000803002B03D1D7F8D430002B4FD0786890
:1039300000F081FA7B681B685B6903F04003002B91
:1039400041D07B681B681433C7F89C30D7F89C3093
:1039500053E8003FC7F89830D7F8983023F0400379
:10396000C7F8D0307B681B681433D7F8D020C7F86D
:10397000A820C7F8A430D7F8A410D7F8A82041E8A9
:103980000023C7F8A030D7F8A030002BD9D17B682E
:10399000DB6B002B13D07B68DB6B7E4A5A637B6842
:1039A000DB6B1846FEF786FA0346002B16D07B68C1
:1039B000DB6B5B6B7A68D26B104698470EE07868D9
:1039C00000F093F90AE0786800F08FF906E0786873
:1039D00000F08BF97B6800225A6475E100BF73E147
:1039E0007B681B6B012B40F04F81D7F8E43003F06C
:1039F0001003002B00F04881D7F8E03003F01003EB
:103A0000002B00F041810023BB607B681B681B68B2
:103A1000BB607B681B685B68BB60BB687B681B68BE
:103A20005B6903F04003002B00F0B6807B68DB6B22
:103A30001B685B68A7F8BE30B7F8BE30002B00F0FB
:103A400045817B689B8DB7F8BE209A4280F03E810D
:103A50007B68B7F8BE20DA857B68DB6B9B69202B1F
:103A600000F088807B681B680C33C7F88830D7F873
:103A7000883053E8003FC7F88430D7F8843023F407
:103A80008073C7F8B8307B681B680C33D7F8B82050
:103A9000C7F89420C7F89030D7F89010D7F8942042
:103AA00041E80023C7F88C30D7F88C30002BD9D1EF
:103AB0007B681B6814337B677B6F53E8003F3B6771
:103AC0003B6F23F00103C7F8B4307B681B681433E5
:103AD000D7F8B420C7F88020FB67F96FD7F88020AB
:103AE00041E80023BB67BB6F002BE1D17B681B68FB
:103AF00014333B663B6E53E8003FFB65FB6D23F0E0
:103B00004003C7F8B0307B681B681433D7F8B02087
:103B1000FA66BB66B96EFA6E41E800237B667B6E7F
:103B2000002BE3D17B68202283F842207B680022AF
:103B30001A637B681B680C33FB64FB6C53E8003F23
:103B4000BB64BB6C23F01003C7F8AC307B681B6808
:103B50000C33D7F8AC20BA657B65796DBA6D41E856
:103B600000233B653B6D002BE3D17B68DB6B184684
:103B7000FEF765F97B6802225A637B689A8D7B6841
:103B8000DB8D9BB2D31A9BB21946786800F0B6F869
:103B90009CE000BFFB3E00087B689A8D7B68DB8D54
:103BA0009BB2D31AA7F8CE307B68DB8D9BB2002B7B
:103BB00000F08E80B7F8CE30002B00F089807B6853
:103BC0001B680C33BB63BB6B53E8003F7B637B6BB1
:103BD00023F49073C7F8C8307B681B680C33D7F8A0
:103BE000C8207A643B64396C7A6C41E80023FB633B
:103BF000FB6B002BE3D17B681B6814337B627B6A11
:103C000053E8003F3B623B6A23F00103C7F8C4302E
:103C10007B681B681433D7F8C4203A63FB62F96AE7
:103C20003A6B41E80023BB62BB6A002BE3D17B689F
:103C3000202283F842207B6800221A637B681B687D
:103C40000C333B613B6953E8003FFB60FB6823F0AA
:103C50001003C7F8C0307B681B680C33D7F8C0204E
:103C6000FA61BB61B969FA6941E800237B617B694C
:103C7000002BE3D17B6802225A63B7F8CE30194695
:103C8000786800F03BF823E0D7F8E43003F08003D5
:103C9000002B09D0D7F8E03003F08003002B03D0CD
:103CA000786800F03EF914E0D7F8E43003F0400300
:103CB000002B0ED0D7F8E03003F04003002B08D0E3
:103CC000786800F07DF904E000BF02E000BF00E08A
:103CD00000BFE837BD4680BD80B483B000AF7860D8
:103CE00000BF0C37BD4680BC704780B483B000AFC6
:103CF000786000BF0C37BD4680BC704780B483B08D
:103D000000AF78600B467B8000BF0C37BD4680BC9F
:103D1000704780B586B000AFF860B9603B6013466D
:103D2000FB713BE03B6AB3F1FF3F37D0FDF74CFF3F
:103D300002463B68D31A3A6A9A4202D33B6A002B86
:103D400001D103233AE0FB681B68DB6803F004033E
:103D5000002B23D0BB68802B20D0BB68402B1DD00C
:103D6000FB681B681B6803F00803082B16D10023AF
:103D70007B61FB681B681B687B61FB681B685B6879
:103D80007B617B69F86800F056F8FB6808225A648A
:103D9000FB68002283F8402001230FE0FB681B68CA
:103DA0001A68BB681340BA689A420CBF012300230B
:103DB000DBB21A46FB799A42B4D000231846183772
:103DC000BD4680BD80B485B000AFF860B9601346D1
:103DD000FB80FB68BA689A62FB68FA889A85FB6880
:103DE000FA88DA85FB6800225A64FB68222283F88D
:103DF0004220FB681B69002B07D0FB681B68DA6850
:103E0000FB681B6842F48072DA60FB681B685A69C1
:103E1000FB681B6842F001025A61FB681B68DA68A4
:103E2000FB681B6842F02002DA6000231846143752
:103E3000BD4680BC704780B495B000AF78607B68A9
:103E40001B680C337B637B6B53E8003F3B633B6B2E
:103E500023F49073FB647B681B680C33FA6C3A6440
:103E6000FB63F96B3A6C41E80023BB63BB6B002B2F
:103E7000E5D17B681B6814333B623B6A53E8003F23
:103E8000FB61FB6923F00103BB647B681B6814338F
:103E9000BA6CFA62BB62B96AFA6A41E800237B62D3
:103EA0007B6A002BE5D17B681B6B012B19D17B68EA
:103EB0001B680C33FB60FB6853E8003FBB60BB68CA
:103EC00023F010037B647B681B680C337A6CBA6147
:103ED0007B617969BA6941E800233B613B69002B4A
:103EE000E5D17B68202283F842207B6800221A6398
:103EF00000BF5437BD4680BC704780B584B000AF6A
:103F000078607B685B6AFB60FB680022DA85FB688F
:103F10000022DA84F868FFF7E8FE00BF1037BD46DC
:103F200080BD80B485B000AF78607B6893F8413085
:103F3000DBB2212B3ED17B689B68B3F5805F14D147
:103F40007B681B69002B10D17B681B6AFB60FB68D8
:103F50001B881A467B681B68C2F308025A607B689C
:103F60001B6A9A1C7B681A6208E07B681B6A591CF2
:103F70007A6811621A787B681B685A607B68DB8CF0
:103F80009BB2013B9BB27A681946D184002B0FD1BA
:103F90007B681B68DA687B681B6822F08002DA6045
:103FA0007B681B68DA687B681B6842F04002DA6055
:103FB000002300E0022318461437BD4680BC70473A
:103FC00080B582B000AF78607B681B68DA687B6878
:103FD0001B6822F04002DA607B68202283F84120CF
:103FE0007868FFF779FE002318460837BD4680BD84
:103FF00080B58CB000AF78607B6893F84230DBB25C
:10400000222B40F0AE807B689B68B3F5805F17D1B0
:104010007B681B69002B13D10023FB627B689B6AC2
:10402000BB627B681B685B689BB2C3F308039AB2F0
:10403000BB6A1A807B689B6A9A1C7B689A6226E03E
:104040007B689B6AFB620023BB627B689B68B3F55D
:10405000805F07D07B689B68002B0AD17B681B6957
:10406000002B06D17B681B685B68DAB2FB6A1A70AA
:1040700008E07B681B685B68DBB203F07F03DAB2A1
:10408000FB6A1A707B689B6A5A1C7B689A627B6821
:10409000DB8D9BB2013B9BB27A681946D185002B20
:1040A0005DD17B681B68DA687B681B6822F02002A0
:1040B000DA607B681B68DA687B681B6822F48072B0
:1040C000DA607B681B685A697B681B6822F0010212
:1040D0005A617B68202283F842207B6800225A6361
:1040E0007B681B6B012B35D17B6800221A637B68D0
:1040F0001B680C337B617B6953E8003F3B613B6984
:1041000023F010037B627B681B680C337A6A3A6287
:10411000FB61F9693A6A41E80023BB61BB69002B86
:10412000E5D17B681B681B6803F01003102B0AD1D4
:104130000023FB607B681B681B68FB607B681B6857
:104140005B68FB60FB687B689B8D19467868FFF7AE
:10415000D5FD02E07868FCF715FE002302E000239D
:1041600000E0022318463037BD4680BD80B584B0DC
:1041700000AF78607B681B681B6923F440517B6843
:10418000DA687B681B680A431A617B689A687B68F7
:104190001B691A437B685B691343BB607B681B68C0
:1041A000DB6823F4B05323F00C037A681268B96813
:1041B0000B43D3607B681B685B6923F440717B68A9
:1041C0009A697B681B680A435A617B681B682C4AA2
:1041D000934203D1FEF778FCF86002E0FEF760FC42
:1041E000F860FA6813469B0013449A001A447B68EF
:1041F0005B689B00B2FBF3F3224AA2FB03235B093B
:104200001901FA6813469B0013449A001A447B680C
:104210005B689B00B2FBF3F21A4BA3FB02035B0942
:10422000642000FB03F3D31A1B013233154AA2FBAF
:1042300003235B0903F0F0031944FA6813469B005B
:1042400013449A001A447B685B689B00B2FBF3F24C
:104250000C4BA3FB02035B09642000FB03F3D31A9E
:104260001B013233074AA2FB03235B0903F00F0251
:104270007B681B680A449A6000BF1037BD4680BD4A
:10428000003801401F85EB51002B2DE9F0471D46FA
:10429000BBBF03F100431D4600232D2388B0144605
:1042A000B8BF1446129A109E1370149BDDF84CA0F0
:1042B00023F02008B8F1460F05D0B8F1450F00D122
:1042C0000136022300E0032307AA049206AACDE9DF
:1042D00002A2CDE9003622462B4600F081FEB8F15D
:1042E000470F074619D1119BDB070ED500EB0609D6
:1042F0000022002320462946FCF756FB08B1CDF8E2
:104300001C903022079B4B451ED33846079B159ABD
:10431000DB1B136008B0BDE8F087B8F1460F00EB77
:104320000609E5D10378302B0AD10022002320466C
:104330002946FCF739FB18B9C6F10106CAF8006036
:10434000DAF800309944D3E7591C07911A70D9E77D
:10435000F7B50029B6BF2D232B2349420929027046
:10436000437029DD0DF107031D460A27B1FBF7F65F
:104370001A4607FB1614303402F8014C0C46632C25
:10438000314603F1FF33F1DC3031941E03F8011C98
:104390002346411CAB420AD30DF109039B1AAC42E0
:1043A00088BF002302330344181A03B0F0BD13F88A
:1043B000016B01F8016FEDE7302330318370C1707C
:1043C000031DF1E72DE9F04F91B00C46DDF8688050
:1043D00016461F46054600F0F5FC0368184608938C
:1043E000FBF7B6FE00230E93D8F800300990073390
:1043F00023F0070303F1080294F818A0D4F800B0E2
:10440000C8F80020D3E9008929F000430B93CDF8C8
:1044100028804FF0FF32DDE90A01C4E912899C4B84
:10442000FCF7F4FA70BBDDE90A014FF0FF32984B5C
:10443000FCF7CEFA30BB0022002340464946FCF789
:10444000BDFA10B12D2384F84330924A924BBAF151
:10445000470F94BF9046984603234FF0000923610D
:104460002BF00403236033462146284600970FAA09
:1044700000F0D4F9013040F090804FF0FF3011B0DF
:10448000BDE8F08F42464B4640464946FCF7BEFA2F
:1044900048B14B46002BB8BF2D23804AB8BF84F8E3
:1044A00043307F4BD3E763680AF0DF015A1C3FD1EA
:1044B0000623636000224BF48063236006920EAAF9
:1044C000CDE904A20DAA03920DF13302CDE9013228
:1044D00063684246009328464B460A91FFF7D4FE94
:1044E0000A99804647290D9928D1C81C02DB6368C8
:1044F000994240DDAAF1020A5FFA8AFA524601396E
:1045000004F150000D91FFF723FF0E9A8146131816
:10451000012A236102DC2268D20701D5013323611D
:104520009DF83330002B9ED02D2384F843309AE73A
:104530004729BFD1002BBDD10123BAE7BAF1650FDE
:10454000DCD9BAF1660F18D1002963680BDD21614F
:1045500013B92268D00702D501330B4423614FF011
:104560000009A165DCE713B92268D20701D502333F
:10457000F4E70123F2E74FF0670A0E9B994205DB4F
:1045800023682161D807EAD54B1CE7E70029CCBF97
:104590000122C1F102021344E0E723685A0507D45F
:1045A0002369424631462846B84701302BD164E79B
:1045B000BAF1650F40F2DC80D4E912010022002339
:1045C000FCF7F2F9002833D0012331462846354A5A
:1045D000B84701303FF451AFDDE90D38434502DB08
:1045E0002368D8070FD5DDE9082331462846B847A8
:1045F00001303FF442AF4FF0000908F1FF3804F1F9
:104600001A0AC84509DC23689B0700F10281E068AB
:104610000F9B9842B8BF184631E7012352463146F6
:104620002846B84701303FF428AF09F10109E8E70F
:104630000D9B002B38DC012331462846194AB84728
:1046400001303FF41AAFDDE90D3959EA030302D115
:104650002368D907D7D5DDE9082331462846B8476E
:1046600001303FF40AAF4FF0000A04F11A0B0D9B22
:104670005B42534501DC4B4693E701235A463146E2
:104680002846B84701303FF4F8AE0AF1010AEEE7D8
:10469000FFFFEF7F2E7000083270000836700008B0
:1046A0003A7000083E700008A36DDDF838A053454D
:1046B000A8BF5346002B994636DC4FF0000B29EA81
:1046C000E97904F11A02A36D0A93A3EB09035B4590
:1046D00031DC0D9B9A453ADC2368DA0737D40D9B11
:1046E000AAEB03090A9BAAEB03039945A8BF9946C5
:1046F000B9F1000F33DC4FF0000829EAE97904F141
:104700001A0B0D9BAAEB0303A3EB090343457FF7A9
:104710007AAF01235A4631462846B84701303FF464
:10472000ACAE08F10108ECE7424631462846B847EE
:104730000130C2D1A1E60123314628460A92B8478A
:1047400001303FF49AAE0A9A0BF1010BBBE73146F8
:10475000DDE908232846B8470130C0D18DE60A9A22
:104760004B46314628464244B8470130C3D184E61F
:10477000DDF838A0BAF1010F01DCDB0736D50123E3
:10478000424631462846B84701303FF476AEDDE96F
:10479000082331462846B84701303FF46EAED4E9CD
:1047A0001201002200230AF1FF3AFCF7FDF8C0B91C
:1047B000534608F1010231462846B84701300CD172
:1047C0005BE601235A4631462846B84701303FF49C
:1047D00054AE08F10108D045F3DB4B4604F150021A
:1047E000E0E64FF0000804F11A0BF4E7012342461B
:1047F000E1E701234A4631462846B84701303FF4F5
:104800003CAE08F10108E3680F995B1A4345F0DC00
:10481000FDE64FF0000804F11909F4E72DE9F0472F
:10482000164698468A680B6907469342B8BF1346F6
:10483000336091F843200C46DDF820900AB1013333
:1048400033602368990642BF3368023333602568BA
:1048500015F0060506D104F1190AE36832689B1ABF
:10486000AB422BDC94F843302268003B18BF012395
:10487000920630D44146384604F14302C84701301D
:1048800023D02368226903F00603042B14BF0025FC
:1048900033684FF0000608BFE56804F11A0408BF4A
:1048A000ED1A54F8123C08BF25EAE5759342C4BFDF
:1048B0009B1AED18B5421AD1002008E00123524698
:1048C00041463846C847013003D14FF0FF30BDE8BC
:1048D000F0870135C1E73020E11881F843005A1C08
:1048E00094F845102244023382F84310C2E70123B2
:1048F000224641463846C8470130E6D00136D9E75E
:104900002DE9FF470F7E9146782F80460C469A4648
:104910000C9E01F1430207D8622F0AD8002F00F045
:10492000D380582F00F0BA8004F1420684F8427018
:104930003AE0A7F16303152BF6D801A151F823F053
:1049400099490008AD49000829490008294900088B
:104950002949000829490008AD49000829490008EB
:10496000294900082949000829490008AF4A0008D8
:10497000D7490008694A0008294900082949000860
:10498000D14A000829490008D749000829490008E8
:1049900029490008714A000833681A1D1B683260F3
:1049A00004F1420684F8423001239EE03368206817
:1049B000191D3160060601D51D6803E04506FBD5CB
:1049C000B3F90050002D03DA2D236D4284F84330F3
:1049D0000A23594811E021683368080653F8045B3C
:1049E00002D4490648BFADB26F2F336014BF0A230B
:1049F00008235148002184F843106668002EA8BFA0
:104A00002168A660A4BF21F0040121600DB9002E29
:104A10004BD01646B5FBF3F103FB1157C75D06F803
:104A2000017D2F46BB420D46F4D9082B0BD12368DC
:104A3000DF0708D5236961689942DEBF302306F895
:104A4000013C06F1FF36921B22614B46214640464F
:104A5000CDF800A003AAFFF7E1FE01304AD14FF0E4
:104A6000FF3004B0BDE8F087236843F020032360E3
:104A70007827324884F84570236831681F0651F85A
:104A8000045B02D45F0648BFADB23160D90744BFB2
:104A900043F0200323601DB11023ABE72648E9E76C
:104AA000236823F020032360F6E71646BDE733684A
:104AB0002568181D616930602E061B6801D51960D4
:104AC00002E06806FBD51980002316462361BCE787
:104AD000336800211A1D32601E686268304600F09B
:104AE000E8F908B1801B606063682361002384F8E3
:104AF0004330AAE73246494640462369D047013051
:104B0000ADD023689B0713D4E068039B9842B8BFDD
:104B10001846A6E70123324649464046D0470130B1
:104B20009DD00135E36803995B1AAB42F2DCEBE7F9
:104B3000002504F11906F5E74070000851700008DF
:104B4000002310B50446C0E90033C0E90433836094
:104B500081814366C2818361194608225C3000F07E
:104B600028F90D4B246263620C4BA3620C4BE36289
:104B70000C4B23630C4B9C4206D003F16802944219
:104B800002D0D0339C4205D104F15800BDE810405A
:104B900000F08CB910BD00BF2D4D00084F4D00082E
:104BA000874D0008AB4D000818030020024A034956
:104BB000034800F069B800BF280000201D68000805
:104BC0003800002041680C4B10B59942044601D0D2
:104BD00001F024FEA168094B994202D0204601F061
:104BE0001DFEE168064B994204D02046BDE8104006
:104BF00001F014BE10BD00BF180300208003002088
:104C0000E803002010B50B4B0B4C0C4A20461A60F1
:104C100004210022FFF794FF04F16800012209211A
:104C2000FFF78EFF04F1D0000222BDE810401221F0
:104C3000FFF786BF5004002018030020AD4B00088A
:104C4000014800F034B900BF59040020014800F0C9
:104C50002FB900BF5904002010B50446FFF7F0FF3C
:104C6000236A1BB1BDE81040FFF7F0BF044B23627D
:104C7000044B1B68002BF5D1FFF7C4FFF2E700BF20
:104C8000C54B0008500400202DE9F843074688462C
:104C900014460026D4E90195B9F1010905D5246827
:104CA000002CF7D13046BDE8F883AB89012B07D93A
:104CB000B5F90E30013303D029463846C0470643C4
:104CC0006835E9E70CB430B5174B0C1E1D689DB074
:104CD00008DA8B234FF0FF302B601DB0BDE8304069
:104CE00002B070474FF40273ADF814300CBF234686
:104CF00004F1FF33049307934FF6FF73029006907D
:104D0000ADF81630284621AB209A02A9019301F094
:104D100009FC431CBCBF8B232B60002CDDD0002280
:104D2000029B1A70D9E700BF3400002010B50C4672
:104D3000B1F90E1000F06CF80028ABBF636DA389C9
:104D40001B1823F48053ACBF6365A38110BD2DE90C
:104D5000F0411F468B890546DB050C46164605D5F6
:104D600002230022B1F90E1000F040F8A389324668
:104D700023F48053A38128463B46B4F90E10BDE8C6
:104D8000F04100F057B810B50C46B1F90E1000F024
:104D90002DF8431CA38915BF606523F4805343F4A9
:104DA0008053A38118BFA38110BDB1F90E1000F08C
:104DB0000DB803460244934200D1704703F8011B2B
:104DC000F9E70000004870477401002038B500235F
:104DD000054D044608462B60FCF70BFE431C02D130
:104DE0002B6803B1236038BD5404002038B5044655
:104DF000084611460022054D2A601A46FCF71DFEA2
:104E0000431C02D12B6803B1236038BD5404002039
:104E100038B50446084611460022054D2A601A4658
:104E2000FCF7AEFD431C02D12B6803B1236038BDF3
:104E30005404002038B50446084611460022054DAA
:104E40002A601A46FCF7B9FD431C02D12B6803B156
:104E5000236038BD54040020014B1868704700BF20
:104E60003400002070B500260C4D0D4C641BA410BE
:104E7000A64209D102F06EF800260A4D0A4C641BC6
:104E8000A410A64205D170BD55F8043B98470136E1
:104E9000EEE755F8043B98470136F2E7A87300089F
:104EA000A8730008A8730008AC7300087047704727
:104EB0007047034610B5C9B202449342184601D167
:104EC000002003E0047801338C42F6D110BD2DE9B7
:104ED000F74F03690C690746A3427EDB013CA30040
:104EE00000F1140501F11408009305EB840301930C
:104EF00058F8243055F8242001339A42B2FBF3F6D7
:104F000008EB84092ED34FF0000AC446AE46D346C0
:104F10005CF8043B98B206FB00A01B0C020C06FBDD
:104F20000323DEF8002080B292B2121A5A44DEF84F
:104F300000004FEA134A9BB2C3EB224303EB10433A
:104F400092B242EA0342E1454FEA234B4EF8042B6A
:104F5000DED2009BEB582BB9019B043B9D421A46C5
:104F60002FD33C61384601F079F9002825DB29462A
:104F7000002058F8042BD1F800C01FFA82FE1FFA57
:104F80008CF3A3EB0E030344120CC2EB234202EB9F
:104F90001C429BB243EA0243C1454FEA224041F81A
:104FA000043BE6D255F8242005EB840322B9043BE8
:104FB0009D421A460BD33C610136304603B0BDE832
:104FC000F08F1268043B002ACBD1013CC6E712687F
:104FD000043B002AEFD1013CEAE70020EEE70000A5
:104FE0002DE9F04F14461D46C76997B08346CDE9B9
:104FF0000245239E7FB9102000F002FE0246CBF846
:105000001C0020B9EF21A84BA84801F067FCC0E9BB
:1050100001770760C760DBF81C30196859B15A681E
:10502000012393404A608B60584600F0DFFE002267
:10503000DBF81C301A602B1EAFBF0023012223F0C7
:1050400000430393A8BF3360DDF80C80984BB8BFD2
:10505000326033EA080312D142F20F73229A1360CE
:10506000C8F31303234300F05085249BDFF844A2C8
:10507000002B00F052850AF1030300F04CBDDDE97E
:105080000223CDE90C23DDE90C0100220023FBF70C
:105090008BFC074658B10123229A1360249B13B15D
:1050A000854B249A1360DFF814A200F036BD14ABD0
:1050B000019315AB00935846DDE90C2301F07EF90E
:1050C000C8F30A568146002E77D0DDE90C010D9B0E
:1050D000A6F2FF36C3F3130343F07F5343F44013A8
:1050E000129719460022764BFBF73EF868A3D3E9E6
:1050F0000023FBF7F1F968A3D3E90023FBF736F8A7
:10510000044630460D46FBF77DF965A3D3E900233D
:10511000FBF7E2F902460B4620462946FBF726F844
:1051200004460D46FBF788FC002207460023204674
:105130002946FBF743FC40B13846FBF763F92246AA
:105140002B46FBF731FC00B9013F162F53D8DDE9A0
:105150000C015C4B03EBC703D3E90023FBF72EFCE8
:1051600000284AD00023013F0F93149B9B1B5A1E1B
:1051700046BFC3F1010800234FF00008099248BF61
:105180000993002F3BDB099B0E973B4409930023B7
:105190000A93209B092B66D8052BC4BF043B2093A0
:1051A000209BC8BF0024A3F10203D8BF0124032B16
:1051B00064D8DFE803F02B383656DDE914631E446B
:1051C00006F23243202BC1BFC3F1400308FA03F8B3
:1051D00006F2124324FA03F3D6BFC3F1200348EAD0
:1051E000030004FA03F0FBF7FDF80122A1F1F873C4
:1051F000013E129275E70123B6E70F90B5E77B42B7
:105200000A930023A8EB07080E93C2E700230B9331
:10521000219B002B35DC01231A46CDE9073321926F
:105220000BE00123F3E700230B93219BFB1808936A
:105230000133012B0793B8BF012300210422DBF8BF
:105240001C0002F114059D421FD94160584600F030
:105250008DFD8246002839D1024640F2AF111A4B2B
:10526000D2E60123E0E7012400230B9420934FF0C2
:10527000FF330022CDE907331223D0E701230B933C
:10528000F5E7219BCDE90733D7E701315200D8E795
:1052900061436F63A787D23FB3C8608B288AC63F3C
:1052A000FB799F501344D33F6F700008867000084D
:1052B0000000F07F6B7000083F7000083E7000082F
:1052C0000000F83F80710008DE700008DBF81C3039
:1052D0001860079B0E2B00F2A480002C00F0A18028
:1052E000002F33DD864B07F00F0203EBC203F805F6
:1052F000D3E90034CDE904344FEA271416D5DDE9AB
:105300000C01804B0326D3E90823FBF70FFACDE904
:10531000020104F00F047B4D54B9DDE90423DDE9FB
:105320000201FBF703FACDE9020128E00226F2E7C9
:10533000E10708D5DDE90401D5E90023FBF7CCF846
:10534000CDE90401013664100835E5E700F0D280AC
:10535000DDE90C017C426A4B04F00F0203EBC2034F
:10536000D3E90023FBF7B8F802260023CDE90201B8
:10537000644D2411002C40F0B280002BD3D1DDE924
:1053800002450F9B002B00F0B780002220462946E3
:105390005D4BFBF713FB002800F0AE80079B002B52
:1053A00000F0AA80089B002B37DD7B1E204604936B
:1053B00000222946554BFBF78FF8CDE90201089CE6
:1053C00001363046FBF71EF8DDE90223FBF784F8CF
:1053D00000224F4BFAF7CAFE0546A1F15076002C89
:1053E00040F09A80DDE9020100224A4BFAF7BCFE48
:1053F00002460B46CDE902232A463346FBF7FCFA68
:10540000002840F08E82DDE902012A4606F10043C1
:10541000FBF7D4FA002840F02781DDE90C34CDE910
:105420000234159B002BC0F263810E2F00F36081C4
:10543000334B03EBC703D3E90034CDE90434219B9C
:10544000002B03DA079B002B40F30081DDE90245C6
:105450005646DDE9042320462946FBF767F9FBF7AA
:10546000EBFA8046FAF7CEFFDDE90423FBF734F8C8
:1054700002460B4620462946FAF776FE08F130042C
:10548000079D06F8014BA6EB0A04A54202460B460F
:1054900040F01681FAF76AFEDDE9042304460D4662
:1054A000FBF7AAFA002840F0F880DDE90423204643
:1054B0002946FBF779FA18B118F0010F40F0ED809A
:1054C0004946584600F092FC00233370229B013776
:1054D0001F60249B002B00F020831E601DE3E20769
:1054E00005D5D5E90023FAF7F7FF0123013664104B
:1054F00008353FE7022642E7079C049761E700BFB3
:1055000080710008587100080000F03F000024403E
:1055100000001C4000001440704B0B9903EBC403C7
:1055200053E902235444002945D000206C49FBF77D
:10553000FDF833462A46FAF717FE5646CDE9100124
:10554000DDE90201FBF778FA0546FAF75BFF024650
:105550000B46DDE90201FAF707FE02460B4630353D
:10556000CDE90223DDE9102306F8015BFBF726FAFB
:10557000002863D1DDE9022300205A49FAF7F4FD3F
:10558000DDE91023FBF71AFA002840F08780A642D5
:105590003FF443AFDDE910010022534BFAF79CFFC3
:1055A0000022CDE91001DDE902014F4BFAF794FF2B
:1055B000CDE90201C4E731462846FAF78DFF564689
:1055C000CDE910011394DDE90201FBF735FA054638
:1055D000FAF718FF02460B46DDE90201FAF7C4FDAF
:1055E00002460B46303506F8015BA642CDE90223A0
:1055F0004FF0000224D1DDE91001394BFAF7B6FD76
:1056000002460B46DDE90201FBF7F6F9002845D119
:10561000DDE9102300203249FAF7A6FD02460B46C9
:10562000DDE90201FBF7CAF900283FF4F6AE139E4C
:10563000731E139316F8013C302BF8D0049F3FE7FC
:10564000294BFAF749FFCDE90201BCE70CD1DDE9AE
:1056500004010022254BFAF73FFFDDE90223FBF7A7
:10566000C1F9002800F05B8100242546219B5646A5
:10567000DB43049300272146584600F0B7FB002D7A
:10568000DCD02FB1AF4203D03946584600F0AEFB14
:105690002946584600F0AAFBD0E7049733461E4639
:1056A00013F8012D392A07D19A45F8D1049A01320D
:1056B000049230228AF800201A7801321A70BDE76D
:1056C0000022094BFAF708FF0022002304460D468A
:1056D000FBF76AF900283FF4BCAEF1E680710008E0
:1056E0000000E03F0000F03F0000244000001440B4
:1056F0000B9A002A00F0DB80209A012A00F3BF8079
:10570000129A002A00F0B78003F2334346460A9CFF
:10571000099A01211A4458469844099200F01AFC4B
:1057200005465EB1099B002B08DDB342A8BF334696
:10573000099AA8EB0308F61AD31A09930A9BF3B146
:105740000B9B002B00F0B7808CB1294622465846AF
:1057500000F0BEFC4A4601460546584600F010FCE3
:1057600049460490584600F041FB049B99460A9B29
:105770001A1B04D04946584600F0AAFC8146012174
:10578000584600F0E7FB0E9B0446002B00F0C98151
:105790001A460146584600F09BFC209B0446012B0C
:1057A00000F38F80029B002B40F08780039BC3F3A4
:1057B0001303002B40F08380039B23F000431B0D59
:1057C0001B052BB1099B08F1010801330993012343
:1057D0000A930E9B002B00F0AA81236904EB83033C
:1057E000186900F06BFBC0F12000099B184410F011
:1057F0001F0071D0C0F12003042B65DD099BC0F1AF
:105800001C000344804406440993B8F1000F05DDF1
:1058100049464246584600F0B5FC8146099B002B9C
:1058200005DD21461A46584600F0ACFC04460F9BA5
:10583000002B53D02146484600F010FD00284DDAD9
:105840007B1E494604930A220023584600F0F0FAD2
:105850000B9B8146002B00F06C81002329460A2215
:10586000584600F0E5FA089B0546002B61DC209BBA
:10587000022B3BDC5DE0149BC3F1360346E7079B3C
:105880005C1E0A9BA342BFBF0A9B0E9AE31AD21862
:10589000A8BF1C1B079BBEBF0A940E920024002BBE
:1058A000B5BFA8EB030646460023079B30E74646F4
:1058B0000A9C0B9D35E70A9A5CE7002388E7029B68
:1058C00086E700230A9388E79FD0099A1C331A447D
:1058D00098441E44099298E70346F6E7079B04970D
:1058E000002B20DC0893209B022B1EDD089B002B45
:1058F0007FF4BCAE21460522584600F099FA0146D5
:105900000446484600F0AAFC00287FF7AFAE3123DA
:10591000564606F8013B049B01330493AAE6079C14
:1059200004972546F3E7079B08930B9B002B00F099
:105930000481002E05DD29463246584600F022FC3F
:1059400005460A9B002B5AD05846696800F00EFAAB
:10595000064628B9024640F2EF21834BFFF754BBBD
:105960002A6905F10C01023292000C3000F0A8FF08
:1059700001223146584600F005FC2F4605460AF143
:1059800001030793089B53440B93029B03F001030D
:105990000A93079B2146013B48460293FFF797FA7B
:1059A0003946089000F13008484600F057FC2A4676
:1059B00009902146584600F06DFCC268064602BBBD
:1059C0000146484600F04AFC0246314658460C92D1
:1059D00000F00CFA209B0C9A079E43EA02010A9BF6
:1059E000194310D1B8F1390F29D0099B002B02DDE2
:1059F000089B03F13108029B83F800803BE62846B0
:105A0000BBE70122E1E7099B002B04DB20990B4354
:105A10000A990B4320D1002AEDDD49460122584660
:105A200000F0B0FB2146814600F018FC002803DCA2
:105A3000E1D118F0010FDED0B8F1390FD8D13923F8
:105A4000029A137033461E4616F8012C013B392A80
:105A500052D001321A700EE6002A07DDB8F1390F74
:105A6000EDD0029A08F10103137004E6079B079A30
:105A700003F8018C0B9B934228D0494600230A224D
:105A8000584600F0D5F9AF4281464FF000034FF081
:105A90000A023946584607D100F0CAF907460546BA
:105AA000079B0133079374E700F0C2F929460746C4
:105AB00000230A22584600F0BBF90546F0E7089B90
:105AC0000027002BCCBF1E46012656444946012222
:105AD000584600F057FB2146814600F0BFFB0028E6
